:020000040800F2
:10000000C0410020450100084D0100084F010008D3
:1000100051010008530100085501000800000000CC
:100020000000000000000000000000005701000870
:1000300059010008000000005B0100085D01000894
:100040005F0100085F0100085F0100085F01000810
:100050005F0100085F0100085F0100085F01000800
:100060005F0100085F0100085F0100085F010008F0
:100070005F0100085F0100085F0100085F010008E0
:100080005F0100085F0100085F0100085F010008D0
:100090005F0100085F0100085F010008450F0008CC
:1000A0005F0100085F0100085F0100085F010008B0
:1000B0005F0100085F0100085F0100085F010008A0
:1000C0005F0100085F0100085F0100085F01000890
:1000D0005F010008191A0008251B0008CD1B000845
:1000E0005F0100085F0100085F0100085F01000870
:1000F0005F0100085F0100085F0100085F01000860
:100100005F0100085F010008B11600085F010008E8
:100110005F0100085F0100085F0100085F0100083F
:100120005F0100085F0100085F0100085F0100082F
:10013000DFF80CD000F0A6FC00480047596F00081B
:10014000C04100200648804706480047FEE7FEE71A
:10015000FEE7FEE7FEE7FEE7FEE7FEE7FEE7FEE777
:10016000511600083101000840EA01039B0703D043
:1001700009E008C9121F08C0042AFAD203E011F8E6
:10018000013B00F8013B521EF9D27047D2B201E0A8
:1001900000F8012B491EFBD270470022F6E710B58C
:1001A00013460A4604461946FFF7F0FF204610BDE5
:1001B000421C10F8011B0029FBD1801A704710B5B2
:1001C000002200E0521C835C8C5CA34201D1002B16
:1001D000F8D1D8B2E1B2401A10BD70B5064601F0B0
:1001E0003BFE046805460A220021304600F04DFB24
:1001F0002C6070BDF0B480EA0102D40F4200B2EB73
:10020000410F02D20246084611464A0042D0C30DB1
:10021000DDB2C1F3C752AD1A202D35DAC1F3160194
:1002200041F4000204B15242C5F1200602FA06F17F
:100230002A411044B3EBD05F23D0C4B1012DA0EB11
:10024000C35009DCF0BC4FF0004202EAC352DBB2FB
:1002500000F5000000F05ABB400000F1807000EB98
:10026000C350A0F1807040EAD170490009E049080C
:1002700041EAC071A0EBC35000F50000400800EB5C
:10028000C350F0BC00F039BB6142012202EB4101D6
:10029000001BF6E7F0BC704781F00041AAE780F050
:1002A0000040A7E780EA010210B502F000434000D9
:1002B00022D04A001FD0010E01EB1261C0F356009C
:1002C000C2F3560240F4000042F40002A0FB0220F8
:1002D00000047F39140400D0401C50EA124001D4BD
:1002E0004000491EC2B20C0604EBD010401C40086E
:1002F000802A02D003E0002010BD20F00100002978
:1003000000DA0020184310BD30B480EA010202F088
:10031000004530F0004221F0004013D090B1C30DF1
:10032000D40DC2F31601C0F31600E41A41F4000123
:1003300040F400027D34914201D3641C00E0490086
:10034000002C02DA30BC002070474FF4000000237C
:10035000914201D3891A034340084FEA4101F7D182
:1003600051B1914202D14FF0004105E002D24FF06D
:10037000010101E06FF0010103EBC450284430BCDF
:1003800000F0BBBA2DE9FE4F804681EA0300C00FA2
:100390000C46009021F0004123F00045B8EB02002C
:1003A000A94105D24046214690461C460B460246CE
:1003B00023F00040104347D0270DC7F30A00C3F3D2
:1003C0000A510290401A019040286BDAC3F31300DF
:1003D00040F4801B0098924620B10023D2EB030A20
:1003E00063EB0B0B01985946C0F14002504600F0F8
:1003F0001BFA06460D4650465946019A00F033FA5C
:1004000010EB08006141002487EA115284EAE77387
:100410001A4340D0009A62B3019A012A4FEA075268
:1004200015DC001B61EB02014FF0004202EA0752AB
:10043000CDE90042001C41F5801132462B4600F008
:10044000A2FA03B0BDE8F08F40462146F9E7001B51
:1004500061EB0201001C41F5801300185B4120187C
:10046000A2F5001747EB030140EAD570B6196D41BC
:1004700011E06D084FEA360645EAC0754FEA0752AB
:10048000001B61EB0201001C41F5801149084FEA95
:1004900030000019514132462B4603B0BDE8F04F01
:1004A00000F062BA0098012240000023D0EB020263
:1004B00063EBE073009821464FEAE074B8EB00006C
:1004C00061EB0401E9E783F000435BE781F0004161
:1004D00058E72DE9FE4F81EA030404F0004421F0BF
:1004E000004100944FF0000B23F0004350EA010458
:1004F0005ED052EA03045BD0C3F30A54C1F30A5539
:100500002C44A4F2F3340194A0FB0254C1F3130170
:1005100041F48011C3F3130343F4801301FB02443D
:1005200000FB034E840A970A44EA815447EA835742
:10053000A4FB076802958D0A05FB07854FEA932CFB
:1005400004FB0C542705029D4FEA065847EA16376C
:10055000B5EB08056EEB070C870E920E47EA811784
:1005600042EA8312A7FB0201B6EB0B0164EB000425
:100570002B0D43EA0C335E1844EB1C50DA4651460F
:10058000E7FB0201C5F313044FEA0B3343EA1453AC
:100590004FEA0432019C43EA0603A4F10C040294DE
:1005A000009CCDE900B400F0EEF903B0BDE8F08F97
:1005B00000200146F9E72DE9F04D81EA030404F03B
:1005C000004B21F0004514464FF0000A23F0004193
:1005D00050EA050220D054EA01021DD0C5F30A57A3
:1005E0000246C5F31303C1F31300C1F30A5640F4E6
:1005F000801543F48013A7EB0608101BD64608F2BB
:10060000FD3873EB050002D308F1010801E09218F0
:100610005B41B8F1000F03DA00200146BDE8F08D20
:1006200000204FF48011064684460EE0171B73EB42
:10063000050705D3121B63EB050306434CEA010CC7
:1006400049084FEA300092185B4150EA0107EDD1AA
:1006500052EA030012D082EA040083EA050108434B
:1006600005D0101BAB4106D20122002306E0002278
:100670004FF0004302E06FF0010253101AEB060046
:100680004CEB085110EB0A0041EB0B01BDE8F04DBB
:1006900000F06AB9C10F80EAE0700844CA079623E7
:1006A000002100F033B996230022114600F02EB944
:1006B00000F0004220F00040C10DC0F3160040F4ED
:1006C00000007F2901DA00207047962903DCC1F180
:1006D0009601C84001E096398840002AF4D0404293
:1006E000704720F00040C10DC0F3160040F4000038
:1006F0007F2901DA00207047962903DCC1F19601B9
:10070000C8407047963988407047C1F30A5210B507
:10071000C1F3130140F2FF3341F480119A4201DA30
:10072000002010BD40F233439A42A2F2334203DC70
:10073000524200F088F810BD904010BD00F0004219
:1007400030F000400AD0C10D01F56071C0F3160011
:1007500042EA0151C2084007114370470020014698
:10076000704701F0004330B421F0004150EA01022B
:1007700006D00A0DA2F56072C1F31301002A02DC53
:1007800030BC00207047440F44EAC104C100E018A7
:1007900030BC00EBC25000F0B0B830B50B4601469B
:1007A00000202022012409E021FA02F59D4205D310
:1007B00003FA02F5491B04FA02F52844151EA2F1BA
:1007C0000102F1DC30BD2DE9F05F054600209246C4
:1007D0009B4688460646814640241BE02846414603
:1007E0004746224600F02FF853465A46C01A914118
:1007F00010D311461846224600F016F82D1A67EB62
:1008000001084F4622460120002100F00DF817EBA9
:1008100000094E41201EA4F10104DFDC48463146A8
:100820002A464346BDE8F09F202A04DB203A00FA1E
:1008300002F1002070479140C2F1200320FA03F337
:10084000194390407047202A04DB203A21FA02F035
:100850000021704721FA02F3D040C2F120029140FA
:10086000084319467047202A06DBCB17203A41FA85
:1008700002F043EAE07306E041FA02F3D040C2F12D
:10088000200291400843194670472DE9F0479146F0
:100890000F4680460446002614F8015B2DB100F097
:1008A00003F90068405DC007F6D12B2D02D02D2D35
:1008B00018D0641E4A463946204600F0F9F827B1A0
:1008C0003968A14201D1C7F8008071054FF00204D8
:1008D0000BD54042002803DD01F0BEFA0460A007FA
:1008E000BDE8F08746F48066E4E70028F8DA01F016
:1008F000B3FA04606FF00040F2E70029A8BF704728
:10090000401C490008BF20F00100704710B4B0FA45
:1009100080FC00FA0CF050EA010404BF10BC7047E0
:1009200049B1CCF1200421FA04F411FA0CF118BFFA
:10093000012121430843A3EB0C01CB1D4FEA0061C9
:100940004FEA102042BF002010BC704700EBC3509C
:1009500010440029A4BF10BC7047401C490008BFC8
:1009600020F0010010BC704710B5141E73F1000494
:1009700008DA401C41F1000192185B411A4301D191
:1009800020F0010010BD2DE9F04D92469B4611B1BB
:10099000B1FA81F202E0B0FA80F220329046FFF71D
:1009A00043FF04460F4640EA0A0041EA0B01534662
:1009B0005A46084313D0114653EA010019D0C8F132
:1009C00040025046FFF73FFF05460E465046594647
:1009D0004246FFF729FF084305D0012004E02046E6
:1009E0003946BDE8F08D0020054346EAE0762C4309
:1009F00037430A986305E40AA0EB08000022FD0AC9
:100A000044EA47540A3002D500200146E9E70105CF
:100A100010196941DDE9084500196941BDE8F04D4B
:100A2000A2E7C1F30A52C1F3130140F2FF3341F4CC
:100A300080119A4202DA00200146704740F23343A7
:100A40009A42A2F2334202DC5242FFF7FCBEFFF7A9
:100A5000EBBE000030B5041E71F1000404DB4FF062
:100A60000044404264EB0101141E73F1000405DBF5
:100A70001C464FF00043524263EB0403994208BF07
:100A8000904230BD064C074D06E0E06840F001039F
:100A900094E8070098471034AC42F6D3FFF74CFBBC
:100AA00054A5000874A500080048704758A0000825
:100AB0002DE9F05F82460078002715468B460AF143
:100AC0000104B946302801D09DB113E014F8010BA0
:100AD0000127782803D0582801D045B10AE00DB18C
:100AE000102D07D10027102514F8010B02E008256E
:100AF00000E00A250026B0460EE005FB080005FBD5
:100B000006F1012701EB10461FFA80F8B6F5803F89
:100B100000D3B94614F8010B294600F018F8002854
:100B2000EBDABBF1000F05D00FB1641E00E05446B4
:100B3000CBF80040B9F1000F06D001F08DF9022189
:100B40000160C81EBDE8F09F48EA0640FAE73A286F
:100B500000D2303820F02002412A01D3A2F1370020
:100B6000884201D34FF0FF30704770B58C1810F8F1
:100B7000015B15F0070301D110F8013B2A1106D1E2
:100B800010F8012B03E010F8016B01F8016B5B1EFC
:100B9000F9D12B0705D40023521E0DD401F8013BD7
:100BA000FAE710F8013BCB1A921C03E013F8015B43
:100BB00001F8015B521EF9D5A142D8D3002070BDC7
:100BC00021B1826842F00102826003E0826822F073
:100BD00001028260704721B1826842F480728260B3
:100BE00003E0826822F480728260704710B5044688
:100BF0001248844208D10121401500F0F5FB002184
:100C0000601500F0F1FB17E00D48844208D1012186
:100C1000001500F0E9FB0021201500F0E5FB0BE0DA
:100C20000848844208D10121C80300F0DDFB0021FF
:100C30004FF4004000F0D8FB10BD0000002401403C
:100C400000280140003C0140014600208A6802F073
:100C500004020AB1012000E0002070470146002094
:100C60008A6802F008020AB1012000E00020704703
:100C700030B502460020002350680F4C20400D790B
:100C80000C6844EA05242043506090680B4C2040D7
:100C9000D1E902542C434D7944EA45042043906045
:100CA000D06A20F470000C7C641EE4B2234340EA56
:100CB0000350D06230BD0000FFFEF0FFFDF7F1FFF2
:100CC000F0B504460D4600200021092D11DDE06835
:100CD000A5F10A0606EB4607072606FA07F1884340
:100CE000A5F10A0606EB460603FA06F10843E060A2
:100CF0000CE0206905EB4507072606FA07F1884353
:100D000005EB450603FA06F108432061072A0FDACE
:100D1000606B561E06EB86071F2606FA07F188430E
:100D2000561E06EB860605FA06F10843606322E0CC
:100D30000D2A0FDA206BD61F06EB86071F2606FA50
:100D400007F18843D61F06EB860605FA06F108432D
:100D5000206310E0E06AA2F10D0606EB86071F266D
:100D600006FA07F18843A2F10D0606EB860605FA9E
:100D700006F10843E062F0BD816841F0080181603E
:100D8000704721B1826842F4A002826003E0826869
:100D900022F4A00282607047816841F00401816002
:100DA000704721B1026842F00102026004E002686B
:100DB0004FF6FE731A4002607047000001684FF65C
:100DC000FE72114001600021016041608160C160DC
:100DD0004B49884208D14A490839496841F00F0116
:100DE000474A083A51608AE045491431884208D19F
:100DF00043490839496841F0F001414A083A5160D5
:100E00007DE03F492831884208D13D490839496889
:100E100041F470613A4A083A516070E038493C3117
:100E2000884208D136490839496841F47041344A4A
:100E3000083A516063E032495031884208D1304964
:100E40000839496841F470212D4A083A516056E04A
:100E50002B496431884208D129490839496841F44D
:100E60007001274A083A516049E0254978318842A3
:100E700008D123490839496841F07061204A083A8D
:100E800051603CE01F49884206D1011F096841F0CA
:100E90000F01021F116032E01A491431884208D153
:100EA0001849091F096841F0F001164A121F116024
:100EB00025E014492831884208D11249091F0968E0
:100EC00041F470610F4A121F116018E00D493C3166
:100ED000884208D10B49091F096841F47041094A49
:100EE000121F11600BE007495031884207D10549B4
:100EF000091F096841F47021024A121F11607047EE
:100F0000080002400804024010B50022026847F6BB
:100F1000F0739A430C6A8B6823430C6923434C6932
:100F200023438C692343CC6923434C6A23438C6A53
:100F300023431A430260CB6843600B6883604B68AD
:100F4000C36010BD10B54FF4807000F02DF801287B
:100F50001DD1000200F022F84FF480710C4800F01F
:100F600075F9A0B100F074FB04F09EF903F076FC73
:100F700000BF0848006800F4E06007490843001D0E
:100F800004490860BFF3408F00BF00BFFEE710BDFB
:100F9000001801400CED00E00000FA05014908606E
:100FA0007047000014040140014600200022074B56
:100FB0001B6803EA0102054B14331B680B4013B195
:100FC0000AB1012000E00020704700000004014049
:100FD000002123498279002A3AD00A461268036820
:100FE0009A430B461A600A1D126803689A430B1D48
:100FF0001A60027911440A6803681A430A60184AA1
:101000000832126803689A43154B08331A601A1D98
:10101000126803689A43124B0C331A604279102A03
:101020000ED11A1F126803681A430D4B08331A6059
:101030001A1D126803681A43094B0C331A600DE03D
:101040000749427911440A6803681A430A6005E0B7
:10105000027911440A6803689A430A6070470000E5
:101060000004014030B500228B071C0F0F2303FA48
:1010700004F20B4B8C1053F824309343084C8D1022
:1010800044F8253023468C1053F824308C07240F65
:1010900000FA04F42343024C8D1044F8253030BD8F
:1010A000080001402DE9F0410246002500260020FD
:1010B00000230024002791F803C00CF00F0591F8DD
:1010C00003C00CF0100CBCF1000F03D091F802C06B
:1010D0004CEA050591F800C0BCF1000F31D014684E
:1010E00000202BE04FF0010C0CFA00F3B1F800C027
:1010F0000CEA03069E4220D183004FF00F0C0CFA3D
:1011000003F7BC4305FA03FC4CEA040491F803C05E
:10111000BCF1280F06D14FF0010C0CFA00FCC2F80C
:1011200014C00AE091F803C0BCF1480F05D14FF09C
:10113000010C0CFA00FCC2F810C0401C0828D1D3E6
:101140001460B1F800C0BCF1FF0F34DD546800201A
:101150002EE000F1080C4FF0010808FA0CF3B1F88A
:1011600000C00CEA03069E4221D183004FF00F0C11
:101170000CFA03F7BC4305FA03FC4CEA040491F8AB
:1011800003C0BCF1280F05D100F1080C08FA0CF8D7
:10119000C2F8148091F803C0BCF1480F07D100F1E8
:1011A000080C4FF0010808FA0CF8C2F81080401C37
:1011B0000828CED35460BDE8F0810000F0B50A469F
:1011C000002300240021002500F00046B6F1004F66
:1011D00002D11D4EF16901E01B4E7168C0F3034559
:1011E00083B200F44016B6F5401F08D121F07061BB
:1011F000154E766826F07066134F7E6012E000F49C
:101200008016B6F5801F06D1032606FA05F4A14321
:1012100041F0706106E0460D360103FA06F6B1436F
:1012200041F0706122B1460D360103FA06F63143F2
:1012300000F00046B6F1004F02D1034EF16101E02B
:10124000014E7160F0BD0000000001400246002028
:1012500093680B400BB1012000E000207047416112
:1012600070470161704700004CF6CC4001490860AE
:1012700070470000003000404AF6AA20014908608B
:10128000704700000030004001494860704700008E
:101290000030004001498860704700000030004085
:1012A00001490860704700000030004070B500211F
:1012B00000230F22C47804B3154C246804F4E064BE
:1012C000C4F5E064210AC1F10403CA40447804FA79
:1012D00003F184781440214309010E4C0678A1558E
:1012E000047804F01F050124AC4005786D11AD00B1
:1012F00005F1E025C5F8004109E0047804F01F0578
:101300000124AC40044D0678761145F8264070BDA6
:101310000CED00E000E400E080E100E00249014360
:10132000024A1160704700000000FA050CED00E071
:1013300010B5024600200C4B186820F00300104343
:1013400018600A4B1B6843F00403084C2360012912
:1013500001D130BF00E020BF044B1B6823F0040321
:10136000024C236010BD00000070004010ED00E052
:1013700001460020034A506820F440400843506072
:10138000704700000010024029B1064A526902432A
:10139000044B5A6104E0034A52698243014B5A618B
:1013A000704700000010024029B1064AD26902438A
:1013B000044BDA6104E0034AD2698243014BDA61EB
:1013C000704700000010024029B1064A92690243AA
:1013D000044B9A6104E0034A92698243014B9A618B
:1013E000704700000010024029B1064AD26802434B
:1013F000044BDA6004E0034AD2688243014BDA60AE
:10140000704700000010024030B500210022002487
:1014100000232D4D6D6805F00C0121B1042905D084
:10142000082923D105E0294D056022E0274D0560FC
:101430001FE0254D6D6805F47012234D6D6805F4AD
:101440008034022505EB92421CB9214D55430560BD
:101450000BE01D4D6D6805F400351DB11C4D554365
:10146000056002E0194D5543056002E0174D056027
:1014700000BF00BF144D6D6805F0F0010909154D5E
:101480006B5C0568DD4045600F4D6D6805F4E061FB
:10149000090A104D6B5C4568DD4085600A4D6D683A
:1014A00005F46051C90A0B4D6B5C4568DD40C560B1
:1014B000054D6D6805F44041890B074D6B5CC568AF
:1014C000B5FBF3F5056130BD0010024000127A0053
:1014D00000093D00180000202800002010B501463A
:1014E0000022002300204A11012A02D1094C23685E
:1014F00006E0022A02D1074C236A01E0054C636A28
:1015000001F01F02012494401C400CB1012000E0B6
:10151000002010BD00100240014908607047000023
:10152000800442420448007820B104480068401C0E
:101530000249086070470000EC2E0020E82E0020D1
:1015400010B500F001F810BD0CB50020019000901E
:101550003348006840F480303149086000BF3048AB
:10156000006800F4003000900198401C0190009841
:1015700018B90198B0F5A06FF1D12948006800F4BE
:10158000003010B10120009001E000200090009890
:10159000012843D12348006840F010002149086029
:1015A0000846006820F0030008600846006840F024
:1015B000020008601A4840681949486008464068B7
:1015C00048600846406840F48060486008464068CB
:1015D00020F47C1048600846406840F4E8104860F9
:1015E0000846006840F08070086000BF0C48006842
:1015F00000F000700028F9D00948406820F003008E
:10160000074948600846406840F00200486000BF53
:101610000348406800F00C000828F9D10CBD000018
:101620000010024000200240042808D14FF0E021C1
:10163000096941F004014FF0E022116107E04FF029
:10164000E021096921F004014FF0E02211617047A7
:1016500010B51348006840F00100114908600846C1
:101660004068104908400E494860084600680E4925
:1016700008400B4908600846006820F48020086094
:101680000846406820F4FE0048604FF41F00886060
:10169000FFF756FF4FF000600449086010BD0000DE
:1016A000001002400000FFF8FFFFF6FE08ED00E02A
:1016B00010B50121074800F03BF850B1064800780A
:1016C00020F00100401C044908700121014800F08D
:1016D00011F810BD000C00409201002021B10288D9
:1016E00042F08002028004E002884FF67F731A40C5
:1016F00002807047CA430282704721B1028842F0DB
:101700000102028004E002884FF6FE731A40028054
:10171000704731B1B0F8442042F40042A0F84420B0
:1017200005E0B0F84420C2F30E02A0F84420704750
:1017300030B50246002000230024158A05EA010383
:10174000958905EA010413B10CB1012000E00020E5
:1017500030BD1AB183890B43838102E083898B43B7
:101760008381704770B5002400220023058C4FF65A
:10177000FE7635400584028C8388048B4FF68F7586
:101780002C40B51E2C400D882C43751E2A400D8917
:101790002A434D882A43144DA8420BD0134DA8422A
:1017A00008D0134DA84205D0124DA84202D0124DC8
:1017B000A84213D14FF6F7752A404D892A434FF6B8
:1017C000FB752A408D882A434FF6FF652B404FF664
:1017D000FF552B408D892B43CD892B438380048378
:1017E000CD888586028470BD002C01400034014004
:1017F0000040014000440140004801400A460021E9
:10180000018B4FF6F77319401143018370470000B5
:1018100070B5002400220023058C4FF6EF7635408A
:101820000584028C8388048B48F6FF752C404FF6A4
:10183000FF452C400D884FF6FF7606EA05252C4320
:101840004FF6DF752A400D8906EA05152A434D88B3
:1018500006EA05152A43154DA84202D0144DA842A8
:101860001DD14FF67F752A404D894FF6FF7606EA67
:1018700005152A434FF6BF752A408D8806EA0515DF
:101880002A434FF6FF352B404FF2FF752B408D89D1
:1018900006EA85052B43CD8906EA85052B4383801F
:1018A0000483CD880587028470BD0000002C0140B0
:1018B000003401400A460021018B4FF2FF731940AA
:1018C0004FF6FF7303EA02231943018370470000B8
:1018D00070B5002200230024058C4EF6FF763540BB
:1018E0000584038C8488828B48F6FF752A404FF666
:1018F000FF452A400D884FF6FF7606EA05252A4364
:101900004DF6FF752B400D8906EA05352B434D88B2
:1019100006EA05352B430B4DA84202D00A4DA842DA
:1019200008D14BF6FF752C408D894FF6FF7606EAFD
:1019300085152C4384808283CD88A0F84050038491
:1019400070BD0000002C0140003401400A46002117
:10195000818B4FF2FF7319404FF6FF7303EA0223A6
:101960001943818370478186704701877047A0F8CB
:1019700040107047002202881D4B98420ED01D4B2C
:1019800098420BD0B0F1804F08D01B4B984205D045
:101990001A4B984202D01A4B984204D14FF68F73DB
:1019A0001A404B881A43174B984207D0164B98425F
:1019B00004D04FF6FF431A40CB881A4302808B882D
:1019C00083850B8803850A4B98420BD0094B9842BC
:1019D00008D00E4B984205D00D4B984202D00D4BCB
:1019E000984201D10B7A038601238382704700005D
:1019F000002C014000340140000400400008004079
:101A0000000C004000100040001400400040014065
:101A1000004401400048014010B540F225513B48C8
:101A200000F041F9002847D0384800F0F7F938496C
:101A300009884FF4967291FBF2F302FB1311354AB9
:101A40005054334800884FF4967190FBF1F201FB3B
:101A500012003049085C082824D12D48008802284B
:101A60001CDB2B4800884FF4967190FBF1F201FBD0
:101A70001200284900220A54254800884FF4967124
:101A800090FBF1F201FB1200401E224900220A5491
:101A90001F480088401E1E49088008E000201C499D
:101AA000088004E01A480088401C1949088040F268
:101AB0002551164800F0DCF840F22771134800F079
:101AC000F2F808B3144800884FF4967190FBF1F2D5
:101AD00001FB120011490C5C21460C4800F0A3F9EF
:101AE0000D480088401C0C4908800D480088401EA5
:101AF0000988884208DA002240F22771034800F082
:101B0000FCF800200449088010BD000000380140A6
:101B10009C010020682F0020A4010020C03100207B
:101B2000A201002010B540F22551224800F0BBF878
:101B3000A8B1204800F072F91F490988642291FB7E
:101B4000F2F302FB13111D4A50541B480088401C3D
:101B50001949088040F22551164800F089F840F2F2
:101B60002771144800F09FF810B3154800886421CD
:101B700090FBF1F201FB120012490C5C21460D486A
:101B800000F051F90E480088401C0D4908800E48AD
:101B90000088401E098888420ADA002240F2277134
:101BA000044800F0AAF800200549088006F01CFD52
:101BB00010BD0000004400409E0100209430002031
:101BC000AC010020EC320020AA01002010B540F248
:101BD0002551214800F067F8A8B11F4800F01EF910
:101BE0001E490988C82291FBF2F302FB13111C4A1B
:101BF00050541A480088401C1849088040F225516A
:101C0000154800F035F840F22771134800F04BF802
:101C100000B314480088C82190FBF1F201FB1200C8
:101C200011490C5C21460C4800F0FDF80D48008875
:101C3000401C0C4908800D480088401E09888842D5
:101C400008DA002240F22771034800F056F800201D
:101C50000449088010BD000000480040A001002099
:101C6000F8300020B401002050330020B2010020E1
:101C700010B50022002340F66A14A14200D100BF33
:101C80000A1201249440A3B2DC43048010BD21B1A8
:101C9000828942F40052828104E082894DF6FF730A
:101CA0001A408281704770B5024600240023002547
:101CB000002040F66A16B14200D100BFC1F34215C0
:101CC00001F01F03012606FA03F3012D02D19689C4
:101CD000334006E0022D02D1168A334001E0968A95
:101CE00033400C12012606FA04F41688344013B16E
:101CF0000CB1012000E0002070BDF0B503460024C7
:101D000000260025002040F66A17B94200D100BF26
:101D10001846C1F3421401F01F06012707FA06F521
:101D2000012C01D10C3004E0022C01D1103000E074
:101D300014301AB107682F43076002E00768AF4309
:101D40000760F0BD2DE9F04786B005460E46002439
:101D5000A24600BFA1460027B08900B100BF2F46B0
:101D60002C8A4CF6FF700440F08804432C82AC8926
:101D70004EF6F3100440B088318908437189084356
:101D80000443AC81AC8A4FF6FF400440B089044361
:101D9000AC8201A8FFF738FB1F48874202D1DDF86B
:101DA00010A001E0DDF80CA0A88900F4004040B1CB
:101DB0000AEBCA0000EB0A1031684900B0FBF1F8E9
:101DC00007E00AEBCA0000EB0A1031688900B0FB9B
:101DD000F1F86420B8FBF0F004012009642101FB54
:101DE0001089A88900F4004040B1322000EBC900FE
:101DF000B0FBF1F000F00700044308E0322000EBF4
:101E000009106421B0FBF1F000F00F0004432C81B5
:101E100006B0BDE8F0870000003801400146888820
:101E2000C0F308007047C1F30802828070470000C9
:101E30000FB4084B10B504A902AA039800F0D2F819
:101E4000044602A9002000F064FC204610BC5DF8A6
:101E500014FB00001327000800487047502F002093
:101E600002E008C8121F08C1002AFAD17047704763
:101E7000002001E001C1121F002AFBD170470000C1
:101E80002DE9FF5FDDE90220010DDDF838B00243E6
:101E900018D044F61050A1F2FF3141430D140F98B1
:101EA000012820D0A5EB0B00401C5FEA000A4FF090
:101EB0000004474EDFF81C91A046504616D5CAF1E3
:101EC000000728E00F98012443A2012808D0002130
:101ED00000980F9BC0E90021C0E90243BDE8FF9FC5
:101EE0006FEA0B01F4E7CBF10000DEE7074612E0F2
:101EF000F80707D02246334640464946FEF7E9FA3E
:101F0000804689462246334610461946FEF7E1FAD6
:101F100004460E467F10002FEAD1DDE90201BAF136
:101F2000000F42464B4602DAFEF7D3FA01E0FEF715
:101F300042FB04460E460022284BFEF78BFD03D8D9
:101F40004FF0FF30014607E00022254B2046314686
:101F5000FEF718FAFEF765FD102409E0002C0ADBF5
:101F60000A220023FEF72FFC019B30321A55641E13
:101F700050EA0102F2D1641C019AC4F11103144425
:101F80000F9A012A03D0012208430DD10AE0084329
:101F900004D000204FF0110B0F9080E7A3EB0B054E
:101FA0006D1E0DE05B4504DD4FF0000205F10105FB
:101FB00004E003DA4FF00002A5F10105002AECD09D
:101FC00000980F99C0E90231C0E9004586E700009A
:101FD000000024400000F03F300000000000F0430B
:101FE0000000E03F2DE9FF4F95B09B46894606462D
:101FF00000250FE2252877D100242746F84A012141
:10200000059400E0044316F8013F203B01FA03F079
:102010001042F7D130782A2811D06FF02F03307892
:10202000A0F13002092A16D8059A44F0020402EB06
:10203000820203EB42021044761C0590EFE759F848
:10204000042B0592002A03DA504244F40054059010
:1020500044F00204761C30782E2816D116F8010FB1
:1020600044F004042A280DD06FF02F023078A0F13C
:102070003003092B09D807EB870302EB4303C7188A
:10208000761CF3E759F8047B761C30786C280FD067
:1020900006DC4C2817D068280DD06A2814D104E03B
:1020A000742810D07A280FD10DE044F400140AE00F
:1020B00044F4801401E044F440147278824202D166
:1020C00004F58014761C761C307866280BD013DC5F
:1020D000582877D009DC002875D04528F6D0462846
:1020E000F4D047281AD19DE118E0632835D0642840
:1020F00079D0652812D195E1702873D008DC672863
:10210000F1D069286FD06E280DD06F2806D1B5E0C8
:1021100073282CD0752875D0782874D05A46179912
:1021200090476D1C75E1C4F30250022809D00328C2
:102130000DD0D9F8001004280DD00D6009F1040964
:1021400067E1D9F80010EA17C1E90052F6E7D9F8BB
:1021500000100D80F2E70D70F0E719F8041B8DF800
:10216000001000208DF80100EA46012003E059F834
:1021700004AB4FF0FF3061074FF0000102D40DE0D7
:1021800008F101018846B9420FDA8045F8DB1AF8F8
:1021900008100029F4D108E008F1010188468142C5
:1021A000FADB1AF808100029F6D105985B46A0EB77
:1021B000080721463846179A00F094FA284400EBA5
:1021C000080507E04DE029E10DE01AF8010B5A4639
:1021D00017999047B8F10108F7D25B462146384677
:1021E000179A13E142E00A220092C4F302524FF020
:1021F000000A022A08D059F804CB032A4FEAEC71EE
:102200000AD00DE029E02AE009F1070121F00702D8
:10221000F2E802C1914609E00FFA8CFC4FEAEC713A
:10222000042A03D14FFA8CFC4FEAEC71002907DA3B
:102230000A460021DCF1000C61EB02012D2202E0D4
:10224000220504D52B228DF80420012203E0E207A9
:1022500001D02022F7E7904659E00A2102E010223F
:102260000DE010214FF0000A00910BE010224FF01A
:10227000000A44F004040827009203E008224FF00B
:10228000000A0092C4F30252022A05D059F804CB86
:102290000021032A08D009E009F1070121F0070213
:1022A000F2E802C1914605E01FFA8CFC042A01D134
:1022B0000CF0FF0C4FF00008220728D5702806D03C
:1022C000009B83F0100353EA0A0305D00EE040227E
:1022D0008DF80420012208E05CEA010206D03022D9
:1022E0008DF804208DF8050002229046009B83F0B3
:1022F000080353EA0A030AD15CEA010201D162072A
:1023000005D530228DF804204FF001087F1E582893
:1023100004D034A003900EA802900DE036A0F9E797
:1023200053466046009AFEF74EFA84460398825C54
:102330000298401E029002705CEA0100F0D10298FF
:1023400006A9081A00F1200A600702D524F4803497
:1023500000E00127574502DDA7EB0A0000E000205E
:1023600000EB0A01009005984144401A0590E003F3
:1023700006D45B462146179A059800F0B3F9054448
:10238000002706E001A85A46C05D179990476D1CCA
:102390007F1C4745F6DBE0030CD55B462146179AC8
:1023A000059800F09FF9054404E030205A4617993B
:1023B00090476D1C0099481E00900029F5DC08E04C
:1023C000029802995A460078491C02911799904741
:1023D0006D1CBAF10001AAF1010AF1DC65E100000F
:1023E00009280100303132333435363738396162EB
:1023F00063646566000000003031323334353637AF
:1024000038394142434445460000000000F058F985
:102410000544761C307800287FF4ECAD19B02846CE
:10242000BDE8F08F620700D4062709F1070222F009
:10243000070CFCE80223E14603F000485FEA080CC1
:1024400002D00FF2702C0DE05FEA045C02D50FF2AF
:10245000682C07E05FEAC47C02D00FF2602C01E038
:10246000AFF2700C4FF0FF3823F00043CDF850C0AE
:1024700065280CD006DC452809D046281DD0472801
:102480003DD13DE0662818D067287ED138E0002194
:10249000112F01DB112000E0781CCDE9000106A915
:1024A0000EA8FFF7EDFCDDE90F010E9A0391002164
:1024B000009207F1010A04914DE04FF000400097AF
:1024C000CDE9011006A90EA8FFF7DAFCDDE90F023D
:1024D00003920E9B11990022DDF80CA00093049248
:1024E00011B9791C00EB010AB7EB0A0004D4C0F162
:1024F000FF3007F1010A0490AAEB0700019044E0C5
:10250000012F00DA01270021112F01DD112000E049
:102510003846CDE9000106A90EA8FFF7B1FCDDE9B8
:102520000F010E9A0391002104910092BA462107EF
:102530000CD40399514500DA8A46BAF1010F05DD42
:10254000009AAAF10101515C302908D0B84202DAA0
:1025500010F1040F06DA0121CDE9011015E0AAF10E
:102560000101E9E7002805DC049901440491AAEB84
:10257000000102E0411C514500DD8A460499401AE1
:10258000401C01904FF000400290200704D40198B5
:10259000504501DBCDF8048000208DF84F000298F3
:1025A0000DF14F07B0F1004F25D02B200E9002986F
:1025B0004FF0020800280CDA404202902D200E90C5
:1025C00007E00A210298FEF7E8F83031029007F898
:1025D000011DB8F10001A8F10108F2DC0298002801
:1025E000EFD1791E0E980870307800F0200040F08E
:1025F000450007F8020D12A8C01B00F10708149847
:10260000007800B1012000EB0A01019801EBE071B4
:1026100005984144401A401E0590E00306D45B46ED
:102620002146179A059800F05DF805441498007843
:1026300018B15A46179990476D1CE00324D55B46A4
:102640002146179A059800F04DF805441CE00498BF
:10265000002807DBDDE90301884203DD0098405CC8
:10266000179901E0179930205A469047049805F1D0
:102670000105401C04900198401E019004D12E20B9
:102680005A46179990476D1CBAF10001AAF1010A48
:10269000DDDC05E017F8010B5A46179990476D1CD1
:1026A000B8F10001A8F10108F4DC5B462146179A55
:1026B0000598ABE62D0000002B0000002000000074
:1026C0002DE9F041044600251E461746880404D42F
:1026D00005E039462020B0476D1C641EF9D5284618
:1026E000BDE8F0812DE9F041044600251E469046E4
:1026F000C80301D5302700E02027880404D505E071
:1027000041463846B0476D1C641EF9D52846BDE8E1
:10271000F0810A68531C0B60107070472DE9F0417E
:1027200005460E4600240A2D1AD2DFE805F00507FB
:10273000090B0D0F11131517002412E0052410E0EA
:1027400001240EE006240CE002240AE0072408E03D
:10275000032406E0082404E0042402E0092400E045
:1027600000BF00BFA6B10A2094FBF0F100FB1140AE
:10277000124931F810700A2094FBF0F100FB11406F
:102780000F4951F8208039464046FEF76AFD13E0B4
:102790000A2094FBF0F100FB1140084931F8107059
:1027A0000A2094FBF0F100FB1140054951F820800C
:1027B00039464046FEF753FDBDE8F0817C0100201C
:1027C0005401002010B50A484078C0F3800000B9D9
:1027D00010BD0748407820F004000549487000F01B
:1027E00011F800F0F3FB00F06DFE00BFF0E7000011
:1027F0009201002010B500F05DF800F01DFC00F023
:102800006BFE10BD10B500242348007838BB00F0E3
:1028100019FF00B300BF04E0002020490855601CE8
:10282000C4B2052CF8DB01201B4908701C490020AC
:1028300005F0CCFE1B49012005F0C8FE1A49022014
:1028400005F0C4FE1949032005F0C0FE1849042014
:1028500005F0BCFE1FE000200F4908701BE00024BB
:1028600017E00E48005D012806D1204603F040F92C
:1028700010B90320094908550848005D022806D10F
:10288000204603F035F910B9002004490855601CB2
:10289000C4B2052CE5DB10BD7B2E0020762E002077
:1028A0001D6B0008276B0008316B00083B6B0008AC
:1028B000456B000810B5002400BF04E004201F4948
:1028C0000855601CC4B2052CF8DB00240BE0204640
:1028D00003F0FAF828B14FF4FA720121204606F00D
:1028E000BFF9601CC4B2052CF1DB00F0ABFE00B3F5
:1028F000002404E0002011490855601CC4B2052CD6
:10290000F8DB01200E4908700E49002005F05EFE3C
:102910000D49012005F05AFE0C49022005F056FE33
:102920000B49032005F052FE0A49042005F04EFE33
:1029300002E000200249087010BD0000762E002041
:102940007B2E00201D6B0008276B0008316B0008F0
:102950003B6B0008456B000870B5BAB005460E46E3
:102960000024022E11D128780D280ED168780A286B
:102970000BD13AA001F0D4FF00203D4908703D4939
:1029800008703D4908703AB070BD00240BE0285D26
:102990000D2802D0285D202800D106E0285D2DA951
:1029A0000855601CC4B2B442F1DB00BF00202DA961
:1029B000085500244AE004EBC40000EB40002F4A15
:1029C00002EB8000011D2DA8FDF7F9FBB8BB04EB5D
:1029D000C40000EB4000294901EB800090F868003A
:1029E00048B904EBC40000EB40000A4652F820103E
:1029F00017A8884727E022480288224901A802F048
:102A000041FB582201A917A8FDF7AEFB9DF85C0019
:102A1000012815D104EBC40101EB4101174A02EB77
:102A2000810191F868101898884209D104EBC4001C
:102A300000EB400052F8201017A8884703E003E09D
:102A400011A001F06DFF9EE7601CC4B2692CB2D3E7
:102A50000DA001F065FF00BF95E70000636F6D6595
:102A600067656E6520636F6D6D616E643A0D0A0077
:102A7000F4010020F7010020F8010020FC010020F3
:102A80009C010020682F0020696E7661696C6420CB
:102A9000636F6D6D616E640D0A00000000B5ADF5E9
:102AA000097DFE48407800F0010010B90DF5097D60
:102AB00000BDFA48407820F00100F849487001F064
:102AC000EBFE30B1F6480188F648FFF745FF00F00D
:102AD000CBFDF548007800287CD0072003F09AFA57
:102AE0002C90FDF7E0FD2D90FDF728FECDE93C018F
:102AF000062003F08FFA2C90FDF7D5FD2D90FDF701
:102B00001DFECDE93A01052003F084FA2C90FDF773
:102B1000CAFD2D90FDF712FECDE93801042003F027
:102B200079FA2C90FDF7BFFD2D90FDF707FECDE95A
:102B30003601032003F06EFA2C90FDF7B4FD2D90C2
:102B4000FDF7FCFDCDE93401022003F063FA2C907F
:102B5000FDF7A9FD2D90FDF7F1FDCDE93201012032
:102B600003F058FA2C90FDF79EFD2D90FDF7E6FD41
:102B7000CDE93001002003F04DFA2C90FDF793FDD4
:102B80002D90FDF7DBFDCDE92E01DDE93C01CDE91E
:102B90000C01DDE93A01CDE90A01DDE93801CDE9B1
:102BA0000801DDE93601CDE90601DDE93401CDE9B1
:102BB0000401DDE93201CDE90201DDE93001CDE9B1
:102BC0000001BA493EA8DDE92E23FFF731F93EA8FE
:102BD00001F0A6FEB648007800287DD003F008FA80
:102BE00000287AD1B3A001F09BFE052002F07EFB05
:102BF000012002F0B7FD3D90002002F0B3FD3C90B3
:102C0000092003F041F83B90082003F03DF83A908A
:102C1000042003F0F3F93990042003F02DFA3890E2
:102C2000042003F023F93790042003F0FBF83690DA
:102C3000072003F029F83590062003F025F834909A
:102C4000032003F0DBF93390032003F015FA3290F0
:102C5000032003F00BF93190032003F0E3F83090E8
:102C6000052003F011F82F90042003F00DF82E90AA
:102C7000022003F0C3F92D90022003F0FDF92C90FF
:102C8000022003F0F3F82B90022003F0CBF82A90F7
:102C9000032002F0F9FF2990022002F0F5FF2890AE
:102CA000012003F0ABF92790012003F0E5F926900D
:102CB000012003F0DBF82590012003F0B3F8249005
:102CC000012002F0E1FF2390002002F0DDFF2290BE
:102CD000002003F093F901E03DE152E02190002053
:102CE00003F0CAF92090002003F0C0F81F900020E4
:102CF00003F098F81E90DDE93A23DDE93C10CDE9B8
:102D00001A23CDE91C10DDE93623DDE93810CDE9C1
:102D10001623CDE91810DDE93223DDE93410CDE9C1
:102D20001223CDE91410DDE92E23DDE93010CDE9C1
:102D30000E23CDE91010DDE92A23DDE92C10CDE9C1
:102D40000A23CDE90C10DDE92623DDE92810CDE9C1
:102D50000623CDE90810DDE92223DDE92410CDE9C1
:102D60000223CDE90410DDE92001CDE90001554938
:102D70003EA8DDE91E23FFF75BF83EA801F0D0FD79
:102D8000E9E051A001F0CCFD052002F0AFFA0120EE
:102D900002F0A0FC3D90002002F09CFC3C90092039
:102DA00002F072FF3B90082002F06EFF3A90042080
:102DB00003F024F93990042003F05EF938900420E0
:102DC00003F054F83790042003F02CF836900720D5
:102DD00002F05AFF3590062002F056FF349003208F
:102DE00003F00CF93390032003F046F932900320EE
:102DF00003F03CF83190032003F014F830900520E4
:102E000002F042FF2F90042002F03EFF2E9002209D
:102E100003F0F4F82D90022003F02EF92C900220FC
:102E200003F024F82B90022002F0FCFF2A900320EC
:102E300002F02AFF2990022002F026FF28900120AC
:102E400003F0DCF82790012003F016F9269001200A
:102E500003F00CF82590012002F0E4FF24900120FB
:102E600002F012FF2390002002F00EFF22900020BB
:102E700003F0C4F82190002003F0FEF82090002019
:102E800002F0F4FF1F90002002F0CCFF1E90DDE95D
:102E90003A23DDE93C10CDE91A231DE09201002020
:102EA0009C010020682F0020F4010020F0A30008FE
:102EB000F80100204D4F4445203A2044202D2D2D6F
:102EC000200000005CA000084D4F4445203A2043FC
:102ED000202D2D2D20000000CDE91C10DDE936232A
:102EE000DDE93810CDE91623CDE91810DDE93223EC
:102EF000DDE93410CDE91223CDE91410DDE92E23EC
:102F0000DDE93010CDE90E23CDE91010DDE92A23EB
:102F1000DDE92C10CDE90A23CDE90C10DDE92732DB
:102F200029992698CDE9073209910690DDE92332E7
:102F300025992298CDE9033205910290DDE920011F
:102F4000CDE9000105493EA8DDE91E23FEF770FF2B
:102F50003EA801F0E5FC00BFA8E500005CA0000869
:102F600000B5B5B000200D4908700D4908700D4935
:102F700008700D4908700D4908700DA00FA10122BD
:102F80000523CDE90021029003220F4903A8FEF793
:102F90004FFF03A801F0C4FC35B000BDF4010020D0
:102FA000F5010020F6010020F7010020F8010020C3
:102FB00030393A32323A3430000000004A616E2033
:102FC00031372032303230004CA1000810B50024D7
:102FD00000BF28E01548005D70B91548005D032862
:102FE0001FD1611DC8B202F06FFDD0B1012011499F
:102FF00008550E49085514E00D48005D032810D10E
:10300000611DC8B202F060FD58B10A48005D012898
:1030100007D1204603F04EFD00200649085503491C
:103020000855601CC4B2052CD4DB10BD812E0020D5
:10303000762E00207C2E0020002000BF06E000211C
:10304000044A1154044A1154411CC8B20528F6DB45
:10305000704700007C2E0020812E002010B50F4804
:103060000078C0F3801000B910BD0C48007820F043
:1030700040000A49087006F0CDFB00F0A3FC03F005
:103080000DF800B9F0E702F0B3FF012802D100F01B
:10309000F7FC01E001F050FC00BFE5E792010020E1
:1030A00010B5002400BF0FE04FF0FF30144921F8A5
:1030B00014000020134921F81400134921F81400CA
:1030C00012490855601CC4B20A2CEDDB002406E04E
:1030D00000200F4908550F490855601CC4B2022C46
:1030E000F6DB002005F060FF00200B4908700B495B
:1030F000087006F0EBFB00F0ABFC04F0DBF810BD51
:103100001A3C0020423C0020563C0020103C00208D
:103110006F2E0020512E0020532E0020542E002010
:103120002DE9F047B6B0002400250026A1469948B5
:103130004078C0F3801010B936B0BDE8F0879548EC
:10314000407820F0400093494870FEF7EBF9924830
:10315000007820B1012803D0022800D14FE015E10A
:103160008E480078052190FBF1F201FB1200C7B2F6
:103170000021384606F018FC8848007840000A21F3
:1031800090FBF1F201FB1200C7B2384602F042FF99
:10319000044682480078012101EB40000A2190FB9F
:1031A000F1F201FB1200C7B2384602F033FF0546C8
:1031B000AC4202DD601B06B201E0281B06B2B4F58A
:1031C000AF7F1BDAB5F5AF7F18DA0A2E16DA74482E
:1031D0000480458071480078052190FBF1F201FBE5
:1031E0001200C7B20121384606F0DEFB02206A4910
:1031F00008706CA001F094FB05F0EEF9C6E072488F
:10320000007800282AD17148007840BB63480078D4
:1032100040000A2190FBF1F201FB1200C7B24FF40B
:103220007A71384605F0A0FE5C480078012101EB78
:1032300040000A2190FBF1F201FB1200C7B24FF4EB
:103240007A71384605F090FE05F064FF01205F4971
:1032500008705FA001F064FB05F0BEF995E002F094
:103260007DF91428FAD94D48007840000A2190FBD6
:10327000F1F201FB1200C7B20021384605F074FEDE
:1032800046480078012101EB40000A2190FBF1F251
:1032900001FB1200C7B20021384605F065FE06F0BA
:1032A0006DF93E48007840000A2190FBF1F201FBE5
:1032B0001200C7B2384602F0ADFE04463748007827
:1032C000012101EB40000A2190FBF1F201FB120009
:1032D000C7B2384602F09EFE0546601B06B22F4874
:1032E000027845A104A8FEF7A3FD04A801F018FB8D
:1032F00005F072F92A4840888DE831002848038893
:10330000142243A104A8FEF793FD04A801F008FBD2
:1033100005F062F92846FDF7C6F980462046FDF71C
:10332000C2F982464146FCF7B7FF07464849FCF719
:10333000EBFF81464846FDF701FA3246CDE9000130
:1033400044A104A8FEF774FD04A801F0E9FA05F011
:1033500043F90020104908704548007860B10F48D3
:103360000078052808DA0D480078401C0B490870E1
:10337000012005F0B5FE08E00020084908703DA0D6
:1033800001F0CEFA00201149087000BF00BF00BF55
:10339000D2E6000092010020F42E0020EE2E002044
:1033A000F02E00207265706F7274203A2074656D83
:1033B00070207072657061726520737563636573E8
:1033C00073202E2E2E0D0A00F52E0020EF2E002049
:1033D0007265706F7274203A2074656D702075701C
:1033E0002073746172742073756363657373202E28
:1033F0002E2E0D0A00000000484452205245504F26
:10340000525420524F41442025640D0A0000000010
:103410007573696E672074696D202564205320667A
:10342000756C6C20706F776572206F706572617457
:10343000696F6E2074656D702066726F6D202564F3
:103440002D256420746F2025642D25640D0A00004D
:103450000000A041484452203D20256420484452A9
:103460005F52415445203D20252E3266200D0A0032
:10347000ED2E00202D2D2D2D2D2D4844522052456E
:10348000504F525420454E442D2D2D2D2D0D0A0008
:103490000020064908600649087006490870064978
:1034A000087006490870064908707047E82E002029
:1034B000EC2E0020ED2E0020EE2E0020F42E002019
:1034C000EF2E002010B504F0ADFE04F0A9FD04F0CD
:1034D0005FFE05F0DDFD10BD10B500200449088039
:1034E0000449088003F0A8FA04F04CFE10BD000067
:1034F000862E0020882E002000B599B064221D4938
:103500006846FCF731FE1C484078C0F3001008B94B
:1035100019B000BD1848407820F0100016494870D6
:1035200003F016FB18B302F0A1FDE0B113480088C8
:103530005A2818DA0DF1090210480188104803F0E2
:10354000D7F910A001F0ECF9012001F0CFFE684698
:1035500001F0E6F90A2001F0C9FE0AA001F0E0F945
:10356000012001F0C3FE03F097FB00F08BF800BFD1
:10357000CEE70000A89E000892010020A0010020D4
:10358000F83000200D0A00007047000010B5044616
:10359000014801F0C5F910BD08A3000870B5054643
:1035A00000240DB9002070BD1748007848B11648B6
:1035B0000078032805D014480078052801D004F0CD
:1035C000EDFA002411E00120A040284058B101206C
:1035D0000E49085500200E4908800E490880002138
:1035E000204606F055FA601CC4B2052CEBDB002126
:1035F000062006F04DFA0021084603F0FFF90120ED
:103600000149087000BFCEE7402F0020412F002065
:10361000462F0020482F002010B50446FF20FFF75A
:10362000BDFF02A001F07CF910BD00006368616E6F
:103630006765207761746572207375636365737362
:103640000D0A000010B5002400BF08E0204602F07B
:103650004FFA042801D1002010BD601CC4B2052C13
:10366000F4DB0120F8E7000010B5044801880448A5
:10367000FCF793FD00200149088010BD9C0100204B
:10368000682F002010B5054801880548FCF785FD26
:103690000020024908800349088010BDA0010020D5
:1036A000F8300020B0010020052190FBF1F201FB71
:1036B0001201104A00235354052190FBF1F201FB43
:1036C00012010D4A5354052190FBF1F201FB120146
:1036D0000A4A5354052190FBF1F201FB1201084AFA
:1036E0005354052190FBF1F201FB1201054A01231D
:1036F00053547047F62E0020002F00200A2F002080
:10370000052F0020142F002070B50446052094FBDF
:10371000F0F100FB1140C5B2284606F001F8052083
:1037200094FBF0F100FB1140094900220A540520E6
:1037300094FBF0F100FB1140064921F81020052010
:1037400094FBF0F100FB1140034921F8102070BDFB
:10375000712E0020743C00207E3C002010B5002417
:1037600000BF09E00021204605F0D2FB00212046E1
:10377000FEF7D4FF601CC4B20A2CF3DB10BD70B599
:1037800005460E46002400BF0DE0AC4209D0B4420D
:1037900007D00021204605F0BBFB00212046FEF7A4
:1037A000BDFF601CC4B20A2CEFDB70BD10B504462F
:1037B00000200349087003A001F0B2F810BD00001A
:1037C000F6010020626F782073706565642064657F
:1037D00062756720636C6F736520737563636573CF
:1037E000730D0A0070B50446052094FBF0F100FB50
:1037F0001140C5B20021284605F052FB052094FB7C
:10380000F0F100FB1140024900220A5470BD000093
:103810000F2F00202DE9F041AEB004460026B0463F
:103820001D25002765894FF6FF7000EA0525A08950
:103830000543E6894FF6FF7000EA0626208A064314
:1038400000BF08E00120B840284010B14FF0000848
:1038500003E0781CC7B2052FF4DB00BF1D2D16D185
:1038600002F004FC28B13CA001F05AF80A2001F053
:103870003DFD0120ADF854000220ADF856000222B3
:1038800015A9002004F0F4FC2EB0BDE8F081012061
:103890008DF8100008F0FF008DF811000EB1012026
:1038A00000E000208DF8140002F0E0FB50B1424629
:1038B0002DA108A8FEF7BCFA08A801F031F80A20EB
:1038C00001F014FD9DF8110003F002FD9DF81100B8
:1038D00005F026FF9DF81100002105F06BFB6846FE
:1038E00002F01EF9DDE90001CDE902019DF80900B1
:1038F0009DF81110884209D101208DF81D00DDE9E5
:10390000060105F00FFA04F08DFC0BE0684602F0AA
:1039100007F9DDE90001CDE902019DF80900012167
:1039200005F038FB9DF8110002F07CFAB0F52F7F0E
:1039300006DD9DF8110000224FF4C87105F0F0FD7E
:103940000020ADF85400ADF85600022215A9012060
:1039500004F08EFC00BF97E76964207072612065F7
:1039600072726F720D0A0000636C6F73652074656C
:103970006D7020636F6E74726F6C202025642073ED
:10398000756363657373210010B504460020034915
:10399000087003A000F0C4FF10BD0000F501002076
:1039A00074667420636F6D207472616E736D6974D8
:1039B00020636C6F736520737563636573730D0AA1
:1039C0000000000070B5002400BF37E0204601F081
:1039D0007BFE88B31B4830F81400401C194921F8BD
:1039E0001400194931F81400164931F8141000EB8D
:1039F000D072B1EB620F09DD052094FBF0F100FB02
:103A00001140C5B20121284605F0CEFF0D4830F81F
:103A100014000D4931F8141088420DDD00200949C9
:103A200021F81400094908550021204605F010F836
:103A30000021204605F06CF9601CC4B2052CC5DBE2
:103A400070BD0000743C00207E3C0020652E0020EC
:103A5000002000BF0BE00021064A22F81010064AA1
:103A600011546421054A22F81010411CC8B20528DF
:103A7000F1DB7047743C0020712E00207E3C00205A
:103A80002DE9F04FCFB000204D904C904B908246E6
:103A90004A9083460026814600240025CA480078C3
:103AA0000A2190FBF1F201FB120084B2C648407873
:103AB00090FBF1F201FB120085B2E9B2E0B2FFF730
:103AC0005EFEE0B202F0A6FA00B2C04921F814008E
:103AD000E8B202F09FFA00B2BC4921F81500BC48D8
:103AE00030F8140031F81410401A00B2B94921F826
:103AF0001400B74830F81500B44931F81510401AD1
:103B000000B2B44921F81500B348007858B9AF485D
:103B100030F91400B1490988884204DD0120B04918
:103B20000870AD490870AF48007858B9A74830F917
:103B30001500AA490988884204DD0120AA490870B5
:103B4000A8490870A6480078B0B1A748007898B195
:103B5000A6480088401CA5490880A548008800EBBD
:103B600080000988B1EB400F06DD00209F490880E6
:103B70009B4908709C490870934800780A2190FB83
:103B8000F1F201FB1200934931F91000002850DDD9
:103B90008D4800780A2190FBF1F201FB1200C7B2B8
:103BA000384603F0F9FE8B4931F91400FCF772FD39
:103BB0000746904801683846FCF774FB4B908549EE
:103BC00031F91400FCF766FD80468B4931F9140089
:103BD000FCF760FD41461790FCF75EFB07468748FF
:103BE00001683846FCF75EFB824651464B98FCF76D
:103BF00001FB4D90774830F814007F4921F81400FC
:103C00004D98FCF755FD06B2B6F57A7F01DD4FF40D
:103C10007A76002E00DA00267148007820B1E0B2F2
:103C2000002105F0A1F909E0B1B2E0B205F09CF97C
:103C300004E000263146E0B205F096F9624840788B
:103C40000A2190FBF1F201FB1200624931F91000E8
:103C5000002854DD5C4840780A2190FBF1F201FB1A
:103C60001200C7B2384603F097FE5A4931F91500E1
:103C7000FCF710FD07465F4801683846FCF712FB69
:103C80004A90544931F91500FCF704FD80465A4921
:103C900031F91500FCF7FEFC41461790FCF7FCFAE1
:103CA0000746544801683846FCF7FCFA83465946F3
:103CB0004A98FCF79FFA4C90464830F815004E4958
:103CC00021F815004C98FCF7F3FC0FFA80F9B9F5D0
:103CD0007A7F01DD4FF47A79B9F1000F01DA4FF004
:103CE00000094148007820B1E8B2002105F03CF914
:103CF0000BE01FFA89F1E8B205F036F905E04FF064
:103D000000094946E8B205F02FF9324830F914208D
:103D10003B490A2005F036FD58B12E4830F91520F0
:103D20006FF009010A2005F02DFD10B10120354981
:103D3000087001F00BFFE8B35846FCF7FFFC07469C
:103D400088464A98FCF7FAFCCDE916015046FCF784
:103D5000F5FCCDE914014B98FCF7F0FCCDE912011C
:103D6000214802781E480378194830F91500174990
:103D700031F91510CDE90B890A97CDE90F32CDE95C
:103D80000D10DDE91601CDE90801114830F91400E4
:103D90000E4931F91410CDE90461CDE90605DDE9DC
:103DA0001401CDE90201DDE912012246CDE900014D
:103DB000154900E005E018A8FEF73AF818A800F049
:103DC000AFFD4FB0BDE8F08F512E00202E3C0020FB
:103DD0001A3C0020423C00205A2E0020562E002083
:103DE0005E2E00205B2E00205F2E00205C2E002027
:103DF000582E0020482E0020563C00204C2E00203B
:103E000019FCFFFF532E00203CA4000810B500F061
:103E100009F801210807FDF7C7FA01210020FDF785
:103E200087FA10BD1FB501214120FDF7CDFA4FF4EF
:103E30008070ADF80C0048208DF80F0003A91348DE
:103E4000FDF730F908210420FDF70CF94FF48070DC
:103E5000009000208DF804000C208DF80500012052
:103E60008DF806006846FDF7B3F817208DF80800B6
:103E700002208DF8090000208DF80A0001208DF83D
:103E80000B0002A8FDF712FA1FBD00000018014048
:103E900010B5044601A000F043FD10BD436F7079DA
:103EA00072696768742028632920323030312D32DE
:103EB00030313920436F6D6567656E65204C4C432A
:103EC0002E0D0A416C6C205269676874732052652C
:103ED0007365727665642E0D0A000000084800883C
:103EE0000A2800DA70470020054908800548407814
:103EF00020F0400040300349487000BFF2E7000066
:103F00009A01002092010020164800880A2800DA51
:103F100070470020134908801348007820F02000E3
:103F20002030114908700846007820F040004030E9
:103F300008700846407820F00100401C4870084690
:103F4000407820F00400001D48700846407820F0BA
:103F500008000830487005480088401C0349088064
:103F600000BFD5E798010020920100209A010020AF
:103F70001248007800F0010000B970470F4800783F
:103F800020F001000D4908700846007820F0040078
:103F9000001D08700A480088401C0949088008462E
:103FA00000880A2808DD002008800448007820F0F6
:103FB0000200801C0149087000BFDEE7920100206A
:103FC00094010020164800880A2800DA7047002073
:103FD000134908801348007820F008000830114980
:103FE00008700846007820F010001030087008466D
:103FF000407820F00200801C48700846407820F08D
:104000001000103048700846407820F02000203022
:10401000487005480088401C0349088000BFD5E768
:104020009601002092010020980100200C480078A1
:10403000C0F3400000B970470948007820F0020042
:10404000074908700846007820F08000803008702A
:1040500004480088401C0349088000BFEBE70000CB
:1040600092010020960100202DE9F0470024194814
:104070000078C0F3401008B9BDE8F0871548007813
:1040800020F020001349087000241FE040F6C411FE
:10409000204601F069FA104921F8140031F81400A3
:1040A000FCF701FB82460D49FCF7F6F88146FCF768
:1040B00045FB07460A4A0B4BFCF77DFA0546FCF721
:1040C00024FB094921F81400601CC4B20A2CDDDB72
:1040D00000BFD1E792010020E83B00200000F04340
:1040E000B81E85EB51B8FE3FFC3B002010B592B0E6
:1040F000002401214802FDF767F94FF40040FDF765
:1041000037F900BF0FE0524830F81400ADF8300026
:1041100000208DF833004F4951F824000CA9FCF71A
:10412000C1FF601CC4B20A2CEDDB4B48FCF75EFDFE
:1041300000200D9001208DF838008DF839004FF4E3
:1041400060200F90002010900A208DF844000DA9E7
:104150004148FCF78DFD0723012204213E48FCF76E
:10416000AFFD0723022205213B48FCF7A9FD0723E9
:10417000032206213848FCF7A3FD07230422194631
:104180003548FCF79DFD0723052208213248FCF73E
:1041900097FD0723062209212F48FCF791FD0723ED
:1041A0001A460A212C48FCF78BFD072308220B2115
:1041B0002948FCF785FD072309220C212648FCF736
:1041C0007FFD07230A220D212348FCF779FD0121F9
:1041D0002148FCF700FD01211F48FCF7F1FC1E48B7
:1041E000FCF7CAFD00BF1C48FCF738FD0028FAD1D7
:1041F0001948FCF7D1FD00BF1748FCF725FD002842
:10420000FAD101210846FDF7BFF81448FCF7D6FDA6
:1042100011484C30019012480290002003904FF456
:104220007A7004900020059080200690400007904E
:10423000800008902020099000020A9000200B9036
:1042400001A90648FCF760FE04F070FF12B010BD33
:10425000E0010020B80100200024014008000240D5
:104260001834002038B5002401214FF4FE70FDF70A
:10427000ABF800BF1AE03D4830F81400ADF800007C
:1042800010208DF8030003208DF80200384951F802
:1042900024006946FCF706FF344A32F81410344A09
:1042A00052F82400FCF7DBFF601CC4B21B2CE2DBDD
:1042B0004FF40040ADF8000010208DF803000320FB
:1042C0008DF802002A4951F824006946FCF7EAFEFD
:1042D0004FF400412748FCF7C4FF002420E02648A3
:1042E00030F81400ADF800000E2C05DD142C03DAB4
:1042F00028208DF8030008E0052C03DA04208DF84F
:10430000030002E048208DF8030003208DF802002E
:104310001A4951F824006946FCF7C4FE601CC4B277
:10432000152CDCDB002409E00121204605F03CFBD4
:104330000121204601F0F4F8601CC4B2052CF3DB27
:10434000002405E00121204605F0A2FB601CC4B258
:10435000072CF7DB0121002002F050FB0121084669
:1043600002F04CFB012002F059FF38BD9C000020F8
:104370002C000020001C014028010020D400002057
:1043800070B5002400251F480078C0F3800000B9F4
:1043900070BD1C48007820F004001A490870002401
:1043A0001FE0204601F070FCA8B1681CC5B2022DC8
:1043B00000DD18E0204601F067FC134909888842B7
:1043C00004DD01212046FEF7A9F908E0002120467E
:1043D000FEF7A4F903E000212046FEF79FF9601CD8
:1043E000C4B20A2CDDDB00BF07480088401C064928
:1043F000088008460088B0F57A7F01DD002008803B
:1044000000BFC5E7920100209001002010B588B0E0
:10441000002401210220FCF7C7FF01210920FCF73D
:10442000D3FF01218F48FCF7C9FE0220ADF81C0024
:1044300018208DF81F0003208DF81E0007A98A4858
:10444000FCF730FE41F26110ADF814000020ADF829
:104450001000ADF81600ADF8120004A98348FDF76E
:1044600089FA6020ADF800000120ADF802000220BA
:10447000ADF8080069467D48FDF7CAF908217B4878
:10448000FDF718FA01217948FDF737F901210846AF
:10449000FCF78AFF01210420FCF796FF2020ADF8ED
:1044A0001C0018208DF81F0003208DF81E0007A99E
:1044B0006F48FCF7F7FD41F26110ADF814000020E1
:1044C000ADF81000ADF81600ADF8120004A94FF0D9
:1044D0008040FDF74FFA6020ADF800000120ADF8F4
:1044E00002000220ADF8080069464007FDF790F988
:1044F0000821C806FDF7DEF901218807FDF7FDF860
:1045000001210420FCF750FF01210820FCF75CFF8B
:104510004020ADF81C0018208DF81F0003208DF8F6
:104520001E0007A95248FCF7BDFD8020ADF81C0015
:1045300018208DF81F0003208DF81E0007A94C4895
:10454000FCF7B0FD4FF40070ADF81C0018208DF89A
:104550001F0003208DF81E0007A94548FCF7A2FDA7
:1045600041F26110ADF814000020ADF81000ADF874
:104570001600ADF8120004A93E48FDF7FBF96020D3
:10458000ADF800000120ADF802000020ADF80600F3
:104590000220ADF8080069463648FDF7E3F86020D0
:1045A000ADF800000120ADF802000020ADF80600D3
:1045B0000220ADF8080069462E48FDF729F9602071
:1045C000ADF800000120ADF802000020ADF80600B3
:1045D0000220ADF8080069462648FDF779F9012167
:1045E0002448FDF796F808212248FDF707F908212D
:1045F0002048FDF75FF908211E48FDF7A7F90121C2
:104600001C48FDF76BF801211A48FDF776F800BF4A
:1046100005E00021084604F043FC601CC4B2052CF0
:10462000F7DB00241AE0144830F81400ADF81C0041
:1046300010208DF81F0003208DF81E000F4951F83F
:10464000240007A9FCF72EFD0B4A32F814100B4A80
:1046500052F82400FCF703FE601CC4B20A2CE2DB13
:1046600008B010BD00081A00000801400004004016
:10467000000C0140000800407C0100205401002093
:1046800010B5FFF775FCFFF7D1FCFFF79BFCFFF7B8
:104690003BFCFFF723FC10BD1FB501210820FCF7F0
:1046A00083FE40F2CF20ADF808000920ADF80400E9
:1046B0000020ADF80A00ADF8060001A90D48FDF78D
:1046C00059F9012211460B48FDF743F832208DF8C5
:1046D000000000208DF8010003208DF80200012069
:1046E0008DF803006846FCF7E1FD01210148FDF764
:1046F00004F81FBD000C00407047000000B587B0F3
:1047000001218803FCF760FE4FF40070ADF818003B
:1047100003208DF81A0018208DF81B0006A94B48BD
:10472000FCF7C0FC4FF48060ADF8180004208DF851
:104730001B0006A94548FCF7B5FC25208DF80400B0
:1047400003208DF8050002208DF8060001208DF869
:10475000070001A8FCF7AAFD4FF4E1300290002009
:10476000ADF80C00ADF80E00ADF81000ADF8140077
:104770000C20ADF8120002A93548FDF7E3FA01223A
:1047800040F225513248FDF7B8FA002240F2277175
:104790002F48FDF7B2FA01212D48FDF778FA0121E3
:1047A0000820FCF711FE01218804FCF7FDFD4FF401
:1047B0000060ADF8180004208DF81B0006A92548FC
:1047C000FCF770FC4FF48060ADF8180003208DF802
:1047D0001A0018208DF81B0006A91E48FCF762FC81
:1047E0004FF4E13002900020ADF80C00ADF80E005F
:1047F000ADF81000ADF814000C20ADF8120002A9BD
:104800001548FDF79FFA012240F225511248FDF7A5
:1048100074FA01211048FDF73AFA4FF4A060FCF752
:104820007DFD27208DF8040003208DF8050002206F
:104830008DF8060001208DF8070001A8FCF736FD71
:10484000002003F0D1FE07B000BD000000080140C9
:1048500000380140000C01400048004010B5FCF752
:104860000BFD10BD10B50120FCF756FE00BF612006
:10487000FCF734FE0028FAD045F25550FCF710FD45
:104880004020FCF701FD40F2E240FCF703FDFCF79D
:10489000F3FCFCF7E9FC10BD0A48008808B90020C9
:1048A000704708480088801E0749085C0D2807D11A
:1048B00004480088401E085C0A2801D10120EFE767
:1048C0000020EDE79C010020682F002010B5FFF7C5
:1048D000C5FF0A2000F00AFD10BD000070B50546B6
:1048E0000C46B4F5967F00DD70BD22462946084887
:1048F000FBF73AFC074804800020074908800122A2
:1049000040F227710548FDF7F8F900BFECE7000019
:10491000C0310020A2010020A40100200038014085
:1049200070B504462046FBF743FC85B22946204675
:10493000FFF7D4FF70BD00002DE9F04FE1B0002477
:104940000026FEA000686090A046A246A346002074
:104950005F905E90002500275D905C905B905A9080
:1049600081464FF07E502790FEF7F8FE00BF17E01B
:10497000204601F04FFB00B2F14921F81400204617
:1049800001F0DEF850B1EF4830F81400EC4931F88E
:104990001410401A00B2EC4921F81400601CC4B293
:1049A0000A2CE5DB002422E0204601F0C9F8D8B14A
:1049B00004EBD471C1F34700269401F0A5F800B1CF
:1049C00013E0E14830F91400002800DA0DE0701C13
:1049D000C6B2404608EBD0714910A8EB410160AA6D
:1049E0005454401C00F0FF0800BF601CC4B20A2CE5
:1049F000DADB022E7DDD00241DE00A2094FBF0F1BD
:104A000000FB1140C2B2104601F09AF888B1601C58
:104A10000A2190FBF1F301FB1300C2B2104601F032
:104A20008FF830B18DF88041601CC0B28DF88101E3
:104A300003E0601CC4B20A2CDFDB00BF4FF0000AA9
:104A400000241FE06106080E01F07AF8C0B1600092
:104A5000BD4931F91000002804DA00206100BA4A8B
:104A600022F811006000B84931F91000504507DB09
:104A7000600031F810001FFA80FA60064FEA106BF0
:104A8000601CC4B2052CDDDB8DF880B14FF0000A4C
:104A900000242BE0012101EB4401C8B201F050F8E1
:104AA00010B3012000EB4400A74931F910000028A1
:104AB00006DA0020012101EB4401A34A22F811008B
:104AC000012000EB4400A04931F9100050450BDBF8
:104AD000012000EB440031F810001FFA80FA012099
:104AE00000EB440000F0FF0B601CC4B2052CD1DBCE
:104AF00000E001E08DF881B126B9FF2093490870EC
:104B000048700FE0012E06D19DF880018F49087092
:104B1000FF20487006E09DF880018C4908709DF8E0
:104B200081014870002420E0204601F009F8D0B14E
:104B300009F1010000F0FF09B9F1060F13DBB9F12B
:104B4000060F06D0B9F1080F06D0B9F10A0F09D146
:104B500005E07F48279005E07E48279002E07E48E8
:104B6000279000BF00BF601CC4B20A2CDCDB012E02
:104B70007ED19DF880010A2190FBF1F301FB130027
:104B8000C2B2104600F0DCFF002872D09DF8800110
:104B90000A2190FBF1F201FB12006B4931F9100080
:104BA000002871DD9DF880010A2190FBF1F201FBE4
:104BB0001200C0B2269002F0EFFE9DF880010A219B
:104BC00090FBF1F201FB12005F4931F910002490D3
:104BD000FBF760FD2590614801682598FBF762FBB3
:104BE00026902799FBF75EFB5D909DF88011564A51
:104BF00032F91100FBF74EFD25909DF880010A2146
:104C000090FBF1F201FB1201554830F9110023909D
:104C1000FBF740FD24902599FBF73EFB2690514879
:104C200001682698FBF73EFB5C905C995D98FBF76A
:104C3000E1FA5F909DF880010A2190FBF1F201FBFF
:104C40001200414931F810009DF880110A2291FBB1
:104C5000F2F302FB1311424A22F811005F98FBF7AE
:104C600027FD05B2B5F57A7F01DD4FF47A7502E0D4
:104C700011E03DE108E0002D00DA0025A9B29DF821
:104C8000800104F071F93AE1002529469DF8800180
:104C900004F06AF933E19DF880010A2190FBF1F3F9
:104CA00001FB1300C2B2104600F04AFF00287DD07D
:104CB0009DF880010A2190FBF1F201FB12002249CC
:104CC00031F91000002872DD9DF880010A2190FB67
:104CD000F1F201FB1200C0B2269002F05DFE9DF8D9
:104CE00080010A2190FBF1F201FB1200164931F913
:104CF00010002490FBF7CEFC2590184801682598F9
:104D0000FBF7D0FA26902799FBF7CCFA5D909DF837
:104D100080110D4A32F91100FBF7BCFC25909DF87B
:104D200080010A2190FBF1F201FB12000C4931F9DC
:104D300010002390FBF7AEFC249015E0FFFF00006D
:104D40002E3C00201A3C0020423C00206F2E002008
:104D50009A99993F3333B33FCDCCCC3F482E0020B6
:104D6000563C00204C2E00202599FBF795FA269002
:104D7000AF4801682698FBF795FA5C905C995D98BE
:104D8000FBF738FA5F909DF880010A2190FBF1F261
:104D900001FB1200A74931F810009DF880110A228A
:104DA00091FBF2F302FB1311A34A01E01AE013E0B6
:104DB00022F811005F98FBF77BFC05B2B5F57A7F0E
:104DC00001DD4FF47A75002D00DA0025A9B29DF8B7
:104DD000800104F0C9F805E0002529469DF880010E
:104DE00004F0C2F89DF881010A2190FBF1F301FB68
:104DF0001300C2B2104600F0A3FE00287FD09DF839
:104E000081010A2190FBF1F201FB1200894931F97D
:104E1000100000286DDD9DF881010A2190FBF1F260
:104E200001FB1200C0B2269002F0B6FD9DF8810190
:104E30000A2190FBF1F201FB12017E4830F91100CA
:104E40002490FBF727FC25907C4801682598FBF708
:104E500029FA26902799FBF725FA5B909DF8811196
:104E6000744A32F91100FBF715FC25909DF8810179
:104E70000A2190FBF1F201FB12006F4931F9100099
:104E80002390FBF707FC24902599FBF705FA269061
:104E9000674801682698FBF705FA5A905A995B987B
:104EA000FBF7A8F95E909DF881010A2190FBF1F2D1
:104EB00001FB12005F4931F810009DF881110A22B0
:104EC00091FBF2F302FB13115B4A22F811005E988A
:104ED000FBF7EEFB07B2B7F57A7F01DD4FF47A7787
:104EE000002F00DA0027B9B29DF8810104F03CF8E8
:104EF00005E0002739469DF8810104F035F80024CB
:104F00000EE0204600F01CFE40B14A4830F9140083
:104F10000A2803DB01204A49087007E0601CC4B27C
:104F20000A2CEEDB00204649087000BF00F00EFEA0
:104F300000287AD01EB943A0FFF7F2FC75E00420E8
:104F400000F0E2FD2690032000F0DEFD2590022017
:104F500000F0DAFD2490012000F0D6FD239000201F
:104F600000F0D2FD22905A98FBF7E8FBCDE9200132
:104F70005B98FBF7E3FBCDE91E015C98FBF7DEFBDA
:104F8000CDE91C015D98FBF7D9FBCDE91A01394841
:104F900000793849C978374A9278364B5B78CDE941
:104FA0001532CDE9171033480078DDE9242326991E
:104FB000CDE91123CDE913109DF881212E4B33F952
:104FC00012209DF88131DFF8B4C03CF91330DDE9DF
:104FD0002210CDE90C73CDE90E211090DDE92001FE
:104FE000CDE90A01DDE91E01CDE908019DF8811135
:104FF0009DF88001204A32F91020634633F91000F1
:10500000CDE90450CDE90621DDE91C01CDE902011D
:10501000DDE91A01CDE900019DF88021184928A891
:10502000FCF706FF28A8FFF77BFC61B0BDE8F08F16
:105030004C2E0020423C0020563C0020482E0020F0
:10504000542E00207C20646563656E7472616C6907
:105050007A6564204D6F6465207C206E6F20726FCE
:105060006164206E65656420636F6E74726F6C207E
:105070000D0A0000652E00201A3C00202E3C002066
:10508000B0A400082DE9F047ADF5047D81460E4639
:10509000174600250024A046A24600208DF8B8013E
:1050A0006F90142170A8FBF778F8022F0BDA00201C
:1050B0008DF8B80158226EA94846FBF755F80DF552
:1050C000047DBDE8F087781E305C0A2803D1B81E45
:1050D000305C0D2808D000208DF8B80158226EA948
:1050E0004846FBF741F8EAE7002511E0705D20280B
:1050F0000CD114216F98B0FBF1F201FB120164AAEC
:10510000681C22F811006F98401C6F90681C85B2D3
:10511000B81EA842EADC00243CE06F98401EA04282
:1051200003D1B81E1FFA80FA06E064A9601C31F8AA
:105130001000401E1FFA80FA64A830F814501CE0DA
:10514000705D302802DB705D392808DD00208DF8A5
:10515000B80158226EA94846FBF706F8AFE7705D24
:1051600004EB84016A4602EB810101F8080008F1B2
:1051700001001FFA80F8681C85B25545E0DB00206D
:1051800004EB84016A4602EB810101F808008046C5
:10519000601C84B26F98A042BFD800240BE004EBDF
:1051A00084016A4602EB8100FBF717F870A941F809
:1051B0002400601C84B26F98A042F0D801208DF8C2
:1051C000B80158226EA94846FAF7CEFF00BF76E72D
:1051D00010B502A0FFF7A4FB10BD00006B6579209D
:1051E00030206576656E742068617070656E64212C
:1051F0000D0A000010B502A0FFF792FB10BD0000E1
:105200006B65792031206576656E742068617070F9
:10521000656E64210D0A000010B502A0FFF780FB47
:1052200010BD00006B65792032206576656E7420B4
:1052300068617070656E64210D0A000010B502A0EF
:10524000FFF76EFB10BD00006B657920332065769B
:10525000656E742068617070656E64210D0A0000CF
:1052600010B502A0FFF75CFB10BD00006B65792054
:1052700034206576656E742068617070656E642197
:105280000D0A000010B502A0FFF74AFB10BD000098
:105290006B65792035206576656E74206861707065
:1052A000656E64210D0A000010B56FF00400FCF774
:1052B000BBF90A4800680A49B0FBF1F009490870D7
:1052C0000846007800EB4001C1EBC0104FF6FF71BB
:1052D00001EAC0000449088010BD00000000002061
:1052E00000127A0014000020160000200146114A26
:1052F00012884A434FF0E0235A6100229A611A460D
:10530000126942F001021A6100BF4FF0E0221069F9
:1053100000F001021AB100F48032002AF5D04FF0FB
:10532000E022126922F001024FF0E0231A6100220C
:105330009A6170471600002010B5044601F098FBF2
:1053400008B1002010BD1648008800EB4000154948
:1053500011F8100020701248008800EB400001EBAB
:105360004000407860700E48008800EB400001EB80
:105370004000408860800A48008800EB400001EB54
:1053800040000079207106480088401C332190FBC2
:10539000F1F201FB1200024908800120D2E700006F
:1053A000862E0020883C002013B501F06FFB08B169
:1053B00000201CBD01F05CFB18B39DF800002949DA
:1053C000098801EB4101284A02F811009DF801000B
:1053D0002449098801EB410102EB41014870BDF805
:1053E00002002049098801EB410102EB410148809C
:1053F0009DF804001B49098801EB410102EB4101C2
:1054000008719DF800001949098801EB4101164A0D
:1054100002F811009DF801001449098801EB4101CF
:1054200002EB41014870BDF802001049098801EB08
:10543000410102EB410148809DF804000B490988B5
:1054400001EB410102EB4101087108480088401C52
:10545000332190FBF1F201FB120004490880012086
:10546000A7E70000862E0020883C0020882E002020
:1054700010B59AB00446A068042804D910A0FFF71C
:105480004FFA1AB010BDE068012805D0E06818B1E5
:1054900013A0FFF745FAF4E7E2680AB1012200E041
:1054A00000221146207A03F0D9FA15A101A8D4E907
:1054B0000223FCF7BDFC01A8FFF732FA00BFE0E7CA
:1054C000696420707261206572726F72202C706C3A
:1054D0006561736520696E70757420302D3400002D
:1054E000737720707261206572726F72202C706CFD
:1054F0006561736520696E70757420302F3100000E
:105500007365742066616E20636F6E202564206170
:105510007320256420737563636573730D0A00003F
:1055200070B504460D4655B104F10E02094B33F82F
:105530001210094B53F82200FBF793FE09E004F127
:105540000E02044B33F81210034B53F82200FBF702
:1055500086FE70BD9C0000202C00002001480068E1
:1055600070470000E82E00202DE9F04F87B08246FA
:105570008B460024A1460020069000BF09E004EB02
:105580008400184901EB800030F81A008144601C47
:1055900084B2642CF3DB6420B9FBF0F95846FBF7C6
:1055A00082F80746FBF7CAF805460E464846FBF761
:1055B0007AF80190FBF7C2F8074600220A4BFAF787
:1055C000FAFF2A463346CDE90201FAF782FFCDE918
:1055D0000401FBF79AF880B20690069807B0BDE880
:1055E000F08F0000183400200000B040014800781F
:1055F00070470000F60100200146052091FBF0F203
:1056000000FB1210014A105C70470000762E00204B
:1056100070B505460020FFF7EFFF044634B1012CBA
:1056200008D0022C0AD0032C10D10BE008A0FFF701
:1056300077F90BE00CA0FFF773F907E013A0FFF771
:105640006FF903E01AA0FFF76BF900BF00BF70BD50
:105650006E6F775F737461747573203A626F785FF1
:105660006F66660D0A0000006E6F775F7374617479
:105670007573203A626F785F72756E6E696E675FE0
:10568000666F72776172640D0A0000006E6F775F5B
:10569000737461747573203A626F785F72756E6EA1
:1056A000696E675F6261636B776172640D0A000007
:1056B0006E6F775F737461747573203A626F785F91
:1056C0006F6E0D0A0000000001460148405C704703
:1056D000712E002001460A4601EBD2704010A1EB6A
:1056E0004000014B185C7047512E002001480078A3
:1056F00070470000532E002070B59AB00646002473
:10570000002500BF13E040F6C4112046FFF72CFF30
:1057100005462B46224608A101A8FCF789FB01A8F3
:10572000FFF7FEF80A20FFF7E1FD601CC4B20A2C67
:10573000E9DB1AB070BD00003E3E3E20616463208C
:10574000256420766F6C7461676520697320256419
:10575000206D56200D0A00000148007870470000B7
:10576000542E002001460A4601EBD2704010A1EBF6
:105770004000014B185C70476F2E00200146052049
:1057800091FBF0F200FB1210014A105C7047000020
:105790004B2F002010B5044600F07AFC06281CD2DE
:1057A000DFE800F003070B0F13170DA0FFF7B8F8A1
:1057B00014E014A0FFF7B4F810E01CA0FFF7B0F855
:1057C0000CE024A0FFF7ACF808E02BA0FFF7A8F846
:1057D00004E031A0FFF7A4F800E000BF00BF10BD57
:1057E0004E6F7720737461747573203A206E6F5F0B
:1057F000696E6A656374696F6E5F7461736B0D0ABD
:10580000000000004E6F7720737461747573203A46
:10581000206368616E67655F77617465725F6F753D
:10582000745F7374617475730D0A00004E6F772096
:10583000737461747573203A206368616E67655F85
:1058400077617465725F696E5F7374617475730DEF
:105850000A0000004E6F7720737461747573203AEC
:10586000206368616E67655F77617465725F646FFE
:105870006E650D0A000000004E6F7720737461742E
:105880007573203A206F75745F77617465725F730A
:1058900074617475730D0A004E6F772073746174B0
:1058A0007573203A206F75745F77617465725F64F9
:1058B0006F6E650D0A00000070B59AB006460024B0
:1058C000002500BF17E0204600F03AF805462DB14C
:1058D00022460BA101A8FCF7ABFA04E0224610A176
:1058E00001A8FCF7A5FA01A8FFF71AF80A20FFF7AC
:1058F000FDFC601CC4B2062CE5DB1AB070BD0000D4
:105900003E3E3E206B657920256420766F6C746185
:1059100067652069732074727565200D0A000000A8
:105920003E3E3E206B657920256420766F6C746165
:1059300067652069732066616C736520200D0A001D
:1059400010B5044604F10F02064B33F81210064B53
:1059500053F82200FBF77AFC08B1012010BD0020AB
:10596000FCE7000028010020D40000200148007856
:10597000704700004A2F002070B59AB006460024F8
:10598000002500BF17E0204600F03EF805462DB187
:1059900022460BA101A8FCF74BFA04E0224611A114
:1059A00001A8FCF745FA01A8FEF7BAFF0A20FFF7A5
:1059B0009DFC601CC4B20A2CE5DB1AB070BD00006F
:1059C0003E3E3E206C697175696420256420766FC7
:1059D0006C746167652069732074727565200D0AA7
:1059E000000000003E3E3E206C6971756964202510
:1059F0006420766F6C746167652069732066616CE2
:105A00007365200D0A00000010B50446064A32F8FE
:105A10001410064A52F82400FBF718FC08B10120C4
:105A200010BD0020FCE7000028010020D400002069
:105A300070B59AB006460024002500BF17E0204646
:105A400000F042F805462DB122460BA101A8FCF753
:105A5000EFF904E0224612A101A8FCF7E9F901A838
:105A6000FEF75EFF0A20FFF741FC601CC4B20A2C5F
:105A7000E5DB1AB070BD00003E3E3E206D6F746FD6
:105A800072206C696D697420256420766F6C746176
:105A900067652069732074727565200D0A00000027
:105AA0003E3E3E206D6F746F72206C696D6974208C
:105AB000256420766F6C7461676520697320666168
:105AC0006C7365200D0A000010B50446621D064B7C
:105AD00033F81210054B53F82200FBF7B7FB08B15F
