:020000040800F2
:10000000A8380020450100084D0100084F010008F4
:1000100051010008530100085501000800000000CC
:100020000000000000000000000000005701000870
:1000300059010008000000005B0100085D01000894
:100040005F0100085F0100085F0100085F01000810
:100050005F0100085F0100085F0100085F01000800
:100060005F0100085F0100085F0100085F010008F0
:100070005F0100085F0100085F0100085F010008E0
:100080005F0100085F0100085F0100085F010008D0
:100090005F0100085F0100085F0100085F010008C0
:1000A0005F0100085F0100085F0100085F010008B0
:1000B0005F0100085F0100085F0100085F010008A0
:1000C0005F0100085F0100085F0100085F01000890
:1000D0005F010008E1170008E1180008891900080D
:1000E0005F0100085F0100085F0100085F01000870
:1000F0005F0100085F0100085F0100085F01000860
:100100005F0100085F010008791400085F01000822
:100110005F0100085F0100085F0100085F0100083F
:100120005F0100085F0100085F0100085F0100082F
:10013000DFF80CD000F068FC004800475160000870
:10014000A83800200648804706480047FEE7FEE73B
:10015000FEE7FEE7FEE7FEE7FEE7FEE7FEE7FEE777
:10016000191400083101000840EA01039B0703D07D
:1001700009E008C9121F08C0042AFAD203E011F8E6
:10018000013B00F8013B521EF9D27047D2B201E0A8
:1001900000F8012B491EFBD270470022F6E710B58C
:1001A00013460A4604461946FFF7F0FF204610BDE5
:1001B000421C10F8011B0029FBD1801A704710B5B2
:1001C000002200E0521C835C8C5CA34201D1002B16
:1001D000F8D1D8B2E1B2401A10BD70B5064601F0B0
:1001E00019FD046805460A220021304600F00FFB85
:1001F0002C6070BDF0B480EA0102D40F4200B2EB73
:10020000410F02D20246084611464A0042D0C30DB1
:10021000DDB2C1F3C752AD1A202D35DAC1F3160194
:1002200041F4000204B15242C5F1200602FA06F17F
:100230002A411044B3EBD05F23D0C4B1012DA0EB11
:10024000C35009DCF0BC4FF0004202EAC352DBB2FB
:1002500000F5000000F01CBB400000F1807000EBD6
:10026000C350A0F1807040EAD170490009E049080C
:1002700041EAC071A0EBC35000F50000400800EB5C
:10028000C350F0BC00F0FBBA6142012202EB410115
:10029000001BF6E7F0BC704781F00041AAE780F050
:1002A0000040A7E780EA010210B502F000434000D9
:1002B00022D04A001FD0010E01EB1261C0F356009C
:1002C000C2F3560240F4000042F40002A0FB0220F8
:1002D00000047F39140400D0401C50EA124001D4BD
:1002E0004000491EC2B20C0604EBD010401C40086E
:1002F000802A02D003E0002010BD20F00100002978
:1003000000DA0020184310BD2DE9FE4F804681EA37
:100310000300C00F0C46009021F0004123F000457F
:10032000B8EB0200A94105D24046214690461C4642
:100330000B46024623F00040104347D0270DC7F379
:100340000A00C3F30A510290401A019040286BDA68
:10035000C3F3130040F4801B0098924620B10023A1
:10036000D2EB030A63EB0B0B01985946C0F1400234
:10037000504600F01BFA06460D4650465946019A73
:1003800000F033FA10EB08006141002487EA1152B3
:1003900084EAE7731A4340D0009A62B3019A012AB3
:1003A0004FEA075215DC001B61EB02014FF00042DF
:1003B00002EA0752CDE90042001C41F580113246A5
:1003C0002B4600F0A2FA03B0BDE8F08F404621466C
:1003D000F9E7001B61EB0201001C41F580130018D6
:1003E0005B412018A2F5001747EB030140EAD570E6
:1003F000B6196D4111E06D084FEA360645EAC07541
:100400004FEA0752001B61EB0201001C41F580110D
:1004100049084FEA30000019514132462B4603B0DB
:10042000BDE8F04F00F062BA0098012240000023BE
:10043000D0EB020263EBE073009821464FEAE074D0
:10044000B8EB000061EB0401E9E783F000435BE7F0
:1004500081F0004158E72DE9FE4F81EA030404F0E2
:10046000004421F0004100944FF0000B23F00043C2
:1004700050EA01045ED052EA03045BD0C3F30A548D
:10048000C1F30A552C44A4F2F3340194A0FB0254A6
:10049000C1F3130141F48011C3F3130343F4801338
:1004A00001FB024400FB034E840A970A44EA81548C
:1004B00047EA8357A4FB076802958D0A05FB078569
:1004C0004FEA932C04FB0C542705029D4FEA065873
:1004D00047EA1637B5EB08056EEB070C870E920E50
:1004E00047EA811742EA8312A7FB0201B6EB0B0130
:1004F00064EB00042B0D43EA0C335E1844EB1C50F4
:10050000DA465146E7FB0201C5F313044FEA0B3309
:1005100043EA14534FEA0432019C43EA0603A4F170
:100520000C040294009CCDE900B400F0EEF903B095
:10053000BDE8F08F00200146F9E72DE9F04D81EA92
:10054000030404F0004B21F0004514464FF0000A6C
:1005500023F0004150EA050220D054EA01021DD0E8
:10056000C5F30A570246C5F31303C1F31300C1F3E1
:100570000A5640F4801543F48013A7EB0608101BBD
:10058000D64608F2FD3873EB050002D308F10108E6
:1005900001E092185B41B8F1000F03DA0020014638
:1005A000BDE8F08D00204FF48011064684460EE031
:1005B000171B73EB050705D3121B63EB05030643FB
:1005C0004CEA010C49084FEA300092185B4150EAAE
:1005D0000107EDD152EA030012D082EA040083EA57
:1005E0000501084305D0101BAB4106D201220023B0
:1005F00006E000224FF0004302E06FF001025310CA
:100600001AEB06004CEB085110EB0A0041EB0B0112
:10061000BDE8F04D00F06AB9C10F80EAE07008440F
:10062000CA079623002100F033B996230022114611
:1006300000F02EB900F0004220F00040C10DC0F3E0
:10064000160040F400007F2901DA00207047962947
:1006500003DCC1F19601C84001E096398840002AC8
:10066000F4D04042704720F00040C10DC0F31600A6
:1006700040F400007F2901DA00207047962903DC4E
:10068000C1F19601C8407047963988407047C1F360
:100690000A5210B5C1F3130140F2FF3341F4801147
:1006A0009A4201DA002010BD40F233439A42A2F28E
:1006B000334203DC524200F088F810BD904010BD78
:1006C00000F0004230F000400AD0C10D01F5607129
:1006D000C0F3160042EA0151C208400711437047B7
:1006E00000200146704701F0004330B421F0004182
:1006F00050EA010206D00A0DA2F56072C1F313019F
:10070000002A02DC30BC00207047440F44EAC104D8
:10071000C100E01830BC00EBC25000F0B0B830B5FA
:100720000B46014600202022012409E021FA02F5AF
:100730009D4205D303FA02F5491B04FA02F5284449
:10074000151EA2F10102F1DC30BD2DE9F05F054676
:10075000002092469B4688460646814640241BE080
:10076000284641464746224600F02FF853465A464F
:10077000C01A914110D311461846224600F016F8CF
:100780002D1A67EB01084F4622460120002100F098
:100790000DF817EB00094E41201EA4F10104DFDC27
:1007A000484631462A464346BDE8F09F202A04DBEE
:1007B000203A00FA02F1002070479140C2F1200374
:1007C00020FA03F3194390407047202A04DB203AB3
:1007D00021FA02F00021704721FA02F3D040C2F161
:1007E00020029140084319467047202A06DBCB17A8
:1007F000203A41FA02F043EAE07306E041FA02F3DC
:10080000D040C2F1200291400843194670472DE9BB
:10081000F04791460F4680460446002614F8015BD7
:100820002DB100F003F90068405DC007F6D12B2D13
:1008300002D02D2D18D0641E4A463946204600F0BD
:10084000F9F827B13968A14201D1C7F800807105D4
:100850004FF002040BD54042002803DD01F0DAF925
:100860000460A007BDE8F08746F48066E4E700284E
:10087000F8DA01F0CFF904606FF00040F2E70029E8
:10088000A8BF7047401C490008BF20F00100704716
:1008900010B4B0FA80FC00FA0CF050EA010404BF76
:1008A00010BC704749B1CCF1200421FA04F411FACC
:1008B0000CF118BF012121430843A3EB0C01CB1D10
:1008C0004FEA00614FEA102042BF002010BC704781
:1008D00000EBC35010440029A4BF10BC7047401C5B
:1008E000490008BF20F0010010BC704710B5141E6D
:1008F00073F1000408DA401C41F1000192185B41D9
:100900001A4301D120F0010010BD2DE9F04D9246AF
:100910009B4611B1B1FA81F202E0B0FA80F22032C6
:100920009046FFF743FF04460F4640EA0A0041EABB
:100930000B0153465A46084313D0114653EA0100AF
:1009400019D0C8F140025046FFF73FFF05460E465A
:10095000504659464246FFF729FF084305D001207B
:1009600004E020463946BDE8F08D0020054346EA04
:10097000E0762C4337430A986305E40AA0EB0800AD
:100980000022FD0A44EA47540A3002D500200146FD
:10099000E9E7010510196941DDE9084500196941D8
:1009A000BDE8F04DA2E7C1F30A52C1F3130140F2D2
:1009B000FF3341F480119A4202DA00200146704769
:1009C00040F233439A42A2F2334202DC5242FFF732
:1009D000FCBEFFF7EBBE000030B5041E71F1000451
:1009E00004DB4FF00044404264EB0101141E73F13C
:1009F000000405DB1C464FF00043524263EB040346
:100A0000994208BF904230BD064C074D06E0E068B1
:100A100040F0010394E8070098471034AC42F6D345
:100A2000FFF78AFB349C0008549C0008004870477C
:100A3000AC9700082DE9F05F824600780027154644
:100A40008B460AF10104B946302801D09DB113E06C
:100A500014F8010B0127782803D0582801D045B19C
:100A60000AE00DB1102D07D10027102514F8010B55
:100A700002E0082500E00A250026B0460EE005FB4E
:100A8000080005FB06F1012701EB10461FFA80F86C
:100A9000B6F5803F00D3B94614F8010B294600F0A3
:100AA00018F80028EBDABBF1000F05D00FB1641E77
:100AB00000E05446CBF80040B9F1000F06D001F039
:100AC000A9F802210160C81EBDE8F09F48EA06406F
:100AD000FAE73A2800D2303820F02002412A01D328
:100AE000A2F13700884201D34FF0FF30704770B554
:100AF0008C1810F8015B15F0070301D110F8013BC9
:100B00002A1106D110F8012B03E010F8016B01F84F
:100B1000016B5B1EF9D12B0705D40023521E0DD4A7
:100B200001F8013BFAE710F8013BCB1A921C03E0F5
:100B300013F8015B01F8015B521EF9D5A142D8D32D
:100B4000002070BD21B1826842F00102826003E0A2
:100B5000826822F001028260704721B1826842F40B
:100B60008072826003E0826822F480728260704743
:100B700010B504461248844208D10121401500F006
:100B800025FB0021601500F021FB17E00D48844291
:100B900008D10121001500F019FB0021201500F0FB
:100BA00015FB0BE00848844208D10121C80300F07E
:100BB0000DFB00214FF4004000F008FB10BD0000C9
:100BC0000024014000280140003C01400146002073
:100BD0008A6802F004020AB1012000E00020704798
:100BE000014600208A6802F008020AB1012000E0F4
:100BF0000020704730B502460020002350680F4C9B
:100C000020400D790C6844EA052420435060906828
:100C10000B4C2040D1E902542C434D7944EA450461
:100C200020439060D06A20F470000C7C641EE4B213
:100C3000234340EA0350D06230BD0000FFFEF0FFC6
:100C4000FDF7F1FFF0B504460D4600200021092D07
:100C500011DDE068A5F10A0606EB4607072606FA4D
:100C600007F18843A5F10A0606EB460603FA06F1EA
:100C70000843E0600CE0206905EB4507072606FA0B
:100C800007F1884305EB450603FA06F108432061A6
:100C9000072A0FDA606B561E06EB86071F2606FA38
:100CA00007F18843561E06EB860605FA06F108434F
:100CB000606322E00D2A0FDA206BD61F06EB860751
:100CC0001F2606FA07F18843D61F06EB860605FAAB
:100CD00006F10843206310E0E06AA2F10D0606EB7E
:100CE00086071F2606FA07F18843A2F10D0606EBD8
:100CF000860605FA06F10843E062F0BD816841F01E
:100D000008018160704721B1826842F4A0028260CC
:100D100003E0826822F4A00282607047816841F09B
:100D200004018160704721B1026842F00102026053
:100D300004E002684FF6FE731A400260704700003C
:100D400001684FF6FE7211400160002101604160B0
:100D50008160C1604B49884208D14A4908394968D5
:100D600041F00F01474A083A51608AE04549143181
:100D7000884208D143490839496841F0F001414AA5
:100D8000083A51607DE03F492831884208D13D4909
:100D90000839496841F470613A4A083A516070E094
:100DA00038493C31884208D136490839496841F40C
:100DB0007041344A083A516063E032495031884208
:100DC00008D130490839496841F470212D4A083A60
:100DD000516056E02B496431884208D129490839CD
:100DE000496841F47001274A083A516049E02549B1
:100DF0007831884208D123490839496841F0706147
:100E0000204A083A51603CE01F49884206D1011F40
:100E1000096841F00F01021F116032E01A491431D4
:100E2000884208D11849091F096841F0F001164AA3
:100E3000121F116025E014492831884208D1124957
:100E4000091F096841F470610F4A121F116018E010
:100E50000D493C31884208D10B49091F096841F40A
:100E60007041094A121F11600BE007495031884256
:100E700007D10549091F096841F47021024A121F70
:100E800011607047080002400804024010B50022BB
:100E9000026847F6F0739A430C6A8B6823430C6927
:100EA00023434C6923438C692343CC6923434C6A15
:100EB00023438C6A23431A430260CB6843600B6868
:100EC00083604B68C36010BD2DE9F04102460025E8
:100ED0000026002000230024002791F803C00CF016
:100EE0000F0591F803C00CF0100CBCF1000F03D0FB
:100EF00091F802C04CEA050591F800C0BCF1000F62
:100F000031D0146800202BE04FF0010C0CFA00F3F4
:100F1000B1F800C00CEA03069E4220D183004FF0D6
:100F20000F0C0CFA03F7BC4305FA03FC4CEA04046B
:100F300091F803C0BCF1280F06D14FF0010C0CFA58
:100F400000FCC2F814C00AE091F803C0BCF1480FDD
:100F500005D14FF0010C0CFA00FCC2F810C0401C87
:100F60000828D1D31460B1F800C0BCF1FF0F34DD04
:100F7000546800202EE000F1080C4FF0010808FA38
:100F80000CF3B1F800C00CEA03069E4221D18300A5
:100F90004FF00F0C0CFA03F7BC4305FA03FC4CEAC4
:100FA000040491F803C0BCF1280F05D100F1080C2E
:100FB00008FA0CF8C2F8148091F803C0BCF1480F8D
:100FC00007D100F1080C4FF0010808FA0CF8C2F83C
:100FD0001080401C0828CED35460BDE8F08100008A
:100FE000F0B50A46002300240021002500F0004649
:100FF000B6F1004F02D11D4EF16901E01B4E716840
:10100000C0F3034583B200F44016B6F5401F08D183
:1010100021F07061154E766826F07066134F7E6081
:1010200012E000F48016B6F5801F06D1032606FAFA
:1010300005F4A14341F0706106E0460D360103FA64
:1010400006F6B14341F0706122B1460D360103FA54
:1010500006F6314300F00046B6F1004F02D1034ED0
:10106000F16101E0014E7160F0BD0000000001403F
:101070000246002093680B400BB1012000E00020E5
:101080007047416170470161704700004CF6CC40E9
:101090000149086070470000003000404AF6AA206D
:1010A0000149086070470000003000400149486075
:1010B0007047000000300040014988607047000020
:1010C00000300040014908607047000000300040D7
:1010D00070B5002100230F22C47804B3154C246896
:1010E00004F4E064C4F5E064210AC1F10403CA40D9
:1010F000447804FA03F184781440214309010E4C2A
:101100000678A155047804F01F050124AC40057849
:101110006D11AD0005F1E025C5F8004109E0047846
:1011200004F01F050124AC40044D0678761145F803
:10113000264070BD0CED00E000E400E080E100E03E
:1011400002490143024A1160704700000000FA059D
:101150000CED00E001460020034A506820F44040B6
:1011600008435060704700000010024029B1064A51
:1011700052690243044B5A6104E0034A52698243B4
:10118000014B5A61704700000010024029B1064A25
:10119000D2690243044BDA6104E0034AD269824314
:1011A000014BDA61704700000010024029B1064A85
:1011B00092690243044B9A6104E0034A92698243B4
:1011C000014B9A61704700000010024029B1064AA5
:1011D000D2680243044BDA6004E0034AD2688243D7
:1011E000014BDA60704700000010024030B500216A
:1011F0000022002400232D4D6D6805F00C0121B163
:10120000042905D0082923D105E0294D056022E0F5
:10121000274D05601FE0254D6D6805F47012234DC4
:101220006D6805F48034022505EB92421CB9214D0E
:10123000554305600BE01D4D6D6805F400351DB18B
:101240001C4D5543056002E0194D5543056002E011
:10125000174D056000BF00BF144D6D6805F0F0012B
:101260000909154D6B5C0568DD4045600F4D6D68E3
:1012700005F4E061090A104D6B5C4568DD4085604E
:101280000A4D6D6805F46051C90A0B4D6B5C4568E9
:10129000DD40C560054D6D6805F44041890B074D83
:1012A0006B5CC568B5FBF3F5056130BD001002400D
:1012B00000127A0000093D001800002028000020DC
:1012C00010B501460022002300204A11012A02D154
:1012D000094C236806E0022A02D1074C236A01E088
:1012E000054C636A01F01F02012494401C400CB1BC
:1012F000012000E0002010BD0010024001490860FC
:10130000704700008004424210B500F001F810BDA3
:101310000CB50020019000903348006840F4803004
:101320003149086000BF3048006800F40030009088
:101330000198401C0190009818B90198B0F5A06F71
:10134000F1D12948006800F4003010B1012000906C
:1013500001E0002000900098012843D12348006854
:1013600040F01000214908600846006820F00300A2
:1013700008600846006840F0020008601A484068AB
:10138000194948600846406848600846406840F48B
:10139000806048600846406820F47C104860084639
:1013A000406840F4E81048600846006840F08070EB
:1013B000086000BF0C48006800F000700028F9D0F9
:1013C0000948406820F00300074948600846406823
:1013D00040F00200486000BF0348406800F00C0085
:1013E0000828F9D10CBD0000001002400020024086
:1013F000042808D14FF0E021096941F004014FF0C1
:10140000E022116107E04FF0E021096921F00401B9
:101410004FF0E0221161704710B51348006840F0AA
:1014200001001149086008464068104908400E490B
:101430004860084600680E4908400B4908600846A5
:10144000006820F4802008600846406820F4FE0010
:1014500048604FF41F008860FFF756FF4FF00060B0
:101460000449086010BD0000001002400000FFF8B1
:10147000FFFFF6FE08ED00E010B50121074800F07F
:101480003BF850B10648007820F00100401C0449A8
:1014900008700121014800F011F810BD000C004057
:1014A0009201002021B1028842F08002028004E013
:1014B00002884FF67F731A4002807047CA43028247
:1014C000704721B1028842F00102028004E00288E4
:1014D0004FF6FE731A400280704731B1B0F84420D5
:1014E00042F40042A0F8442005E0B0F84420C2F3E2
:1014F0000E02A0F84420704730B5024600200023B9
:101500000024158A05EA0103958905EA010413B14F
:101510000CB1012000E0002030BD1AB183890B43DB
:10152000838102E083898B438381704770B50024F7
:1015300000220023058C4FF6FE7635400584028C90
:101540008388048B4FF68F752C40B51E2C400D8878
:101550002C43751E2A400D892A434D882A43144D79
:10156000A8420BD0134DA84208D0134DA84205D075
:10157000124DA84202D0124DA84213D14FF6F77572
:101580002A404D892A434FF6FB752A408D882A430D
:101590004FF6FF652B404FF6FF552B408D892B43AF
:1015A000CD892B4383800483CD888586028470BDDA
:1015B000002C014000340140004001400044014043
:1015C000004801400A460021018B4FF6F77319408D
:1015D000114301837047000070B5002400220023EE
:1015E000058C4FF6EF7635400584028C8388048B9A
:1015F00048F6FF752C404FF6FF452C400D884FF6FE
:10160000FF7606EA05252C434FF6DF752A400D8943
:1016100006EA05152A434D8806EA05152A43154DA5
:10162000A84202D0144DA8421DD14FF67F752A4022
:101630004D894FF6FF7606EA05152A434FF6BF752A
:101640002A408D8806EA05152A434FF6FF352B40C0
:101650004FF2FF752B408D8906EA85052B43CD8916
:1016600006EA85052B4383800483CD8805870284A1
:1016700070BD0000002C0140003401400A460021EA
:10168000018B4FF2FF7319404FF6FF7303EA0223F9
:10169000194301837047000070B500220023002425
:1016A000058C4EF6FF7635400584038C8488828B4A
:1016B00048F6FF752A404FF6FF452A400D884FF641
:1016C000FF7606EA05252A434DF6FF752B400D8966
:1016D00006EA05352B434D8806EA05352B430B4DAD
:1016E000A84202D00A4DA84208D14BF6FF752C4003
:1016F0008D894FF6FF7606EA85152C438480828318
:10170000CD88A0F84050038470BD0000002C01403B
:10171000003401400A460021818B4FF2FF731940CB
:101720004FF6FF7303EA02231943818370478186D2
:10173000704701877047A0F8401070470022028868
:101740001D4B98420ED01D4B98420BD0B0F1804FEC
:1017500008D01B4B984205D01A4B984202D01A4B26
:10176000984204D14FF68F731A404B881A43174B97
:10177000984207D0164B984204D04FF6FF431A40C8
:10178000CB881A4302808B8883850B8803850A4B9C
:1017900098420BD0094B984208D00E4B984205D086
:1017A0000D4B984202D00D4B984201D10B7A038623
:1017B0000123838270470000002C01400034014067
:1017C0000004004000080040000C004000100040F1
:1017D0000014004000400140004401400048014026
:1017E00010B540F22551384800F03BF9002843D0AD
:1017F000354800F0F1F935490988C82291FBF2F328
:1018000002FB1311324A505430480088C82190FB23
:10181000F1F201FB12002E49085C082822D12B4866
:10182000008802281ADB29480088C82190FBF1F2C1
:1018300001FB1200264900220A5424480088C821CE
:1018400090FBF1F201FB1200401E214900220A54D4
:101850001E480088401E1D49088008E000201B49E2
:10186000088004E019480088401C1849088040F2AC
:101870002551154800F0DAF840F22771124800F0BF
:10188000F0F800B313480088C82190FBF1F201FB87
:10189000120011490C5C21460B4800F0A2F90D48DA
:1018A0000088401C0B4908800C480088401E0988AD
:1018B000884208DA002240F22771034800F0FBF862
:1018C00000200449088010BD003801409C01002020
:1018D00018270020A40100200C290020A2010020CC
:1018E00010B540F22551224800F0BBF8A8B12048BD
:1018F00000F072F91F490988642291FBF2F302FBA0
:1019000013111D4A50541B480088401C1949088077
:1019100040F22551164800F089F840F2277114482A
:1019200000F09FF810B315480088642190FBF1F295
:1019300001FB120012490C5C21460D4800F051F9E0
:101940000E480088401C0D4908800E480088401E43
:10195000098888420ADA002240F22771044800F020
:10196000AAF800200549088005F0A0FE10BD00007F
:10197000004400409E010020E0270020AC01002030
:10198000D4290020AA01002010B540F22551214899
:1019900000F067F8A8B11F4800F01EF91E49098839
:1019A000C82291FBF2F302FB13111C4A50541A484F
:1019B0000088401C1849088040F22551154800F065
:1019C00035F840F22771134800F04BF800B3144883
:1019D0000088C82190FBF1F201FB120011490C5C58
:1019E00021460C4800F0FDF80D480088401C0C49C9
:1019F00008800D480088401E0988884208DA0022C5
:101A000040F22771034800F056F80020044908808E
:101A100010BD000000480040A00100204428002024
:101A2000B4010020382A0020B201002010B50022A5
:101A3000002340F66A14A14200D100BF0A1201241B
:101A40009440A3B2DC43048010BD21B1828942F4EA
:101A50000052828104E082894DF6FF731A40828130
:101A6000704770B50246002400230025002040F690
:101A70006A16B14200D100BFC1F3421501F01F0345
:101A8000012606FA03F3012D02D19689334006E0C0
:101A9000022D02D1168A334001E0968A33400C129F
:101AA000012606FA04F41688344013B10CB1012063
:101AB00000E0002070BDF0B503460024002600259C
:101AC000002040F66A17B94200D100BF1846C1F3A2
:101AD000421401F01F06012707FA06F5012C01D177
:101AE0000C3004E0022C01D1103000E014301AB1A7
:101AF00007682F43076002E00768AF430760F0BD47
:101B00002DE9F04786B005460E460024A24600BFE8
:101B1000A1460027B08900B100BF2F462C8A4CF6A1
:101B2000FF700440F08804432C82AC894EF6F31019
:101B30000440B08831890843718908430443AC816B
:101B4000AC8A4FF6FF400440B0890443AC8201A840
:101B5000FFF74CFB1F48874202D1DDF810A001E0DF
:101B6000DDF80CA0A88900F4004040B10AEBCA00DF
:101B700000EB0A1031684900B0FBF1F807E00AEB0E
:101B8000CA0000EB0A1031688900B0FBF1F864204C
:101B9000B8FBF0F004012009642101FB1089A88939
:101BA00000F4004040B1322000EBC900B0FBF1F07E
:101BB00000F00700044308E0322000EB0910642124
:101BC000B0FBF1F000F00F0004432C8106B0BDE83B
:101BD000F08700000038014001468888C0F3080003
:101BE0007047C1F308028280704700000FB4084BB1
:101BF00010B504A902AA039800F0D2F8044602A97D
:101C0000002000F064FC204610BC5DF814FB0000CE
:101C1000CF240008004870470027002002E008C8D1
:101C2000121F08C1002AFAD170477047002001E056
:101C300001C1121F002AFBD1704700002DE9FF5F90
:101C4000DDE90220010DDDF838B0024318D044F67A
:101C50001050A1F2FF3141430D140F98012820D0FC
:101C6000A5EB0B00401C5FEA000A4FF00004474E52
:101C7000DFF81C91A046504616D5CAF1000728E0AF
:101C80000F98012443A2012808D0002100980F9B3F
:101C9000C0E90021C0E90243BDE8FF9F6FEA0B01E4
:101CA000F4E7CBF10000DEE7074612E0F80707D0C3
:101CB0002246334640464946FEF7CDFB80468946DC
:101CC0002246334610461946FEF7C5FB04460E462B
:101CD0007F10002FEAD1DDE90201BAF1000F424680
:101CE0004B4602DAFEF7B7FB01E0FEF726FC04469E
:101CF0000E460022284BFEF76FFE03D84FF0FF3050
:101D0000014607E00022254B20463146FEF7FCFA4B
:101D1000FEF749FE102409E0002C0ADB0A2200230A
:101D2000FEF713FD019B30321A55641E50EA010282
:101D3000F2D1641C019AC4F1110314440F9A012AD0
:101D400003D0012208430DD10AE0084304D000204B
:101D50004FF0110B0F9080E7A3EB0B056D1E0DE00C
:101D60005B4504DD4FF0000205F1010504E003DAF4
:101D70004FF00002A5F10105002AECD000980F9960
:101D8000C0E90231C0E9004586E7000000002440B8
:101D90000000F03F300000000000F0430000E03F92
:101DA0002DE9FF4F95B09B468946064600250FE278
:101DB000252877D100242746F84A0121059400E020
:101DC000044316F8013F203B01FA03F01042F7D11B
:101DD00030782A2811D06FF02F033078A0F130022C
:101DE000092A16D8059A44F0020402EB820203EB9A
:101DF00042021044761C0590EFE759F8042B059237
:101E0000002A03DA504244F40054059044F00204DE
:101E1000761C30782E2816D116F8010F44F00404F1
:101E20002A280DD06FF02F023078A0F13003092B53
:101E300009D807EB870302EB4303C718761CF3E7C7
:101E400059F8047B761C30786C280FD006DC4C28BF
:101E500017D068280DD06A2814D104E0742810D057
:101E60007A280FD10DE044F400140AE044F4801401
:101E700001E044F440147278824202D104F58014E7
:101E8000761C761C307866280BD013DC582877D067
:101E900009DC002875D04528F6D04628F4D047281C
:101EA0001AD19DE118E0632835D0642879D06528DF
:101EB00012D195E1702873D008DC6728F1D0692829
:101EC0006FD06E280DD06F2806D1B5E073282CD0C6
:101ED000752875D0782874D05A46179990476D1C8C
:101EE00075E1C4F30250022809D003280DD0D9F8B7
:101EF000001004280DD00D6009F1040967E1D9F83C
:101F00000010EA17C1E90052F6E7D9F800100D8079
:101F1000F2E70D70F0E719F8041B8DF800100020AF
:101F20008DF80100EA46012003E059F804AB4FF0B8
:101F3000FF3061074FF0000102D40DE008F101010C
:101F40008846B9420FDA8045F8DB1AF808100029F4
:101F5000F4D108E008F1010188468142FADB1AF861
:101F600008100029F6D105985B46A0EB080721462A
:101F70003846179A00F094FA284400EB080507E069
:101F80004DE029E10DE01AF8010B5A4617999047E8
:101F9000B8F10108F7D25B4621463846179A13E19B
:101FA00042E00A220092C4F302524FF0000A022AD1
:101FB00008D059F804CB032A4FEAEC710AD00DE09F
:101FC00029E02AE009F1070121F00702F2E802C145
:101FD000914609E00FFA8CFC4FEAEC71042A03D118
:101FE0004FFA8CFC4FEAEC71002907DA0A4600210F
:101FF000DCF1000C61EB02012D2202E0220504D588
:102000002B228DF80420012203E0E20701D02022D8
:10201000F7E7904659E00A2102E010220DE0102176
:102020004FF0000A00910BE010224FF0000A44F03C
:1020300004040827009203E008224FF0000A0092EF
:10204000C4F30252022A05D059F804CB0021032A16
:1020500008D009E009F1070121F00702F2E802C106
:10206000914605E01FFA8CFC042A01D10CF0FF0C0C
:102070004FF00008220728D5702806D0009B83F077
:10208000100353EA0A0305D00EE040228DF8042025
:10209000012208E05CEA010206D030228DF804201B
:1020A0008DF8050002229046009B83F0080353EA56
:1020B0000A030AD15CEA010201D1620705D5302288
:1020C0008DF804204FF001087F1E582804D034A05A
:1020D00003900EA802900DE036A0F9E75346604643
:1020E000009AFEF732FB84460398825C0298401EF9
:1020F000029002705CEA0100F0D1029806A9081A69
:1021000000F1200A600702D524F4803400E00127A2
:10211000574502DDA7EB0A0000E0002000EB0A01B2
:10212000009005984144401A0590E00306D45B46B0
:102130002146179A059800F0B3F90544002706E0F8
:1021400001A85A46C05D179990476D1C7F1C4745F2
:10215000F6DBE0030CD55B462146179A059800F0A4
:102160009FF9054404E030205A46179990476D1CAA
:102170000099481E00900029F5DC08E002980299B9
:102180005A460078491C0291179990476D1CBAF184
:102190000001AAF1010AF1DC65E100000928010053
:1021A00030313233343536373839616263646566CD
:1021B000000000003031323334353637383941428F
:1021C000434445460000000000F058F90544761CE1
:1021D000307800287FF4ECAD19B02846BDE8F08FC8
:1021E000620700D4062709F1070222F0070CFCE879
:1021F0000223E14603F000485FEA080C02D00FF228
:10220000702C0DE05FEA045C02D50FF2682C07E049
:102210005FEAC47C02D00FF2602C01E0AFF2700CD8
:102220004FF0FF3823F00043CDF850C065280CD0A4
:1022300006DC452809D046281DD047283DD13DE081
:10224000662818D067287ED138E00021112F01DBE5
:10225000112000E0781CCDE9000106A90EA8FFF7C7
:10226000EDFCDDE90F010E9A03910021009207F1C8
:10227000010A04914DE04FF000400097CDE90110B4
:1022800006A90EA8FFF7DAFCDDE90F0203920E9B08
:1022900011990022DDF80CA00093049211B9791C69
:1022A00000EB010AB7EB0A0004D4C0F1FF3007F1DC
:1022B000010A0490AAEB0700019044E0012F00DA24
:1022C00001270021112F01DD112000E03846CDE962
:1022D000000106A90EA8FFF7B1FCDDE90F010E9A77
:1022E0000391002104910092BA4621070CD403996E
:1022F000514500DA8A46BAF1010F05DD009AAAF1CC
:102300000101515C302908D0B84202DA10F1040F03
:1023100006DA0121CDE9011015E0AAF10101E9E792
:10232000002805DC049901440491AAEB000102E0B5
:10233000411C514500DD8A460499401A401C019019
:102340004FF000400290200704D40198504501DB73
:10235000CDF8048000208DF84F0002980DF14F0752
:10236000B0F1004F25D02B200E9002984FF00208BC
:1023700000280CDA404202902D200E9007E00A213E
:102380000298FEF7CCF93031029007F8011DB8F140
:102390000001A8F10108F2DC02980028EFD1791EB3
:1023A0000E980870307800F0200040F0450007F8E3
:1023B000020D12A8C01B00F107081498007800B1A4
:1023C000012000EB0A01019801EBE07105984144FE
:1023D000401A401E0590E00306D45B462146179A3A
:1023E000059800F05DF805441498007818B15A4635
:1023F000179990476D1CE00324D55B462146179A38
:10240000059800F04DF805441CE00498002807DB0F
:10241000DDE90301884203DD0098405C179901E083
:10242000179930205A469047049805F10105401C41
:1024300004900198401E019004D12E205A4617990D
:1024400090476D1CBAF10001AAF1010ADDDC05E03C
:1024500017F8010B5A46179990476D1CB8F1000107
:10246000A8F10108F4DC5B462146179A0598ABE613
:102470002D0000002B000000200000002DE9F0419D
:10248000044600251E461746880404D405E0394654
:102490002020B0476D1C641EF9D52846BDE8F081A8
:1024A0002DE9F041044600251E469046C80301D59B
:1024B000302700E02027880404D505E0414638464F
:1024C000B0476D1C641EF9D52846BDE8F0810A6846
:1024D000531C0B60107070472DE9F04104460D4607
:1024E000A5B10A2094FBF0F100FB1140124931F82C
:1024F00010600A2094FBF0F100FB11400F4951F8E5
:10250000207031463846FEF7BEFD13E00A2094FBEA
:10251000F0F100FB1140084931F810600A2094FBEB
:10252000F0F100FB1140054951F820703146384662
:10253000FEF7A7FDBDE8F0817C01002054010020DA
:1025400010B50A484078C0F3800000B910BD0748B4
:10255000407820F004000549487000F011F800F0C0
:1025600099F900F033FA00BFF0E700009201002073
:1025700010B500F05DF800F0C3F900F031FA10BDBD
:1025800010B500242348007838BB00F0DDFA00B312
:1025900000BF04E0002020490855601CC4B2052C8F
:1025A000F8DB01201B4908701C49002005F078F871
:1025B0001B49012005F074F81A49022005F070F853
:1025C0001949032005F06CF81849042005F068F853
:1025D0001FE000200F4908701BE0002417E00E48A0
:1025E000005D012806D1204602F014FB10B903203B
:1025F000094908550848005D022806D1204602F026
:1026000009FB10B9002004490855601CC4B2052C10
:10261000E5DB10BD4926002044260020355B00087C
:102620003F5B0008495B0008535B00085D5B0008E6
:1026300010B5002400BF0CE0611DC8B202F0D6FA4C
:1026400028B14FF42F720121204605F08BFD601C4C
:10265000C4B2052CF0DB00F077FA00B3002404E0EC
:10266000002011490855601CC4B2052CF8DB01207C
:102670000E4908700E49002005F012F80D4901209E
:1026800005F00EF80C49022005F00AF80B4903206A
:1026900005F006F80A49042005F002F802E00020DF
:1026A0000249087010BD0000442600204926002081
:1026B000355B00083F5B0008495B0008535B00087E
:1026C0005D5B000870B58EB005460E460024022EF4
:1026D0000FD128780D280CD168780A2809D11FA0BD
:1026E00001F070FB002022490870224908700EB0EA
:1026F00070BD00240BE0285D0D2802D0285D202845
:1027000000D106E0285D01A90855601CC4B2B4429E
:10271000F1DB00BF002001A90855002416E004EBFE
:10272000840000EBC400144A02EBC000011D01A8A4
:10273000FDF745FD40B904EB840101EBC4010E4AED
:1027400052F831008047D2E7601CC4B2592CE6D35E
:102750000AA001F037FB00BFC9E70000636F6D6599
:1027600067656E6520636F6D6D616E643A00000091
:10277000F4010020F7010020F8010020696E766165
:10278000696C6420636F6D6D616E640D0A000000FA
:102790002DE9F041B4B01C48407800F0010010B9B8
:1027A00034B0BDE8F0811848407820F001001649A7
:1027B000487001F0C5FA30B1144801881448FFF799
:1027C00081FF00F0D3F913480078D8B11249488846
:1027D000FDF72BFF8046FDF773FF04460D460E49BB
:1027E0000888FDF722FF8046FDF76AFF064632465D
:1027F0000B460AA102A8CDE90045FFF7F7F902A8A8
:1028000001F0E0FA00BFCBE7920100209C0100201C
:1028100018270020F4010020E432002074656D7058
:10282000312C25663B74656D70322C25663B0A00A1
:1028300000B5B5B000200C4908700C4908700C496F
:1028400008700C4908700CA00EA101221346CDE9B6
:102850000021029002220E4903A8FFF7C7F903A83E
:1028600001F0B0FA35B000BDF4010020F501002000
:10287000F6010020F701002031373A30373A343979
:1028800000000000446563203135203230313900CA
:10289000B097000810B5002400BF28E01548005D7F
:1028A00070B91548005D03281FD1611DC8B202F040
:1028B0009DF9D0B90120114908550E49085514E079
:1028C0000D48005D032810D1611DC8B202F08EF9D9
:1028D00058B10A48005D012807D1204603F0F6F8F8
:1028E00000200649085503490855601CC4B2052C50
:1028F000D4DB10BD4F260020442600204A260020AD
:10290000002000BF06E00021044A1154044A11547B
:10291000411CC8B20528F6DB704700004A2600209B
:102920004F26002010B50F480078C0F3801000B982
:1029300010BD0C48007820F040000A49087006F0ED
:102940001BFA00F075FA02F0CDFB00B9F0E702F0D7
:10295000ABFB012802D100F0C9FA01E001F03EFA18
:1029600000BFE5E79201002010B5002400BF0FE092
:102970004FF0FF300F4921F8140000200E4921F8D4
:1029800014000E4921F814000D490855601CC4B20A
:102990000A2CEDDB002005F05FFD002009490870DE
:1029A0000949087006F05CFA00F088FA03F0F8FCB8
:1029B00010BD0000023300202A3300203E330020E7
:1029C000F8320020262600202726002010B504F02B
:1029D000A1FC04F0A5FB04F053FC05F021FE10BDA2
:1029E00010B50020044908800449088003F030F83D
:1029F00004F040FC10BD00005426002056260020A4
:102A000000B599B064221D496846FDF7ADFB1C482E
:102A10004078C0F3001008B919B000BD18484078DC
:102A200020F010001649487003F09EF818B302F029
:102A30004DFBE0B1134800885A2818DA0DF109025D
:102A400010480188104802F0D5FE10A001F0BAF934
:102A5000012001F091FC684601F0B4F90A2001F070
:102A60008BFC0AA001F0AEF9012001F085FC03F017
:102A70001DF900F089F800BFCEE70000FC950008C2
:102A800092010020A0010020442800200D0A00002F
:102A90007047000010B5024801F094F910BD000025
:102AA0006C99000870B5054600240DB9002070BD72
:102AB0001748007848B116480078032805D0144814
:102AC0000078052801D004F0BFF8002411E00120AF
:102AD000A040284058B101200E49085500200E4959
:102AE00008800E4908800021204606F07BFB601C10
:102AF000C4B2052CEBDB0021062006F073FB00219D
:102B0000084602F06FFF01200149087000BFCEE7C0
:102B1000F0260020F1260020F6260020F8260020CE
:102B200010B5FF20FFF7BEFF01A001F04BF910BD6B
:102B30006368616E67652077617465722073756381
:102B4000636573730D0A000010B5002400BF08E030
:102B5000204602F05FF8042801D1002010BD601C5F
:102B6000C4B2052CF4DB0120F8E7000010B50448DE
:102B700001880448FDF711FB00200149088010BDC1
:102B80009C0100201827002010B505480188054841
:102B9000FDF703FB0020024908800349088010BDAF
:102BA000A001002044280020B0010020052190FB56
:102BB000F1F201FB1201104A00235354052190FB4E
:102BC000F1F201FB12010D4A5354052190FBF1F281
:102BD00001FB12010A4A5354052190FBF1F201FB5B
:102BE0001201084A5354052190FBF1F201FB120136
:102BF000054A012353547047A8260020B22600201E
:102C0000BC260020B7260020C626002010B50548A7
:102C100001880548FDF7C1FA0020024908800349F0
:102C2000088010BD9E010020E0270020A8010020A0
:102C300010B500200249087002A001F0C3F810BDD1
:102C4000F6010020626F782073706565642064650A
:102C500062756720636C6F7365207375636365735A
:102C6000730D0A0070B50446052094FBF0F100FBDB
:102C70001140C5B20021284605F094FB052094FBC5
:102C8000F0F100FB1140024900220A5470BD00001F
:102C9000C1260020F0B5AFB004460026002500276D
:102CA000E5884FF6FF7000EA05252089054366890F
:102CB0004FF6FF7000EA0626A0890643042D15DDB5
:102CC00002F004FA28B134A001F07CF80A2001F0E7
:102CD00053FB0120ADF858000220ADF85A00022243
:102CE00016A9002004F030FB2FB0F0BD01208DF8B4
:102CF0001400E8B28DF815000EB1012000E00020AC
:102D00008DF8180002F0E2F950B12A4626A109A870
:102D1000FEF76CFF09A801F055F80A2001F02CFB22
:102D20009DF8150003F04AFB9DF8150005F0C4FF5F
:102D300002F026F9012815D101A801F083FFDDE991
:102D40000101CDE903019DF80D009DF815108842A1
:102D500008D101208DF82100DDE9070105F064FAB2
:102D600004F0D8FA02F0B2F950B11FB116A001F088
:102D700029F802E019A001F025F80A2001F0FCFA78
:102D80000020ADF85800ADF85A00022216A9012023
:102D900004F0DAFA00BFA7E7696420707261206569
:102DA00072726F720D0A0000636C6F736520746538
:102DB0006D7020636F6E74726F6C202025642073B9
:102DC00075636365737321006F706572617465204C
:102DD00073756363657373210D0A00006F7065720C
:102DE000617465206661696C642071756575652024
:102DF00066756C6C210D0A0010B500200249087040
:102E000002A000F0DFFF10BDF50100207466742001
:102E1000636F6D207472616E736D697420636C6F83
:102E2000736520737563636573730D0A000000009A
:102E300070B5002400BF37E0204601F0F7FC88B3EE
:102E40001B4830F81400401C194921F81400194996
:102E500031F81400164931F8141000EBD072B1EBC0
:102E6000620F09DD052094FBF0F100FB1140C5B2B3
:102E70000121284606F0D0F80D4830F814000D491D
:102E800031F8141088420DDD0020094921F81400A2
:102E9000094908550021204604F054FF002120462E
:102EA00005F0B8F9601CC4B2052CC5DB70BD00008C
:102EB0005C3300206633002039260020002000BF4C
:102EC0000BE00021064A22F81010064A1154642132
:102ED000054A22F81010411CC8B20528F1DB7047E2
:102EE0005C3300203E260020663300202DE9F04FA1
:102EF000CDB000204B904A9049908246489083463E
:102F00000026814600250024DE4800880A2190FB27
:102F1000F1F201FB120085B2DA48408890FBF1F231
:102F200001FB120084B2D84830F8150000B2D7492E
:102F300021F81500D44830F8140000B221F814002C
:102F4000D34830F8150031F81510401A00B2D149B5
:102F500021F81500CE4830F81400CC4931F814108F
:102F6000401A00B2CB4921F81400CB48007858B978
:102F7000C64830F91500C9490988884204DD012096
:102F8000C7490870C4490870C648007858B9BF4896
:102F900030F91400C1490988884204DD0120C24982
:102FA0000870C0490870BE48007888B1BF480088E2
:102FB000401CBE490880BE48008800EB800009889C
:102FC000B1EB400F04DD0020B8490880B449087017
:102FD000B548007888B1B7480088401CB5490880DA
:102FE000B348008800EB80000988B1EB400F04DD96
:102FF0000020B0490880AC490870A24800880A2126
:1030000090FBF1F201FB1200A24931F910000028F7
:1030100040DD31F91500FDF7FFFA0746A649FDF737
:1030200041F949909B4931F91500FDF7F5FA8046C1
:10303000A24931F91500FDF7EFFA41461590FDF769
:103040002BF907469E49FDF72DF9824651464998CE
:10305000FDF7D0F84B908F4830F81500974921F8CC
:1030600015004B98FDF7E6FA06B2B6F57A7F01DD5A
:103070004FF47A76002E00DA00268948007820B1D5
:10308000E8B2002105F0D2F909E0B1B2E8B205F0EA
:10309000CDF904E000263146E8B205F0C7F97D48D5
:1030A00030F91400002845DD7A4931F91400FDF7A4
:1030B000B3FA07468049FDF7F5F84890754931F9AC
:1030C0001400FDF7A9FA80467C4931F91400FDF798
:1030D000A3FA41461590FDF7DFF807467849FDF75A
:1030E000E1F8834659464898FDF784F84A906948C4
:1030F00030F81400714921F814004A98FDF79AFA43
:103100000FFA80F9B9F57A7F01DD4FF47A79B9F1D8
:10311000000F01DA4FF000096348007820B1E0B2F7
:10312000002105F083F90BE01FFA89F1E0B205F008
:103130007DF905E04FF000094946E0B205F076F967
:10314000544830F915206FF009010A2005F0CCFD34
:1031500080B1504830F81400012800D100E0002070
:1031600002466FF009010A2005F0BEFD10B10120F2
:103170005449087001F07CFD00287DD04848007853
:10318000E8B349480078D0B35846FDF799FACDE93D
:1031900014014898FDF794FACDE912015046FDF765
:1031A0008FFACDE910014998FDF78AFA074688465B
:1031B000374830F91400354931F91410CDE90C9134
:1031C0000E90DDE91401CDE90A01DDE91201CDE936
:1031D00008012F4830F915002C4931F91510CDE9B7
:1031E0000461CDE90604DDE910012A46CDE9007845
:1031F000CDE90201344916A8FEF7F8FC3AE0FFE7F2
:103200005846FDF75DFA074688464898FDF758FA94
:10321000CDE914015046FDF753FACDE91201499862
:10322000FDF74EFACDE91001194830F9140017499D
:1032300031F91410CDE90B890A97CDE90D10DDE9BC
:103240001401CDE90801124830F915000F4931F990
:103250001510CDE90461CDE90604DDE91201CDE9DF
:103260000201DDE910012A46CDE90001174916A83F
:10327000FEF7BCFC16A800E001E000F0A3FD4DB095
:10328000BDE8F08F22260020E43200201633002013
:10329000023300202A3300202C260020282600207C
:1032A000322600202D260020332600202E26002046
:1032B0002A26002030260020000048413E3300200E
:1032C0000000A0C026260020B09A00082C9B000811
:1032D00010B502A000F076FD10BD0000436F7079BC
:1032E00072696768742028632920323030312D32AA
:1032F00030313920436F6D6567656E65204C4C43F6
:103300002E0D0A416C6C20526967687473205265F7
:103310007365727665642E0D0A000000044800880B
:103320000A2800DA704700200149088000BFF9E749
:103330009A010020164800880A2800DA7047002009
:10334000134908801348007820F0200020301149EC
:1033500008700846007820F04000403008700846A9
:10336000407820F00100401C48700846407820F06A
:103370000400001D48700846407820F0080008301E
:10338000487005480088401C0349088000BFD5E705
:1033900098010020920100209A0100201248007834
:1033A00000F0010000B970470F48007820F00100DC
:1033B0000D4908700846007820F00400001D0870D0
:1033C0000A480088401C09490880084600880A28E5
:1033D00008DD002008800448007820F00200801CEE
:1033E0000149087000BFDEE792010020940100202F
:1033F000164800880A2800DA704700201349088020
:103400001348007820F00800083011490870084679
:10341000007820F01000103008700846407820F046
:103420000200801C48700846407820F010001030E0
:1034300048700846407820F0200020304870054849
:103440000088401C0349088000BFD5E79601002092
:1034500092010020980100200C480078C0F3400041
:1034600000B970470948007820F002000749087049
:103470000846007820F080008030087004480088FA
:10348000401C0349088000BFEBE7000092010020C8
:10349000960100202DE9F047002419480078C0F378
:1034A000401008B9BDE8F0871548007820F02000EA
:1034B0001349087000241FE040F6C411204601F0B3
:1034C00005F9104921F8140031F81400FDF7ADF8A2
:1034D00082460D49FCF7E0FE8146FDF7F1F807460C
:1034E0000A4A0B4BFDF729F80546FDF7D0F80949C4
:1034F00021F81400601CC4B20A2CDDDB00BFD1E748
:1035000092010020D03200200000F043B81E85EB6D
:1035100051B8FE3FE432002010B592B000240121E2
:103520004802FDF743FE4FF40040FDF713FE00BFD5
:103530000FE0524830F81400ADF8300000208DF84C
:1035400033004F4951F824000CA9FDF7BDFC601C65
:10355000C4B20A2CEDDB4B48FDF70AFB00200D90AE
:1035600001208DF838008DF839004FF460200F905D
:10357000002010900A208DF844000DA94148FDF765
:1035800039FB0723012204213E48FDF75BFB07239B
:10359000022205213B48FDF755FB072303220621A4
:1035A0003848FDF74FFB0723042219463548FDF73D
:1035B00049FB0723052208213248FDF743FB072377
:1035C000062209212F48FDF73DFB07231A460A2151
:1035D0002C48FDF737FB072308220B212948FDF76C
:1035E00031FB072309220C212648FDF72BFB07237B
:1035F0000A220D212348FDF725FB01212148FDF773
:10360000ACFA01211F48FDF79DFA1E48FDF776FB35
:1036100000BF1C48FDF7E4FA0028FAD11948FDF76D
:103620007DFB00BF1748FDF7D1FA0028FAD1012130
:103630000846FDF79BFD1448FDF782FB11484C300E
:10364000019012480290002003904FF47A70049089
:103650000020059080200690400007908000089090
:103660002020099000020A9000200B9001A9064832
:10367000FDF70CFC04F0F6FF12B010BDE0010020D5
:10368000B80100200024014008000240002B002067
:1036900038B5002401214FF4FE70FDF787FD00BF0F
:1036A0001AE0334830F81400ADF8000010208DF80F
:1036B000030003208DF802002E4951F824006946CA
:1036C000FDF702FC2A4A32F814102A4A52F8240064
:1036D000FDF7D7FC601CC4B21C2CE2DB002420E008
:1036E000254830F81400ADF800000E2C05DD142C30
:1036F00003DA28208DF8030008E0052C03DA042003
:103700008DF8030002E048208DF8030003208DF8B7
:1037100002001A4951F824006946FDF7D5FB601CE8
:10372000C4B2152CDCDB002409E00121204605F0A1
:1037300073FC0121204600F0ABFF601CC4B2052CD5
:10374000F3DB002405E00121204605F04BFD601C61
:10375000C4B2072CF7DB0121002002F043F901215C
:10376000084602F03FF9012002F0D0FD38BD00000C
:103770009C0000202C00002028010020D400002004
:1037800070B5002400251F480078C0F3800000B900
:1037900070BD1C48007820F004001A49087000240D
:1037A0001FE0194830F81400A8B1681CC5B2022DFA
:1037B00000DD18E0204601F0F5FA14490988884236
:1037C00004DD01212046FEF787FE08E000212046A7
:1037D000FEF782FE03E000212046FEF77DFE601C1E
:1037E000C4B20A2CDDDB00BF08480088401C074932
:1037F000088008460088B0F57A7F01DD0020088047
:1038000000BFC5E79201002004270020900100209E
:1038100010B588B0002401210220FDF7B7FC01217A
:103820000920FDF7C3FC01218E48FDF7D9FB0220DA
:10383000ADF81C0018208DF81F0003208DF81E0025
:1038400007A98948FDF740FB42F22730ADF8140084
:103850000020ADF81000ADF81600ADF8120004A974
:103860008248FDF76BFF7020ADF800000120ADF835
:1038700002000220ADF8080069467C48FDF7ACFE66
:1038800008217A48FDF7FAFE01217848FDF719FE74
:1038900001210846FDF77AFC01210420FDF786FC92
:1038A0002020ADF81C0018208DF81F0003208DF893
:1038B0001E0007A96E48FDF707FB42F22730ADF85E
:1038C00014000020ADF81000ADF81600ADF812009D
:1038D00004A94FF08040FDF731FF7020ADF80000E3
:1038E0000120ADF802000220ADF80800694640074B
:1038F000FDF772FE0821C806FDF7C0FE012188070A
:10390000FDF7DFFD01210420FDF740FC0121082027
:10391000FDF74CFC4020ADF81C0018208DF81F006E
:1039200003208DF81E0007A95148FDF7CDFA80202D
:10393000ADF81C0018208DF81F0003208DF81E0024
:1039400007A94B48FDF7C0FA4FF40070ADF81C0012
:1039500018208DF81F0003208DF81E0007A9444889
:10396000FDF7B2FA42F22730ADF814000020ADF8AE
:103970001000ADF81600ADF8120004A93D48FDF79F
:10398000DDFE6020ADF800000120ADF8020000204F
:10399000ADF80600ADF8080069463648FDF7C6FDEB
:1039A0006020ADF800000120ADF802000020ADF865
:1039B0000600ADF8080069462E48FDF70DFE6020B0
:1039C000ADF800000120ADF802000020ADF80600BF
:1039D0000220ADF8080069462648FDF75DFE01218A
:1039E0002448FDF77AFD08212248FDF7EBFD082168
:1039F0002048FDF743FE08211E48FDF78BFE0121FC
:103A00001C48FDF74FFD01211A48FDF75AFD00BF84
:103A100005E00021084604F0C5FC601CC4B2052C7A
:103A2000F7DB00241AE0144830F81400ADF81C004D
:103A300010208DF81F0003208DF81E000F4951F84B
:103A4000240007A9FDF740FA0B4A32F814100B4A7C
:103A500052F82400FDF715FB601CC4B20A2CE2DB0F
:103A600008B010BD00081A00000801400004004022
:103A7000000C0140000800407C010020540100209F
:103A800010B5FFF78BFCFFF7E7FCFFF7B1FCFFF782
:103A900051FCFFF743FC10BD1FB501210820FDF7C5
:103AA00075FB40F2CF20ADF808000920ADF8040006
:103AB0000020ADF80A00ADF8060001A90D48FDF799
:103AC0003DFE012211460B48FDF727FD32208DF8FF
:103AD000000000208DF8010003208DF80200012075
:103AE0008DF803006846FDF7F3FA01210148FDF760
:103AF000E8FC1FBD000C004010B503F001FB10BD39
:103B000000B587B001218803FDF750FB4FF400702A
:103B1000ADF8180003208DF81A0018208DF81B004E
:103B200006A97348FDF7D0F94FF48060ADF818008E
:103B300004208DF81B0006A96D48FDF7C5F9252066
:103B40008DF8040003208DF8050002208DF8060092
:103B500001208DF8070001A8FDF7BAFA4FF4E13013
:103B600002900020ADF80C00ADF80E00ADF810008A
:103B7000ADF814000C20ADF8120002A95D48FDF765
:103B8000BFFF012240F225515A48FDF794FF002261
:103B900040F227715748FDF78EFF01215548FDF788
:103BA00054FF01210420FDF701FB01214804FDF72A
:103BB000EDFA0820ADF8180004208DF81B0006A9C6
:103BC0004B48FDF781F90420ADF8180003208DF86B
:103BD0001A0018208DF81B0006A94548FDF774F956
:103BE00026208DF8040003208DF8050002208DF8B2
:103BF000060001208DF8070001A8FDF769FA4FF4CF
:103C0000E13002900020ADF80C00ADF80E00ADF8E8
:103C10001000ADF814000C20ADF8120002A93648CF
:103C2000FDF76EFF012240F225513348FDF743FFB7
:103C3000002240F227713048FDF73DFF01212E4858
:103C4000FDF703FF01210820FDF7B0FA01218804E8
:103C5000FDF79CFA4FF40060ADF8180004208DF8D1
:103C60001B0006A92548FDF72FF94FF48060ADF839
:103C7000180003208DF81A0018208DF81B0006A9E3
:103C80001E48FDF721F94FF4E13002900020ADF815
:103C90000C00ADF80E00ADF81000ADF814000C20CB
:103CA000ADF8120002A91648FDF72AFF012240F2E2
:103CB00025511348FDF7FFFE01211148FDF7C5FE10
:103CC0004FF4A060FDF73CFA27208DF80400032094
:103CD0008DF8050002208DF8060001208DF8070000
:103CE00001A8FDF7F5F9002003F0E0FC07B000BDE6
:103CF000000801400038014000440040000C014031
:103D00000048004010B5FDF7C9F910BD10B50120FD
:103D1000FDF7F4FA00BF6120FDF7D2FA0028FAD0CF
:103D200045F25550FDF7CEF94020FDF7BFF940F2BE
:103D3000E240FDF7C1F9FDF7B1F9FDF7A7F910BDB4
:103D40000A48008808B90020704708480088801E8B
:103D50000749085C0D2807D104480088401E085C0C
:103D60000A2801D10120EFE70020EDE79C010020A7
:103D70001827002010B5FFF7C5FF0A2000F0FCFA55
:103D800010BD000070B505460C46C82C00DD70BDA6
:103D9000224629460748FCF7E7F907480480002037
:103DA00006490880012240F227710548FDF783FE8D
:103DB00000BFECE70C290020A2010020A401002094
:103DC0000038014070B504462046FCF7F1F985B291
:103DD00029462046FFF7D6FF70BD00002DE9F04FC1
:103DE000DFB000240027FEA000685E90A046A14638
:103DF000A24600205D905C90002500265B908346E3
:103E00005A90599000BF17E0F64830F8140000B2FD
:103E1000F54921F81400204600F024FF50B1F34882
:103E200030F81400F04931F81410401A00B2F0498B
:103E300021F81400601CC4B20A2CE5DB002418E051
:103E4000204600F00FFF88B1204601F0E9FD00B1E7
:103E50000DE0781CC7B2404608EBD0714910A8EBC2
:103E600041015EAA5454401C00F0FF0800BF601CD2
:103E7000C4B20A2CE4DB022F2FDD4FF0000900242E
:103E80000CE0DB4830F91400484505DDD84830F82F
:103E900014001FFA80F9A246601CC4B20A2CF0DBA1
:103EA0008DF878A14FF00009002412E09DF8780108
:103EB000A04200D10BE0CE4830F91400484505DDA2
:103EC000CB4830F814001FFA80F9A24600BF601CEE
:103ED000C4B20A2CEADB8DF879A1002F73D09DF8CB
:103EE00078010A2190FBF1F301FB1300C2B21046E6
:103EF00000F0B8FE00286DD09DF878010A2190FBF3
:103F0000F1F201FB1200BA4931F9100000285BDD23
:103F10009DF878010A2190FBF1F201FB1200B449EF
:103F200031F910002590FCF777FBB2492690FCF799
:103F3000B9F95B909DF87811AD4A32F91100FCF7A0
:103F40006BFB25909DF878010A2190FBF1F201FBB3
:103F50001200A94931F910002390FCF75DFB249071
:103F60002599FCF799F9A5492690FCF79BF983461A
:103F700059465B98FCF73EF95D909DF878010A215F
:103F800090FBF1F201FB1200994931F810009DF805
:103F900078110A2291FBF2F302FB1311964A22F8E0
:103FA00011005D98FCF746FB05B2B5F57A7F01DD9F
:103FB0004FF47A75002D00DA0025A9B29DF878013A
:103FC00004F034FA06E078E0002529469DF87801EF
:103FD00004F02CFA9DF879010A2190FBF1F301FB22
:103FE0001300C2B2104600F03DFE00286CD09DF8D0
:103FF00079010A2190FBF1F201FB12007C4931F9B1
:10400000100000285ADD9DF879010A2190FBF1F299
:1040100001FB1200764931F910002590FCF7FCFAFB
:1040200074492690FCF73EF95A909DF87911704A30
:1040300032F91100FCF7F0FA25909DF879010A2178
:1040400090FBF1F201FB12006B4931F91000239053
:10405000FCF7E2FA24902599FCF71EF967492690AF
:10406000FCF720F9599059995A98FCF7C3F85C90DD
:104070009DF879010A2190FBF1F201FB12005C49E5
:1040800031F810009DF879110A2291FBF2F302FB3E
:104090001311594A22F811005C98FCF7CBFA06B2CA
:1040A000B6F57A7F01DD4FF47A76002E00DA00262D
:1040B000B1B29DF8790104F0B9F905E00026314666
:1040C0009DF8790104F0B2F900240EE0204600F0DA
:1040D000C9FD40B1464830F914000A2803DB01202D
:1040E0004749087007E0601CC4B20A2CEEDB0020D0
:1040F0004349087000BF00F0BBFD002803D01FB982
:1041000040A0FFF75FFEA4E0042000F08FFD2690A2
:10411000032000F08BFD2590022000F087FD249005
:10412000012000F083FD2390002000F07FFD22900D
:104130005998FCF7C5FACDE920015A98FCF7C0FA66
:10414000CDE91E015846FCF7BBFACDE91C015B988E
:10415000FCF7B6FACDE91A01364800793549C97835
:10416000344A9278334B5B78CDE91532CDE917109C
:1041700030480078DDE924232699CDE91123CDE9E3
:1041800013109DF87921194B33F912209DF87931DC
:10419000DFF854C03CF91330DDE92210CDE90C639F
:1041A000CDE90E211090DDE92001CDE90A01DDE91C
:1041B0001E01CDE908019DF879119DF878010B4A9F
:1041C00032F910009DF87821634633F91220CDE9C9
:1041D0000452CDE90601DDE91C01CDE902012BE025
:1041E000FFFF0000E43200201633002002330020DD
:1041F0002A330020000048413E3300200000A0C0C8
:10420000272600207C20646563656E7472616C698A
:104210007A6564204D6F6465207C206E6F20726F1C
:104220006164206E65656420636F6E74726F6C20CC
:104230000D0A000039260020DDE91A01CDE9000150
:104240009DF87821044927A8FDF7D0FC27A8FFF79F
:10425000B9FD5FB0BDE8F08F909B000810B502A0DB
:10426000FFF7B0FD10BD00006B657920302065764A
:10427000656E742068617070656E64210D0A0000BF
:1042800010B502A0FFF79EFD10BD00006B65792000
:1042900031206576656E742068617070656E64218A
:1042A0000D0A000010B502A0FFF78CFD10BD000044
:1042B0006B65792032206576656E74206861707058
:1042C000656E64210D0A000010B502A0FFF77AFDAB
:1042D00010BD00006B65792033206576656E742013
:1042E00068617070656E64210D0A000010B502A04F
:1042F000FFF768FD10BD00006B65792034206576FE
:10430000656E742068617070656E64210D0A00002E
:1043100010B502A0FFF756FD10BD00006B657920B7
:1043200035206576656E742068617070656E6421F5
:104330000D0A000010B56FF00400FDF759F80A48A7
:1043400000680A49B0FBF1F0094908700846007896
:1043500000EB4001C1EBC0104FF6FF7101EAC00055
:104360000449088010BD00000000002000127A00FF
:1043700014000020160000200146114A12884A430A
:104380004FF0E0235A6100229A611A46126942F006
:1043900001021A6100BF4FF0E022106900F0010233
:1043A0001AB100F48032002AF5D04FF0E0221269F1
:1043B00022F001024FF0E0231A6100229A61704757
:1043C0001600002010B5044601F05EFB08B1002085
:1043D00010BD1648008800EB4000154911F8100088
:1043E00020701248008800EB400001EB400040784C
:1043F00060700E48008800EB400001EB40004088F0
:1044000060800A48008800EB400001EB4000007922
:10441000207106480088401C332190FBF1F201FB1B
:104420001200024908800120D2E700005426002033
:104430007033002013B501F035FB08B100201CBD1E
:1044400001F022FB18B39DF800002949098801EB0F
:104450004101284A02F811009DF801002449098809
:1044600001EB410102EB41014870BDF80200204917
:10447000098801EB410102EB410148809DF80400ED
:104480001B49098801EB410102EB410108719DF8CC
:1044900000001949098801EB4101164A02F8110090
:1044A0009DF801001449098801EB410102EB41012B
:1044B0004870BDF802001049098801EB410102EB88
:1044C000410148809DF804000B49098801EB410136
:1044D00002EB4101087108480088401C332190FB21
:1044E000F1F201FB1200044908800120A7E7000057
:1044F0005426002070330020562600202DE9F0417C
:10450000A6B0002400270025A046002600BF09E031
:104510004148005D202803D123A8C455781CC7B2A8
:10452000601CC4B23D4800888442F1DB022F05D0F4
:104530003BA0FFF747FC26B0BDE8F0819DF88C005A
:10454000401CC4B213E03448005D1EA948551EA8A3
:10455000405D302803DB1EA8405D392803DD30A014
:10456000FFF730FCE7E7681CC5B2601CC4B29DF8D9
:104570008D00A042E7DC00201EA9485500259DF8CB
:104580008D00401CC4B213E02348005D19A94855B2
:1045900019A8405D302803DB19A8405D392803DDE8
:1045A0001FA0FFF70FFCC6E7681CC5B2601CC4B2B1
:1045B0001A480088801EA042E6DC002019A9485550
:1045C0001EA8FBF70AFE1FFA80F819A8FBF705FEE4
:1045D00086B2B8F1040F03DD15A0FFF7F3FBAAE7DD
:1045E000012E04D01EB11AA0FFF7ECFBA3E70EB119
:1045F000012200E00022114608F0FF0003F0A8FBB2
:10460000334642461AA16846FDF7F0FA6846FFF7BE
:10461000D9FB00BF8FE70000182700209C01002075
:10462000636F6D6D616E64206572726F720D0A004A
:10463000696420707261206572726F72202C706CD8
:104640006561736520696E70757420302D340000CB
:10465000737720707261206572726F72202C706C9B
:104660006561736520696E70757420302F310000AC
:104670007365742066616E20636F6E20256420610F
:104680007320256420737563636573730D0A0000DE
:1046900070B504460D4655B104F10E02094B33F8CE
:1046A0001210094B53F82200FCF7EDFC09E004F16D
:1046B0000E02044B33F81210034B53F82200FCF7A0
:1046C000E0FC70BD9C0000202C0000202DE9F04F84
:1046D00087B082468B460024A1460020069000BF8A
:1046E00009E004EB8400184901EB800030F81A005F
:1046F0008144601C84B2642CF3DB6420B9FBF0F9C4
:104700005846FBF792FF0746FBF7DAFF05460E46D1
:104710004846FBF78AFF0190FBF7D2FF07460022CD
:104720000A4BFBF70AFF2A463346CDE90201FBF7A5
:1047300092FECDE90401FBF7AAFF80B2069006982D
:1047400007B0BDE8F08F0000002B00200000B04053
:104750000148007870470000F6010020014605205E
:1047600091FBF0F200FB1210014A105C7047000050
:104770004426002010B50020FFF7F0FF044634B1B6
:10478000012C08D0022C0AD0032C10D10BE009A078
:10479000FFF718FB0BE00DA0FFF714FB07E014A0D8
:1047A000FFF710FB03E01BA0FFF70CFB00BF00BFEF
:1047B00010BD00006E6F775F737461747573203A7B
:1047C000626F785F6F66660D0A0000006E6F775F3C
:1047D000737461747573203A626F785F72756E6E70
:1047E000696E675F666F72776172640D0A00000020
:1047F0006E6F775F737461747573203A626F785F60
:1048000072756E6E696E675F6261636B7761726409
:104810000D0A00006E6F775F737461747573203AD0
:10482000626F785F6F6E0D0A00000000014601485C
:10483000405C70473E260020014800787047000029
:104840002626002030B599B00024002500BF13E0D3
:1048500040F6C4112046FFF739FF05462B46224695
:1048600007A16846FDF7C2F96846FFF7ABFA0A20D0
:10487000FFF782FD601CC4B20A2CE9DB19B030BD21
:104880003E3E3E2061646320256420766F6C746137
:104890006765206973202564206D56200D0A00008D
:1048A00001480078704700002726002001460520B7
:1048B00091FBF0F200FB1210014A105C70470000FF
:1048C000FB26002010B500F007FC06281CD2DFE80C
:1048D00000F003070B0F13170DA0FFF773FA14E096
:1048E00014A0FFF76FFA10E01CA0FFF76BFA0CE0C2
:1048F00024A0FFF767FA08E02BA0FFF763FA04E0B3
:1049000031A0FFF75FFA00E000BF00BF10BD00005C
:104910004E6F7720737461747573203A206E6F5FE9
:10492000696E6A656374696F6E5F7461736B0D0A9B
:10493000000000004E6F7720737461747573203A25
:10494000206368616E67655F77617465725F6F751C
:10495000745F7374617475730D0A00004E6F772075
:10496000737461747573203A206368616E67655F64
:1049700077617465725F696E5F7374617475730DCE
:104980000A0000004E6F7720737461747573203ACB
:10499000206368616E67655F77617465725F646FDD
:1049A0006E650D0A000000004E6F7720737461740D
:1049B0007573203A206F75745F77617465725F73E9
:1049C00074617475730D0A004E6F7720737461748F
:1049D0007573203A206F75745F77617465725F64D8
:1049E0006F6E650D0A00000030B599B000240025F7
:1049F00000BF17E0204600F039F805462DB12246E9
:104A00000AA16846FDF7F2F804E022460FA16846C5
:104A1000FDF7ECF86846FFF7D5F90A20FFF7ACFC84
:104A2000601CC4B2062CE5DB19B030BD3E3E3E2012
:104A30006B657920256420766F6C746167652069E9
:104A4000732074727565200D0A0000003E3E3E2002
:104A50006B657920256420766F6C746167652069C9
:104A6000732066616C736520200D0A0010B5044642
:104A700004F10F02064B33F81210064B53F82200D4
:104A8000FCF7F6FA08B1012010BD0020FCE7000099
:104A900028010020D4000020014800787047000061
:104AA000FA26002030B599B00024002500BF17E099
:104AB000204600F03DF805462DB122460AA1684681
:104AC000FDF794F804E0224610A16846FDF78EF841
:104AD0006846FFF777F90A20FFF74EFC601CC4B266
:104AE0000A2CE5DB19B030BD3E3E3E206C69717585
:104AF000696420256420766F6C7461676520697332
:104B00002074727565200D0A000000003E3E3E20B4
:104B10006C697175696420256420766F6C746167B7
:104B2000652069732066616C7365200D0A000000C2
:104B300010B50446064A32F81410064A52F824000A
:104B4000FCF796FA08B1012010BD0020FCE7000038
:104B500028010020D400002030B599B000240025A1
:104B600000BF17E0204600F041F805462DB122466F
:104B70000AA16846FDF73AF804E0224611A168460A
:104B8000FDF734F86846FFF71DF90A20FFF7F4FB3C
:104B9000601CC4B20A2CE5DB19B030BD3E3E3E209D
:104BA0006D6F746F72206C696D6974202564207656
:104BB0006F6C746167652069732074727565200D70
:104BC0000A0000003E3E3E206D6F746F72206C69DB
:104BD0006D697420256420766F6C74616765206947
:104BE000732066616C7365200D0A000010B50446E1
:104BF000621D064B33F81210054B53F82200FCF7E8
:104C000037FA08B1012010BD0020FCE72801002080
:104C1000D40000200146052091FBF0F200FB1210A9
:104C2000014A105C70470000C126002001460520A3
:104C300091FBF0F200FB1210014A105C704700007B
:104C4000342600200CB506490A6800928988ADF820
:104C5000041000990160BDF8041081800CBD0000B3
:104C60005826002001460148405C7047F832002079
:104C70000148007870470000F701002030B599B076
:104C8000002400BF20E02046FFF7ECFF50B1204693
:104C9000FFF7E8FF05462B4622460DA16846FCF7C4
:104CA000A5FF09E02046FFF7DDFF05462B4622461B
:104CB00013A16846FCF79AFF6846FFF783F80A20BD
:104CC000FFF75AFB601CC4B20A2CDCDB19B030BD04
:104CD0003E3E3E2070696420636F6E74726F6C6C30
:104CE0006572202564206973206F6E20746172677D
:104CF00065742074656D70202564200D0A00000025
:104D00003E3E3E2070696420636F6E74726F6C6CFF
:104D10006572202564206973206F66662074617255
:104D20006765742074656D702025640D0A000000AD
:104D30001CB50C4A12880A44332392FBF3F403FB9C
:104D4000142202EB4202084B03EB42021368009369
:104D50009288ADF80420009A0260BDF80420828099
:104D60001CBD0000542600207033002010B5FFF752
:104D700093FE18B903A0FFF725F802E005A0FFF79E
:104D800021F810BD6C63645F706F7765725F6F664A
:104D9000660D0A006C63645F706F7765725F6F6E9B
:104DA0000D0A000001460A2091FBF0F200FB1210F0
:104DB000014A32F810007047042700200348008899
:104DC00003490988401A80B2704700005626002027
:104DD0005426002001480078704700006426002017
:104DE00010B58EB0002400BF34E022461BA101A8FC
:104DF000FCF7FCFE01A8FEF7E5FF02F01DF92046D6
:104E000000F058F9052822D2DFE800F003090F1559
:104E10001B0018A0FEF7D6FF02F00EF917E01AA04B
:104E2000FEF7D0FF02F008F911E020A0FEF7CAFF5C
:104E300002F002F90BE023A0FEF7C4FF02F0FCF839
:104E400005E027A0FEF7BEFF02F0F6F800BF00BFA6
:104E5000601CC4B2052CC8DB0EB010BD3E3E3E2027
:104E6000256420726F616420737461747573203AD5
:104E70000000000054454D505F434F4E544F524C7C
:104E80005F53544F500D0A0054454D505F434F4EF1
:104E900054524F4C5F55505F444F574E5F515549E8
:104EA000434B5F5354415455530D0A0054454D50E4
:104EB0005F434F4E54524F4C5F434F4E5354414EFD
:104EC000540D0A0054454D505F434F4E54524F4CC1
:104ED0005F414C4C5F52454144590D0A00000000AF
:104EE00054454D505F434F4E54524F4C5F535045C5
:104EF0004349414C5F574149540D0A0010B50146E2
:104F000000200A2291FBF2F302FB13120B4B33F841
:104F10001220024490B2012202EB41020A2392FBCA
:104F2000F3F403FB1422054B33F81220024490B231
:104F3000024600EBD273581010BD0000E43200208E
:104F400030B5014600200A2291FBF2F302FB131256
:104F50000A4B33F81220012303EB41030A2493FB8D
:104F6000F4F504FB1533054C34F813301A4410B231
:104F7000024600EBD273581030BD0000023300200F
:104F800001480078704700006326002030B587B0E4
:104F900000250024FFF712FF054601A8FFF752FE87
:104FA000DDE90101CDE905013DB9FFF7E9FF20B9D0
:104FB0000FA0FEF707FF07B030BD05AA01210020B2
:104FC00001F08AFF00240EE0214601A8FFF7B0FEA1
:104FD000DDE90101CDE9030103AA0021204601F02A
:104FE0007BFF601CC4B2AC42EEDB00BFE3E7000015
:104FF0006E6F207461736B2072756E6E696E670DD3
:105000000A00000070B59AB0002400250026FFF7C2
:10501000E1FE0646FFF710FC0446FFF741FC05469B
:105020002B462246044901A80096FCF7DFFD01A8A3
:10503000FEF7C8FE1AB070BDD098000830B599B020
:105040000024002500BF10E00A4830F814502B4619
:10505000224609A16846FCF7C9FD6846FEF7B2FE84
:105060000A20FFF789F9601CC4B20A2CECDB19B0E6
:1050700030BD0000E43200203E3E3E2074656D707D
:105080002020256420697320256420202F20302EC5
:1050900031206465677265652063656E7469677247
:1050A000616465200D0A0000014800787047000027
:1050B000202600200146052091FBF0F200FB121093
:1050C000014A105C704700005E260020014800780D
:1050D00070470000F501002001480078704700008B
:1050E000F0260020002100BF06E00548405C0128B2
:1050F00000D17047481CC1B20A29F6DB0020F8E74E
:10510000F832002010B549A0FEF75CFEFEF732FE33
:105110004EA0FEF757FEFEF72DFE51A0FEF752FE01
:10512000FEF728FE5DA0FEF74DFEFEF723FE6AA007
:10513000FEF748FEFEF71EFE74A0FEF743FEFEF7E4
:1051400019FE7FA0FEF73EFEFEF714FE83A0FEF7D9
:1051500039FEFEF70FFE8CA0FEF734FEFEF70AFEC6
:105160008FA0FEF72FFEFEF705FE92A0FEF72AFEA7
:10517000FEF700FE99A0FEF725FEFEF7FBFDA1A0BD
:10518000FEF720FEFEF7F6FDA4A0FEF71BFEFEF7DD
:10519000F1FDB2A0FEF716FEFEF7ECFDBFA0FEF794
:1051A00011FEFEF7E7FDC3A0FEF70CFEFEF7E2FDE1
:1051B000C6A0FEF707FEFEF7DDFDCBA0FEF702FE60
:1051C000FEF7D8FDCCA0FEF7FDFDFEF7D3FDCFA086
:1051D000FEF7F8FDFEF7CEFDDCA0FEF7F3FDFEF7CF
:1051E000C9FDE9A0FEF7EEFDFEF7C4FDEA48FEF7B3
:1051F000E9FDFEF7BFFDE9A0FEF7E4FDFEF7BAFD0D
:10520000F4A0FEF7DFFDFEF7B5FDF8A0FEF7DAFD2E
:10521000FEF7B0FDFBA0FEF7D5FDFEF7ABFDFDA050
:10522000FEF7D0FDFEF7A6FDFEA007E20D0A0D0A6F
:105230000D0A2068656C7020636D64206C6973745E
:10524000203E3E3E3E3E3E3E0D0A000020312020E4
:105250006765745F6373705F616463200D0A0000AB
:10526000203220207365745F7761726D5F70776D97
:105270002069642070657263656E74204E6F74657A
:10528000206964203A20302D392070657263656E84
:105290007420302D313030300D0A000020332020B2
:1052A0007365745F6D6F746F725F70776D20696482
:1052B0002070657263656E74204E6F74652069643A
:1052C000203A20302D342070657263656E74203072
:1052D0002D313030300D0A00203420207761746584
:1052E000725F636F6F6C5F70756D705F636F6E2060
:1052F0006964207377204E6F74652069643A2030AA
:105300002D3420737720302F310D0A0020352020D6
:1053100077617465725F636F6F6C5F7661766C65E1
:105320005F636F6E206964207377204E6F74652011
:10533000696420302D3620737720302F310D0A001C
:10534000203620206765745F6C69717569645F66DB
:105350006565646261636B200D0A000020372020C0
:1053600068756D69646974795F636F6E2069642024
:105370007377204E6F74652069643A302D31207345
:105380007720302F310D0A00203820206765745FA8
:105390006D6F746F725F6C696D6974200D0A000027
:1053A000203920206765745F6B65795F696E0D0A2F
:1053B000000000002031302066616E5F636F6E2058
:1053C0006964207377204E6F746520696420302DE6
:1053D0003420737720302F310D0A00002031312026
:1053E0006C65645F636F6E206964207377204E6F15
:1053F0007465206964203020737720302F310D0AC6
:1054000000000000203132206F70656E5F616C6CAF
:105410005F7661766C65200D0A0000002031332034
:105420007365745F6D6F746F722069642064697254
:10543000207370656564204E6F7465206964203048
:105440002D342064697220302F31207370656564BB
:1054500020302D313030300D0A0000002031342052
:105460007365745F6163635F6D6F746F72206964ED
:10547000206469722074204E6F7465206964203046
:105480002D342064697220302F3120742032303066
:10549000302D36353533350D0A00000020313520EA
:1054A0006368616E67655F77617465725F616C6C7C
:1054B000200D0A00203136206F75745F77617465A6
:1054C000725F616C6C200D0A0000000020313720F3
:1054D0006765745F68756D69646974795F73746119
:1054E000747573200D0A0000203138206765745FE1
:1054F00074656D70200D0A00203139206765745F76
:105500007069645F7377200D0A000000203230203C
:1055100073746172745F7069642069642074616778
:1055200065745F74656D70204E6F746520696420CA
:10553000302D39207461726765745F74656D7020F9
:105540003235202D203130300D0A0000203231203C
:105550006F70656E5F74656D705F67756920206F31
:1055600070656E5F74656D705F677569204E6F74EE
:105570006520707265737320456E74657220746F58
:105580002053746F700D0A002032322076657273DA
:10559000696F6E0D0A0000006C9A000820323420FA
:1055A000636C6F73655F7466745F636F6D5F646572
:1055B00062756720204E6F746520636C6F73652081
:1055C00074667420636F6D207472616E736D69749C
:1055D0000D0A000020323520726561645F626F78C9
:1055E0005F7374617475730D0A00000020323620F9
:1055F000726561645F66616E5F7374617475730D6B
:105600000A00000020323720706F7765725F6F6E7E
:105610000D0A000020323820706F7765725F6F6668
:10562000660D0A00203239206765745F706F7765F8
:10563000725F7374617475730D0A0000FEF7C2FB2C
:10564000FEF798FB23A0FEF7BDFBFEF793FB25A01A
:10565000FEF7B8FBFEF78EFB26A0FEF7B3FBFEF7C6
:1056600089FB28A0FEF7AEFBFEF784FB2CA0FEF71B
:10567000A9FBFEF77FFB31A0FEF7A4FBFEF77AFB48
:1056800035A0FEF79FFBFEF775FB3948FEF79AFB46
:10569000FEF770FB3748FEF795FBFEF76BFB36A075
:1056A000FEF790FBFEF766FB3BA0FEF78BFBFEF7D9
:1056B00061FB3FA0FEF786FBFEF75CFB42A0FEF716
:1056C00081FBFEF757FB46A0FEF77CFBFEF752FB83
:1056D00010BD0000203330207774645F74657374EC
:1056E0000D0A000020333120636F7079726967689A
:1056F000740D0A0020333220617574686F720D0AD0
:1057000000000000203333206F70656E5F626F7899
:105710005F73706565645F64656275670D0A00009C
:1057200020333420636C6F73655F626F785F7370D2
:105730006565645F64656275670D0A002033352016
:105740006765745F626F785F7374617475735F66A9
:10575000756E630D0A000000203336207374617289
:10576000745F7069645F746573740D0A00000000F3
:105770004098000888980008203339206765745FD6
:105780007461736B5F6D616368696E655F7374618B
:105790007475730D0A000000203430206765745F53
:1057A000726F61645F7374617475730D0A00000039
:1057B000203431206F70656E5F7069645F6465626C
:1057C00075670D0A00000000203432206765745FA1
:1057D0007461736B5F7379735F626F6F6C0D0A0036
:1057E0002034332070726573735F72756E5F6B6502
:1057F000790D0A00F0B504460D4600201FE0265C36
:105800003109265C06F00F03092904DD01F1370692
:1058100002F8106003E001F1300602F81060092B75
:1058200006DD03F13706F7B24600761C975505E012
:1058300003F13006F7B24600761C9755401CA8428B
:10584000DDD3002602F81060F0BD00002DE9F04124
:10585000A6B0002400270025A046002600BF09E0CE
:105860004148005D202803D123A8C455781CC7B245
:10587000601CC4B23D4800888442F1DB022F05D091
:105880003BA0FEF79FFA26B0BDE8F0819DF88C00A2
:10589000401CC4B213E03448005D1EA948551EA840
:1058A000405D302803DB1EA8405D392803DD30A0B1
:1058B000FEF788FAE7E7681CC5B2601CC4B29DF821
:1058C0008D00A042E7DC00201EA9485500259DF868
:1058D0008D00401CC4B213E02348005D19A948554F
:1058E00019A8405D302803DB19A8405D392803DD85
:1058F0001FA0FEF767FAC6E7681CC5B2601CC4B2F9
:105900001A480088801EA042E6DC002019A94855EC
:105910001EA8FAF762FC1FFA80F819A8FAF75DFCD6
:1059200086B2B8F1010F03DD15A0FEF74BFAAAE726
:10593000012E04D01EB11AA0FEF744FAA3E70EB15F
:10594000012200E00022114608F0FF0000F04AF8B2
:10595000334642461AA16846FCF748F96846FEF706
:1059600031FA00BF8FE70000182700209C010020BB
:10597000636F6D6D616E64206572726F720D0A00E7
:10598000696420707261206572726F72202C706C75
:105990006561736520696E70757420302D3100006B
:1059A000737720707261206572726F72202C706C38
:1059B0006561736520696E70757420302F31000049
:1059C0007365742068756D696469747920636F6E9E
:1059D00020256420617320256420737563636573DB
:1059E000730D0A0070B504460D4655B104F10C0262
:1059F000094B33F81210094B53F82200FBF743FB15
:105A000009E004F10C02044B33F81210034B53F875
:105A10002200FBF736FB70BD9C0000202C0000200C
:105A20000246002100BF0DE00848405C012807D174
:105A30008A4203D000EB4100904201D1012070471F
:105A4000481CC1B20529EFDB0020F8E7342600200E
:105A5000002000BF04E00021084A1154411CC8B2D4
:105A60000528F8DB064900220A608A800121044AE1
:105A700051710021034A1170704700005E2600201A
:105A8000582600206326002004480088044909881D
:105A9000884201D1012070470020FCE756260020F3
:105AA0005426002007480088401C332190FBF1F267
:105AB00001FB120004490988884201D10120704786
:105AC0000020FCE7562600205426002010B504468E
:105AD0001748005D052827D2DFE800F003171E0DE8
