:020000040800F2
:10000000B02B00203D02000845020008470200080E
:10001000490200084B0200084D02000800000000E1
:100020000000000000000000000000004F02000877
:1000300051020008000000005302000855020008A9
:10004000570200085702000857020008570200082C
:10005000570200085702000857020008570200081C
:10006000570200085702000857020008570200080C
:1000700057020008570200085702000857020008FC
:1000800057020008570200085702000857020008EC
:1000900057020008570200085702000857020008DC
:1000A00057020008570200085702000857020008CC
:1000B00057020008570200085702000857020008BC
:1000C00057020008570200085702000857020008AC
:1000D00057020008A5220008A52300084D240008A7
:1000E000570200085702000857020008570200088C
:1000F000570200085702000857020008570200087C
:1001000057020008570200083D1F00085702000868
:10011000570200085702000857020008570200085B
:10012000570200085702000857020008570200084B
:1001300000F002F800F073F80AA090E8000C824486
:100140008344AAF10107DA4501D100F068F8AFF263
:10015000090EBAE80F0013F0010F18BFFB1A43F0A5
:100160000103184718800000388000000A444FF04F
:10017000000C10F8013B13F0070408BF10F8014B06
:100180001D1108BF10F8015B641E05D010F8016B4B
:10019000641E01F8016BF9D113F0080F1EBF10F8AF
:1001A000014BAD1C0C1B09D16D1E58BF01F801CBD2
:1001B000FAD505E014F8016B01F8016B6D1EF9D555
:1001C0009142D6D37047000000230024002500266A
:1001D000103A28BF78C1FBD8520728BF30C148BFAA
:1001E0000B607047662907F09285642900F0B8809B
:1001F000732900F09C84002070471FB500F006FDB5
:1002000004000020002107F09BF8401C60600020E3
:10021000002107F07FF8E0601FBD10B510BD00F0B1
:100220003DFE1146FFF7E9FF05F0EEF800F069FE2C
:1002300003B4FFF7F2FF03BC00F06AFE09488047F1
:1002400009480047FEE7FEE7FEE7FEE7FEE7FEE7B8
:10025000FEE7FEE7FEE7FEE704480549054A064BD0
:1002600070470000DD1E000831010008B0250020A5
:10027000B02B0020B0270020B02700200FB41CB501
:10028000074B06AA7B4469460090059800F025FCC0
:100290000020694600F034FC1CBC5DF814FB000033
:1002A000790800002DE9F0410E4604460020206246
:1002B0002046E168884730B3252805D0D4E90121DC
:1002C0009047206A401CF2E7E168204600278847F3
:1002D000050018D0A5F14100192802D820354FF4A7
:1002E00000673246294620462760FFF77BFF40B172
:1002F000012804D0F61D26F007060836D8E7361D7B
:10030000D6E72846DAE7206ABDE8F08170B50C46EA
:100310000546012A05D02878800600D5EA69002321
:1003200002E0012305E05B1C934202D2E05C00285E
:10033000F9D1A869E618C01AA861286A1844286289
:100340002846AFF3008004E0D5E9012114F8010B41
:100350009047B442F8D32846AFF3008070BD000048
:100360002DE9F0410646002410687529314616A58E
:1003700010D0AFF30080002802DA404213A507E056
:1003800031688A0701D512A502E0490704D511A5F5
:10039000012401E0AFF3008000210A2206F12407C6
:1003A00009E0B0FBF2FCB0FBF2F302FB1C003030C2
:1003B00078541846491C0028F3D123462A46304673
:1003C000BDE8F04100F01EB9000000002D00000063
:1003D0002B0000002000000070B5064600F00EF96A
:1003E0000468054630460A22002100F0A4FB2C6078
:1003F00070BD10B5431C02E010F8011B71B18107FC
:10040000FAD14FF0013202C88C1A8C4314EAC2119F
:10041000F9D0C01A0A0603D0C01E10BDC01A10BD04
:100420000A0401D0801E10BD0902FCD0401E10BD80
:10043000032A40F2308010F0030C00F0158011F810
:10044000013BBCF1020F624498BF11F801CB00F8E8
:10045000013B38BF11F8013BA2F1040298BF00F83C
:1004600001CB38BF00F8013B11F0030300F02580F9
:10047000083AC0F0088051F8043B083A51F804CB20
:10048000A0E80810F5E7121D5CBF51F8043B40F8E6
:10049000043BAFF30080D20724BF11F8013B11F8F1
:1004A00001CB48BF11F8012B24BF00F8013B00F835
:1004B00001CB48BF00F8012B704710B5203AC0F0BF
:1004C0000B80B1E81850203AA0E81850B1E8185055
:1004D000A0E81850BFF4F5AF5FEA027C24BFB1E892
:1004E0001850A0E8185044BF18C918C0BDE8104003
:1004F0005FEA827C24BF51F8043B40F8043B08BF0C
:100500007047D20728BF31F8023B48BF11F8012BD2
:1005100028BF20F8023B48BF00F8012B704702F0CB
:10052000FF0343EA032242EA024200F002B84FF01E
:1005300000020429C0F0128010F0030C00F0358393
:10054000CCF1040CBCF1020F18BF00F8012BA8BFBE
:1005500020F8022BA1EB0C0100F027BB5FEAC17C65
:1005600024BF00F8012B00F8012B48BF00F8012B35
:10057000704700004FF0013C50F8042B51F8043B49
:100580009A4221D1A2EB0C03934313EACC1317D167
:1005900050F8042B51F8043B9A4215D1A2EB0C03FE
:1005A000934313EACC130BD150F8042B51F8043BBE
:1005B0009A4209D1A2EB0C03934313EACC13DBD08C
:1005C0004FF00000704700BFD01A01BAB1FA81F1B4
:1005D00001F0180122FA01F0CB40C1F12001DBB299
:1005E000C0B2C01A2CFA01F3D11A914311EAC31117
:1005F000E6D1704770477047704700000048704769
:100600004C2500202DE9F0470D46994692460446B8
:1006100000F124080168880604D5E06921F0100182
:10062000216000E00120A84201DD471B00E0002717
:10063000A1697A1902EB0900081AA0612078C006A6
:1006400002D42046AFF30080002608E0D4E901215F
:100650001AF806009047206A401C761C20624E451E
:10066000F4DB2078C0060AD52046AFF3008006E010
:10067000D4E9012130209047206A401C2062381EB6
:10068000A7F10107F4DC07E0D4E9012118F805001F
:100690009047206A401C2062281EA5F10105F3DC6A
:1006A0002046AFF300802078000602D50220BDE886
:1006B000F0870120FBE770472DE9FF4F0C461E46EF
:1006C0004FF0FF378BB0D2E90001DDF860800A906F
:1006D0008A46C1F30A5505B93D46002108464FF048
:1006E0000000BAF1000F00F4400005DA00EB8000D2
:1006F0004FF4400101EA50004FEA9059B9F1010F5F
:1007000000DDB9460A9850EA4A000ED044F610506F
:10071000A5F2FF3545432F14B8F1000F1ED07542E6
:10072000291E1EDDC9F100021CE0B8F1010F4FF0D7
:10073000000001D0302103E0F24305E02154401CC9
:10074000B042FBDB30460022002121540B99C1F856
:100750000880C1E900200FB0BDE8F08FBD1B6D1C03
:10076000DEE74A4600DA694206A800F029FB06AB3C
:1007700093E8070003AB83E8070050460A9900F0AE
:10078000CEFB8DE80700A0F500501F3800900398BD
:10079000002D09DD42F21F014A46084403A90390D7
:1007A000684600F02DFE08E0A0F500504A461F38CC
:1007B00003A90390684600F037FE8DE807000004A7
:1007C000000C03D04FF0FF30410800E01046B8F1B4
:1007D000000F03D00022009215461EE0751E05D4BE
:1007E00000F018FA303262556D1EF9D5B346012279
:1007F000084302D000227F1C04E02078302801D179
:1008000000227F1E002A099786D01DE0112D07DAED
:1008100000F000FA303262556D1C50EA0102F5D149
:10082000084302D00098C8B10EE00021681E05E020
:10083000235C625C63542254401E491C8142F7DBF6
:10084000AB46A81B401E0990002004F80B000B9833
:10085000099AC0F80880C0E9002B7CE711264FF008
:10086000000859E72DE9F04F88460446D21D22F0D2
:10087000070191B0D1E90001CDE90A0101F017FFAC
:1008800002460B98C00F01D02D2007E02068810799
:1008900001D52B2002E0202101EAC000032A0990A3
:1008A00001D0072A05DB03464146204600F0F8F94F
:1008B0000BE12078800601D5E06900E00620B8F160
:1008C000650F814606D0B8F1660F18D0B8F1670FF2
:1008D00070D131E00020B9F1110F009001DB11233C
:1008E00001E009F101030AAA01A90CA8FFF7E4FE3F
:1008F000DDE90C70002609F10105834647E001207F
:100900004B4600904FF000470AAA01A90CA8FFF738
:10091000D3FEDDE90DB00C995D46002610B909F152
:1009200001000D18B9EB050003D4C0F1FF3609F141
:100930000105A5EB09002BE0B9F1010F01DA4FF039
:1009400001090020B9F1110F0090484601DD112383
:1009500000E003460AAA01A90CA8FFF7ADFEDDE9F5
:100960000C704D4600268346207800070AD4AB451C
:1009700000DA5D4601A8012D04DD411911F8011CC2
:10098000302907D04F4502DA17F1040F04DA0120AD
:1009900082460FE06D1EEEE7002F02DCED1B3E44A9
:1009A00003E0781CA84200DD7D1CB81B00F1010AA1
:1009B0004FF000472078000703D4AA4501DB4FF031
:1009C000FF3A0021B7F1004F0DF143088DF84310B5
:1009D00024D002202B23002F01DA7F422D230A216D
:1009E000021EA0F1010000DC5FB197FBF1FC97FB58
:1009F000F1F201FB1C7C17460CF1300C08F801CD1C
:100A0000EEE7A8F1010003702188090501D5452111
:100A100000E06521A0F1010800F8011C09980FA968
:100A2000A1EB0807FF1D00B10120411901EBEA709D
:100A3000A1693844081A401EA0612078C00602D47B
:100A40002046AFF30080099828B1D4E901219047EE
:100A5000206A401C20622078C00622D52046AFF3D1
:100A600000801EE0002E04DBB34502DD01A8805D9E
:100A700000E03020D4E901219047206A401C206228
:100A8000761CAAF101005FEA000A0AD100F0BEF864
:100A9000C0680168405CD4E901219047206A401C8D
:100AA0002062281EA5F10105DCDC07E0D4E9012164
:100AB00018F8010B9047206A401C2062381EA7F1ED
:100AC0000107F3DC2046AFF30080032011B043E6BA
:100AD00001694A1C02610878704700B58FB0CDE902
:100AE00001310021059105497944CDE903101146F2
:100AF0006846FFF7D7FB0FB000BD0000E5FFFFFF22
:100B00000A6802F8010B0A60704710B5436913B117
:100B1000AFF3008001E0FFF7F9FB012010BD127870
:100B200000F124010A7000224A700122EDE71168E9
:100B30004FF0FF32E9E72DE9F04791460F46804636
:100B40000446002614F8015B2DB100F057F8006848
:100B5000405DC007F6D12B2D02D02D2D18D0641E7C
:100B60004A463946204600F0DBF827B13968A142F1
:100B700001D1C7F800804FF0020471050BD5404247
:100B8000002803DDFFF73AFD0460A007BDE8F08709
:100B900046F48066E4E70028F8DAFFF72FFD0460EA
:100BA0006FF00040F2E74FF0000200B513469446A4
:100BB0009646203922BFA0E80C50A0E80C50B1F1B5
:100BC0002001BFF4F7AF090728BFA0E80C5048BFC9
:100BD0000CC05DF804EB890028BF40F8042B08BF67
:100BE000704748BF20F8022B11F0804F18BF00F863
:100BF000012B7047004870474C25002010B500F0CD
:100C000005F8001D10BD00BF39670000004870479F
:100C10006C25002030B5B0F10A024FEA900E71F158
:100C200000034EEA817EB0EB0E0061EB91014FEACA
:100C3000101E4EEA017E10EB0E0041EB11114FEA3F
:100C4000102E4EEA016E10EB0E0041EB11214FEA1F
:100C5000104E4EEA014E10EB0E0041EB11414018D0
:100C600041F100014FEAD00040EA41704FEAD10162
:100C700010EB80054FEA810444EA907444EB0104D0
:100C80006D1944EB0404521BA3414FF0000348BF0D
:100C90000A3200D530BD401C41F1000130BD0000DA
:100CA0002DE9F0411F46044603260168072A01F496
:100CB000006004DB08B116A505E016A503E008B145
:100CC00015A500E015A521F010002060A069C01E48
:100CD000A0610FB1401EA0612046AFF300804FB16C
:100CE000D4E9012138469047206A401C2062C01C8C
:100CF000206206E0206AFAE7D4E9012115F8010B29
:100D00009047761EF8D22046AFF30080BDE8F08110
:100D10004E414E006E616E00494E4600696E66009F
:100D20002DE9F05F824615468B4600270AF1010443
:100D3000B9460078302801D09DB113E014F8010BBA
:100D40000127782803D0582801D045B10AE00DB119
:100D5000102D07D1002714F8010B102502E00825FB
:100D600000E00A250026B0460EE005FB080005FB62
:100D700006F101271FFA80F801EB1046B6F5803F17
:100D800000D3B94614F8010B294600F0ACF800284E
:100D9000EBDABBF1000F05D00FB1641E00E0544642
:100DA000CBF80040B9F1000F06D0FFF727FC022175
:100DB0000160C81EBDE8F09F48EA0640FAE700005F
:100DC0002DE9F047814616468AB0334878440DC86D
:100DD0008DE80D0030487844801C03AC0DC884E8D1
:100DE0000D0041F69B300844372190FBF1F290FB57
:100DF000F1F5A5F1800501FB12041B3C02D564420C
:100E0000012000E00020DFF890A080460027FA448F
:100E1000AAF1BE0A0DE0E00709D03246684607EBAA
:100E200047010AEB810100F0FFFA8DE8070064102A
:100E30007F1C002CEFD1184F7F44AC3F18E0E8072F
:100E400014D007EB04100DF1180A90E80E008AE8A0
:100E50000E00C068F04201D198190890324606A9E8
:100E600003A800F0E1FA03AB83E807006D10641CEF
:100E7000002DE4D132466946B8F1000F03A802D034
:100E800000F0BEFA01E000F0CFFAC9E90001C9F8AC
:100E900008200AB0BDE8F087507300007546FFF7E0
:100EA000A9FEAE4605006946534620F00700854678
:100EB00018B020B5FFF7D0F9BDE820404FF000068C
:100EC0004FF000074FF000084FF0000B21F0070132
:100ED000AC46ACE8C009ACE8C009ACE8C009ACE875
:100EE000C0098D4670473A2800D2303820F02002E1
:100EF000412A01D3A2F13700884201D34FF0FF30DD
:100F000070470446AFF300802046FFF791F90000D8
:100F100001491820ABBEFEE72600020070475FEAD9
:100F2000400C08BF91F0000F4FEA8C234FEAC1221A
:100F300043EA51514FEA1C5018BF00F5F0404FEA08
:100F4000300018BF41F000415FEA6C5C00F029807E
:100F5000BCF1FF3F08BF40F080407047130C06BF54
:100F600012044FF0100C4FF0000C130E04BF1202CD
:100F70000CF1080C130F04BF12010CF1040C930FB9
:100F800004BF92000CF1020CD30F04BF52000CF10D
:100F9000010C11464FF00002A0F11F00A0EB0C0065
:100FA000704711F0004F08BF704731F000413FF427
:100FB000D5AF0B0C06BF09044FF0100C4FF0000C1E
:100FC0000B0E04BF09020CF1080C0B0F04BF090142
:100FD0000CF1040C8B0F04BF89000CF1020CCB0F39
:100FE00004BF49000CF1010CCCF12003A0EB0C0074
:100FF00022FA03F302FA0CF241EA030100F10100C4
:10100000704720F07F4C80EA030023F07F47ACEB71
:10101000070303F57C5300F0004003F1FF032DE9C3
:1010200080494FEA154B09B44FEA144325EA0B4EA9
:1010300024EA03480FF2042606EB132749083E78FA
:101040005FEA320203FB0667C7F5000707FB06F6F7
:101050004FEA54374FEAD64606F1020607FB066C04
:10106000CCF1005C4FEA1C472CEA074C07FB06F466
:101070000CFB06F504EB15464FEA961634BF00202C
:101080004FF000404FEAD13706FB07FC4FEA1C4CFB
:101090000CFB0BF7D21B03FB0CF761EB07010CFBFE
:1010A0000EF7B0EB074072EB17420CFB08F734BFAA
:1010B000A2EB0742B2EB074261EB17414FEA0C4447
:1010C0004FEA910706FB07FC4FEA1C4C0CFB0BF7A1
:1010D000B0EBC74072EB573203FB0CF734BFA2EB07
:1010E000C742B2EBC74261EB57310CFB0EF7B0EBD6
:1010F000C70072EB57720CFB08F734BFA2EBC702B4
:10110000B2EBC70261EB5771039F4FEA816141EA7D
:10111000921104EBCC044FEAD1374FEA826206FB0E
:1011200007FC42EA90124FEA80604FEA1C4C0CFB2D
:101130000BF7D21B03FB0CF761EB07010CFB0EF75F
:10114000B0EB074072EB17420CFB08F734BFA2EB81
:101150000742B2EB074261EB17414FEA8C554FEA69
:10116000910704EB9C2406FB07FC4FEA1C4C0CFB8C
:101170000BF7B0EBC74072EB573203FB0CF734BFF1
:10118000A2EBC742B2EBC74261EB57310CFB0EF743
:10119000B0EBC70072EB57720CFB08F734BFA2EB41
:1011A000C702B2EBC70261EB577115EB4C254FEA52
:1011B000816141EA92114FEA82624FEAD13742EAF5
:1011C000901206FB07FC44F100044FEA80604FEAEE
:1011D0001C4C0CFB0BF7D21B03FB0CF761EB07015C
:1011E0000CFB0EF7B0EB074072EB17420CFB08F755
:1011F00034BFA2EB0742B2EB074261EB174115EB9C
:101200001C154FEA813141EA92414FEA823242EAAB
:1012100090424FEA80304FEA0C7644F1000448EAED
:1012200003434EEA0B484FF0000EB2EB080C71EB93
:10123000030724BF624639464EEB0E0E4FF0000BFB
:101240000018524149414BEB0B0BB2EB080C71EB10
:1012500003077BF1000B24BF624639464EEB0E0EAE
:101260004FF0000B0018524149414BEB0B0BB2EB16
:10127000080C71EB03077BF1000B24BF6246394673
:101280004EEB0E0E51EA020718BF46F0010616EBB0
:101290000E7655F1000254F1000103D5BDE8890135
:1012A000BDE80088BDE88901BDE80048B619524193
:1012B00041EB0101A3F10103704780807F7E7D7CBB
:1012C0007B7A7978777676757473727171706F6ED8
:1012D0006E6D6C6C6B6A6A69686867666665646483
:1012E000636362616160605F5F5E5E5D5D5C5C5B0D
:1012F0005B5A5A595958585757565655555554547C
:10130000535352525251515050504F4F4F4E4E4DD9
:101310004D4D4C4C4C4B4B4B4A4A4A494949484825
:101320004847474747464646454545444444444365
:1013300043434342424242414141002B26D477007D
:1013400021D01CB54FEA370703B44FF010004FF01F
:1013500010014FF000000FBCBDE810400BF1010B75
:10136000BBF1010F08BF5FEA170722BF12F10102AC
:1013700011F101014FF0004143F1000300F0004082
:1013800043EA00007047F9D35708DAE746EA064611
:1013900013F1400F4FEA16461FDD13F1200FDFBF98
:1013A00016430A46002120335B42C8D0C3F1200710
:1013B00046EA064602FA07F74FEA164646EA0706E5
:1013C000C3F1200722FA03F201FA07F721FA03F129
:1013D0004FF0000342EA0702B1E746EA020646EA96
:1013E00006464FEA164646EA0106BCBF46EA0646EE
:1013F000360C4FF000034FF000024FF000019EE763
:101400002DE9C048934630B491E8380007C831EA66
:10141000400C48BF34EA430C03D5FFF7F2FDFFF759
:101420008CFFF0BCBDE800882DE9C048934630B47D
:1014300091E8380007C810F0804F08BF13F0804FC4
:1014400003D100F005F8FFF778FFF0BCBDE8008895
:1014500020F07F4780EA030023F07F4C07EB0C036A
:10146000A3F57C5300F00040A3F1FE0392F0000FBF
:1014700000F0B38095F0000F00F077802DE901496E
:101480004FEA11404FEA144621EA004800FB06FCEF
:1014900024EA064708FB06F607FB08F800FB07F7F7
:1014A00018EB06484CEB164C4FEA124B18EB07486A
:1014B0004FEA15464CEB174022EA0B4E0BFB06FC9D
:1014C00025EA06470EFB06F607FB0EFE0BFB07F7A9
:1014D0001EEB064E4CEB164C4FF000061EEB074E73
:1014E0004CEB174B18EB0B0840F1000018EB0E0B00
:1014F00058EB000840F100008F1A4FF000013CBF8C
:10150000C943661B14BFB5EB040C00213CBFC943A3
:10151000F61B4FEA17444EEA8E0E27EA04454FEABF
:101520001C4704FB07622CEA074C05FB07F70CFB82
:1015300005F604FB0CFC16EB074642EB174216EBD4
:101540000C4642EB1C421BEB060658EB02024141E3
:1015500046EA9E0601D5BDE80189B619524141EB24
:101560000101A3F10103BDE801894FEA14454FEAE7
:10157000114724EA054621EA074C05FB07F406FB60
:1015800007F70CFB06F105FB0CFC11EB074144EBE4
:1015900017444FEA124711EB0C4144EB1C4422EA7A
:1015A000074C05FB07F206FB07F70CFB06F605FBED
:1015B0000CFC16EB074642EB174216EB0C4642EBCF
:1015C0001C456A1854F1000148BF7047B6195241D2
:1015D00041EB0101A3F10103704795F0000F37D0F3
:1015E0004FEA11424FEA144721EA024624EA074C27
:1015F00002FB07F106FB07F70CFB06F402FB0CFCF1
:1016000014EB074441EB17414FEA154714EB0C4428
:1016100041EB1C4125EA074C02FB07F506FB07F7E7
:101620000CFB06F602FB0CFC16EB074645EB1745D8
:1016300016EB0C4645EB1C42121951F1000148BF54
:101640007047B619524141EB0101A3F10103704704
:101650004FEA14454FEA114724EA054621EA074CB0
:1016600005FB07F106FB07F70CFB06F24FF000063F
:1016700005FB0CFC12EB074241EB174112EB0C424D
:1016800051EB1C4148BF7047921841EB0101A3F197
:101690000103704721B1826842F00102826003E0D9
:1016A000826822F001028260704721B1826842F4B0
:1016B0008072826003E0826822F4807282607047E8
:1016C00010B504461248844208D10121401500F0AB
:1016D00003FB0021601500F0FFFA17E00D4884427B
:1016E00008D10121001500F0F7FA0021201500F0C3
:1016F000F3FA0BE00848844208D10121C80300F046
:10170000EBFA00214FF4004000F0E6FA10BD0000B3
:101710000024014000280140003C01400146002017
:101720008A6802F004020AB1012000E0002070473C
:10173000014600208A6802F008020AB1012000E098
:101740000020704730B502460020002350680F4C3F
:1017500020400D790C6844EA0524204350609068CD
:101760000B4C2040D1E902542C434D7944EA450406
:1017700020439060D06A20F470000C7C641EE4B2B8
:10178000234340EA0350D06230BD0000FFFEF0FF6B
:10179000FDF7F1FFF0B504460D4600200021092DAC
:1017A00011DDE068A5F10A0606EB4607072606FAF2
:1017B00007F18843A5F10A0606EB460603FA06F18F
:1017C0000843E0600CE0206905EB4507072606FAB0
:1017D00007F1884305EB450603FA06F1084320614B
:1017E000072A0FDA606B561E06EB86071F2606FADD
:1017F00007F18843561E06EB860605FA06F10843F4
:10180000606322E00D2A0FDA206BD61F06EB8607F5
:101810001F2606FA07F18843D61F06EB860605FA4F
:1018200006F10843206310E0E06AA2F10D0606EB22
:1018300086071F2606FA07F18843A2F10D0606EB7C
:10184000860605FA06F10843E062F0BD816841F0C2
:1018500008018160704721B1826842F4A002826071
:1018600003E0826822F4A00282607047816841F040
:1018700004018160704721B1026842F001020260F8
:1018800004E002684FF6FE731A40026070470000E1
:1018900001684FF6FE721140016000210160416055
:1018A0008160C1604B49884208D14A49083949687A
:1018B00041F00F01474A083A51608AE04549143126
:1018C000884208D143490839496841F0F001414A4A
:1018D000083A51607DE03F492831884208D13D49AE
:1018E0000839496841F470613A4A083A516070E039
:1018F00038493C31884208D136490839496841F4B1
:101900007041344A083A516063E0324950318842AC
:1019100008D130490839496841F470212D4A083A04
:10192000516056E02B496431884208D12949083971
:10193000496841F47001274A083A516049E0254955
:101940007831884208D123490839496841F07061EB
:10195000204A083A51603CE01F49884206D1011FE5
:10196000096841F00F01021F116032E01A49143179
:10197000884208D11849091F096841F0F001164A48
:10198000121F116025E014492831884208D11249FC
:10199000091F096841F470610F4A121F116018E0B5
:1019A0000D493C31884208D10B49091F096841F4AF
:1019B0007041094A121F11600BE0074950318842FB
:1019C00007D10549091F096841F47021024A121F15
:1019D00011607047080002400804024010B5002260
:1019E000026847F6F0739A430C6A8B6823430C69CC
:1019F00023434C6923438C692343CC6923434C6ABA
:101A000023438C6A23431A430260CB6843600B680C
:101A100083604B68C36010BD2DE9F041024600258C
:101A20000026002000230024002791F803C00CF0BA
:101A30000F0591F803C00CF0100CBCF1000F03D09F
:101A400091F802C04CEA050591F800C0BCF1000F06
:101A500031D0146800202BE04FF0010C0CFA00F399
:101A6000B1F800C00CEA03069E4220D183004FF07B
:101A70000F0C0CFA03F7BC4305FA03FC4CEA040410
:101A800091F803C0BCF1280F06D14FF0010C0CFAFD
:101A900000FCC2F814C00AE091F803C0BCF1480F82
:101AA00005D14FF0010C0CFA00FCC2F810C0401C2C
:101AB0000828D1D31460B1F800C0BCF1FF0F34DDA9
:101AC000546800202EE000F1080C4FF0010808FADD
:101AD0000CF3B1F800C00CEA03069E4221D183004A
:101AE0004FF00F0C0CFA03F7BC4305FA03FC4CEA69
:101AF000040491F803C0BCF1280F05D100F1080CD3
:101B000008FA0CF8C2F8148091F803C0BCF1480F31
:101B100007D100F1080C4FF0010808FA0CF8C2F8E0
:101B20001080401C0828CED35460BDE8F08100002E
:101B3000F0B50A46002300240021002500F00046ED
:101B4000B6F1004F02D11D4EF16901E01B4E7168E4
:101B5000C0F3034583B200F44016B6F5401F08D128
:101B600021F07061154E766826F07066134F7E6026
:101B700012E000F48016B6F5801F06D1032606FA9F
:101B800005F4A14341F0706106E0460D360103FA09
:101B900006F6B14341F0706122B1460D360103FAF9
:101BA00006F6314300F00046B6F1004F02D1034E75
:101BB000F16101E0014E7160F0BD000000000140E4
:101BC0000246002093680B400BB1012000E000208A
:101BD00070474161704701617047000070B5002196
:101BE00000230F22C47804B3154C246804F4E06485
:101BF000C4F5E064210AC1F10403CA40447804FA40
:101C000003F184781440214309010E4C0678A15554
:101C1000047804F01F050124AC4005786D11AD0077
:101C200005F1E025C5F8004109E0047804F01F053E
:101C30000124AC40044D0678761145F8264070BD6D
:101C40000CED00E000E400E080E100E00249014327
:101C5000024A1160704700000000FA050CED00E038
:101C600001460020034A506820F440400843506079
:101C7000704700000010024029B1064A5269024331
:101C8000044B5A6104E0034A52698243014B5A6192
:101C9000704700000010024029B1064AD269024391
:101CA000044BDA6104E0034AD2698243014BDA61F2
:101CB000704700000010024029B1064A92690243B1
:101CC000044B9A6104E0034A92698243014B9A6192
:101CD000704700000010024029B1064AD268024352
:101CE000044BDA6004E0034AD2688243014BDA60B5
:101CF000704700000010024030B50021002200248F
:101D000000232D4D6D6805F00C0121B1042905D08B
:101D1000082923D105E0294D056022E0274D056003
:101D20001FE0254D6D6805F47012234D6D6805F4B4
:101D30008034022505EB92421CB9214D55430560C4
:101D40000BE01D4D6D6805F400351DB11C4D55436C
:101D5000056002E0194D5543056002E0174D05602E
:101D600000BF00BF144D6D6805F0F0010909154D65
:101D70006B5C0568DD4045600F4D6D6805F4E06102
:101D8000090A104D6B5C4568DD4085600A4D6D6841
:101D900005F46051C90A0B4D6B5C4568DD40C560B8
:101DA000054D6D6805F44041890B074D6B5CC568B6
:101DB000B5FBF3F5056130BD0010024000127A005A
:101DC00000093D00180000202800002010B500F098
:101DD00001F810BD0CB50020019000903348006858
:101DE00040F480303149086000BF3048006800F49A
:101DF000003000900198401C0190009818B901989B
:101E0000B0F5A06FF1D12948006800F4003010B19E
:101E10000120009001E0002000900098012843D1AB
:101E20002348006840F01000214908600846006817
:101E300020F0030008600846006840F002000860D7
:101E40001A48406819494860084640684860084692
:101E5000406840F4806048600846406820F47C1088
:101E600048600846406840F4E8104860084600684A
:101E700040F08070086000BF0C48006800F00070FF
:101E80000028F9D00948406820F00300074948605D
:101E90000846406840F00200486000BF03484068C0
:101EA00000F00C000828F9D10CBD00000010024021
:101EB00000200240042808D14FF0E021096941F0D8
:101EC00004014FF0E022116107E04FF0E0210969C1
:101ED00021F004014FF0E0221161704710B5134862
:101EE000006840F001001149086008464068104948
:101EF00008400E494860084600680E4908400B49F2
:101F000008600846006820F48020086008464068A1
:101F100020F4FE0048604FF41F008860FFF756FF72
:101F20004FF000600449086010BD0000001002403E
:101F30000000FFF8FFFFF6FE08ED00E010B50121FC
:101F4000074800F03BF850B10648007820F0010047
:101F5000401C044908700121014800F011F810BD2F
:101F6000000C00408601002021B1028842F080026E
:101F7000028004E002884FF67F731A4002807047A7
:101F8000CA430282704721B1028842F001020280F6
:101F900004E002884FF6FE731A400280704731B1A8
:101FA000B0F8442042F40042A0F8442005E0B0F824
:101FB0004420C2F30E02A0F84420704730B5024618
:101FC000002000230024158A05EA0103958905EA0B
:101FD000010413B10CB1012000E0002030BD1AB1A2
:101FE00083890B43838102E083898B43838170471C
:101FF00070B5002400220023058C4FF6FE76354094
:102000000584028C8388048B4FF68F752C40B51E97
:102010002C400D882C43751E2A400D892A434D887B
:102020002A43144DA8420BD0134DA84208D0134D9B
:10203000A84205D0124DA84202D0124DA84213D199
:102040004FF6F7752A404D892A434FF6FB752A4013
:102050008D882A434FF6FF652B404FF6FF552B40E6
:102060008D892B43CD892B4383800483CD8885863E
:10207000028470BD002C014000340140004001404A
:1020800000440140004801400A460021018B4FF600
:10209000F7731940114301837047000070B50024A5
:1020A00000220023058C4FF6EF7635400584028C24
:1020B0008388048B48F6FF752C404FF6FF452C4073
:1020C0000D884FF6FF7606EA05252C434FF6DF759F
:1020D0002A400D8906EA05152A434D8806EA0515AA
:1020E0002A43154DA84202D0144DA8421DD14FF6E7
:1020F0007F752A404D894FF6FF7606EA05152A437B
:102100004FF6BF752A408D8806EA05152A434FF61B
:10211000FF352B404FF2FF752B408D8906EA850570
:102120002B43CD8906EA85052B4383800483CD8824
:102130000587028470BD0000002C0140003401407E
:102140000A460021018B4FF2FF7319404FF6FF73CF
:1021500003EA0223194301837047000070B500228F
:1021600000230024058C4EF6FF7635400584038C51
:102170008488828B48F6FF752A404FF6FF452A4037
:102180000D884FF6FF7606EA05252A434DF6FF75C2
:102190002B400D8906EA05352B434D8806EA0535A7
:1021A0002B430B4DA84202D00A4DA84208D14BF652
:1021B000FF752C408D894FF6FF7606EA85152C4376
:1021C00084808283CD88A0F84050038470BD0000D5
:1021D000002C0140003401400A460021818B4FF25F
:1021E000FF7319404FF6FF7303EA022319438183FB
:1021F00070478186704701877047A0F8401070478C
:10220000002202881D4B98420ED01D4B98420BD0E5
:10221000B0F1804F08D01B4B984205D01A4B984222
:1022200002D01A4B984204D14FF68F731A404B8854
:102230001A43174B984207D0164B984204D04FF6DA
:10224000FF431A40CB881A4302808B8883850B8812
:1022500003850A4B98420BD0094B984208D00E4B8D
:10226000984205D00D4B984202D00D4B984201D1B7
:102270000B7A03860123838270470000002C014003
:10228000003401400004004000080040000C004001
:102290000010004000140040004001400044014094
:1022A0000048014010B540F22551384800F03BF994
:1022B000002843D0354800F0F1F935490988C82293
:1022C00091FBF2F302FB1311324A5054304800885C
:1022D000C82190FBF1F201FB12002E49085C08288E
:1022E00022D12B48008802281ADB29480088C821FF
:1022F00090FBF1F201FB1200264900220A54244807
:102300000088C82190FBF1F201FB1200401E214918
:1023100000220A541E480088401E1D49088008E01B
:1023200000201B49088004E019480088401C184917
:10233000088040F22551154800F0DAF840F2277184
:10234000124800F0F0F800B313480088C82190FB51
:10235000F1F201FB120011490C5C21460B4800F020
:10236000A2F90D480088401C0B4908800C480088E1
:10237000401E0988884208DA002240F2277103488B
:1023800000F0FBF800200449088010BD003801402F
:102390008E010020F018002096010020E41A002091
:1023A0009401002010B540F22551224800F0BBF8FE
:1023B000A8B1204800F072F91F490988642291FBF6
:1023C000F2F302FB13111D4A50541B480088401CB5
:1023D0001949088040F22551164800F089F840F26A
:1023E0002771144800F09FF810B315480088642145
:1023F00090FBF1F201FB120012490C5C21460D48E2
:1024000000F051F90E480088401C0D4908800E4824
:102410000088401E098888420ADA002240F22771AB
:10242000044800F0AAF800200549088003F0BEFE29
:1024300010BD00000044004090010020B8190020A9
:102440009E010020AC1B00209C01002010B540F232
:102450002551214800F067F8A8B11F4800F01EF987
:102460001E490988C82291FBF2F302FB13111C4A92
:1024700050541A480088401C1849088040F22551E1
:10248000154800F035F840F22771134800F04BF87A
:1024900000B314480088C82190FBF1F201FB120040
:1024A00011490C5C21460C4800F0FDF80D480088ED
:1024B000401C0C4908800D480088401E098888424D
:1024C00008DA002240F22771034800F056F8002095
:1024D0000449088010BD000000480040920100201F
:1024E0001C1A0020A6010020101C0020A4010020BE
:1024F00010B50022002340F66A14A14200D100BFAB
:102500000A1201249440A3B2DC43048010BD21B11F
:10251000828942F40052828104E082894DF6FF7381
:102520001A408281704770B50246002400230025BE
:10253000002040F66A16B14200D100BFC1F3421537
:1025400001F01F03012606FA03F3012D02D196893B
:10255000334006E0022D02D1168A334001E0968A0C
:1025600033400C12012606FA04F41688344013B1E5
:102570000CB1012000E0002070BDF0B5034600243E
:1025800000260025002040F66A17B94200D100BF9E
:102590001846C1F3421401F01F06012707FA06F599
:1025A000012C01D10C3004E0022C01D1103000E0EC
:1025B00014301AB107682F43076002E00768AF4381
:1025C0000760F0BD2DE9F04786B005460E460024B1
:1025D000A24600BFA1460027B08900B100BF2F4628
:1025E0002C8A4CF6FF700440F08804432C82AC899E
:1025F0004EF6F3100440B0883189084371890843CE
:102600000443AC81AC8A4FF6FF400440B0890443D8
:10261000AC8201A8FFF770FB1F48874202D1DDF8AA
:1026200010A001E0DDF80CA0A88900F4004040B142
:102630000AEBCA0000EB0A1031684900B0FBF1F860
:1026400007E00AEBCA0000EB0A1031688900B0FB12
:10265000F1F86420B8FBF0F004012009642101FBCB
:102660001089A88900F4004040B1322000EBC90075
:10267000B0FBF1F000F00700044308E0322000EB6B
:1026800009106421B0FBF1F000F00F0004432C812D
:1026900006B0BDE8F0870000003801400146888898
:1026A000C0F308007047C1F30802828070474900F8
:1026B00050EAC12018BF04204A0D18BF40F00100A5
:1026C00040F2FF72B2EB515F08BF40F002000128F8
:1026D00008BF0520704700002DE9F04104460D4673
:1026E000A5B10A2094FBF0F100FB1140124931F82A
:1026F00010600A2094FBF0F100FB11400F4951F8E3
:10270000207031463846FFF766FA13E00A2094FB42
:10271000F0F100FB1140084931F810600A2094FBE9
:10272000F0F100FB1140054951F820703146384660
:10273000FFF74FFABDE8F08170010020480100204A
:1027400010B509484078C0F3400000B910BD0648F4
:10275000407820F002000449487000F00DF800F0C5
:10276000FDFB00BFF2E700008601002010B500F07D
:102770005BF800F043FC10BD10B50024234800783E
:1027800038BB00F0E1FC00B300BF04E000202049AA
:102790000855601CC4B2052CF8DB01201B490870E9
:1027A0001C49002003F0FCFC1B49012003F0F8FC4D
:1027B0001A49022003F0F4FC1949032003F0F0FC4D
:1027C0001849042003F0ECFC1FE000200F490870BA
:1027D0001BE0002417E00E48005D012806D12046CA
:1027E00001F0FEFE10B90320094908550848005DB4
:1027F000022806D1204601F0F3FE10B9002004495A
:102800000855601CC4B2052CE5DB10BD451800203E
:1028100040180020514F00085B4F0008654F00082A
:102820006F4F0008794F000810B5002400BF0CE07E
:10283000611DC8B201F0C0FE28B94FF4FA7201213F
:10284000204603F0DDFF601CC4B2052CF0DB00F075
:102850007BFC00B3002404E0002011490855601CF3
:10286000C4B2052CF8DB01200E4908700E49002087
:1028700003F096FC0D49012003F092FC0C49022064
:1028800003F08EFC0B49032003F08AFC0A49042064
:1028900003F086FC02E000200249087010BD000031
:1028A0004018002045180020514F00085B4F0008D9
:1028B000654F00086F4F0008794F000870B58EB063
:1028C00005460E460024022E0DD128780D280AD187
:1028D00068780A2807D11EA001F0AEFA002021492D
:1028E00008700EB070BD00240BE0285D0D2802D0EA
:1028F000285D202800D106E0285D01A90855601C4C
:10290000C4B2B442F1DB00BF002001A90855002485
:1029100016E004EB840000EBC400134A02EBC00095
:10292000011D01A8FDF726FE40B904EB840101EB6F
:10293000C4010D4A52F831008047D2E7601CC4B28E
:10294000372CE6D309A001F077FA00BFC9E70000F1
:10295000636F6D6567656E6520636F6D6D616E6435
:102960003A000000E4010020E8010020696E766171
:10297000696C6420636F6D6D616E640D0A00000008
:102980002DE9F041B4B01C480078C00910B934B04A
:10299000BDE8F0811848007820F0800016490870E2
:1029A00001F010FA30B1154801881548FFF786FF8D
:1029B00000F0DCFB13480078D8B11349488805F0D3
:1029C00051F8804604F088FF04460D460E490888F9
:1029D00005F048F8804604F07FFF064632460B4675
:1029E0000AA102A8CDE90045FDF748FC02A801F0C4
:1029F00023FA00BFCBE70000860100208E010020F3
:102A0000F0180020E4010020BC24002074656D70E3
:102A1000312C25663B74656D70322C25663B0A00AF
:102A2000002002490870024908707047E401002044
:102A3000E50100202DE9F04F8BB000240026FEA018
:102A400000680A900025A046A14600200990089041
:102A50000790069000278246F8480078C0F340109F
:102A600010B90BB0BDE8F08FF448007820F02000DA
:102A7000F2490870002417E0F14830F8140000B261
:102A8000F04921F81400204601F0B6FD50B1EE489F
:102A900030F81400EB4931F81410401A00B2EB4939
:102AA00021F81400601CC4B20A2CE5DB002411E0FC
:102AB000204601F0A1FD58B1701CC6B2284605EBB6
:102AC000D0714910A5EB41010AAA5454681CC5B243
:102AD000601CC4B20A2CEBDB022E2FDD4FF0000885
:102AE00000240CE0D94830F91400404505DDD748F2
:102AF00030F814001FFA80F8A146601CC4B20A2CFA
:102B0000F0DB8DF828904FF00008002412E09DF8CB
:102B10002800A04200D10BE0CC4830F91400404519
:102B200005DDCA4830F814001FFA80F8A14600BF3E
:102B3000601CC4B20A2CEADB8DF82990012E7AD1F0
:102B4000002405E00021204603F0FCFE601CC4B216
:102B50000A2CF7DB9DF828000A2190FBF1F301FB1A
:102B60001300C2B2104601F047FD002862D09DF864
:102B700028000A2190FBF1F201FB1200B34931F960
:102B80001000002858DD9DF828000A2190FBF1F282
:102B900001FB1200AD4931F91000059004F04AFF25
:102BA0008346AB4904F072FF07909DF82810A74AAE
:102BB00032F9110004F03EFF05909DF828000A212B
:102BC00090FBF1F201FB1200A24931F910000390D1
:102BD00004F030FF0490059905F024F883469E49DF
:102BE00004F054FF0690DDE9061004F0A1FE099000
:102BF0009DF828000A2190FBF1F201FB1200934995
:102C000031F810009DF828100A2291FBF2F302FB24
:102C10001311904A22F81100099804F0EBFE87B2D4
:102C2000B7F57A7F01DD4FF47A779DF828003946B1
:102C300003F088FE6CE124E000279DF82800394667
:102C400003F080FE9DF828000A2190FBF1F201FBC1
:102C500012007E4931F9100010F10A0F08DA9DF8D0
:102C600028B00BEBDB714810002104F0AFF94FE105
:102C70009DF828B00BEBDB714810012104F0A6F998
:102C800046E19DF828000A2190FBF1F301FB1300B7
:102C9000C2B2104601F0B0FC00286BD0002405E061
:102CA0000021204603F04EFE601CC4B20A2CF7DB64
:102CB0009DF828000A2190FBF1F201FB1200634904
:102CC00031F91000002856DD9DF828105F4A32F9CE
:102CD000110004F0AFFE02909DF828000A2190FB3D
:102CE000F1F201FB12005B4931F910B0584604F0D3
:102CF000A1FE0190029904F095FF5749039004F05A
:102D0000C5FE05909DF828000A2190FBF1F201FB19
:102D100012004E4931F91000039004F08BFE8346F7
:102D20004B4904F0B3FE0490059904F001FE0990AC
:102D30009DF828000A2190FBF1F201FB12004349A3
:102D400031F810009DF828100A2291FBF2F302FBE3
:102D50001311404A22F81100099804F04BFE87B283
:102D6000B7F57A7F01DD4FF47A779DF82800394670
:102D700003F0E8FD23E000279DF82800394603F022
:102D8000E1FD9DF828000A2190FBF1F201FB120001
:102D90002E4931F9100010F10A0F08DA9DF828B019
:102DA0000BEBDB714810002104F010F907E09DF8EF
:102DB00028B00BEBDB714810012104F007F99DF8F6
:102DC00029000A2190FBF1F301FB1300C2B2104667
:102DD00001F012FC002875D09DF829000A2190FB13
:102DE000F1F201FB1200194931F9100000286ADDE7
:102DF0009DF82910154A32F9110004F01BFE0390CA
:102E00009DF829000A2190FBF1F201FB1200114903
:102E100031F91000019004F00DFE0290039904F0C6
:102E200001FF83460C4904F031FE05909DF829000E
:102E30000A2190FBF1F211E0FFFF00008601002063
:102E4000BC240020EE240020DA24002002250020EB
:102E500000000C42162500200000A0C001FB12005B
:102E60002C4931F91000039004F0E4FD83462A490F
:102E700004F00CFE0490059904F05AFD08909DF8AA
:102E800029000A2190FBF1F201FB1200214931F8DF
:102E900010009DF829100A2291FBF2F302FB131196
:102EA0001E4A22F81100089804F0A4FD1FFA80FAC7
:102EB000BAF57A7F01DD4FF47A7A9DF82900514600
:102EC00003F040FD24E04FF0000A9DF82900514630
:102ED00003F038FD9DF829000A2190FBF1F201FB77
:102EE00012000C4931F9100010F10A0F08DA9DF8B0
:102EF00029B00BEBDB714810002104F067F807E004
:102F00009DF829B00BEBDB714810012104F05EF84D
:102F100000BFA6E50225002000000C421625002077
:102F2000002000BF0FE04FF0FF31084A22F81010D8
:102F30000021074A22F81010064A22F81010064A0B
:102F40001154411CC8B20A28EDDB7047DA24002076
:102F50000225002016250020D024002010B50024D2
:102F600024480078012800D110BD002406E0224842
:102F7000005D012800D104E0601CC4B20A2CF6DB1D
:102F8000F2E71D48401E90F8200001281BD101F0F7
:102F9000C1FB03282BD1002003F0B2FD00240CE07C
:102FA0001548005D012806D113480B3030F8141085
:102FB000204603F0EFFE601CC4B20A2CF0DB0120B7
:102FC0000C49087013E000240CE00B48005D012858
:102FD00006D109480B3030F81410204603F0DAFE11
:102FE000601CC4B20A2CF0DB01200249087000BF4B
:102FF000BAE70000461800202B25002010B500F08D
:103000000DF901200149087010BD0000461800208C
:1030100000B599B064221D496846FDF74EFA1C4878
:103020004078C0F3C00008B919B000BD1848407816
:1030300020F008001649487001F0A4FF18B301F011
:1030400063FBE0B1134800885A2818DA0DF1090231
:1030500010480188104801F02DFE10A000F0ECFE91
:10306000012000F083FF684600F0E6FE0A2000F031
:103070007DFF0AA000F0E0FE012000F077FF01F0E4
:10308000F1FF00F081F800BFCEE70000787F000874
:1030900086010020920100201C1A00200D0A000069
:1030A0007047000070B5054600240DB9002070BDC2
:1030B0001748007848B116480078032805D014480E
:1030C0000078052801D002F0B9FC002411E00120AD
:1030D000A040284058B101200E49085500200E4953
:1030E00008800E4908800021204604F055F8601C35
:1030F000C4B2052CEBDB0021062004F04DF80021C2
:10310000084601F0CFFE01200149087000BFCEE75C
:10311000CC180020CD180020D2180020D418002090
:1031200010B5FF20FFF7BEFF01A000F085FE10BD27
:103130006368616E6765207761746572207375637B
:10314000636573730D0A000010B5002400BF08E02A
:10315000204601F045FA042801D1002010BD601C72
:10316000C4B2052CF4DB0120F8E7000010B50448D8
:1031700001880448FDF7DBF900200149088010BDF3
:103180008E010020F018002010B505480188054880
:10319000FDF7CDF90020024908800349088010BDE1
:1031A000920100201C1A0020A2010020052190FBA2
:1031B000F1F201FB12010C4A00235354052190FB4C
:1031C000F1F201FB1201094A5354052190FBF1F27F
:1031D00001FB1201064A5354052190FBF1F201FB59
:1031E0001201044A53547047881800209218002096
:1031F0009C1800209718002010B505480188054844
:10320000FDF795F90020024908800349088010BDA8
:1032100090010020B81900209A01002000B589B063
:1032200000208DF80000CDF80100CDF80500ADF8C4
:1032300009004FF6FF720A2103A8FDF770F909B0E3
:1032400000BD000070B50446052094FBF0F100FBC2
:103250001140C5B20021284603F030FB052094FB45
:10326000F0F100FB1140024900220A5470BD000039
:10327000A118002070B59AB0064600240025F488F5
:103280004FF6FF7000EA04243089044300BF05E0D4
:103290000021284603F00CFB681CC5B2052DF7DBA6
:1032A00001F032FA28B114A000F0C6FD0A2000F0A7
:1032B0005DFE012C0BD1FF2002F0A8FA01F024FAE8
:1032C00028B115A000F0B8FD0A2000F04FFE01F073
:1032D0001BFA28B117A000F0AFFD0A2000F046FE4F
:1032E0000020ADF80400ADF80600022201A901207B
:1032F00002F094FD1AB070BD636C6F736520746545
:103300006D7020636F6E74726F6C2073756363658C
:103310007373210D0A0000007374617274206F755D
:1033200074207761746572207375636365737321AC
:103330000D0A00006F7065726174652073756363B8
:10334000657373210D0A000010B500200249087052
:1033500002A000F071FD10BDE5010020746674202C
:10336000636F6D207472616E736D697420636C6F2E
:10337000736520737563636573730D0A0000000045
:1033800070B504460025207808B9022070BD94F875
:103390002000012802D1FF20FFF784FE2078154984
:1033A000087094F8200081F82000481CD4F801101F
:1033B0000160D4F805104160B4F809100181401E85
:1033C000E168C16021690161A18A8182002509E06B
:1033D0000848401C405D18B90021284603F068FAEF
:1033E000681CC5B20A2DF3DB00200349087000BF3A
:1033F000CCE700002A250020461800200448008859
:103400000A2800DA704700200149088000BFF9E768
:103410008C010020164800880A2800DA7047002036
:10342000134908801348007820F01000103011492B
:1034300008700846007820F0200020300870084608
:10344000007820F08000803008700846407820F036
:103450000200801C48700846407820F00400001DDF
:10346000487005480088401C0349088000BFD5E724
:103470008A010020860100208C0100201648008867
:103480000A2800DA704700201349088013480078A2
:1034900020F00400001D114908700846007820F053
:1034A0000800083008700846007820F040004030DE
:1034B00008700846407820F00100401C487008461B
:1034C000407820F008000830487005480088401C0B
:1034D0000349088000BFD5E788010020860100204D
:1034E0008A0100200C48007800F0010000B9704704
:1034F0000948007820F00100074908700846007864
:1035000020F00200801C087004480088401C034919
:10351000088000BFEBE70000860100208801002042
:103520002DE9F047002419480078C0F3001008B9CD
:10353000BDE8F0871548007820F0100013490870A6
:1035400000241FE040F6E441204600F01FFE104931
:1035500021F8140031F8140004F084FA82460D4971
:1035600004F060FB814604F0B7F907460A4A0B4BAA
:1035700003F02EFF054604F083F8094921F81400F2
:10358000601CC4B20A2CDDDB00BFD1E7860100203D
:10359000A82400200000F043B81E85EB51B8FE3F80
:1035A000BC24002010B592B0002401214802FEF78F
:1035B00083FB4FF40040FEF753FB00BF0FE052487F
:1035C00030F81400ADF8300000208DF833004F497A
:1035D00051F824000CA9FEF71FFA601CC4B20A2C93
:1035E000EDDB4B48FEF76CF800200D9001208DF8C4
:1035F00038008DF839004FF460200F9000201090B3
:103600000A208DF844000DA94148FEF79BF80723D6
:10361000012204213E48FEF7BDF8072302220521BE
:103620003B48FEF7B7F80723032206213848FEF788
:10363000B1F80723042219463548FEF7ABF80723F3
:10364000052208213248FEF7A5F8072306220921A2
:103650002F48FEF79FF807231A460A212C48FEF749
:1036600099F8072308220B212948FEF793F807232E
:1036700009220C212648FEF78DF807230A220D2186
:103680002348FEF787F801212148FEF70EF80121B3
:103690001F48FDF7FFFF1E48FEF7D8F800BF1C4883
:1036A000FEF746F80028FAD11948FEF7DFF800BF08
:1036B0001748FEF733F80028FAD101210846FEF733
:1036C000DBFA1448FEF7E4F811484C300190124838
:1036D0000290002003904FF47A700490002005902F
:1036E00080200690400007908000089020200990DC
:1036F00000020A9000200B9001A90648FEF76EF91F
:1037000003F004FA12B010BDD0010020A80100207F
:103710000024014008000240D81C002038B50024D5
:103720000121FC20FEF7C8FA00BF1AE02F4830F84C
:103730001400ADF8000010208DF8030003208DF870
:1037400002002B4951F824006946FEF765F9274A23
:1037500032F81410264A52F82400FEF73AFA601C98
:10376000C4B21A2CE2DB002420E0224830F8140016
:10377000ADF800000E2C05DD142C03DA28208DF89E
:10378000030008E0052C03DA04208DF8030002E0B2
:1037900048208DF8030003208DF80200164951F8E7
:1037A00024006946FEF738F9601CC4B2152CDCDB36
:1037B000002405E00121204603F008FC601CC4B28F
:1037C000052CF7DB002405E00121204603F0E4FC92
:1037D000601CC4B2072CF7DB0121002001F062FB62
:1037E0000121084601F05EFB38BD00009400002076
:1037F0002C0000201C010020C800002010B500246F
:103800001C480078C0F3400000B910BD194800788A
:1038100020F002001749087000241AE0164830F81A
:10382000140080B1204600F02DFF14490988884219
:1038300004DD01212046FEF74FFF08E0002120466D
:10384000FEF74AFF03E000212046FEF745FF601C1B
:10385000C4B20A2CE2DB09480088401C07490880F2
:1038600008460088B0F57A7F01DD0020088000BF9F
:10387000CBE7000086010020DC1800208401002036
:1038800010B588B0002401210220FEF705FA0121BD
:103890000920FEF711FA01218E48FEF749F9202090
:1038A000ADF81C0018208DF81F0003208DF81E00B5
:1038B00007A98948FEF7B0F842F22730ADF81400A6
:1038C0000020ADF81000ADF81600ADF8120004A904
:1038D0008248FEF795FC7020ADF800000120ADF89D
:1038E00002000220ADF8080069467C48FEF7D6FBCE
:1038F00008217A48FEF724FC01217848FEF743FBB3
:1039000001210846FEF7C8F901210420FEF7D4F989
:103910000220ADF81C0018208DF81F0003208DF840
:103920001E0007A96E48FEF777F842F22730ADF87F
:1039300014000020ADF81000ADF81600ADF812002C
:1039400004A94FF08040FEF75BFC7020ADF800004A
:103950000120ADF802000220ADF8080069464007DA
:10396000FEF79CFB0821C806FEF7EAFB0121880749
:10397000FEF709FB01210420FEF78EF90121082042
:10398000FEF79AF94020ADF81C0018208DF81F00B2
:1039900003208DF81E0007A94F48FEF73DF8802050
:1039A000ADF81C0018208DF81F0003208DF81E00B4
:1039B00007A94948FEF730F84FF40070ADF81C0035
:1039C00018208DF81F0003208DF81E0007A942481B
:1039D000FEF722F842F22730ADF814000020ADF8CF
:1039E0001000ADF81600ADF8120004A93D48FEF72E
:1039F00007FC6020ADF800000120ADF802000020B7
:103A0000ADF80600ADF8080069463648FEF7F0FA52
:103A10006020ADF800000120ADF802000020ADF8F4
:103A20000600ADF8080069462E48FEF737FB602017
:103A3000ADF800000120ADF802000020ADF806004E
:103A40000220ADF8080069462648FEF787FB0121F1
:103A50002448FEF7A4FA08212248FEF715FB0821A6
:103A60002048FEF76DFB08211E48FEF7B5FB01213B
:103A70001C48FEF779FA01211A48FEF784FA00BFC4
:103A800005E00021084602F019FF601CC4B2052CB5
:103A9000F7DB00241AE0144830F81400ADF81C00DD
:103AA00010208DF81F0003208DF81E000F4951F8DB
:103AB000240007A9FDF7B0FF0B4A32F814100B4A97
:103AC00052F82400FEF785F8601CC4B20A2CE2DB31
:103AD00008B010BD00081A00000C014000040040AE
:103AE000000801400008004070010020480100204B
:103AF00010B5FFF7F7FCFFF7C1FCFFF78BFCFFF7F2
:103B00007DFC10BD1FB501210820FEF7C5F841F668
:103B10001F40ADF808000920ADF804000020ADF802
:103B20000A00ADF8060001A90D48FEF769FB012265
:103B300011460B48FEF753FA32208DF800000020A2
:103B40008DF8010003208DF8020001208DF803009C
:103B50006846FEF743F801210148FEF714FA1FBD3D
:103B6000000C004010B502F049F910BD00B587B057
:103B700001218803FEF7A0F84FF40070ADF818009B
:103B800003208DF81A0018208DF81B0006A976482E
:103B9000FDF742FF4FF48060ADF8180004208DF867
:103BA0001B0006A97048FDF737FF25208DF804009B
:103BB00003208DF8050002208DF8060001208DF805
:103BC000070001A8FEF70AF84FF4E1300290002048
:103BD000ADF80C00ADF80E00ADF81000ADF8140013
:103BE0000C20ADF8120002A96048FEF7EBFC0122A0
:103BF00040F225515D48FEF7C0FC002240F22771DB
:103C00005A48FEF7BAFC01215848FEF780FC012112
:103C10000420FEF751F801214804FEF73DF8082082
:103C2000ADF8180004208DF81B0006A94E48FDF7DA
:103C3000F3FE0420ADF8180003208DF81A001820B8
:103C40008DF81B0006A94848FDF7E6FE26208DF8F2
:103C5000040003208DF8050002208DF806000120E5
:103C60008DF8070001A8FDF7B9FF4FF4E13002908D
:103C70000020ADF80C00ADF80E00ADF81000ADF866
:103C800014000C20ADF8120002A93948FEF79AFC86
:103C9000012240F225513648FEF76FFC002240F227
:103CA00027713348FEF769FC01213148FEF72FFCEC
:103CB00001210820FEF700F801218804FDF7ECFF40
:103CC0004FF40060ADF8180004208DF81B0006A921
:103CD0002848FDF7A1FE4FF48060ADF818000320DE
:103CE0008DF81A0018208DF81B0006A92148FDF751
:103CF00093FE4FF4E13002900020ADF80C00ADF8D7
:103D00000E00ADF81000ADF814000C20ADF8120054
:103D100002A91948FEF756FC012240F22551164827
:103D2000FEF72BFC01211448FEF7F1FB4FF4A060D5
:103D3000FDF78CFF27208DF8040003208DF8050087
:103D400002208DF8060001208DF8070001A8FDF77C
:103D500045FF002002F02AFA08A000F06DF812A03A
:103D600000F06AF807B000BD0008014000380140CB
:103D700000440040000C01400048004077656C633F
:103D80006F6D6520746F20636F6D6567656E65206C
:103D9000696E737472756374696F6E20737973746E
:103DA000656D0D0A00000000696E70757420273F74
:103DB0002720746F206765742068656C70200D0A79
:103DC000000000000A48008808B900207047084831
:103DD0000088801E0749085C0D2807D10448008828
:103DE000401E085C0A2801D10120EFE70020EDE722
:103DF0008E010020F018002070B505460C46C82C36
:103E000000DD70BD224629460748FCF711FB074834
:103E10000480002006490880012240F227710548ED
:103E2000FEF7ABFB00BFECE7E41A00209401002092
:103E3000960100200038014070B504462046FCF78A
:103E4000D8FA85B229462046FFF7D6FF70BD00009C
:103E500010B502A0FFF7F0FF10BD00006B657920E0
:103E600030206576656E742068617070656E6421BF
:103E70000D0A000010B502A0FFF7DEFF10BD000024
:103E80006B65792031206576656E7420686170708D
:103E9000656E64210D0A000010B502A0FFF7CCFF8B
:103EA00010BD00006B65792032206576656E742048
:103EB00068617070656E64210D0A000010B502A083
:103EC000FFF7BAFF10BD00006B65792033206576DF
:103ED000656E742068617070656E64210D0A000063
:103EE00010B502A0FFF7A8FF10BD00006B65792098
:103EF00034206576656E742068617070656E64212B
:103F00000D0A000010B502A0FFF796FF10BD0000DB
:103F10006B65792035206576656E742068617070F8
:103F2000656E64210D0A000010B56FF00400FDF706
:103F3000C1FF0A4800680A49B0FBF1F0094908705E
:103F40000846007800EB4001C1EBC0104FF6FF714E
:103F500001EAC0000449088010BD000000000020F4
:103F600000127A0014000020160000200146114AB9
:103F700012884A434FF0E0235A6100229A611A46A0
:103F8000126942F001021A6100BF4FF0E02210698D
:103F900000F001021AB100F48032002AF5D04FF08F
:103FA000E022126922F001024FF0E0231A610022A0
:103FB0009A617047160000202DE9F041A6B0002458
:103FC00000270025A046002600BF09E04148005D0B
:103FD000202803D123A8C455781CC7B2601CC4B2E2
:103FE0003D4800888442F1DB022F05D03BA0FFF75B
:103FF00023FF26B0BDE8F0819DF88C00401CC4B2C0
:1040000013E03448005D1EA948551EA8405D3028C5
:1040100003DB1EA8405D392803DD30A0FFF70CFF4D
:10402000E7E7681CC5B2601CC4B29DF88D00A042D1
:10403000E7DC00201EA9485500259DF88D00401C96
:10404000C4B213E02348005D19A9485519A8405D82
:10405000302803DB19A8405D392803DD1FA0FFF7D6
:10406000EBFEC6E7681CC5B2601CC4B21A480088E3
:10407000801EA042E6DC002019A948551EA8FCF7C6
:10408000ABF91FFA80F819A8FCF7A6F986B2B8F1C7
:10409000040F03DD15A0FFF7CFFEAAE7012E04D021
:1040A0001EB11AA0FFF7C8FEA3E70EB1012200E07F
:1040B0000022114608F0FF0002F098F9334642460C
:1040C0001AA16846FCF7DAF86846FFF7B5FE00BFAC
:1040D0008FE70000F01800208E010020636F6D6DE7
:1040E000616E64206572726F720D0A0069642070DF
:1040F0007261206572726F72202C706C65617365DD
:1041000020696E70757420302D3400007377207034
:104110007261206572726F72202C706C65617365BC
:1041200020696E70757420302F3100007365742023
:1041300066616E20636F6E202564206173202564A4
:1041400020737563636573730D0A000070B50446D0
:104150000D465DB104F10C020A4B33F81210921CAB
:10416000094B53F82200FDF736FD0AE004F10C027A
:10417000044B33F81210921C034B53F82200FDF746
:1041800028FD70BD940000202C0000202DE9F04F88
:1041900087B082468B460024A1460020069000BFCF
:1041A00009E004EB8400184901EB800030F81A00A4
:1041B0008144601C84B2642CF3DB6420B9FBF0F909
:1041C000584603F04FFC074603F086FB05460E46B3
:1041D000484603F047FC019003F07EFB07460022AF
:1041E0000A4B03F0F5F82A463346CDE9020103F005
:1041F00075FACDE9040103F043FA80B206900698FF
:1042000007B0BDE8F08F0000D81C00200000B040CF
:104210000146052091FBF0F200FB1210014A105CF0
:10422000704700004018002030B599B000240025E8
:1042300000BF13E040F6E4412046FFF7A7FF054624
:104240002B46224607A16846FCF718F86846FFF798
:10425000F3FD0A20FFF78AFE601CC4B20A2CE9DBDA
:1042600019B030BD3E3E3E20616463202564207657
:104270006F6C74616765206973202564206D56201A
:104280000D0A00000146052091FBF0F200FB121020
:10429000014A105C70470000D618002010B500F0ED
:1042A00039FA06281CD2DFE800F003070B0F1317BA
:1042B0000DA0FFF7C1FD14E014A0FFF7BDFD10E055
:1042C0001CA0FFF7B9FD0CE024A0FFF7B5FD08E046
:1042D0002BA0FFF7B1FD04E031A0FFF7ADFD00E03A
:1042E00000BF00BF10BD00004E6F77207374617473
:1042F0007573203A206E6F5F696E6A656374696FCB
:104300006E5F7461736B0D0A000000004E6F7720C2
:10431000737461747573203A206368616E67655FBA
:1043200077617465725F6F75745F737461747573B0
:104330000D0A00004E6F7720737461747573203A14
:10434000206368616E67655F77617465725F696E2F
:104350005F7374617475730D0A0000004E6F7720EF
:10436000737461747573203A206368616E67655F6A
:1043700077617465725F646F6E650D0A00000000FE
:104380004E6F7720737461747573203A206F757463
:104390005F77617465725F7374617475730D0A0081
:1043A0004E6F7720737461747573203A206F757443
:1043B0005F77617465725F646F6E650D0A0000005F
:1043C00030B599B00024002500BF17E0204600F06A
:1043D00039F805462DB122460AA16846FBF74EFF83
:1043E00004E022460FA16846FBF748FF6846FFF746
:1043F00023FD0A20FFF7BAFD601CC4B2062CE5DBE2
:1044000019B030BD3E3E3E206B6579202564207694
:104410006F6C746167652069732074727565200D17
:104420000A0000003E3E3E206B6579202564207620
:104430006F6C746167652069732066616C736520B9
:10444000200D0A0010B5044604F10F02064B33F8A4
:104450001210064B53F82200FDF7B2FB08B1012001
:1044600010BD0020FCE700001C010020C800002057
:1044700030B599B00024002500BF17E0204600F0B9
:104480003DF805462DB122460AA16846FBF7F6FE27
:1044900004E0224610A16846FBF7F0FE6846FFF7ED
:1044A000CBFC0A20FFF762FD601CC4B20A2CE5DBDE
:1044B00019B030BD3E3E3E206C697175696420259F
:1044C0006420766F6C7461676520697320747275FF
:1044D00065200D0A000000003E3E3E206C697175AB
:1044E000696420256420766F6C7461676520697348
:1044F0002066616C7365200D0A00000010B504464B
:10450000064A32F81410064A52F82400FDF758FB08
:1045100008B1012010BD0020FCE700001C010020B4
:10452000C800002030B599B00024002500BF17E076
:10453000204600F041F805462DB122460AA1684602
:10454000FBF79CFE04E0224611A16846FBF796FEAD
:104550006846FFF771FC0A20FFF708FD601CC4B233
:104560000A2CE5DB19B030BD3E3E3E206D6F746F06
:1045700072206C696D697420256420766F6C74619B
:1045800067652069732074727565200D0A0000004C
:104590003E3E3E206D6F746F72206C696D697420B1
:1045A000256420766F6C746167652069732066618D
:1045B0006C7365200D0A000010B50446621D064BA1
:1045C00033F81210054B53F82200FDF7F9FA08B141
:1045D000012010BD0020FCE71C010020C8000020C5
:1045E0000146052091FBF0F200FB1210014A105C1D
:1045F00070470000A118002001460148405C704748
:10460000D024002010B59AB0002400BF16E0204648
:10461000FFF7F2FF28B122460AA101A8FBF72EFE00
:1046200004E022460FA101A8FBF728FE01A8FFF72E
:1046300003FC0A20FFF79AFC601CC4B20A2CE6DBDC
:104640001AB010BD3E3E3E2070696420636F6E74E8
:10465000726F6C6C6572202564206973206F6E2008
:104660000D0A00003E3E3E2070696420636F6E7448
:10467000726F6C6C6572202564206973206F6666AA
:10468000200D0A0001460A2091FBF0F200FB1210F7
:10469000014A32F810007047DC18002030B599B09C
:1046A0000024002500BF10E00A4830F814502B46C3
:1046B000224609A16846FBF7E1FD6846FFF7BCFB0F
:1046C0000A20FFF753FC601CC4B20A2CECDB19B0C3
:1046D00030BD0000BC2400203E3E3E2074656D705D
:1046E0002020256420697320256420202F20302E6F
:1046F00031206465677265652063656E74696772F1
:10470000616465200D0A00000148007870470000D0
:10471000E50100200148007870470000CC18002017
:1047200010B551A0FFF788FB0A20FFF71FFC57A028
:10473000FFF782FB0A20FFF719FC59A0FFF77CFB6B
:104740000A20FFF713FC65A0FFF776FB0A20FFF7AE
:104750000DFC71A0FFF770FB0A20FFF707FC78A0A3
:10476000FFF76AFB0A20FFF701FC82A0FFF764FB5A
:104770000A20FFF7FBFB8CA0FFF75EFB0A20FFF788
:10478000F5FB90A0FFF758FB0A20FFF7EFFB98A07E
:10479000FFF752FB0A20FFF7E9FB9BA0FFF74CFB5A
:1047A0000A20FFF7E3FB9CA0FFF746FB0A20FFF778
:1047B000DDFBA3A0FFF740FB0A20FFF7D7FBAAA071
:1047C000FFF73AFB0A20FFF7D1FBADA0FFF734FB60
:1047D0000A20FFF7CBFBB4A0FFF72EFB0A20FFF760
:1047E000C5FBC1A0FFF728FB0A20FFF7BFFBCEA047
:1047F000FFF722FB0A20FFF7B9FBD1A0FFF71CFB54
:104800000A20FFF7B3FBD4A0FFF716FB0A20FFF73F
:10481000ADFBDAA0FFF710FB0A20FFF7A7FBDBA038
:10482000FFF70AFB0A20FFF7A1FBDDA0FFF704FB5F
:104830000A20FFF79BFBEAA0FFF7FEFA0A20FFF72A
:1048400095FBF6A0FFF7F8FA0A20FFF78FFBF74871
:10485000FFF7F2FA0A20FFF789FBF5A0FFF7ECFA61
:104860000A20FFF783FBFFE10D0A0D0A0D0A206302
:104870007370207465737420636D64206C69737445
:10488000203E3E3E3E3E3E3E0D0A00002031206767
:1048900065745F6373705F616463200D0A000000DC
:1048A0002032207365745F7761726D5F70776D2061
:1048B00069642070657263656E74204E6F74652044
:1048C0006964203A20302D392070657263656E74FA
:1048D00020302D313030300D0A000000203320739D
:1048E00065745F6D6F746F725F70776D206964209F
:1048F00070657263656E74204E6F74652069642004
:104900003A20302D342070657263656E7420302D2E
:10491000313030300D0A00000D0A0D0A0D0A2070EA
:104920006572697068207465737420636D64206CAF
:10493000697374203E3E3E3E3E3E3E0D0A0000003E
:1049400020342077617465725F636F6F6C5F707580
:104950006D705F636F6E206964207377204E6F7493
:10496000652069643A20302D3420737720302F3150
:104970000D0A000020352077617465725F636F6FE8
:104980006C5F7661766C655F636F6E20696420731F
:1049900077204E6F746520696420302D3620737740
:1049A00020302F310D0A00002036206765745F6CBF
:1049B00069717569645F666565646261636B200D2A
:1049C0000A00000020372068756D69646974795F9A
:1049D000636F6E206964207377204E6F7465206961
:1049E000643A302D3120737720302F310D0A0000CA
:1049F0002038206765745F6D6F746F725F6C696DCE
:104A00006974200D0A0000002039206765745F6B0F
:104A100065795F696E0D0A002031302066616E5F36
:104A2000636F6E206964207377204E6F7465206910
:104A30006420302D3420737720302F310D0A000090
:104A4000203131206C65645F636F6E206964207370
:104A500077204E6F74652069642030207377203092
:104A60002F310D0A00000000203132206F70656E7A
:104A70005F616C6C5F7661766C65200D0A000000EA
:104A80000D0A0D0A0D0A2070657269706832207473
:104A900065737420636D64206C697374203E3E3EC0
:104AA0003E3E3E3E0D0A0000203133207365745FA8
:104AB0006D6F746F72206964206469722073706511
:104AC0006564204E6F746520696420302D34206445
:104AD000697220302F3120737065656420302D316C
:104AE0003030300D0A000000203134207365745FCF
:104AF0006163635F6D6F746F7220696420646972B3
:104B00002074204E6F746520696420302D34206439
:104B1000697220302F31207420323030302D3635FC
:104B20003533350D0A000000203135206368616E91
:104B300067655F77617465725F616C6C200D0A0058
:104B4000203136206F75745F77617465725F616CB8
:104B50006C200D0A000000000D0A0D0A0D0A2061EC
:104B60007070207465737420636D64206C69737455
:104B7000203E3E3E3E3E3E3E0D0A000020313720A4
:104B80006765745F74656D70200D0A0020313820F0
:104B90006765745F7069645F7377200D0A000000B9
:104BA0002031392073746172745F706964206964A4
:104BB0002074616765745F74656D70204E6F7465F5
:104BC00020696420302D39207461726765745F74C8
:104BD000656D70203235202D203130300D0A0000F7
:104BE000203230206F70656E5F74656D705F677521
:104BF0006920206F70656E5F74656D705F677569A1
:104C0000204E6F746520707265737320456E7465F5
:104C10007220746F2053746F700D0A00203231209F
:104C200076657273696F6E0D0A00000038810008A6
:104C300020323320636C6F73655F7466745F636FDB
:104C40006D5F646562756720204E6F746520636CCC
:104C50006F73652074667420636F6D207472616E6B
:104C6000736D69740D0A000006A0FFF7E5F80A20CD
:104C7000FFF77CF909A0FFF7DFF80A20FFF776F9C4
:104C800010BD000020323420726561645F626F786D
:104C90005F7374617475730D0A0000002032352053
:104CA000726561645F66616E5F7374617475730DC4
:104CB0000A000000F0B504460D4600201FE0265C07
:104CC0003109265C06F00F03092904DD01F13706DE
:104CD00002F8106003E001F1300602F81060092BC1
:104CE00006DD03F13706F7B24600761C975505E05E
:104CF00003F13006F7B24600761C9755401CA842D7
:104D0000DDD3002602F81060F0BD00002DE9F0416F
:104D1000A6B0002400270025A046002600BF09E019
:104D20004148005D202803D123A8C455781CC7B290
:104D3000601CC4B23D4800888442F1DB022F05D0DC
:104D40003BA0FFF779F826B0BDE8F0819DF88C0014
:104D5000401CC4B213E03448005D1EA948551EA88B
:104D6000405D302803DB1EA8405D392803DD30A0FC
:104D7000FFF762F8E7E7681CC5B2601CC4B29DF893
:104D80008D00A042E7DC00201EA9485500259DF8B3
:104D90008D00401CC4B213E02348005D19A948559A
:104DA00019A8405D302803DB19A8405D392803DDD0
:104DB0001FA0FFF741F8C6E7681CC5B2601CC4B26B
:104DC0001A480088801EA042E6DC002019A9485538
:104DD0001EA8FBF701FB1FFA80F819A8FBF7FCFAE5
:104DE00086B2B8F1010F03DD15A0FFF725F8AAE799
:104DF000012E04D01EB11AA0FFF71EF8A3E70EB1D2
:104E0000012200E00022114608F0FF0000F04AF8FD
:104E1000334642461AA16846FBF730FA6846FFF768
:104E20000BF800BF8FE70000F01800208E01002073
:104E3000636F6D6D616E64206572726F720D0A0032
:104E4000696420707261206572726F72202C706CC0
:104E50006561736520696E70757420302D310000B6
:104E6000737720707261206572726F72202C706C83
:104E70006561736520696E70757420302F31000094
:104E80007365742068756D696469747920636F6EE9
:104E90002025642061732025642073756363657326
:104EA000730D0A0070B504460D4655B104F10C02AD
:104EB000094B33F81210094B53F82200FCF78BFE14
:104EC00009E004F10C02044B33F81210034B53F8C1
:104ED0002200FCF77EFE70BD940000202C00002014
:104EE00010B504461948005D68B92046FFF778FB05
:104EF00048B941F270720021204601F015FE0120F0
:104F00001249085520E01148005D03280DD12046C4
:104F1000FFF766FB48B941F270720121204601F0AB
:104F200003FE0220094908550EE00848005D0128EB
:104F300009D14FF4FA720121204601F061FC0220F0
:104F40000249085500E000BF10BD000040180020D5
:104F500010B50020FFF7C4FF10BD10B50120FFF70A
:104F6000BFFF10BD10B50220FFF7BAFF10BD10B58E
:104F70000320FFF7B5FF10BD10B50420FFF7B0FF09
:104F800010BD00001748008808B900207047164877
:104F90000078C0F3C00008B90020F7E71248007895
:104FA00020F00800104908700E4800880F49098851
:104FB000884208D000200E4908800A4800880B4922
:104FC00008800020E2E70A480088401C0849088061
:104FD00008460088142803DD002008800120D5E75A
:104FE0000020D3E79201002086010020A0010020CC
:104FF000A201002030B599B005460C466422144940
:105000006846FBF75AFAC82C01DD19B030BD2246BC
:1050100029461048FBF70CFA0F48048000200F497E
:105020000880012240F227710D48FDF7A6FAFFF72C
:105030006BFB50B15A2C08DA0DF1090221462846C3
:10504000FFF738FE6846FEF7F7FE00BFDDE7000019
:10505000147D0008101C0020A4010020A6010020DF
:10506000004800402DE9F0418EB0002400250026C4
:105070000027704800880A2802DA0EB0BDE8F081E7
:105080000024CEE06C48005DEE287DD18DF8040050
:105090006949601C085CADF80600BDF806004FF6D3
:1050A000FF7101EA0020ADF80600BDF80600624A73
:1050B000A11C515C0843ADF80600BDF80600204471
:1050C000401DC82190FBF1F201FB12005A49085C17
:1050D000FF28DAD1BDF806002044801DC82190FBCE
:1050E000F1F201FB12005449085CFE28CDD1BDF855
:1050F00006002044C01DC82190FBF1F201FB120004
:105100004D49085CFD283FD1BDF806002044083019
:10511000C82190FBF1F201FB12004749085CFF280F
:105120007DD1BDF806002044C01CC82190FBF1F2DF
:1051300001FB120040490F5C4FF6FF7000EA0727A1
:10514000BDF806002044001DC82190FBF1F201FBD0
:1051500012003949085C0743E01CC82190FBF1F2BA
:1051600001FB1200344900EB0108BDF80600C1B292
:10517000404600F02DF9ADF83200BDF83200B842DB
:105180004DD1E01CC82100E049E090FBF1F201FBA9
:1051900012002949085CADF80800BDF808004FF678
:1051A000FF7101EA0020ADF80800201DC82190FB26
:1051B000F1F201FB12002049085CBDF80810084319
:1051C000ADF8080000250EE0601D2844C82190FBC2
:1051D000F1F201FB12001849095C0DF10A0020F8F8
:1051E0001510681CC5B2BDF80600A842ECDC00260C
:1051F0000EE0124800EBC6008088BDF80810884217
:1052000004D10E4850F8361001A88847701CC6B269
:10521000082EEED3BDF806000B302044C4B2601C4B
:10522000C4B204480088401EA0423FF72BAF00BF25
:1052300023E70000920100201C1A002048180020DB
:105240002DE9F041A6B0002400270025A046002645
:1052500000BF09E04148005D202803D123A8C455C0
:10526000781CC7B2601CC4B23D4800888442F1DBA0
:10527000022F05D03BA0FEF7DFFD26B0BDE8F08190
:105280009DF88C00401CC4B213E03448005D1EA998
:1052900048551EA8405D302803DB1EA8405D392814
:1052A00003DD30A0FEF7C8FDE7E7681CC5B2601C4F
:1052B000C4B29DF88D00A042E7DC00201EA948552D
:1052C00000259DF88D00401CC4B213E02348005D0A
:1052D00019A9485519A8405D302803DB19A8405D7D
:1052E000392803DD1FA0FEF7A7FDC6E7681CC5B27D
:1052F000601CC4B21A480088801EA042E6DC002070
:1053000019A948551EA8FBF767F81FFA80F819A8D5
:10531000FBF762F886B2B8F1000F03DD15A0FEF7C7
:105320008BFDAAE7012E04D01EB11AA0FEF784FD62
:10533000A3E7012E03D1012000F0F4FC02E00020DD
:1053400000F0F0FC334642461AA16846FAF796FF91
:105350006846FEF771FD00BF8FE70000F0180020DF
:105360008E010020636F6D6D616E64206572726FD7
:10537000720D0A00696420707261206572726F722A
:10538000202C706C6561736520696E7075742030B7
:1053900000000000737720707261206572726F7276
:1053A000202C706C6561736520696E707574203097
:1053B0002F310000736574206C65642025642061C2
:1053C0007320256420737563636573730D0A000091
:1053D00070B502460C46FF25FF2309E012F8010BC9
:1053E00080EA05010648405C80EA03050548435C05
:1053F0002000A4F10106F4B2F0D145EA032070BD0B
:10540000787D0008787E0008FEF78EFDFEF786F9AD
:10541000FEF736FAFEF776FBFEF7A8FBFEF7C2F8BA
:1054200000F06EFC00F0A8FB00F008FB00F03EFA74
:10543000FDF7F6FAFDF734FEFDF772FDFDF796F97C
:1054400015E0FEF755FBFEF78DFBFEF769F8FEF75A
:10545000D5F900F0A7FB00F013FB00F039FAFDF7D7
:105460008FFAFDF7D5FDFDF7E5FAFDF769F9E8E7F5
:1054700070B504460D4655B104F11502094B33F8D9
:105480001210094B53F82200FCF7A5FB09E004F1C8
:105490001502044B33F81210034B53F82200FCF7AB
:1054A00098FB70BD940000202C00002010B5002453
:1054B00000BF05E00021204601F06EFE601CC4B272
:1054C000072CF7DB10BD00002DE9F047BEB0054604
:1054D0000026B0460024A246A146EE884FF6FF7093
:1054E00000EA062628890643B5F80A804FF6FF70C1
:1054F00000EA0828A88940EA0808052E02DD3EB027
:10550000BDE8F087042000EB4601A81D30F81170BB
:105510004FF6FF7000EA0727052000EB4601A81DA3
:1055200030F811000743FF2205213BA8FAF7F7FFE7
:10553000002476E00120A04000EA080000286AD09C
:105540000AF1010000F0FF0AB24500DD6BE009F14D
:105550000400142190FBF1F201FB1201A81D30F8A8
:1055600011003BA921F814003BA830F814004FF6B5
:10557000FF7101EA00203BA921F8140009F10500A0
:10558000142190FBF1F201FB1201A81D30F811006B
:105590003BA931F8141008433BA921F8140009F184
:1055A000020000F0FF093BA830F81400B0F57A7F44
:1055B00014DDFFF7A9F828B155A0FEF73DFC0A203D
:1055C000FEF7D4FC0120ADF824000220ADF826003F
:1055D000022209A9002000F021FC90E72046FEF7F6
:1055E00017FEE0B1FFF790F850B1224650A122A873
:1055F000FAF744FE22A8FEF71FFC0A20FEF7B6FCCD
:105600000120ADF82400ADF82600022209A90020EF
:1056100000F004FC73E7FF203BA921F81400601C94
:10562000C4B2052C86DB00BFF8B28DF80000002460
:105630003BE03BA830F81400FF280BD100210DF10E
:10564000010000F81410012000EB44020DF10100EC
:10565000815428E001210DF1010000F8141001EB44
:10566000440281543BA830F81410620003A820F8CB
:1056700012103BA830F81410012000EB440203A8DC
:1056800020F81210FFF740F868B13BA830F814304A
:1056900022462EA122A8FAF7F1FD22A8FEF7CCFBA4
:1056A0000A20FEF763FC601CC4B2052CC1DB0FB1FD
:1056B000012000E000208DF82000FFF725F880B1E0
:1056C0009DF82000012806D128A0FEF7B5FB0A208E
:1056D000FEF74CFC05E02AA0FEF7AEFB0A20FEF721
:1056E00045FC6846FDF74CFEFFF70EF828B12AA0EE
:1056F000FEF7A2FB0A20FEF739FC0020ADF82400DB
:10570000ADF82600022209A900F088FB00BFF6E6EA
:1057100074656D70206572726F72207072616D6554
:1057200074657220746F6F206C617267650D0A007A
:10573000626F78202564206E6F7420636C6F7365D0
:1057400064206572726F7221200D0A0073657420E7
:10575000256420726F616473206173202564202F9B
:105760003130206475200D0A000000006E6565640C
:10577000206368616E67652077617465720D0A0049
:105780006E6F206E656564206368616E6765207763
:10579000617465720D0A00006F7065726174652036
:1057A00073756363657373210D0A000010B50120E2
:1057B0000249087002A0FEF73FFB10BDE401002083
:1057C00074656D70206775692069732073746172E8
:1057D000742E2E2E0D0A000010B50120024908700B
:1057E00002A0FEF729FB10BDE501002074667420BD
:1057F000636F6D207472616E736D6974206F706574
:105800006E20737563636573730D0A0070B505468A
:1058100000240DB9002070BD1748007848B1164823
:105820000078032805D014480078052801D000F03E
:1058300005F9002411E00120A040284058B10120C2
:105840000E49085500200E4908800E4908800021A5
:10585000204601F0A1FC601CC4B2052CEBDB00214A
:10586000062001F099FC00210846FFF71BFB0420ED
:10587000014908700120CEE7CC180020CD18002087
:10588000D2180020D418002010B5FF20FFF7BEFF6B
:1058900001A0FEF7D1FA10BD6F75742077617465B1
:1058A0007220737563636573730D0A0010B500246D
:1058B00000BF08E000200549085500212046FEF7FA
:1058C00045FC601CC4B2052CF4DB10BDD6180020CA
:1058D00010B5002454484078C0F3800000B910BDD2
:1058E0005148407820F004004F4948704F480078F4
:1058F00038B14E480078032803D04C48007805287A
:1059000000D1ECE749480078062878D2DFE800F0BB
:1059100087032044537846480088401C4449088047
:1059200008460088C82812DD0121062001F034FC59
:1059300001210020FFF7B6FA0021052001F02CFC20
:1059400000210120FFF7AEFA02203849087067E015
:1059500038480088401C37490880084600883228AB
:1059600019DD0121052001F017FC01210846FFF790
:1059700099FA00240AE000202D4908802D4908806A
:105980000121204601F008FC601CC4B2052CF2DBAA
:1059900003202649087043E0002404E00020264943
:1059A0000855601CC4B2052CF8DB00202049088093
:1059B0002049088034E01E480088401C1C490880AB
:1059C00008460088C82819DD0121062001F0E4FB03
:1059D00001210020FFF766FA00240AE000201449A4
:1059E0000880144908800121204601F0D5FB601C85
:1059F000C4B2052CF2DB05200C49087010E00EE063
:105A0000002404E000200C490855601CC4B2052C99
:105A1000F8DB0020064908800649088000E000BF46
:105A200000BF00BF5BE7000086010020CC1800200B
:105A3000D2180020D4180020CD18002010B5002462
:105A400000BF04E000200A490855601CC4B2052CC0
:105A5000F8DB0020074908800749088007490870DB
:105A60000121FFF71FFA01210846FFF71BFA10BDBD
:105A7000CD180020D2180020D4180020CC18002007
:105A800070B500243848407800F0010000B970BDBE
:105A90003548407820F001003349487000245EE02A
:105AA0003248005D90B93248005D00284AD1062096
:105AB00094FBF0F100FB1140C5B22846FEF7C2FC92
:105AC000F0B32C4951F8240080473BE02748005DA3
:105AD000012812D12648005D012833D1062094FB0D
