:020000040800F2
:10000000B0370020450100084D0100084F010008ED
:1000100051010008530100085501000800000000CC
:100020000000000000000000000000005701000870
:1000300059010008000000005B0100085D01000894
:100040005F0100085F0100085F0100085F01000810
:100050005F0100085F0100085F0100085F01000800
:100060005F0100085F0100085F0100085F010008F0
:100070005F0100085F0100085F0100085F010008E0
:100080005F0100085F0100085F0100085F010008D0
:100090005F0100085F0100085F0100085F010008C0
:1000A0005F0100085F0100085F0100085F010008B0
:1000B0005F0100085F0100085F0100085F010008A0
:1000C0005F0100085F0100085F0100085F01000890
:1000D0005F010008AD170008AD18000855190008A9
:1000E0005F0100085F0100085F0100085F01000870
:1000F0005F0100085F0100085F0100085F01000860
:100100005F0100085F010008451400085F01000856
:100110005F0100085F0100085F0100085F0100083F
:100120005F0100085F0100085F0100085F0100082F
:10013000DFF80CD000F04EFC00480047895D000855
:10014000B03700200648804706480047FEE7FEE734
:10015000FEE7FEE7FEE7FEE7FEE7FEE7FEE7FEE777
:10016000E51300083101000840EA01039B0703D0B2
:1001700009E008C9121F08C0042AFAD203E011F8E6
:10018000013B00F8013B521EF9D27047D2B201E0A8
:1001900000F8012B491EFBD270470022F6E710B58C
:1001A00013460A4604461946FFF7F0FF204610BDE5
:1001B000421C10F8011B0029FBD1801A704710B5B2
:1001C000002200E0521C835C8C5CA34201D1002B16
:1001D000F8D1D8B2E1B2401A10BD70B5064601F0B0
:1001E000FFFC046805460A220021304600F0F6FABA
:1001F0002C6070BDF0B480EA0102D40F4200B2EB73
:10020000410F02D20246084611464A0042D0C30DB1
:10021000DDB2C1F3C752AD1A202D35DAC1F3160194
:1002200041F4000204B15242C5F1200602FA06F17F
:100230002A411044B3EBD05F23D0C4B1012DA0EB11
:10024000C35009DCF0BC4FF0004202EAC352DBB2FB
:1002500000F5000000F003BB400000F1807000EBEF
:10026000C350A0F1807040EAD170490009E049080C
:1002700041EAC071A0EBC35000F50000400800EB5C
:10028000C350F0BC00F0E2BA6142012202EB41012E
:10029000001BF6E7F0BC704781F00041AAE780F050
:1002A0000040A7E780EA010210B502F000434000D9
:1002B00022D04A001FD0010E01EB1261C0F356009C
:1002C000C2F3560240F4000042F40002A0FB0220F8
:1002D00000047F39140400D0401C50EA124001D4BD
:1002E0004000491EC2B20C0604EBD010401C40086E
:1002F000802A02D003E0002010BD20F00100002978
:1003000000DA0020184310BD2DE9FE4F804681EA37
:100310000300C00F0C46009021F0004123F000457F
:10032000B8EB0200A94105D24046214690461C4642
:100330000B46024623F00040104347D0270DC7F379
:100340000A00C3F30A510290401A019040286BDA68
:10035000C3F3130040F4801B0098924620B10023A1
:10036000D2EB030A63EB0B0B01985946C0F1400234
:10037000504600F002FA06460D4650465946019A8C
:1003800000F01AFA10EB08006141002487EA1152CC
:1003900084EAE7731A4340D0009A62B3019A012AB3
:1003A0004FEA075215DC001B61EB02014FF00042DF
:1003B00002EA0752CDE90042001C41F580113246A5
:1003C0002B4600F089FA03B0BDE8F08F4046214685
:1003D000F9E7001B61EB0201001C41F580130018D6
:1003E0005B412018A2F5001747EB030140EAD570E6
:1003F000B6196D4111E06D084FEA360645EAC07541
:100400004FEA0752001B61EB0201001C41F580110D
:1004100049084FEA30000019514132462B4603B0DB
:10042000BDE8F04F00F049BA0098012240000023D7
:10043000D0EB020263EBE073009821464FEAE074D0
:10044000B8EB000061EB0401E9E783F000435BE7F0
:1004500081F0004158E72DE9FE4F81EA030404F0E2
:10046000004421F0004100944FF0000B23F00043C2
:1004700050EA01045ED052EA03045BD0C3F30A548D
:10048000C1F30A552C44A4F2F3340194A0FB0254A6
:10049000C1F3130141F48011C3F3130343F4801338
:1004A00001FB024400FB034E840A970A44EA81548C
:1004B00047EA8357A4FB076802958D0A05FB078569
:1004C0004FEA932C04FB0C542705029D4FEA065873
:1004D00047EA1637B5EB08056EEB070C870E920E50
:1004E00047EA811742EA8312A7FB0201B6EB0B0130
:1004F00064EB00042B0D43EA0C335E1844EB1C50F4
:10050000DA465146E7FB0201C5F313044FEA0B3309
:1005100043EA14534FEA0432019C43EA0603A4F170
:100520000C040294009CCDE900B400F0D5F903B0AE
:10053000BDE8F08F00200146F9E72DE9F04D81EA92
:10054000030404F0004B21F0004514464FF0000A6C
:1005500023F0004150EA050220D054EA01021DD0E8
:10056000C5F30A570246C5F31303C1F31300C1F3E1
:100570000A5640F4801543F48013A7EB0608101BBD
:10058000D64608F2FD3873EB050002D308F10108E6
:1005900001E092185B41B8F1000F03DA0020014638
:1005A000BDE8F08D00204FF48011064684460EE031
:1005B000171B73EB050705D3121B63EB05030643FB
:1005C0004CEA010C49084FEA300092185B4150EAAE
:1005D0000107EDD152EA030012D082EA040083EA57
:1005E0000501084305D0101BAB4106D201220023B0
:1005F00006E000224FF0004302E06FF001025310CA
:100600001AEB06004CEB085110EB0A0041EB0B0112
:10061000BDE8F04D00F051B9C10F80EAE070084428
:10062000CA079623002100F01AB99623002211462A
:1006300000F015B920F00040C10DC0F3160040F4E1
:1006400000007F2901DA00207047962903DCC1F100
:100650009601C8407047963988407047C1F30A52E6
:1006600010B5C1F3130140F2FF3341F480119A42F7
:1006700001DA002010BD40F233439A42A2F2334225
:1006800003DC524200F088F810BD904010BD00F02D
:10069000004230F000400AD0C10D01F56071C0F396
:1006A000160042EA0151C20840071143704700207A
:1006B0000146704701F0004330B421F0004150EA98
:1006C000010206D00A0DA2F56072C1F31301002ADF
:1006D00002DC30BC00207047440F44EAC104C10072
:1006E000E01830BC00EBC25000F0B0B830B50B469B
:1006F000014600202022012409E021FA02F59D4252
:1007000005D303FA02F5491B04FA02F52844151E25
:10071000A2F10102F1DC30BD2DE9F05F05460020B9
:1007200092469B4688460646814640241BE0284662
:1007300041464746224600F02FF853465A46C01A13
:10074000914110D311461846224600F016F82D1A92
:1007500067EB01084F4622460120002100F00DF80A
:1007600017EB00094E41201EA4F10104DFDC4846CE
:1007700031462A464346BDE8F09F202A04DB203A52
:1007800000FA02F1002070479140C2F1200320FAE4
:1007900003F3194390407047202A04DB203A21FAE2
:1007A00002F00021704721FA02F3D040C2F120028A
:1007B0009140084319467047202A06DBCB17203AA0
:1007C00041FA02F043EAE07306E041FA02F3D04056
:1007D000C2F1200291400843194670472DE9F047C5
:1007E00091460F4680460446002614F8015B2DB161
:1007F00000F002F90068405DC007F6D12B2D02D051
:100800002D2D18D0641E4A463946204600F0F8F8CF
:1008100027B13968A14201D1C7F8008071054FF0B6
:1008200002040BD54042002803DD01F0D9F9046031
:10083000A007BDE8F08746F48066E4E70028F8DA10
:1008400001F0CEF904606FF00040F2E70029A8BF84
:100850007047401C490008BF20F00100704710B4E9
:10086000B0FA80FC00FA0CF050EA010404BF10BC9E
:10087000704749B1CCF1200421FA04F411FA0CF1CB
:1008800018BF012121430843A3EB0C01CB1D4FEA04
:1008900000614FEA102042BF002010BC704700EBFF
:1008A000C35010440029A4BF10BC7047401C49002D
:1008B00008BF20F0010010BC704710B5141E73F182
:1008C000000408DA401C41F1000192185B411A4310
:1008D00001D120F0010010BD2DE9F04D92469B465C
:1008E00011B1B1FA81F202E0B0FA80F22032904602
:1008F000FFF743FF04460F4640EA0A0041EA0B01B6
:1009000053465A46084313D0114653EA010019D002
:10091000C8F140025046FFF73FFF05460E465046DD
:1009200059464246FFF729FF084305D0012004E05D
:1009300020463946BDE8F08D0020054346EAE076C2
:100940002C4337430A986305E40AA0EB0800002211
:10095000FD0A44EA47540A3002D500200146E9E77F
:10096000010510196941DDE9084500196941BDE833
:10097000F04DA2E7C1F30A52C1F3130140F2FF3375
:1009800041F480119A4202DA00200146704740F299
:1009900033439A42A2F2334202DC5242FFF7FCBEDA
:1009A000FFF7EBBE30B5041E71F1000404DB4FF01D
:1009B0000044404264EB0101141E73F1000405DBA6
:1009C0001C464FF00043524263EB0403994208BFB8
:1009D000904230BD064C074D06E0E06840F0010350
:1009E00094E8070098471034AC42F6D3FFF7A4FB15
:1009F000DC950008FC95000800487047AC920008A0
:100A00002DE9F05F82460078002715468B460AF1F3
:100A10000104B946302801D09DB113E014F8010B50
:100A20000127782803D0582801D045B10AE00DB13C
:100A3000102D07D10027102514F8010B02E008251E
:100A400000E00A250026B0460EE005FB080005FB85
:100A500006F1012701EB10461FFA80F8B6F5803F3A
:100A600000D3B94614F8010B294600F018F8002805
:100A7000EBDABBF1000F05D00FB1641E00E0544665
:100A8000CBF80040B9F1000F06D001F0A9F802211F
:100A90000160C81EBDE8F09F48EA0640FAE73A2820
:100AA00000D2303820F02002412A01D3A2F13700D1
:100AB000884201D34FF0FF30704770B58C1810F8A2
:100AC000015B15F0070301D110F8013B2A1106D193
:100AD00010F8012B03E010F8016B01F8016B5B1EAD
:100AE000F9D12B0705D40023521E0DD401F8013B88
:100AF000FAE710F8013BCB1A921C03E013F8015BF4
:100B000001F8015B521EF9D5A142D8D3002070BD77
:100B100021B1826842F00102826003E0826822F023
:100B200001028260704721B1826842F48072826063
:100B300003E0826822F480728260704710B5044638
:100B40001248844208D10121401500F025FB002104
:100B5000601500F021FB17E00D48844208D1012107
:100B6000001500F019FB0021201500F015FB0BE02B
:100B70000848844208D10121C80300F00DFB002180
:100B80004FF4004000F008FB10BD000000240140BD
:100B900000280140003C0140014600208A6802F024
:100BA00004020AB1012000E0002070470146002045
:100BB0008A6802F008020AB1012000E000207047B4
:100BC00030B502460020002350680F4C20400D79BC
:100BD0000C6844EA05242043506090680B4C204088
:100BE000D1E902542C434D7944EA450420439060F6
:100BF000D06A20F470000C7C641EE4B2234340EA07
:100C00000350D06230BD0000FFFEF0FFFDF7F1FFA2
:100C1000F0B504460D4600200021092D11DDE068E5
:100C2000A5F10A0606EB4607072606FA07F18843F0
:100C3000A5F10A0606EB460603FA06F10843E06052
:100C40000CE0206905EB4507072606FA07F1884303
:100C500005EB450603FA06F108432061072A0FDA7F
:100C6000606B561E06EB86071F2606FA07F18843BF
:100C7000561E06EB860605FA06F10843606322E07D
:100C80000D2A0FDA206BD61F06EB86071F2606FA01
:100C900007F18843D61F06EB860605FA06F10843DE
:100CA000206310E0E06AA2F10D0606EB86071F261E
:100CB00006FA07F18843A2F10D0606EB860605FA4F
:100CC00006F10843E062F0BD816841F008018160EF
:100CD000704721B1826842F4A002826003E082681A
:100CE00022F4A00282607047816841F004018160B3
:100CF000704721B1026842F00102026004E002681C
:100D00004FF6FE731A4002607047000001684FF60C
:100D1000FE72114001600021016041608160C1608C
:100D20004B49884208D14A490839496841F00F01C6
:100D3000474A083A51608AE045491431884208D14F
:100D400043490839496841F0F001414A083A516085
:100D50007DE03F492831884208D13D49083949683A
:100D600041F470613A4A083A516070E038493C31C8
:100D7000884208D136490839496841F47041344AFB
:100D8000083A516063E032495031884208D1304915
:100D90000839496841F470212D4A083A516056E0FB
:100DA0002B496431884208D129490839496841F4FE
:100DB0007001274A083A516049E025497831884254
:100DC00008D123490839496841F07061204A083A3E
:100DD00051603CE01F49884206D1011F096841F07B
:100DE0000F01021F116032E01A491431884208D104
:100DF0001849091F096841F0F001164A121F1160D5
:100E000025E014492831884208D11249091F096890
:100E100041F470610F4A121F116018E00D493C3116
:100E2000884208D10B49091F096841F47041094AF9
:100E3000121F11600BE007495031884207D1054964
:100E4000091F096841F47021024A121F116070479E
:100E5000080002400804024010B50022026847F66C
:100E6000F0739A430C6A8B6823430C6923434C69E3
:100E700023438C692343CC6923434C6A23438C6A04
:100E800023431A430260CB6843600B6883604B685E
:100E9000C36010BD2DE9F041024600250026002068
:100EA00000230024002791F803C00CF00F0591F8EF
:100EB00003C00CF0100CBCF1000F03D091F802C07D
:100EC0004CEA050591F800C0BCF1000F31D0146860
:100ED00000202BE04FF0010C0CFA00F3B1F800C039
:100EE0000CEA03069E4220D183004FF00F0C0CFA4F
:100EF00003F7BC4305FA03FC4CEA040491F803C071
:100F0000BCF1280F06D14FF0010C0CFA00FCC2F81E
:100F100014C00AE091F803C0BCF1480F05D14FF0AE
:100F2000010C0CFA00FCC2F810C0401C0828D1D3F8
:100F30001460B1F800C0BCF1FF0F34DD546800202C
:100F40002EE000F1080C4FF0010808FA0CF3B1F89C
:100F500000C00CEA03069E4221D183004FF00F0C23
:100F60000CFA03F7BC4305FA03FC4CEA040491F8BD
:100F700003C0BCF1280F05D100F1080C08FA0CF8E9
:100F8000C2F8148091F803C0BCF1480F07D100F1FA
:100F9000080C4FF0010808FA0CF8C2F81080401C49
:100FA0000828CED35460BDE8F0810000F0B50A46B1
:100FB000002300240021002500F00046B6F1004F78
:100FC00002D11D4EF16901E01B4E7168C0F303456B
:100FD00083B200F44016B6F5401F08D121F07061CD
:100FE000154E766826F07066134F7E6012E000F4AE
:100FF0008016B6F5801F06D1032606FA05F4A14334
:1010000041F0706106E0460D360103FA06F6B14381
:1010100041F0706122B1460D360103FA06F6314304
:1010200000F00046B6F1004F02D1034EF16101E03D
:10103000014E7160F0BD000000000140024600203A
:1010400093680B400BB1012000E000207047416124
:1010500070470161704700004CF6CC4001490860C0
:1010600070470000003000404AF6AA20014908609D
:1010700070470000003000400149486070470000A0
:101080000030004001498860704700000030004097
:1010900001490860704700000030004070B5002131
:1010A00000230F22C47804B3154C246804F4E064D0
:1010B000C4F5E064210AC1F10403CA40447804FA8B
:1010C00003F184781440214309010E4C0678A155A0
:1010D000047804F01F050124AC4005786D11AD00C3
:1010E00005F1E025C5F8004109E0047804F01F058A
:1010F0000124AC40044D0678761145F8264070BDB9
:101100000CED00E000E400E080E100E00249014372
:10111000024A1160704700000000FA050CED00E083
:1011200001460020034A506820F4404008435060C4
:10113000704700000010024029B1064A526902437C
:10114000044B5A6104E0034A52698243014B5A61DD
:10115000704700000010024029B1064AD2690243DC
:10116000044BDA6104E0034AD2698243014BDA613D
:10117000704700000010024029B1064A92690243FC
:10118000044B9A6104E0034A92698243014B9A61DD
:10119000704700000010024029B1064AD26802439D
:1011A000044BDA6004E0034AD2688243014BDA6000
:1011B000704700000010024030B5002100220024DA
:1011C00000232D4D6D6805F00C0121B1042905D0D7
:1011D000082923D105E0294D056022E0274D05604F
:1011E0001FE0254D6D6805F47012234D6D6805F400
:1011F0008034022505EB92421CB9214D5543056010
:101200000BE01D4D6D6805F400351DB11C4D5543B7
:10121000056002E0194D5543056002E0174D056079
:1012200000BF00BF144D6D6805F0F0010909154DB0
:101230006B5C0568DD4045600F4D6D6805F4E0614D
:10124000090A104D6B5C4568DD4085600A4D6D688C
:1012500005F46051C90A0B4D6B5C4568DD40C56003
:10126000054D6D6805F44041890B074D6B5CC56801
:10127000B5FBF3F5056130BD0010024000127A00A5
:1012800000093D00180000202800002010B501468C
:101290000022002300204A11012A02D1094C2368B0
:1012A00006E0022A02D1074C236A01E0054C636A7A
:1012B00001F01F02012494401C400CB1012000E009
:1012C000002010BD00100240014908607047000076
:1012D0008004424210B500F001F810BD0CB50020AA
:1012E000019000903348006840F480303149086034
:1012F00000BF3048006800F4003000900198401CA6
:101300000190009818B90198B0F5A06FF1D1294863
:10131000006800F4003010B10120009001E00020CE
:1013200000900098012843D12348006840F0100045
:10133000214908600846006820F00300086008465C
:10134000006840F0020008601A4840681949486087
:101350000846406848600846406840F4806048603D
:101360000846406820F47C1048600846406840F415
:10137000E81048600846006840F08070086000BFD0
:101380000C48006800F000700028F9D00948406857
:1013900020F00300074948600846406840F002001A
:1013A000486000BF0348406800F00C000828F9D1ED
:1013B0000CBD00000010024000200240042808D1AB
:1013C0004FF0E021096941F004014FF0E022116182
:1013D00007E04FF0E021096921F004014FF0E0221D
:1013E0001161704710B51348006840F001001149C1
:1013F000086008464068104908400E4948600846A1
:1014000000680E4908400B4908600846006820F44F
:10141000802008600846406820F4FE0048604FF4D1
:101420001F008860FFF756FF4FF000600449086016
:1014300010BD0000001002400000FFF8FFFFF6FEA4
:1014400008ED00E010B50121074800F03BF850B16D
:101450000648007820F00100401C04490870012172
:10146000014800F011F810BD000C00408E01002072
:1014700021B1028842F08002028004E002884FF627
:101480007F731A4002807047CA430282704721B1BD
:10149000028842F00102028004E002884FF6FE73E7
:1014A0001A400280704731B1B0F8442042F4004243
:1014B000A0F8442005E0B0F84420C2F30E02A0F8E2
:1014C0004420704730B50246002000230024158ACE
:1014D00005EA0103958905EA010413B10CB1012065
:1014E00000E0002030BD1AB183890B43838102E004
:1014F00083898B438381704770B5002400220023C9
:10150000058C4FF6FE7635400584028C8388048B6B
:101510004FF68F752C40B51E2C400D882C43751E40
:101520002A400D892A434D882A43144DA8420BD0E6
:10153000134DA84208D0134DA84205D0124DA84221
:1015400002D0124DA84213D14FF6F7752A404D89AB
:101550002A434FF6FB752A408D882A434FF6FF65D4
:101560002B404FF6FF552B408D892B43CD892B43C4
:1015700083800483CD888586028470BD002C014061
:101580000034014000400140004401400048014057
:101590000A460021018B4FF6F7731940114301836E
:1015A0007047000070B5002400220023058C4FF620
:1015B000EF7635400584028C8388048B48F6FF75EE
:1015C0002C404FF6FF452C400D884FF6FF7606EA7B
:1015D00005252C434FF6DF752A400D8906EA0515CF
:1015E0002A434D8806EA05152A43154DA84202D024
:1015F000144DA8421DD14FF67F752A404D894FF6F4
:10160000FF7606EA05152A434FF6BF752A408D88F6
:1016100006EA05152A434FF6FF352B404FF2FF75BA
:101620002B408D8906EA85052B43CD8906EA850581
:101630002B4383800483CD880587028470BD00001E
:10164000002C0140003401400A460021018B4FF27A
:10165000FF7319404FF6FF7303EA02231943018316
:101660007047000070B5002200230024058C4EF660
:10167000FF7635400584038C8488828B48F6FF759D
:101680002A404FF6FF452A400D884FF6FF7606EABE
:1016900005252A434DF6FF752B400D8906EA0535D1
:1016A0002B434D8806EA05352B430B4DA84202D04B
:1016B0000A4DA84208D14BF6FF752C408D894FF694
:1016C000FF7606EA85152C4384808283CD88A0F8B6
:1016D0004050038470BD0000002C014000340140E4
:1016E0000A460021818B4FF2FF7319404FF6FF73BA
:1016F00003EA02231943818370478186704701877B
:101700007047A0F840107047002202881D4B984295
:101710000ED01D4B98420BD0B0F1804F08D01B4B20
:10172000984205D01A4B984202D01A4B984204D1E5
:101730004FF68F731A404B881A43174B984207D0C5
:10174000164B984204D04FF6FF431A40CB881A43F9
:1017500002808B8883850B8803850A4B98420BD0C7
:10176000094B984208D00E4B984205D00D4B984239
:1017700002D00D4B984201D10B7A0386012383825C
:1017800070470000002C014000340140000400407C
:1017900000080040000C0040001000400014004011
:1017A00000400140004401400048014010B540F2B3
:1017B0002551384800F03BF9002843D0354800F067
:1017C000F1F935490988C82291FBF2F302FB1311A4
:1017D000324A505430480088C82190FBF1F201FB96
:1017E00012002E49085C082822D12B4800880228C4
:1017F0001ADB29480088C82190FBF1F201FB120096
:10180000264900220A5424480088C82190FBF1F29E
:1018100001FB1200401E214900220A541E48008884
:10182000401E1D49088008E000201B49088004E094
:1018300019480088401C1849088040F22551154875
:1018400000F0DAF840F22771124800F0F0F800B327
:1018500013480088C82190FBF1F201FB12001149E6
:101860000C5C21460B4800F0A2F90D480088401C92
:101870000B4908800C480088401E0988884208DA15
:10188000002240F22771034800F0FBF800200449D1
:10189000088010BD00380140980100203826002043
:1018A000A00100202C2800209E01002010B540F24D
:1018B0002551224800F0BBF8A8B1204800F072F989
:1018C0001F490988642291FBF2F302FB13111D4AA0
:1018D00050541B480088401C1949088040F225518B
:1018E000164800F089F840F22771144800F09FF87C
:1018F00010B315480088642190FBF1F201FB12003F
:1019000012490C5C21460D4800F051F90E48008840
:10191000401C0D4908800E480088401E09888842F6
:101920000ADA002240F22771044800F0AAF80020E9
:101930000549088005F0AEFC10BD000000440040E1
:101940009A01002000270020A8010020F428002090
:10195000A601002010B540F22551214800F067F89B
:10196000A8B11F4800F01EF91E490988C82291FB42
:10197000F2F302FB13111C4A50541A480088401C11
:101980001849088040F22551154800F035F840F21A
:101990002771134800F04BF800B314480088C821A1
:1019A00090FBF1F201FB120011490C5C21460C483E
:1019B00000F0FDF80D480088401C0C4908800D48D7
:1019C0000088401E0988884208DA002240F2277108
:1019D000034800F056F800200449088010BD0000BC
:1019E000004800409C01002064270020B001002036
:1019F00058290020AE01002010B50022002340F637
:101A00006A14A14200D100BF0A1201249440A3B27B
:101A1000DC43048010BD21B1828942F400528281EE
:101A200004E082894DF6FF731A408281704770B5D9
:101A30000246002400230025002040F66A16B14229
:101A400000D100BFC1F3421501F01F03012606FAC1
:101A500003F3012D02D19689334006E0022D02D115
:101A6000168A334001E0968A33400C12012606FAAA
:101A700004F41688344013B10CB1012000E00020BA
:101A800070BDF0B50346002400260025002040F676
:101A90006A17B94200D100BF1846C1F3421401F0E1
:101AA0001F06012707FA06F5012C01D10C3004E0CE
:101AB000022C01D1103000E014301AB107682F4316
:101AC000076002E00768AF430760F0BD2DE9F0470B
:101AD00086B005460E460024A24600BFA146002758
:101AE000B08900B100BF2F462C8A4CF6FF7004402D
:101AF000F08804432C82AC894EF6F3100440B08881
:101B000031890843718908430443AC81AC8A4FF69C
:101B1000FF400440B0890443AC8201A8FFF74CFBAE
:101B20001F48874202D1DDF810A001E0DDF80CA0CB
:101B3000A88900F4004040B10AEBCA0000EB0A108B
:101B400031684900B0FBF1F807E00AEBCA0000EB8E
:101B50000A1031688900B0FBF1F86420B8FBF0F09E
:101B600004012009642101FB1089A88900F40040C8
:101B700040B1322000EBC900B0FBF1F000F00700EB
:101B8000044308E0322000EB09106421B0FBF1F0BF
:101B900000F00F0004432C8106B0BDE8F087000080
:101BA0000038014001468888C0F308007047C1F33F
:101BB00008028280704700000FB4084B10B504A9DA
:101BC00002AA039800F0D2F8044602A9002000F00F
:101BD00064FC204610BC5DF814FB00009B24000848
:101BE000004870472026002002E008C8121F08C1E4
:101BF000002AFAD170477047002001E001C1121F8E
:101C0000002AFBD1704700002DE9FF5FDDE90220CB
:101C1000010DDDF838B0024318D044F61050A1F29F
:101C2000FF3141430D140F98012820D0A5EB0B0084
:101C3000401C5FEA000A4FF00004474EDFF81C9199
:101C4000A046504616D5CAF1000728E00F98012497
:101C500043A2012808D0002100980F9BC0E9002171
:101C6000C0E90243BDE8FF9F6FEA0B01F4E7CBF147
:101C70000000DEE7074612E0F80707D022463346A9
:101C800040464946FEF7E7FB8046894622463346F2
:101C900010461946FEF7DFFB04460E467F10002F64
:101CA000EAD1DDE90201BAF1000F42464B4602DA01
:101CB000FEF7D1FB01E0FEF740FC04460E46002291
:101CC000284BFEF76FFE03D84FF0FF30014607E0C8
:101CD0000022254B20463146FEF716FBFEF74AFE52
:101CE000102409E0002C0ADB0A220023FEF714FD71
:101CF000019B30321A55641E50EA0102F2D1641C75
:101D0000019AC4F1110314440F9A012A03D001224D
:101D100008430DD10AE0084304D000204FF0110B16
:101D20000F9080E7A3EB0B056D1E0DE05B4504DD16
:101D30004FF0000205F1010504E003DA4FF0000264
:101D4000A5F10105002AECD000980F99C0E90231F5
:101D5000C0E9004586E70000000024400000F03F95
:101D6000300000000000F0430000E03F2DE9FF4F8D
:101D700095B09B468946064600250FE2252877D177
:101D800000242746F84A0121059400E0044316F890
:101D9000013F203B01FA03F01042F7D130782A28A6
:101DA00011D06FF02F033078A0F13002092A16D835
:101DB000059A44F0020402EB820203EB4202104453
:101DC000761C0590EFE759F8042B0592002A03DAF8
:101DD000504244F40054059044F00204761C3078DC
:101DE0002E2816D116F8010F44F004042A280DD02D
:101DF0006FF02F023078A0F13003092B09D807EBE0
:101E0000870302EB4303C718761CF3E759F8047BFA
:101E1000761C30786C280FD006DC4C2817D0682848
:101E20000DD06A2814D104E0742810D07A280FD17C
:101E30000DE044F400140AE044F4801401E044F49A
:101E400040147278824202D104F58014761C761C0C
:101E5000307866280BD013DC582877D009DC0028AE
:101E600075D04528F6D04628F4D047281AD19DE1F0
:101E700018E0632835D0642879D0652812D195E11F
:101E8000702873D008DC6728F1D069286FD06E28DD
:101E90000DD06F2806D1B5E073282CD0752875D0E9
:101EA000782874D05A46179990476D1C75E1C4F391
:101EB0000250022809D003280DD0D9F800100428B8
:101EC0000DD00D6009F1040967E1D9F80010EA1797
:101ED000C1E90052F6E7D9F800100D80F2E70D7065
:101EE000F0E719F8041B8DF8001000208DF80100B0
:101EF000EA46012003E059F804AB4FF0FF306107D8
:101F00004FF0000102D40DE008F101018846B9420A
:101F10000FDA8045F8DB1AF808100029F4D108E040
:101F200008F1010188468142FADB1AF808100029FD
:101F3000F6D105985B46A0EB080721463846179A6C
:101F400000F094FA284400EB080507E04DE029E191
:101F50000DE01AF8010B5A4617999047B8F101089D
:101F6000F7D25B4621463846179A13E142E00A222F
:101F70000092C4F302524FF0000A022A08D059F826
:101F800004CB032A4FEAEC710AD00DE029E02AE0E5
:101F900009F1070121F00702F2E802C1914609E0C8
:101FA0000FFA8CFC4FEAEC71042A03D14FFA8CFC37
:101FB0004FEAEC71002907DA0A460021DCF1000C37
:101FC00061EB02012D2202E0220504D52B228DF8BF
:101FD0000420012203E0E20701D02022F7E7904627
:101FE00059E00A2102E010220DE010214FF0000A12
:101FF00000910BE010224FF0000A44F0040408277F
:10200000009203E008224FF0000A0092C4F302524B
:10201000022A05D059F804CB0021032A08D009E090
:1020200009F1070121F00702F2E802C1914605E03B
:102030001FFA8CFC042A01D10CF0FF0C4FF00008B1
:10204000220728D5702806D0009B83F0100353EA9E
:102050000A0305D00EE040228DF80420012208E09A
:102060005CEA010206D030228DF804208DF80500CC
:1020700002229046009B83F0080353EA0A030AD128
:102080005CEA010201D1620705D530228DF80420F7
:102090004FF001087F1E582804D034A003900EA8EA
:1020A00002900DE036A0F9E753466046009AFEF72D
:1020B00033FB84460398825C0298401E02900270B3
:1020C0005CEA0100F0D1029806A9081A00F1200A82
:1020D000600702D524F4803400E00127574502DD73
:1020E000A7EB0A0000E0002000EB0A010090059831
:1020F0004144401A0590E00306D45B462146179AF6
:10210000059800F0B3F90544002706E001A85A46F7
:10211000C05D179990476D1C7F1C4745F6DBE003B7
:102120000CD55B462146179A059800F09FF90544A7
:1021300004E030205A46179990476D1C0099481EBC
:1021400000900029F5DC08E0029802995A460078D0
:10215000491C0291179990476D1CBAF10001AAF130
:10216000010AF1DC65E10000092801003031323359
:1021700034353637383961626364656600000000C3
:1021800030313233343536373839414243444546AD
:102190000000000000F058F90544761C3078002853
:1021A0007FF4ECAD19B02846BDE8F08F620700D48B
:1021B000062709F1070222F0070CFCE80223E1469A
:1021C00003F000485FEA080C02D00FF2702C0DE01B
:1021D0005FEA045C02D50FF2682C07E05FEAC47C7A
:1021E00002D00FF2602C01E0AFF2700C4FF0FF381C
:1021F00023F00043CDF850C065280CD006DC4528FC
:1022000009D046281DD047283DD13DE0662818D08A
:1022100067287ED138E00021112F01DB112000E07A
:10222000781CCDE9000106A90EA8FFF7EDFCDDE959
:102230000F010E9A03910021009207F1010A049107
:102240004DE04FF000400097CDE9011006A90EA81F
:10225000FFF7DAFCDDE90F0203920E9B11990022D1
:10226000DDF80CA00093049211B9791C00EB010A6F
:10227000B7EB0A0004D4C0F1FF3007F1010A049063
:10228000AAEB0700019044E0012F00DA01270021AA
:10229000112F01DD112000E03846CDE9000106A92B
:1022A0000EA8FFF7B1FCDDE90F010E9A03910021A2
:1022B00004910092BA4621070CD40399514500DAE3
:1022C0008A46BAF1010F05DD009AAAF10101515CBD
:1022D000302908D0B84202DA10F1040F06DA0121E1
:1022E000CDE9011015E0AAF10101E9E7002805DCBC
:1022F000049901440491AAEB000102E0411C5145FC
:1023000000DD8A460499401A401C01904FF00040BD
:102310000290200704D40198504501DBCDF80480D9
:1023200000208DF84F0002980DF14F07B0F1004FDB
:1023300025D02B200E9002984FF0020800280CDACE
:10234000404202902D200E9007E00A210298FEF7ED
:10235000CDF93031029007F8011DB8F10001A8F164
:102360000108F2DC02980028EFD1791E0E9808705F
:10237000307800F0200040F0450007F8020D12A868
:10238000C01B00F107081498007800B1012000EB91
:102390000A01019801EBE07105984144401A401E82
:1023A0000590E00306D45B462146179A059800F095
:1023B0005DF805441498007818B15A46179990476B
:1023C0006D1CE00324D55B462146179A059800F062
:1023D0004DF805441CE00498002807DBDDE9030103
:1023E000884203DD0098405C179901E0179930207E
:1023F0005A469047049805F10105401C0490019845
:10240000401E019004D12E205A46179990476D1C0A
:10241000BAF10001AAF1010ADDDC05E017F8010BB1
:102420005A46179990476D1CB8F10001A8F10108B0
:10243000F4DC5B462146179A0598ABE62D000000B8
:102440002B000000200000002DE9F041044600258B
:102450001E461746880404D405E039462020B047BC
:102460006D1C641EF9D52846BDE8F0812DE9F041C8
:10247000044600251E469046C80301D5302700E0DB
:102480002027880404D505E041463846B0476D1C36
:10249000641EF9D52846BDE8F0810A68531C0B601C
:1024A000107070472DE9F04104460D46A5B10A2091
:1024B00094FBF0F100FB1140124931F810600A2042
:1024C00094FBF0F100FB11400F4951F820703146A8
:1024D0003846FEF7BEFD13E00A2094FBF0F100FB46
:1024E0001140084931F810600A2094FBF0F100FB1C
:1024F0001140054951F8207031463846FEF7A7FDD6
:10250000BDE8F081780100205001002010B50A4894
:102510004078C0F3800000B910BD0748407820F033
:1025200004000549487000F011F800F099F900F036
:102530002DFA00BFF0E700008E01002010B500F07A
:102540005DF800F0C3F900F02BFA10BD10B50024BF
:102550002348007838BB00F0D7FA00B300BF04E08E
:10256000002020490855601CC4B2052CF8DB01206E
:102570001B4908701C49002004F086FE1B490120FD
:1025800004F082FE1A49022004F07EFE194903205D
:1025900004F07AFE1849042004F076FE1FE00020C3
:1025A0000F4908701BE0002417E00E48005D012869
:1025B00006D1204602F0F0F910B903200949085568
:1025C0000848005D022806D1204602F0E5F910B95E
:1025D000002004490855601CC4B2052CE5DB10BD81
:1025E0006B250020662500206958000873580008F4
:1025F0007D580008875800089158000810B500243D
:1026000000BF0CE0611DC8B202F0B2F928B14FF46E
:102610002F720121204605F063FB601CC4B2052C1B
:10262000F0DB00F071FA00B3002404E0002011494F
:102630000855601CC4B2052CF8DB01200E49087057
:102640000E49002004F020FE0D49012004F01CFE7C
:102650000C49022004F018FE0B49032004F014FE7C
:102660000A49042004F010FE02E00020024908702C
:1026700010BD0000662500206B2500206958000869
:10268000735800087D5800088758000891580008C2
:1026900070B58EB005460E460024022E0FD1287864
:1026A0000D280CD168780A2809D11FA001F0ACFAD6
:1026B000002022490870224908700EB070BD002425
:1026C0000BE0285D0D2802D0285D202800D106E00F
:1026D000285D01A90855601CC4B2B442F1DB00BFFB
:1026E000002001A90855002416E004EB840000EB4B
:1026F000C400144A02EBC000011D01A8FDF75FFDF4
:1027000040B904EB840101EBC4010E4A52F83100D8
:102710008047D2E7601CC4B2572CE6D30AA001F070
:1027200073FA00BFC9E70000636F6D6567656E658A
:1027300020636F6D6D616E643A000000F00100204F
:10274000F3010020F4010020696E7661696C642059
:10275000636F6D6D616E640D0A0000002DE9F0413C
:10276000B4B01C48407800F0010010B934B0BDE8A6
:10277000F0811848407820F001001649487001F0B7
:1027800001FA30B1144801881448FFF781FF00F0C6
:10279000CDF913480078D8B112494888FDF745FFB4
:1027A0008046FDF774FF04460D460E490888FDF784
:1027B0003CFF8046FDF76BFF064632460B460AA1FA
:1027C00002A8CDE90045FFF7F7F902A801F01CFACD
:1027D00000BFCBE78E0100209801002038260020A2
:1027E000F00100200432002074656D70312C2566E4
:1027F0003B74656D70322C25663B0A0000B5B5B0A0
:1028000000200C4908700C4908700C4908700C49EC
:1028100008700CA00EA100220323CDE90021029034
:1028200001220E4903A8FFF7C7F903A801F0ECF94C
:1028300035B000BDF0010020F1010020F2010020C0
:10284000F301002031363A31323A333500000000CE
:102850004E6F76203236203230313900B092000887
:1028600010B5002400BF28E01548005D70B9154878
:10287000005D03281FD1611DC8B202F079F8D0B9FC
:102880000120114908550E49085514E00D48005D16
:10289000032810D1611DC8B202F06AF858B10A4885
:1028A000005D012807D1204602F0AAFF002006495A
:1028B000085503490855601CC4B2052CD4DB10BD73
:1028C00071250020662500206C250020002000BF17
:1028D00006E00021044A1154044A1154411CC8B2B4
:1028E0000528F6DB704700006C25002071250020CC
:1028F00010B50E480078C0F3801000B910BD0B4829
:10290000007820F040000949087002F0ADFA00B9E3
:10291000F4E702F08BFA012802D100F069FA01E035
:1029200001F07EF905F0C8FF00BFE7E78E01002047
:1029300000B5002300BF0FE04FF0FF300D4921F834
:10294000130000200C4921F813000C4921F8130052
:102950000B49C854581CC3B20A2BEDDB002005F00C
:1029600033FB0020074908700749087005F0F8FF9D
:1029700000BD0000223200204A3200205E320020DA
:1029800018320020522500205325002010B504F0F5
:10299000B5FA04F0F1F904F06BFA05F0F3FB10BDA1
:1029A00010B50020044908800449088002F0EAFEBE
:1029B00004F058FA10BD000076250020782500208C
:1029C00000B599B064221D496846FDF7CDFB1C484F
:1029D0004078C0F3001008B919B000BD184840781D
:1029E00020F010001649487002F058FF18B302F0AA
:1029F0002FFAE0B1134800885A2818DA0DF10902BD
:102A000010480188104802F0A7FD10A001F0FCF862
:102A1000012001F079FB684601F0F6F80A2001F088
:102A200073FB0AA001F0F0F8012001F06DFB02F049
:102A3000D9FF00F089F800BFCEE70000FC90000845
:102A40008E0100209C010020642700200D0A000058
:102A50007047000010B5024801F0D6F810BD000024
:102A6000D093000870B5054600240DB9002070BD54
:102A70001748007848B116480078032805D0144854
:102A80000078052801D003F015FF002411E0012093
:102A9000A040284058B101200E49085500200E4999
:102AA00008800E4908800021204606F01BF9601CB2
:102AB000C4B2052CEBDB0021062006F013F900213F
:102AC000084602F041FE01200149087000BFCEE730
:102AD000102600201126002016260020182600208F
:102AE00010B5FF20FFF7BEFF01A001F08DF810BD6B
:102AF0006368616E676520776174657220737563C2
:102B0000636573730D0A000010B5002400BF08E070
:102B1000204601F041FF042801D1002010BD601CB7
:102B2000C4B2052CF4DB0120F8E7000010B504481E
:102B300001880448FDF731FB00200149088010BDE1
:102B4000980100203826002010B505480188054866
:102B5000FDF723FB0020024908800349088010BDCF
:102B60009C01002064270020AC010020052190FB7F
:102B7000F1F201FB1201104A00235354052190FB8E
:102B8000F1F201FB12010D4A5354052190FBF1F2C1
:102B900001FB12010A4A5354052190FBF1F201FB9B
:102BA0001201084A5354052190FBF1F201FB120176
:102BB000054A012353547047C8250020D225002020
:102BC000DC250020D7250020E625002010B505488B
:102BD00001880548FDF7E1FA002002490880034911
:102BE000088010BD9A01002000270020A4010020C9
:102BF00010B500200249087002A001F005F810BDD0
:102C0000F2010020626F782073706565642064654E
:102C100062756720636C6F7365207375636365739A
:102C2000730D0A0070B50446052094FBF0F100FB1B
:102C30001140C5B20021284605F06CF9052094FB2F
:102C4000F0F100FB1140024900220A5470BD00005F
:102C5000E1250020F0B5AFB004460026002500278E
:102C6000E5884FF6FF7000EA05252089054366894F
:102C70004FF6FF7000EA0626A0890643042D15DDF5
:102C800002F0E6F828B134A000F0BEFF0A2001F0FF
:102C90003BFA0120ADF858000220ADF85A0002229C
:102CA00016A9002004F044F92FB0F0BD01208DF8E2
:102CB0001400E8B28DF815000EB1012000E00020EC
:102CC0008DF8180002F0C4F850B12A4626A109A8D0
:102CD000FEF772FF09A800F097FF0A2001F014FA2E
:102CE0009DF8150003F0E8F99DF8150005F08EFD3C
:102CF00001F0F6FF012815D101A801F059FEDDE928
:102D00000101CDE903019DF80D009DF815108842E1
:102D100008D101208DF82100DDE9070105F038F820
:102D200004F0ECF802F094F850B11FB116A000F0D6
:102D30006BFF02E019A000F067FF0A2001F0E4F940
:102D40000020ADF85800ADF85A00022216A9012063
:102D500004F0EEF800BFA7E7696420707261206597
:102D600072726F720D0A0000636C6F736520746578
:102D70006D7020636F6E74726F6C202025642073F9
:102D800075636365737321006F706572617465208C
:102D900073756363657373210D0A00006F7065724C
:102DA000617465206661696C642071756575652064
:102DB00066756C6C210D0A0010B500200249087080
:102DC00002A000F021FF10BDF10100207466742004
:102DD000636F6D207472616E736D697420636C6FC4
:102DE000736520737563636573730D0A00000000DB
:102DF0002DE9F04FCDB000204B904A90499082468B
:102E0000489083460026814600250024B14800886A
:102E10000A2190FBF1F201FB120085B2AD48408817
:102E200090FBF1F201FB120084B2AB4830F81500C0
:102E300000B2AA4921F81500A74830F8140000B2E2
:102E400021F81400A64830F8150031F81510401A82
:102E500000B2A44921F81500A14830F814009F4998
:102E600031F81410401A00B29E4921F814009E480F
:102E7000007858B9994830F915009C49098888426A
:102E800004DD01209A490870974908709948007834
:102E900058B9924830F9140094490988884204DDF1
:102EA000012095490870934908709148007888B1CD
:102EB00092480088401C914908809148008800EBA6
:102EC00080000988B1EB400F04DD00208B490880A9
:102ED000874908708848007888B18A480088401C73
:102EE000884908808648008800EB80000988B1EB9B
:102EF000400F04DD0020834908807F490870754831
:102F000000880A2190FBF1F201FB1200754931F9AA
:102F1000100000283DDD31F91500FDF77DFB074667
:102F20007949FDF7BFF949906E4931F91500FDF770
:102F300073FB8046754931F91500FDF76DFB41467D
:102F40001590FDF7A9F907467149FDF7ABF98246DF
:102F500051464998FDF74EF94B90624830F81500FC
:102F60006A4921F815004B98FDF764FB86B2B6F567
:102F70007A7F01DD4FF47A765D48007820B1E8B2BF
:102F8000002105F00BF809E0E8B2314605F006F83B
:102F900004E00026E8B2314605F000F8514830F967
:102FA000140000283FDD4F4931F91400FDF734FBD0
:102FB00007465549FDF776F948904A4931F914001A
:102FC000FDF72AFB8046514931F91400FDF724FB37
:102FD00041461590FDF760F907464D49FDF762F946
:102FE000834659464898FDF705F94A903D4830F820
:102FF0001400464921F814004A98FDF71BFB1FFAFC
:1030000080F9B9F57A7F01DD4FF47A793A48007892
:1030100020B1E0B2002104F0C1FF0AE0E0B249466D
:1030200004F0BCFF05E04FF00009E0B2494604F0AF
:10303000B5FF2C4830F91500002807DA294830F987
:103040001400002802DA01203249087001F0C6FCA1
:10305000E0B35846FDF71BFB074688464898FDF746
:1030600016FBCDE914015046FDF711FBCDE9120125
:103070004998FDF70CFBCDE91001194830F914000F
:10308000164931F91410CDE90B890A97CDE90D10D5
:10309000DDE91401CDE90801114830F915000F49A7
:1030A00031F91510CDE90461CDE90604DDE912011D
:1030B000CDE90201DDE910012A46CDE900011649FA
:1030C00016A8FEF779FD16A800F09EFD4DB0BDE8EC
:1030D000F08F00004E250020043200203632002000
:1030E000223200204A32002058250020542500209A
:1030F0005E250020592500205F2500205A2500204C
:10310000562500205C250020000040405E32002053
:103110000000A0C0522500207895000810B502A03C
:1031200000F072FD10BD0000436F7079726967682E
:10313000742028632920323030312D32303139204B
:10314000436F6D6567656E65204C4C432E0D0A41DB
:103150006C6C20526967687473205265736572766F
:1031600065642E0D0A000000044800880A2800DA71
:10317000704700200149088000BFF9E79601002050
:10318000164800880A2800DA704700201349088092
:103190001348007820F020002030114908700846BC
:1031A000007820F04000403008700846407820F059
:1031B0000100401C48700846407820F00400001DC3
:1031C00048700846407820F00800083048700548EC
:1031D0000088401C0349088000BFD5E79401002007
:1031E0008E010020960100201248007800F00100B6
:1031F00000B970470F48007820F001000D490870B1
:103200000846007820F00400001D08700A48008875
:10321000401C09490880084600880A2808DD00206B
:1032200008800448007820F00200801C01490870E2
:1032300000BFDEE78E0100209001002016480088C4
:103240000A2800DA704700201349088013480078E4
:1032500020F008000830114908700846007820F076
:103260001000103008700846407820F00200801CE2
:1032700048700846407820F010001030487008462A
:10328000407820F020002030487005480088401C1D
:103290000349088000BFD5E7920100208E0100207D
:1032A000940100200C480078C0F3400000B970473A
:1032B0000948007820F002000749087008460078A5
:1032C00020F080008030087004480088401C0349CA
:1032D000088000BFEBE700008E0100209201002073
:1032E0002DE9F047002419480078C0F3401008B9D0
:1032F000BDE8F0871548007820F0200013490870D9
:1033000000241FE040F6C411204601F0A7F8104940
:1033100021F8140031F81400FDF787F982460D49B1
:10332000FCF7BAFF8146FDF7B2F907460A4A0B4B94
:10333000FDF703F90546FDF791F9094921F8140055
:10334000601CC4B20A2CDDDB00BFD1E78E01002077
:10335000F03100200000F043B81E85EB51B8FE3F6D
:103360000432002010B592B0002401214802FDF77C
:1033700003FF4FF40040FDF7D3FE00BF0FE05248BB
:1033800030F81400ADF8300000208DF833004F49BC
:1033900051F824000CA9FDF77DFD601CC4B20A2C75
:1033A000EDDB4B48FDF7CAFB00200D9001208DF8A6
:1033B00038008DF839004FF460200F9000201090F5
:1033C0000A208DF844000DA94148FDF7F9FB0723B9
:1033D000012204213E48FDF71BFC072302220521A0
:1033E0003B48FDF715FC0723032206213848FDF76B
:1033F0000FFC0723042219463548FDF709FC072373
:10340000052208213248FDF703FC07230622092183
:103410002F48FDF7FDFB07231A460A212C48FDF72C
:10342000F7FB072308220B212948FDF7F1FB0723AF
:1034300009220C212648FDF7EBFB07230A220D2168
:103440002348FDF7E5FB01212148FDF76CFB012135
:103450001F48FDF75DFB1E48FDF736FC00BF1C480A
:10346000FDF7A4FB0028FAD11948FDF73DFC00BF89
:103470001748FDF791FB0028FAD101210846FDF716
:103480005BFE1448FDF742FC11484C300190124895
:103490000290002003904FF47A7004900020059071
:1034A000802006904000079080000890202009901E
:1034B00000020A9000200B9001A90648FDF7CCFC01
:1034C00004F082FE12B010BDDC010020B401002027
:1034D0000024014008000240202A002038B50024C2
:1034E00001214FF4FE70FDF747FE00BF1AE031489E
:1034F00030F81400ADF8000010208DF80300032010
:103500008DF802002C4951F824006946FDF7C2FCF1
:10351000284A32F81410284A52F82400FDF797FD83
:10352000601CC4B21B2CE2DB002420E0234830F8EE
:103530001400ADF800000E2C05DD142C03DA282051
:103540008DF8030008E0052C03DA04208DF8030051
:1035500002E048208DF8030003208DF8020018498E
:1035600051F824006946FDF795FC601CC4B2152C87
:10357000DCDB002409E00121204605F0CDFA012121
:10358000204600F04DFF601CC4B2052CF3DB002484
:1035900005E00121204605F0A5FB601CC4B2072C04
:1035A000F7DB0121002002F0CFF80121084602F0EC
:1035B000CBF838BD980000202C000020240100200A
:1035C000D000002070B5002400251F480078C0F30B
:1035D000800000B970BD1C48007820F004001A4932
:1035E000087000241FE0194830F81400A8B1681CC6
:1035F000C5B2022D00DD18E0204601F089FA144919
:103600000988884204DD01212046FEF74BFF08E0CF
:1036100000212046FEF746FF03E000212046FEF78A
:1036200041FF601CC4B20A2CDDDB00BF08480088E3
:10363000401C0749088008460088B0F57A7F01DD04
:103640000020088000BFC5E78E010020242600204E
:103650008C01002010B588B0002401210220FDF764
:103660007BFD01210920FDF787FD01218E48FDF733
:103670009DFC0220ADF81C0018208DF81F000320CF
:103680008DF81E0007A98948FDF704FC42F2273097
:10369000ADF814000020ADF81000ADF81600ADF83C
:1036A000120004A98248FEF72FF87020ADF8000040
:1036B0000120ADF802000220ADF8080069467C4800
:1036C000FDF770FF08217A48FDF7BEFF0121784819
:1036D000FDF7DDFE01210846FDF73EFD0121042036
:1036E000FDF74AFD2020ADF81C0018208DF81F00C2
:1036F00003208DF81E0007A96E48FDF7CBFB42F2B0
:103700002730ADF814000020ADF81000ADF8160019
:10371000ADF8120004A94FF08040FDF7F5FF7020CE
:10372000ADF800000120ADF802000220ADF808005D
:1037300069464007FDF736FF0821C806FDF784FFFC
:1037400001218807FDF7A3FE01210420FDF704FDF8
:1037500001210820FDF710FD4020ADF81C001820C5
:103760008DF81F0003208DF81E0007A95148FDF7B2
:1037700091FB8020ADF81C0018208DF81F0003205D
:103780008DF81E0007A94B48FDF784FB4FF400702D
:10379000ADF81C0018208DF81F0003208DF81E00C6
:1037A00007A94448FDF776FB42F22730ADF8140034
:1037B0000020ADF81000ADF81600ADF8120004A915
:1037C0003D48FDF7A1FF6020ADF800000120ADF8F5
:1037D00002000020ADF80600ADF808006946364842
:1037E000FDF78AFE6020ADF800000120ADF8020070
:1037F0000020ADF80600ADF8080069462E48FDF738
:10380000D1FE6020ADF800000120ADF802000020DC
:10381000ADF806000220ADF8080069462648FDF71D
:1038200021FF01212448FDF73EFE08212248FDF733
:10383000AFFE08212048FDF707FF08211E48FDF7CD
:103840004FFF01211C48FDF713FE01211A48FDF727
:103850001EFE00BF05E00021084604F05BFB601C73
:10386000C4B2052CF7DB00241AE0144830F8140029
:10387000ADF81C0010208DF81F0003208DF81E00ED
:103880000F4951F8240007A9FDF704FB0B4A32F851
:1038900014100B4A52F82400FDF7D9FB601CC4B287
:1038A0000A2CE2DB08B010BD00081A000008014035
:1038B00000040040000C0140000800407801002096
:1038C0005001002010B5FFF78FFCFFF7EBFCFFF76E
:1038D000B5FCFFF755FCFFF747FC10BD1FB50121F4
:1038E0000820FDF739FC40F2CF20ADF80800092090
:1038F000ADF804000020ADF80A00ADF8060001A9FB
:103900000D48FDF701FF012211460B48FDF7EBFDC5
:1039100032208DF8000000208DF8010003208DF882
:10392000020001208DF803006846FDF7B7FB012176
:103930000148FDF7ACFD1FBD000C004010B503F0C1
:103940000BFA10BD00B587B001218803FDF714FC08
:103950004FF40070ADF8180003208DF81A001820FD
:103960008DF81B0006A97348FDF794FA4FF48060A8
:10397000ADF8180004208DF81B0006A96D48FDF76E
:1039800089FA25208DF8040003208DF80500022017
:103990008DF8060001208DF8070001A8FDF77EFBD9
:1039A0004FF4E13002900020ADF80C00ADF80E00AD
:1039B000ADF81000ADF814000C20ADF8120002A90B
:1039C0005D48FEF783F8012240F225515A48FEF780
:1039D00058F8002240F227715748FEF752F80121AB
:1039E0005548FEF718F801210420FDF7C5FB012119
:1039F0004804FDF7B1FB0820ADF8180004208DF84D
:103A00001B0006A94B48FDF745FA0420ADF8180045
:103A100003208DF81A0018208DF81B0006A94548D0
:103A2000FDF738FA26208DF8040003208DF80500F4
:103A300002208DF8060001208DF8070001A8FDF78F
:103A40002DFB4FF4E13002900020ADF80C00ADF8F2
:103A50000E00ADF81000ADF814000C20ADF8120007
:103A600002A93648FEF732F8012240F225513348C8
:103A7000FEF707F8002240F227713048FEF701F800
:103A800001212E48FDF7C7FF01210820FDF774FB37
:103A900001218804FDF760FB4FF40060ADF81800C9
:103AA00004208DF81B0006A92548FDF7F3F94FF413
:103AB0008060ADF8180003208DF81A0018208DF8EA
:103AC0001B0006A91E48FDF7E5F94FF4E13002900E
:103AD0000020ADF80C00ADF80E00ADF81000ADF808
:103AE00014000C20ADF8120002A91648FDF7EEFFF5
:103AF000012240F225511348FDF7C3FF012111486F
:103B0000FDF789FF4FF4A060FDF700FB27208DF83B
:103B1000040003208DF8050002208DF80600012026
:103B20008DF8070001A8FDF7B9FA002003F0B2FBF9
:103B300007B000BD000801400038014000440040CB
:103B4000000C01400048004010B5FDF78DFA10BD93
:103B500010B50120FDF7B8FB00BF6120FDF796FB13
:103B60000028FAD045F25550FDF792FA4020FDF7B3
:103B700083FA40F2E240FDF785FAFDF775FAFDF7AA
:103B80006BFA10BD0A48008808B900207047084841
:103B90000088801E0749085C0D2807D1044800886A
:103BA000401E085C0A2801D10120EFE70020EDE764
:103BB000980100203826002010B5FFF7C5FF0A2025
:103BC00000F0A2FA10BD000070B505460C46C82CE6
:103BD00000DD70BD224629460748FCF7C5FA0748B4
:103BE0000480002006490880012240F22771054820
:103BF000FDF747FF00BFECE72C2800209E010020C6
:103C0000A00100200038014070B504462046FCF7B2
:103C1000CFFA85B229462046FFF7D6FF70BD0000D7
:103C20002DE9F04FD1B00024A046E6A000684F90E7
:103C30000025A146A24600204E904D900026002768
:103C40004C9083464B904A9000BF17E0DE4830F816
:103C5000140000B2DD4921F81400204600F0B8FE3F
:103C600050B1DB4830F81400D84931F81410401A2C
:103C700000B2D84921F81400601CC4B20A2CE5DB5C
:103C8000002413E0204600F0A3FE68B108F1010013
:103C900000F0FF08284605EBD0714910A5EB410163
:103CA0004FAA5454681CC5B2601CC4B20A2CE9DB8C
:103CB000B8F1020F2FDD4FF0000900240CE0C548D9
:103CC00030F91400484505DDC24830F814001FFAE9
:103CD00080F9A246601CC4B20A2CF0DB8DF83CA12E
:103CE0004FF00009002412E09DF83C01A04200D1F1
:103CF0000BE0B84830F91400484505DDB54830F808
:103D000014001FFA80F9A24600BF601CC4B20A2C3E
:103D1000EADB8DF83DA19DF83C010A2190FBF1F30F
:103D200001FB1300C2B2104600F052FE002869D019
:103D30009DF83C010A2190FBF1F201FB1200A5491C
:103D400031F91000002857DD9DF83C010A2190FB55
:103D5000F1F201FB12009F4931F910001690FCF7B7
:103D60005BFC9D491790FCF79DFA4C909DF83C1127
:103D7000984A32F91100FCF74FFC16909DF83C016F
:103D80000A2190FBF1F201FB1200944931F9100075
:103D90001490FCF741FC15901699FCF77DFA9049B8
:103DA0001790FCF77FFA834659464C98FCF722FAA5
:103DB0004E909DF83C010A2190FBF1F201FB1200AC
:103DC000844931F810009DF83C110A2291FBF2F36E
:103DD00002FB1311814A22F811004E98FCF72AFCCD
:103DE00086B2B6F57A7F01DD4FF47A769DF83C0114
:103DF000314604F0D3F805E000269DF83C01314639
:103E000004F0CCF89DF83D010A2190FBF1F301FB91
:103E10001300C2B2104600F0DBFD002869D09DF807
:103E20003D010A2190FBF1F201FB1200694931F9D1
:103E30001000002857DD9DF83D010A2190FBF1F2AA
:103E400001FB1200634931F910001690FCF7E4FB06
:103E500061491790FCF726FA4B909DF83D115D4A99
:103E600032F91100FCF7D8FB16909DF83D010A21AC
:103E700090FBF1F201FB1200584931F91000149047
:103E8000FCF7CAFB15901699FCF706FA54491790EF
:103E9000FCF708FA4A904A994B98FCF7ABF94D9019
:103EA0009DF83D010A2190FBF1F201FB1200494906
:103EB00031F810009DF83D110A2291FBF2F302FB4C
:103EC0001311464A22F811004D98FCF7B3FB87B254
:103ED000B7F57A7F01DD4FF47A779DF83D013946D9
:103EE00004F05CF805E000279DF83D01394604F038
:103EF00055F800240EE0204600F06AFD40B1354838
:103F000030F914000A2803DB01203649087007E065
:103F1000601CC4B20A2CEEDB00203249087000BFDE
:103F200000F05CFDE8B34A98FCF7B1FBCDE916015F
:103F30004B98FCF7ACFBCDE914015846FCF7A7FB06
:103F4000CDE912014C98FCF7A2FBCDE910019DF8D8
:103F50003D011F4931F910009DF83D111B4A32F90E
:103F60001110CDE90C710E90DDE91601CDE90A01C1
:103F7000DDE91401CDE908019DF83D019DF83C11F2
:103F8000134A32F911109DF83C21104B33F91220DD
:103F9000CDE90462CDE90610DDE91201CDE90201A7
:103FA00000E00CE0DDE91001CDE900019DF83C21C5
:103FB0000D4918A8FDF700FE18A8FFF725FE51B01F
:103FC000BDE8F08FFFFF00000432002036320020F1
:103FD000223200204A320020000040405E320020A1
:103FE0000000A0C0532500201495000810B502A0C1
:103FF000FFF70AFE10BD00006B6579203020657662
:10400000656E742068617070656E64210D0A000031
:1040100010B502A0FFF7F8FD10BD00006B65792018
:1040200031206576656E742068617070656E6421FC
:104030000D0A000010B502A0FFF7E6FD10BD00005C
:104040006B65792032206576656E742068617070CA
:10405000656E64210D0A000010B502A0FFF7D4FDC3
:1040600010BD00006B65792033206576656E742085
:1040700068617070656E64210D0A000010B502A0C1
:10408000FFF7C2FD10BD00006B6579203420657616
:10409000656E742068617070656E64210D0A0000A1
:1040A00010B502A0FFF7B0FD10BD00006B657920D0
:1040B00035206576656E742068617070656E642168
:1040C0000D0A000010B56FF00400FDF777F90A48FB
:1040D00000680A49B0FBF1F0094908700846007809
:1040E00000EB4001C1EBC0104FF6FF7101EAC000C8
:1040F0000449088010BD00000000002000127A0072
:1041000014000020160000200146114A12884A437C
:104110004FF0E0235A6100229A611A46126942F078
:1041200001021A6100BF4FF0E022106900F00102A5
:104130001AB100F48032002AF5D04FF0E022126963
:1041400022F001024FF0E0231A6100229A617047C9
:104150001600002010B5044601F030FB08B1002025
:1041600010BD1648008800EB4000154911F81000FA
:1041700020701248008800EB400001EB40004078BE
:1041800060700E48008800EB400001EB4000408862
:1041900060800A48008800EB400001EB4000007995
:1041A000207106480088401C332190FBF1F201FB8E
:1041B0001200024908800120D2E700007625002085
:1041C0007C32002013B501F007FB08B100201CBDB4
:1041D00001F0F4FA18B39DF800002949098801EBB1
:1041E0004101284A02F811009DF80100244909887C
:1041F00001EB410102EB41014870BDF8020020498A
:10420000098801EB410102EB410148809DF804005F
:104210001B49098801EB410102EB410108719DF83E
:1042200000001949098801EB4101164A02F8110002
:104230009DF801001449098801EB410102EB41019D
:104240004870BDF802001049098801EB410102EBFA
:10425000410148809DF804000B49098801EB4101A8
:1042600002EB4101087108480088401C332190FB93
:10427000F1F201FB1200044908800120A7E70000C9
:10428000762500207C320020782500202DE9F041A1
:10429000A6B0002400270025A046002600BF09E0A4
:1042A0004148005D202803D123A8C455781CC7B21B
:1042B000601CC4B23D4800888442F1DB022F05D067
:1042C0003BA0FFF7A1FC26B0BDE8F0819DF88C0073
:1042D000401CC4B213E03448005D1EA948551EA816
:1042E000405D302803DB1EA8405D392803DD30A087
:1042F000FFF78AFCE7E7681CC5B2601CC4B29DF8F2
:104300008D00A042E7DC00201EA9485500259DF83D
:104310008D00401CC4B213E02348005D19A9485524
:1043200019A8405D302803DB19A8405D392803DD5A
:104330001FA0FFF769FCC6E7681CC5B2601CC4B2C9
:104340001A480088801EA042E6DC002019A94855C2
:104350001EA8FBF742FF1FFA80F819A8FBF73DFFE4
:1043600086B2B8F1040F03DD15A0FFF74DFCAAE7F4
:10437000012E04D01EB11AA0FFF746FCA3E70EB130
:10438000012200E00022114608F0FF0003F09EFA2F
:10439000334642461AA16846FDF70EFC6846FFF711
:1043A00033FC00BF8FE70000382600209801002072
:1043B000636F6D6D616E64206572726F720D0A00BD
:1043C000696420707261206572726F72202C706C4B
:1043D0006561736520696E70757420302D3400003E
:1043E000737720707261206572726F72202C706C0E
:1043F0006561736520696E70757420302F3100001F
:104400007365742066616E20636F6E202564206181
:104410007320256420737563636573730D0A000050
:1044200070B504460D4655B104F10E02094B33F840
:104430001210094B53F82200FCF70BFE09E004F1BF
:104440000E02044B33F81210034B53F82200FCF712
:10445000FEFD70BD980000202C0000202DE9F04FDB
:1044600087B082468B460024A1460020069000BFFC
:1044700009E004EB8400184901EB800030F81A00D1
:104480008144601C84B2642CF3DB6420B9FBF0F936
:104490005846FCF7CAF80746FCF7F9F805460E46F9
:1044A0004846FCF7C2F80190FCF7F1F807460022F5
:1044B0000A4BFCF742F82A463346CDE90201FBF7E6
:1044C000CAFFCDE90401FCF7C9F880B2069006984E
:1044D00007B0BDE8F08F0000202A00200000B040A7
:1044E0000148007870470000F201002001460520D5
:1044F00091FBF0F200FB1210014A105C70470000C3
:104500006625002010B50020FFF7F0FF044634B107
:10451000012C08D0022C0AD0032C10D10BE009A0EA
:10452000FFF772FB0BE00DA0FFF76EFB07E014A096
:10453000FFF76AFB03E01BA0FFF766FB00BF00BFAD
:1045400010BD00006E6F775F737461747573203AED
:10455000626F785F6F66660D0A0000006E6F775FAE
:10456000737461747573203A626F785F72756E6EE2
:10457000696E675F666F72776172640D0A00000092
:104580006E6F775F737461747573203A626F785FD2
:1045900072756E6E696E675F6261636B776172647C
:1045A0000D0A00006E6F775F737461747573203A43
:1045B000626F785F6F6E0D0A00000000014800789E
:1045C000704700005225002030B599B00024002526
:1045D00000BF13E040F6C4112046FFF73FFF054639
:1045E0002B46224607A16846FDF7E6FA6846FFF724
:1045F0000BFB0A20FFF788FD601CC4B20A2CE9DB24
:1046000019B030BD3E3E3E206164632025642076B3
:104610006F6C74616765206973202564206D562076
:104620000D0A000001480078704700005325002063
:104630000146052091FBF0F200FB1210014A105CCC
:10464000704700001B26002010B500F007FC06286C
:104650001CD2DFE800F003070B0F13170DA0FFF7C4
:10466000D3FA14E014A0FFF7CFFA10E01CA0FFF774
:10467000CBFA0CE024A0FFF7C7FA08E02BA0FFF765
:10468000C3FA04E031A0FFF7BFFA00E000BF00BFAB
:1046900010BD00004E6F7720737461747573203AFB
:1046A000206E6F5F696E6A656374696F6E5F7461B7
:1046B000736B0D0A000000004E6F772073746174F5
:1046C0007573203A206368616E67655F7761746512
:1046D000725F6F75745F7374617475730D0A000097
:1046E0004E6F7720737461747573203A206368612C
:1046F0006E67655F77617465725F696E5F73746121
:104700007475730D0A0000004E6F77207374617426
:104710007573203A206368616E67655F77617465C1
:10472000725F646F6E650D0A000000004E6F7720A7
:10473000737461747573203A206F75745F77617458
:1047400065725F7374617475730D0A004E6F772024
:10475000737461747573203A206F75745F77617438
:1047600065725F646F6E650D0A00000030B599B028
:104770000024002500BF17E0204600F039F8054668
:104780002DB122460AA16846FDF716FA04E022463A
:104790000FA16846FDF710FA6846FFF735FA0A20C0
:1047A000FFF7B2FC601CC4B2062CE5DB19B030BDCB
:1047B0003E3E3E206B657920256420766F6C7461E7
:1047C00067652069732074727565200D0A0000000A
:1047D0003E3E3E206B657920256420766F6C7461C7
:1047E00067652069732066616C736520200D0A007F
:1047F00010B5044604F10F02064B33F81210064BB5
:1048000053F82200FCF71AFC08B1012010BD00206B
:10481000FCE7000024010020D000002001480078BF
:10482000704700001A26002030B599B000240025FA
:1048300000BF17E0204600F03DF805462DB12246A6
:104840000AA16846FDF7B8F904E0224610A16846BF
:10485000FDF7B2F96846FFF7D7F90A20FFF754FCD5
:10486000601CC4B20A2CE5DB19B030BD3E3E3E20D0
:104870006C697175696420256420766F6C7461675A
:10488000652069732074727565200D0A00000000B0
:104890003E3E3E206C697175696420256420766F08
:1048A0006C746167652069732066616C7365200DA7
:1048B0000A00000010B50446064A32F81410064AF1
:1048C00052F82400FCF7BAFB08B1012010BD00200B
:1048D000FCE7000024010020D000002030B599B092
:1048E0000024002500BF17E0204600F041F80546EF
:1048F0002DB122460AA16846FDF75EF904E0224682
:1049000011A16846FDF758F96846FFF77DF90A20BE
:10491000FFF7FAFB601CC4B20A2CE5DB19B030BD0E
:104920003E3E3E206D6F746F72206C696D6974201D
:10493000256420766F6C74616765206973207472DA
:104940007565200D0A0000003E3E3E206D6F746FBD
:1049500072206C696D697420256420766F6C7461B7
:1049600067652069732066616C7365200D0A00001D
:1049700010B50446621D064B33F81210054B53F870
:104980002200FCF75BFB08B1012010BD0020FCE712
:1049900024010020D00000200146052091FBF0F208
:1049A00000FB1210014A105C70470000E125002056
:1049B0000CB506490A6800928988ADF80410009980
:1049C0000160BDF8041081800CBD00007A25002034
:1049D00001460148405C70471832002001480078C9
:1049E00070470000F301002030B599B0002400BFEB
:1049F00020E02046FFF7ECFF50B12046FFF7E8FF2C
:104A000005462B4622460DA16846FDF7D5F809E07C
:104A10002046FFF7DDFF05462B46224613A16846D8
:104A2000FDF7CAF86846FFF7EFF80A20FFF76CFBBE
:104A3000601CC4B20A2CDCDB19B030BD3E3E3E2007
:104A400070696420636F6E74726F6C6C6572202580
:104A500064206973206F6E207461726765742074BE
:104A6000656D70202564200D0A0000003E3E3E204A
:104A700070696420636F6E74726F6C6C6572202550
:104A800064206973206F66662074617267657420A4
:104A900074656D702025640D0A0000001CB50C4A79
:104AA00012880A44332392FBF3F403FB142202EB33
:104AB0004202084B03EB4202136800939288ADF860
:104AC0000420009A0260BDF8042082801CBD000012
:104AD000762500207C32002010B5FFF79FFE18B924
:104AE00003A0FFF791F802E005A0FFF78DF810BDD5
:104AF0006C63645F706F7765725F6F66660D0A0046
:104B00006C63645F706F7765725F6F6E0D0A000093
:104B100001460A2091FBF0F200FB1210014A32F824
:104B200010007047242600200348008803490988A4
:104B3000401A80B2704700007825002076250020BA
:104B400010B58EB0002400BF34E022461BA101A89E
:104B5000FDF732F801A8FFF757F802F099F8204660
:104B600000F06AF9052822D2DFE800F003090F15EA
:104B70001B0018A0FFF748F802F08AF817E01AA007
:104B8000FFF742F802F084F811E020A0FFF73CF8AC
:104B900002F07EF80BE023A0FFF736F802F078F879
:104BA00005E027A0FFF730F802F072F800BF00BF61
:104BB000601CC4B2052CC8DB0EB010BD3E3E3E20CA
:104BC000256420726F616420737461747573203A78
:104BD0000000000054454D505F434F4E544F524C1F
:104BE0005F53544F500D0A0054454D505F434F4E94
:104BF00054524F4C5F55505F444F574E5F5155498B
:104C0000434B5F5354415455530D0A0054454D5086
:104C10005F434F4E54524F4C5F434F4E5354414E9F
:104C2000540D0A0054454D505F434F4E54524F4C63
:104C30005F414C4C5F52454144590D0A0000000051
:104C400054454D505F434F4E54524F4C5F53504567
:104C50004349414C5F574149540D0A0010B5014684
:104C600000200A2291FBF2F302FB13120B4B33F8E4
:104C70001220024490B2012202EB41020A2392FB6D
:104C8000F3F403FB1422054B33F81220024490B2D4
:104C9000024600EBD273581010BD00000432002011
:104CA00030B5014600200A2291FBF2F302FB1312F9
:104CB0000A4B33F81220012303EB41030A2493FB30
:104CC000F4F504FB1533054C34F813301A4410B2D4
:104CD000024600EBD273581030BD00002232002093
:104CE00001480078704700008525002030B587B066
:104CF00000250024FFF718FF054601A8FFF758FE1E
:104D0000DDE90101CDE905013DB9FFF7E9FF20B972
:104D10000FA0FEF779FF07B030BD05AA01210020E2
:104D200001F006FF00240EE0214601A8FFF7B6FEC1
:104D3000DDE90101CDE9030103AA0021204601F0CC
:104D4000F7FE601CC4B2AC42EEDB00BFE3E700003C
:104D50006E6F207461736B2072756E6E696E670D75
:104D60000A00000030B599B000240025FFF726FCAA
:104D70000446FFF757FC05462B46224604A1684629
:104D8000FCF71AFF6846FEF73FFF19B030BD000080
:104D9000636F6E63656E747261746520666C6167C3
:104DA000203A2025640D0A646563656E7472616C37
:104DB000697A6520666C6167203A202564000000EE
:104DC00030B599B00024002500BF10E00A4830F843
:104DD00014502B46224609A16846FCF7EDFE6846B2
:104DE000FEF712FF0A20FFF78FF9601CC4B20A2CED
:104DF000ECDB19B030BD0000043200203E3E3E2006
:104E000074656D702020256420697320256420203E
:104E10002F20302E31206465677265652063656ED2
:104E200074696772616465200D0A000001480078AA
:104E3000704700004C2500200146052091FBF0F250
:104E400000FB1210014A105C704700008025002012
:104E50000148007870470000F10100200148007807
:104E60007047000010260020002100BF06E0054822
:104E7000405C012800D17047481CC1B20A29F6DB0A
:104E80000020F8E71832002010B549A0FEF7BCFE5C
:104E9000FEF792FE4EA0FEF7B7FEFEF78DFE51A084
:104EA000FEF7B2FEFEF788FE5DA0FEF7ADFEFEF750
:104EB00083FE6AA0FEF7A8FEFEF77EFE74A0FEF752
:104EC000A3FEFEF779FE7FA0FEF79EFEFEF774FEBE
:104ED00083A0FEF799FEFEF76FFE8CA0FEF794FE0E
:104EE000FEF76AFE8FA0FEF78FFEFEF765FE92A02A
:104EF000FEF78AFEFEF760FE99A0FEF785FEFEF73C
:104F00005BFEA1A0FEF780FEFEF756FEA4A0FEF712
:104F10007BFEFEF751FEB2A0FEF776FEFEF74CFEDA
:104F2000BFA0FEF771FEFEF747FEC3A0FEF76CFEC2
:104F3000FEF742FEC6A0FEF767FEFEF73DFECBA0E1
:104F4000FEF762FEFEF738FECCA0FEF75DFEFEF730
:104F500033FECFA0FEF758FEFEF72EFEDCA0FEF7D4
:104F600053FEFEF729FEE9A0FEF74EFEFEF724FEF3
:104F7000EA48FEF749FEFEF71FFEE9A0FEF744FEF1
:104F8000FEF71AFEF4A0FEF73FFEFEF715FEF8A0AE
:104F9000FEF73AFEFEF710FEFBA0FEF735FEFEF729
:104FA0000BFEFDA0FEF730FEFEF706FEFEA007E2B8
:104FB0000D0A0D0A0D0A2068656C7020636D64206F
:104FC0006C697374203E3E3E3E3E3E3E0D0A00003C
:104FD000203120206765745F6373705F61646320B4
:104FE0000D0A0000203220207365745F7761726DB6
:104FF0005F70776D2069642070657263656E7420E0
:105000004E6F7465206964203A20302D3920706518
:105010007263656E7420302D313030300D0A00001F
:10502000203320207365745F6D6F746F725F7077CB
:105030006D2069642070657263656E74204E6F74B4
:1050400065206964203A20302D34207065726365D4
:105050006E7420302D313030300D0A002034202085
:1050600077617465725F636F6F6C5F70756D705F91
:10507000636F6E206964207377204E6F74652069BA
:10508000643A20302D3420737720302F310D0A0000
:105090002035202077617465725F636F6F6C5F7677
:1050A00061766C655F636F6E206964207377204E54
:1050B0006F746520696420302D3620737720302F7F
:1050C000310D0A00203620206765745F6C697175A8
:1050D00069645F666565646261636B200D0A000048
:1050E0002037202068756D69646974795F636F6E1D
:1050F000206964207377204E6F74652069643A30AC
:105100002D3120737720302F310D0A0020382020D8
:105110006765745F6D6F746F725F6C696D69742021
:105120000D0A0000203920206765745F6B65795F88
:10513000696E0D0A000000002031302066616E5F4C
:10514000636F6E206964207377204E6F74652069E9
:105150006420302D3420737720302F310D0A000069
:10516000203131206C65645F636F6E206964207349
:1051700077204E6F7465206964203020737720306B
:105180002F310D0A00000000203132206F70656E53
:105190005F616C6C5F7661766C65200D0A000000C3
:1051A000203133207365745F6D6F746F7220696492
:1051B00020646972207370656564204E6F74652089
:1051C000696420302D342064697220302F312073BF
:1051D0007065656420302D313030300D0A000000DC
:1051E000203134207365745F6163635F6D6F746F2A
:1051F00072206964206469722074204E6F74652087
:10520000696420302D342064697220302F3120747D
:1052100020323030302D36353533350D0A00000060
:10522000203135206368616E67655F7761746572F0
:105230005F616C6C200D0A00203136206F75745F41
:1052400077617465725F616C6C200D0A000000006C
:10525000203137206765745F68756D69646974799A
:105260005F737461747573200D0A0000203138205B
:105270006765745F74656D70200D0A0020313920F8
:105280006765745F7069645F7377200D0A000000C2
:105290002032302073746172745F706964206964B5
:1052A0002074616765745F74656D70204E6F7465FE
:1052B00020696420302D39207461726765745F74D1
:1052C000656D70203235202D203130300D0A000000
:1052D000203231206F70656E5F74656D705F677529
:1052E0006920206F70656E5F74656D705F677569AA
:1052F000204E6F746520707265737320456E7465FF
:105300007220746F2053746F700D0A0020323220A7
:1053100076657273696F6E0D0A000000D094000804
:1053200020323420636C6F73655F7466745F636FE3
:105330006D5F646562756720204E6F746520636CD5
:105340006F73652074667420636F6D207472616E74
:10535000736D69740D0A0000203235207265616436
:105360005F626F785F7374617475730D0A0000007B
:1053700020323620726561645F66616E5F737461AE
:105380007475730D0A00000020323720706F776546
:10539000725F6F6E0D0A000020323820706F7765E3
:1053A000725F6F66660D0A00203239206765745F90
:1053B000706F7765725F7374617475730D0A0000A6
:1053C000FEF722FCFEF7F8FB20A0FEF71DFCFEF71F
:1053D000F3FB22A0FEF718FCFEF7EEFB23A0FEF77E
:1053E00013FCFEF7E9FB25A0FEF70EFCFEF7E4FB3D
:1053F00029A0FEF709FCFEF7DFFB2EA0FEF704FC58
:10540000FEF7DAFB32A0FEF7FFFBFEF7D5FB3648CE
:10541000FEF7FAFBFEF7D0FB3448FEF7F5FBFEF78C
:10542000CBFB33A0FEF7F0FBFEF7C6FB38A0FEF780
:10543000EBFBFEF7C1FB3CA0FEF7E6FBFEF7BCFB77
:105440003FA0FEF7E1FBFEF7B7FB10BD2033302095
:105450007774645F746573740D0A00002033312023
:10546000636F707972696768740D0A0020333220A7
:10547000617574686F720D0A0000000020333320DC
:105480006F70656E5F626F785F73706565645F648F
:10549000656275670D0A000020333420636C6F73FA
:1054A000655F626F785F73706565645F6465627580
:1054B000670D0A00203335206765745F626F785F7F
:1054C0007374617475735F66756E630D0A00000016
:1054D0002033362073746172745F7069645F746521
:1054E00073740D0A000000004093000888930008C0
:1054F000203339206765745F7461736B5F6D61631E
:1055000068696E655F7374617475730D0A000000DD
:10551000203430206765745F726F61645F737461FB
:105520007475730D0A000000203431206F70656EB1
:105530005F7069645F64656275670D0A0000000052
:10554000203432206765745F7461736B5F737973A5
:105550005F626F6F6C0D0A00F0B504460D460020C7
:105560001FE0265C3109265C06F00F03092904DDE3
:1055700001F1370602F8106003E001F1300602F88D
:105580001060092B06DD03F13706F7B24600761CE2
:10559000975505E003F13006F7B24600761C9755A3
:1055A000401CA842DDD3002602F81060F0BD0000C8
:1055B0002DE9F041A6B0002400270025A0460026D2
:1055C00000BF09E04148005D202803D123A8C4554D
:1055D000781CC7B2601CC4B23D4800888442F1DB2D
:1055E000022F05D03BA0FEF70FFB26B0BDE8F081EF
:1055F0009DF88C00401CC4B213E03448005D1EA925
:1056000048551EA8405D302803DB1EA8405D3928A0
:1056100003DD30A0FEF7F8FAE7E7681CC5B2601CAE
:10562000C4B29DF88D00A042E7DC00201EA94855B9
:1056300000259DF88D00401CC4B213E02348005D96
:1056400019A9485519A8405D302803DB19A8405D09
:10565000392803DD1FA0FEF7D7FAC6E7681CC5B2DC
:10566000601CC4B21A480088801EA042E6DC0020FC
:1056700019A948551EA8FAF7B0FD1FFA80F819A815
:10568000FAF7ABFD86B2B8F1010F03DD15A0FEF706
:10569000BBFAAAE7012E04D01EB11AA0FEF7B4FA95
:1056A000A3E70EB1012200E00022114608F0FF003E
:1056B00000F04AF8334642461AA16846FCF77CFAE5
:1056C0006846FEF7A1FA00BF8FE7000038260020E9
:1056D00098010020636F6D6D616E64206572726F5A
:1056E000720D0A00696420707261206572726F72B7
:1056F000202C706C6561736520696E707574203044
:105700002D310000737720707261206572726F72A4
:10571000202C706C6561736520696E707574203023
:105720002F3100007365742068756D696469747940
:1057300020636F6E202564206173202564207375BB
:1057400063636573730D0A0070B504460D4655B169
:1057500004F10C02094B33F81210094B53F82200E4
:10576000FBF777FC09E004F10C02044B33F812104C
:10577000034B53F82200FBF76AFC70BD9800002031
:105780002C000020002000BF04E00021084A115432
:10579000411CC8B20528F8DB064900220A608A804D
:1057A0000121044A51710021034A11707047000021
:1057B000802500207A2500208525002004480088C7
:1057C00004490988884201D1012070470020FCE784
:1057D000782500207625002007480088401C3321CA
:1057E00090FBF1F201FB120004490988884201D1C3
:1057F000012070470020FCE7782500207625002056
:1058000010B504461748005D052827D2DFE800F0F0
:1058100003171E0D250041F288320021204602F0B8
:10582000E1FC01200F49085519E041F288320121BD
:10583000204602F0D7FC02200A4908550FE0204616
:1058400002F04CFD02200749085508E0204602F00E
:1058500045FD01200349085501E000E000BF00BFFD
:1058600010BD00006625002010B50020FFF7C8FF1E
:1058700010BD10B50120FFF7C3FF10BD10B5022009
:10588000FFF7BEFF10BD10B50320FFF7B9FF10BD35
:1058900010B50420FFF7B4FF10BD000017480088C2
:1058A00008B90020704716480078C0F3001008B906
:1058B0000020F7E71248007820F010001049087027
:1058C0000E4800880F490988884208D000200E49F8
:1058D00008800A4800880B4908800020E2E70A484F
:1058E0000088401C0849088008460088142803DD09
:1058F000002008800120D5E70020D3E79C0100208C
:105900008E010020AA010020AC01002010B5044641
:105910002CB14FF400410548FBF79BFB04E04FF42A
:1059200000410248FBF793FB10BD0000002001403E
:1059300010B5044614B100F011F801E000F002F8CF
:1059400010BD000010B50020FFF7E0FF0020024965
:10595000087001F0B9F810BD1A26002010B501201A
:10596000FFF7D4FF01200249087001F0ADF810BD27
:105970001A26002030B599B005460C466422144919
:105980006846FAF7F1FBC82C01DD19B030BD22469C
:1059900029461048FAF7E8FB0F48048000200F4919
:1059A0000880012240F227710D48FCF76AF8FFF7E2
:1059B0004FFA50B15A2C08DA0DF109022146284657
:1059C000FFF7CAFD6846FEF71FF900BFDDE70000DC
:1059D000988E000858290020AE010020B001002058
:1059E000004800402DE9F0418EB00024002500263B
:1059F0000027704800880A2802DA0EB0BDE8F0815E
:105A00000024CEE06C48005DEE287DD18DF80400C6
:105A10006949601C085CADF80600BDF806004FF649
:105A2000FF7101EA0020ADF80600BDF80600624AE9
:105A3000A11C515C0843ADF80600BDF806002044E7
:105A4000401DC82190FBF1F201FB12005A49085C8D
:105A5000FF28DAD1BDF806002044801DC82190FB44
:105A6000F1F201FB12005449085CFD28CDD1BDF8CC
:105A700006002044C01DC82190FBF1F201FB12007A
:105A80004D49085CFE283FD1BDF80600204408308F
:105A9000C82190FBF1F201FB12004749085CFF2886
:105AA0007DD1BDF806002044C01CC82190FBF1F256
:105AB00001FB120040490F5C4FF6FF7000EA072718
:105AC000BDF806002044001DC82190FBF1F201FB47
:105AD00012003949085C0743E01CC82190FBF1F231
