:020000040800F2
:1000000018400020450100084D0100084F0100087C
:1000100051010008530100085501000800000000CC
:100020000000000000000000000000005701000870
:1000300059010008000000005B0100085D01000894
:100040005F0100085F0100085F0100085F01000810
:100050005F0100085F0100085F0100085F01000800
:100060005F0100085F0100085F0100085F010008F0
:100070005F0100085F0100085F0100085F010008E0
:100080005F0100085F0100085F0100085F010008D0
:100090005F0100085F0100085F010008450F0008CC
:1000A0005F0100085F0100085F0100085F010008B0
:1000B0005F0100085F0100085F0100085F010008A0
:1000C0005F0100085F0100085F0100085F01000890
:1000D0005F010008191A0008251B0008CD1B000845
:1000E0005F0100085F0100085F0100085F01000870
:1000F0005F0100085F0100085F0100085F01000860
:100100005F0100085F010008B11600085F010008E8
:100110005F0100085F0100085F0100085F0100083F
:100120005F0100085F0100085F0100085F0100082F
:10013000DFF80CD000F0A6FC004800470170000872
:10014000184000200648804706480047FEE7FEE7C3
:10015000FEE7FEE7FEE7FEE7FEE7FEE7FEE7FEE777
:10016000511600083101000840EA01039B0703D043
:1001700009E008C9121F08C0042AFAD203E011F8E6
:10018000013B00F8013B521EF9D27047D2B201E0A8
:1001900000F8012B491EFBD270470022F6E710B58C
:1001A00013460A4604461946FFF7F0FF204610BDE5
:1001B000421C10F8011B0029FBD1801A704710B5B2
:1001C000002200E0521C835C8C5CA34201D1002B16
:1001D000F8D1D8B2E1B2401A10BD70B5064601F0B0
:1001E0003BFE046805460A220021304600F04DFB24
:1001F0002C6070BDF0B480EA0102D40F4200B2EB73
:10020000410F02D20246084611464A0042D0C30DB1
:10021000DDB2C1F3C752AD1A202D35DAC1F3160194
:1002200041F4000204B15242C5F1200602FA06F17F
:100230002A411044B3EBD05F23D0C4B1012DA0EB11
:10024000C35009DCF0BC4FF0004202EAC352DBB2FB
:1002500000F5000000F05ABB400000F1807000EB98
:10026000C350A0F1807040EAD170490009E049080C
:1002700041EAC071A0EBC35000F50000400800EB5C
:10028000C350F0BC00F039BB6142012202EB4101D6
:10029000001BF6E7F0BC704781F00041AAE780F050
:1002A0000040A7E780EA010210B502F000434000D9
:1002B00022D04A001FD0010E01EB1261C0F356009C
:1002C000C2F3560240F4000042F40002A0FB0220F8
:1002D00000047F39140400D0401C50EA124001D4BD
:1002E0004000491EC2B20C0604EBD010401C40086E
:1002F000802A02D003E0002010BD20F00100002978
:1003000000DA0020184310BD30B480EA010202F088
:10031000004530F0004221F0004013D090B1C30DF1
:10032000D40DC2F31601C0F31600E41A41F4000123
:1003300040F400027D34914201D3641C00E0490086
:10034000002C02DA30BC002070474FF4000000237C
:10035000914201D3891A034340084FEA4101F7D182
:1003600051B1914202D14FF0004105E002D24FF06D
:10037000010101E06FF0010103EBC450284430BCDF
:1003800000F0BBBA2DE9FE4F804681EA0300C00FA2
:100390000C46009021F0004123F00045B8EB02002C
:1003A000A94105D24046214690461C460B460246CE
:1003B00023F00040104347D0270DC7F30A00C3F3D2
:1003C0000A510290401A019040286BDAC3F31300DF
:1003D00040F4801B0098924620B10023D2EB030A20
:1003E00063EB0B0B01985946C0F14002504600F0F8
:1003F0001BFA06460D4650465946019A00F033FA5C
:1004000010EB08006141002487EA115284EAE77387
:100410001A4340D0009A62B3019A012A4FEA075268
:1004200015DC001B61EB02014FF0004202EA0752AB
:10043000CDE90042001C41F5801132462B4600F008
:10044000A2FA03B0BDE8F08F40462146F9E7001B51
:1004500061EB0201001C41F5801300185B4120187C
:10046000A2F5001747EB030140EAD570B6196D41BC
:1004700011E06D084FEA360645EAC0754FEA0752AB
:10048000001B61EB0201001C41F5801149084FEA95
:1004900030000019514132462B4603B0BDE8F04F01
:1004A00000F062BA0098012240000023D0EB020263
:1004B00063EBE073009821464FEAE074B8EB00006C
:1004C00061EB0401E9E783F000435BE781F0004161
:1004D00058E72DE9FE4F81EA030404F0004421F0BF
:1004E000004100944FF0000B23F0004350EA010458
:1004F0005ED052EA03045BD0C3F30A54C1F30A5539
:100500002C44A4F2F3340194A0FB0254C1F3130170
:1005100041F48011C3F3130343F4801301FB02443D
:1005200000FB034E840A970A44EA815447EA835742
:10053000A4FB076802958D0A05FB07854FEA932CFB
:1005400004FB0C542705029D4FEA065847EA16376C
:10055000B5EB08056EEB070C870E920E47EA811784
:1005600042EA8312A7FB0201B6EB0B0164EB000425
:100570002B0D43EA0C335E1844EB1C50DA4651460F
:10058000E7FB0201C5F313044FEA0B3343EA1453AC
:100590004FEA0432019C43EA0603A4F10C040294DE
:1005A000009CCDE900B400F0EEF903B0BDE8F08F97
:1005B00000200146F9E72DE9F04D81EA030404F03B
:1005C000004B21F0004514464FF0000A23F0004193
:1005D00050EA050220D054EA01021DD0C5F30A57A3
:1005E0000246C5F31303C1F31300C1F30A5640F4E6
:1005F000801543F48013A7EB0608101BD64608F2BB
:10060000FD3873EB050002D308F1010801E09218F0
:100610005B41B8F1000F03DA00200146BDE8F08D20
:1006200000204FF48011064684460EE0171B73EB42
:10063000050705D3121B63EB050306434CEA010CC7
:1006400049084FEA300092185B4150EA0107EDD1AA
:1006500052EA030012D082EA040083EA050108434B
:1006600005D0101BAB4106D20122002306E0002278
:100670004FF0004302E06FF0010253101AEB060046
:100680004CEB085110EB0A0041EB0B01BDE8F04DBB
:1006900000F06AB9C10F80EAE0700844CA079623E7
:1006A000002100F033B996230022114600F02EB944
:1006B00000F0004220F00040C10DC0F3160040F4ED
:1006C00000007F2901DA00207047962903DCC1F180
:1006D0009601C84001E096398840002AF4D0404293
:1006E000704720F00040C10DC0F3160040F4000038
:1006F0007F2901DA00207047962903DCC1F19601B9
:10070000C8407047963988407047C1F30A5210B507
:10071000C1F3130140F2FF3341F480119A4201DA30
:10072000002010BD40F233439A42A2F2334203DC70
:10073000524200F088F810BD904010BD00F0004219
:1007400030F000400AD0C10D01F56071C0F3160011
:1007500042EA0151C2084007114370470020014698
:10076000704701F0004330B421F0004150EA01022B
:1007700006D00A0DA2F56072C1F31301002A02DC53
:1007800030BC00207047440F44EAC104C100E018A7
:1007900030BC00EBC25000F0B0B830B50B4601469B
:1007A00000202022012409E021FA02F59D4205D310
:1007B00003FA02F5491B04FA02F52844151EA2F1BA
:1007C0000102F1DC30BD2DE9F05F054600209246C4
:1007D0009B4688460646814640241BE02846414603
:1007E0004746224600F02FF853465A46C01A914118
:1007F00010D311461846224600F016F82D1A67EB62
:1008000001084F4622460120002100F00DF817EBA9
:1008100000094E41201EA4F10104DFDC48463146A8
:100820002A464346BDE8F09F202A04DB203A00FA1E
:1008300002F1002070479140C2F1200320FA03F337
:10084000194390407047202A04DB203A21FA02F035
:100850000021704721FA02F3D040C2F120029140FA
:10086000084319467047202A06DBCB17203A41FA85
:1008700002F043EAE07306E041FA02F3D040C2F12D
:10088000200291400843194670472DE9F0479146F0
:100890000F4680460446002614F8015B2DB100F097
:1008A00003F90068405DC007F6D12B2D02D02D2D35
:1008B00018D0641E4A463946204600F0F9F827B1A0
:1008C0003968A14201D1C7F8008071054FF00204D8
:1008D0000BD54042002803DD01F0BEFA0460A007FA
:1008E000BDE8F08746F48066E4E70028F8DA01F016
:1008F000B3FA04606FF00040F2E70029A8BF704728
:10090000401C490008BF20F00100704710B4B0FA45
:1009100080FC00FA0CF050EA010404BF10BC7047E0
:1009200049B1CCF1200421FA04F411FA0CF118BFFA
:10093000012121430843A3EB0C01CB1D4FEA0061C9
:100940004FEA102042BF002010BC704700EBC3509C
:1009500010440029A4BF10BC7047401C490008BFC8
:1009600020F0010010BC704710B5141E73F1000494
:1009700008DA401C41F1000192185B411A4301D191
:1009800020F0010010BD2DE9F04D92469B4611B1BB
:10099000B1FA81F202E0B0FA80F220329046FFF71D
:1009A00043FF04460F4640EA0A0041EA0B01534662
:1009B0005A46084313D0114653EA010019D0C8F132
:1009C00040025046FFF73FFF05460E465046594647
:1009D0004246FFF729FF084305D0012004E02046E6
:1009E0003946BDE8F08D0020054346EAE0762C4309
:1009F00037430A986305E40AA0EB08000022FD0AC9
:100A000044EA47540A3002D500200146E9E70105CF
:100A100010196941DDE9084500196941BDE8F04D4B
:100A2000A2E7C1F30A52C1F3130140F2FF3341F4CC
:100A300080119A4202DA00200146704740F23343A7
:100A40009A42A2F2334202DC5242FFF7FCBEFFF7A9
:100A5000EBBE000030B5041E71F1000404DB4FF062
:100A60000044404264EB0101141E73F1000405DBF5
:100A70001C464FF00043524263EB0403994208BF07
:100A8000904230BD064C074D06E0E06840F001039F
:100A900094E8070098471034AC42F6D3FFF74CFBBC
:100AA00014B0000834B0000800487047BCAA000821
:100AB0002DE9F05F82460078002715468B460AF143
:100AC0000104B946302801D09DB113E014F8010BA0
:100AD0000127782803D0582801D045B10AE00DB18C
:100AE000102D07D10027102514F8010B02E008256E
:100AF00000E00A250026B0460EE005FB080005FBD5
:100B000006F1012701EB10461FFA80F8B6F5803F89
:100B100000D3B94614F8010B294600F018F8002854
:100B2000EBDABBF1000F05D00FB1641E00E05446B4
:100B3000CBF80040B9F1000F06D001F08DF9022189
:100B40000160C81EBDE8F09F48EA0640FAE73A286F
:100B500000D2303820F02002412A01D3A2F1370020
:100B6000884201D34FF0FF30704770B58C1810F8F1
:100B7000015B15F0070301D110F8013B2A1106D1E2
:100B800010F8012B03E010F8016B01F8016B5B1EFC
:100B9000F9D12B0705D40023521E0DD401F8013BD7
:100BA000FAE710F8013BCB1A921C03E013F8015B43
:100BB00001F8015B521EF9D5A142D8D3002070BDC7
:100BC00021B1826842F00102826003E0826822F073
:100BD00001028260704721B1826842F480728260B3
:100BE00003E0826822F480728260704710B5044688
:100BF0001248844208D10121401500F0F5FB002184
:100C0000601500F0F1FB17E00D48844208D1012186
:100C1000001500F0E9FB0021201500F0E5FB0BE0DA
:100C20000848844208D10121C80300F0DDFB0021FF
:100C30004FF4004000F0D8FB10BD0000002401403C
:100C400000280140003C0140014600208A6802F073
:100C500004020AB1012000E0002070470146002094
:100C60008A6802F008020AB1012000E00020704703
:100C700030B502460020002350680F4C20400D790B
:100C80000C6844EA05242043506090680B4C2040D7
:100C9000D1E902542C434D7944EA45042043906045
:100CA000D06A20F470000C7C641EE4B2234340EA56
:100CB0000350D06230BD0000FFFEF0FFFDF7F1FFF2
:100CC000F0B504460D4600200021092D11DDE06835
:100CD000A5F10A0606EB4607072606FA07F1884340
:100CE000A5F10A0606EB460603FA06F10843E060A2
:100CF0000CE0206905EB4507072606FA07F1884353
:100D000005EB450603FA06F108432061072A0FDACE
:100D1000606B561E06EB86071F2606FA07F188430E
:100D2000561E06EB860605FA06F10843606322E0CC
:100D30000D2A0FDA206BD61F06EB86071F2606FA50
:100D400007F18843D61F06EB860605FA06F108432D
:100D5000206310E0E06AA2F10D0606EB86071F266D
:100D600006FA07F18843A2F10D0606EB860605FA9E
:100D700006F10843E062F0BD816841F0080181603E
:100D8000704721B1826842F4A002826003E0826869
:100D900022F4A00282607047816841F00401816002
:100DA000704721B1026842F00102026004E002686B
:100DB0004FF6FE731A4002607047000001684FF65C
:100DC000FE72114001600021016041608160C160DC
:100DD0004B49884208D14A490839496841F00F0116
:100DE000474A083A51608AE045491431884208D19F
:100DF00043490839496841F0F001414A083A5160D5
:100E00007DE03F492831884208D13D490839496889
:100E100041F470613A4A083A516070E038493C3117
:100E2000884208D136490839496841F47041344A4A
:100E3000083A516063E032495031884208D1304964
:100E40000839496841F470212D4A083A516056E04A
:100E50002B496431884208D129490839496841F44D
:100E60007001274A083A516049E0254978318842A3
:100E700008D123490839496841F07061204A083A8D
:100E800051603CE01F49884206D1011F096841F0CA
:100E90000F01021F116032E01A491431884208D153
:100EA0001849091F096841F0F001164A121F116024
:100EB00025E014492831884208D11249091F0968E0
:100EC00041F470610F4A121F116018E00D493C3166
:100ED000884208D10B49091F096841F47041094A49
:100EE000121F11600BE007495031884207D10549B4
:100EF000091F096841F47021024A121F11607047EE
:100F0000080002400804024010B50022026847F6BB
:100F1000F0739A430C6A8B6823430C6923434C6932
:100F200023438C692343CC6923434C6A23438C6A53
:100F300023431A430260CB6843600B6883604B68AD
:100F4000C36010BD10B54FF4807000F02DF801287B
:100F50001DD1000200F022F84FF480710C4800F01F
:100F600075F9A0B100F074FB04F0FAF803F074FC1A
:100F700000BF0848006800F4E06007490843001D0E
:100F800004490860BFF3408F00BF00BFFEE710BDFB
:100F9000001801400CED00E00000FA05014908606E
:100FA0007047000014040140014600200022074B56
:100FB0001B6803EA0102054B14331B680B4013B195
:100FC0000AB1012000E00020704700000004014049
:100FD000002123498279002A3AD00A461268036820
:100FE0009A430B461A600A1D126803689A430B1D48
:100FF0001A60027911440A6803681A430A60184AA1
:101000000832126803689A43154B08331A601A1D98
:10101000126803689A43124B0C331A604279102A03
:101020000ED11A1F126803681A430D4B08331A6059
:101030001A1D126803681A43094B0C331A600DE03D
:101040000749427911440A6803681A430A6005E0B7
:10105000027911440A6803689A430A6070470000E5
:101060000004014030B500228B071C0F0F2303FA48
:1010700004F20B4B8C1053F824309343084C8D1022
:1010800044F8253023468C1053F824308C07240F65
:1010900000FA04F42343024C8D1044F8253030BD8F
:1010A000080001402DE9F0410246002500260020FD
:1010B00000230024002791F803C00CF00F0591F8DD
:1010C00003C00CF0100CBCF1000F03D091F802C06B
:1010D0004CEA050591F800C0BCF1000F31D014684E
:1010E00000202BE04FF0010C0CFA00F3B1F800C027
:1010F0000CEA03069E4220D183004FF00F0C0CFA3D
:1011000003F7BC4305FA03FC4CEA040491F803C05E
:10111000BCF1280F06D14FF0010C0CFA00FCC2F80C
:1011200014C00AE091F803C0BCF1480F05D14FF09C
:10113000010C0CFA00FCC2F810C0401C0828D1D3E6
:101140001460B1F800C0BCF1FF0F34DD546800201A
:101150002EE000F1080C4FF0010808FA0CF3B1F88A
:1011600000C00CEA03069E4221D183004FF00F0C11
:101170000CFA03F7BC4305FA03FC4CEA040491F8AB
:1011800003C0BCF1280F05D100F1080C08FA0CF8D7
:10119000C2F8148091F803C0BCF1480F07D100F1E8
:1011A000080C4FF0010808FA0CF8C2F81080401C37
:1011B0000828CED35460BDE8F0810000F0B50A469F
:1011C000002300240021002500F00046B6F1004F66
:1011D00002D11D4EF16901E01B4E7168C0F3034559
:1011E00083B200F44016B6F5401F08D121F07061BB
:1011F000154E766826F07066134F7E6012E000F49C
:101200008016B6F5801F06D1032606FA05F4A14321
:1012100041F0706106E0460D360103FA06F6B1436F
:1012200041F0706122B1460D360103FA06F63143F2
:1012300000F00046B6F1004F02D1034EF16101E02B
:10124000014E7160F0BD0000000001400246002028
:1012500093680B400BB1012000E000207047416112
:1012600070470161704700004CF6CC4001490860AE
:1012700070470000003000404AF6AA20014908608B
:10128000704700000030004001494860704700008E
:101290000030004001498860704700000030004085
:1012A00001490860704700000030004070B500211F
:1012B00000230F22C47804B3154C246804F4E064BE
:1012C000C4F5E064210AC1F10403CA40447804FA79
:1012D00003F184781440214309010E4C0678A1558E
:1012E000047804F01F050124AC4005786D11AD00B1
:1012F00005F1E025C5F8004109E0047804F01F0578
:101300000124AC40044D0678761145F8264070BDA6
:101310000CED00E000E400E080E100E00249014360
:10132000024A1160704700000000FA050CED00E071
:1013300010B5024600200C4B186820F00300104343
:1013400018600A4B1B6843F00403084C2360012912
:1013500001D130BF00E020BF044B1B6823F0040321
:10136000024C236010BD00000070004010ED00E052
:1013700001460020034A506820F440400843506072
:10138000704700000010024029B1064A526902432A
:10139000044B5A6104E0034A52698243014B5A618B
:1013A000704700000010024029B1064AD26902438A
:1013B000044BDA6104E0034AD2698243014BDA61EB
:1013C000704700000010024029B1064A92690243AA
:1013D000044B9A6104E0034A92698243014B9A618B
:1013E000704700000010024029B1064AD26802434B
:1013F000044BDA6004E0034AD2688243014BDA60AE
:10140000704700000010024030B500210022002487
:1014100000232D4D6D6805F00C0121B1042905D084
:10142000082923D105E0294D056022E0274D0560FC
:101430001FE0254D6D6805F47012234D6D6805F4AD
:101440008034022505EB92421CB9214D55430560BD
:101450000BE01D4D6D6805F400351DB11C4D554365
:10146000056002E0194D5543056002E0174D056027
:1014700000BF00BF144D6D6805F0F0010909154D5E
:101480006B5C0568DD4045600F4D6D6805F4E061FB
:10149000090A104D6B5C4568DD4085600A4D6D683A
:1014A00005F46051C90A0B4D6B5C4568DD40C560B1
:1014B000054D6D6805F44041890B074D6B5CC568AF
:1014C000B5FBF3F5056130BD0010024000127A0053
:1014D00000093D00180000202800002010B501463A
:1014E0000022002300204A11012A02D1094C23685E
:1014F00006E0022A02D1074C236A01E0054C636A28
:1015000001F01F02012494401C400CB1012000E0B6
:10151000002010BD00100240014908607047000023
:10152000800442420448007820B104480068401C0E
:101530000249086070470000482D0020442D00201B
:1015400010B500F001F810BD0CB50020019000901E
:101550003348006840F480303149086000BF3048AB
:10156000006800F4003000900198401C0190009841
:1015700018B90198B0F5A06FF1D12948006800F4BE
:10158000003010B10120009001E000200090009890
:10159000012843D12348006840F010002149086029
:1015A0000846006820F0030008600846006840F024
:1015B000020008601A4840681949486008464068B7
:1015C00048600846406840F48060486008464068CB
:1015D00020F47C1048600846406840F4E8104860F9
:1015E0000846006840F08070086000BF0C48006842
:1015F00000F000700028F9D00948406820F003008E
:10160000074948600846406840F00200486000BF53
:101610000348406800F00C000828F9D10CBD000018
:101620000010024000200240042808D14FF0E021C1
:10163000096941F004014FF0E022116107E04FF029
:10164000E021096921F004014FF0E02211617047A7
:1016500010B51348006840F00100114908600846C1
:101660004068104908400E494860084600680E4925
:1016700008400B4908600846006820F48020086094
:101680000846406820F4FE0048604FF41F00886060
:10169000FFF756FF4FF000600449086010BD0000DE
:1016A000001002400000FFF8FFFFF6FE08ED00E02A
:1016B00010B50121074800F03BF850B1064800780A
:1016C00020F00100401C044908700121014800F08D
:1016D00011F810BD000C00409201002021B10288D9
:1016E00042F08002028004E002884FF67F731A40C5
:1016F00002807047CA430282704721B1028842F0DB
:101700000102028004E002884FF6FE731A40028054
:10171000704731B1B0F8442042F40042A0F84420B0
:1017200005E0B0F84420C2F30E02A0F84420704750
:1017300030B50246002000230024158A05EA010383
:10174000958905EA010413B10CB1012000E00020E5
:1017500030BD1AB183890B43838102E083898B43B7
:101760008381704770B5002400220023058C4FF65A
:10177000FE7635400584028C8388048B4FF68F7586
:101780002C40B51E2C400D882C43751E2A400D8917
:101790002A434D882A43144DA8420BD0134DA8422A
:1017A00008D0134DA84205D0124DA84202D0124DC8
:1017B000A84213D14FF6F7752A404D892A434FF6B8
:1017C000FB752A408D882A434FF6FF652B404FF664
:1017D000FF552B408D892B43CD892B438380048378
:1017E000CD888586028470BD002C01400034014004
:1017F0000040014000440140004801400A460021E9
:10180000018B4FF6F77319401143018370470000B5
:1018100070B5002400220023058C4FF6EF7635408A
:101820000584028C8388048B48F6FF752C404FF6A4
:10183000FF452C400D884FF6FF7606EA05252C4320
:101840004FF6DF752A400D8906EA05152A434D88B3
:1018500006EA05152A43154DA84202D0144DA842A8
:101860001DD14FF67F752A404D894FF6FF7606EA67
:1018700005152A434FF6BF752A408D8806EA0515DF
:101880002A434FF6FF352B404FF2FF752B408D89D1
:1018900006EA85052B43CD8906EA85052B4383801F
:1018A0000483CD880587028470BD0000002C0140B0
:1018B000003401400A460021018B4FF2FF731940AA
:1018C0004FF6FF7303EA02231943018370470000B8
:1018D00070B5002200230024058C4EF6FF763540BB
:1018E0000584038C8488828B48F6FF752A404FF666
:1018F000FF452A400D884FF6FF7606EA05252A4364
:101900004DF6FF752B400D8906EA05352B434D88B2
:1019100006EA05352B430B4DA84202D00A4DA842DA
:1019200008D14BF6FF752C408D894FF6FF7606EAFD
:1019300085152C4384808283CD88A0F84050038491
:1019400070BD0000002C0140003401400A46002117
:10195000818B4FF2FF7319404FF6FF7303EA0223A6
:101960001943818370478186704701877047A0F8CB
:1019700040107047002202881D4B98420ED01D4B2C
:1019800098420BD0B0F1804F08D01B4B984205D045
:101990001A4B984202D01A4B984204D14FF68F73DB
:1019A0001A404B881A43174B984207D0164B98425F
:1019B00004D04FF6FF431A40CB881A4302808B882D
:1019C00083850B8803850A4B98420BD0094B9842BC
:1019D00008D00E4B984205D00D4B984202D00D4BCB
:1019E000984201D10B7A038601238382704700005D
:1019F000002C014000340140000400400008004079
:101A0000000C004000100040001400400040014065
:101A1000004401400048014010B540F225513B48C8
:101A200000F041F9002847D0384800F0F7F938496C
:101A300009884FF4967291FBF2F302FB1311354AB9
:101A40005054334800884FF4967190FBF1F201FB3B
:101A500012003049085C082824D12D48008802284B
:101A60001CDB2B4800884FF4967190FBF1F201FBD0
:101A70001200284900220A54254800884FF4967124
:101A800090FBF1F201FB1200401E224900220A5491
:101A90001F480088401E1E49088008E000201C499D
:101AA000088004E01A480088401C1949088040F268
:101AB0002551164800F0DCF840F22771134800F079
:101AC000F2F808B3144800884FF4967190FBF1F2D5
:101AD00001FB120011490C5C21460C4800F0A3F9EF
:101AE0000D480088401C0C4908800D480088401EA5
:101AF0000988884208DA002240F22771034800F082
:101B0000FCF800200449088010BD000000380140A6
:101B10009C010020C42D0020A40100201C300020C6
:101B2000A201002010B540F22551224800F0BBF878
:101B3000A8B1204800F072F91F490988642291FB7E
:101B4000F2F302FB13111D4A50541B480088401C3D
:101B50001949088040F22551164800F089F840F2F2
:101B60002771144800F09FF810B3154800886421CD
:101B700090FBF1F201FB120012490C5C21460D486A
:101B800000F051F90E480088401C0D4908800E48AD
:101B90000088401E098888420ADA002240F2277134
:101BA000044800F0AAF800200549088006F0C6FDA8
:101BB00010BD0000004400409E010020F02E0020D7
:101BC000AC01002048310020AA01002010B540F2ED
:101BD0002551214800F067F8A8B11F4800F01EF910
:101BE0001E490988C82291FBF2F302FB13111C4A1B
:101BF00050541A480088401C1849088040F225516A
:101C0000154800F035F840F22771134800F04BF802
:101C100000B314480088C82190FBF1F201FB1200C8
:101C200011490C5C21460C4800F0FDF80D48008875
:101C3000401C0C4908800D480088401E09888842D5
:101C400008DA002240F22771034800F056F800201D
:101C50000449088010BD000000480040A001002099
:101C6000542F0020B4010020AC310020B20100202C
:101C700010B50022002340F66A14A14200D100BF33
:101C80000A1201249440A3B2DC43048010BD21B1A8
:101C9000828942F40052828104E082894DF6FF730A
:101CA0001A408281704770B5024600240023002547
:101CB000002040F66A16B14200D100BFC1F34215C0
:101CC00001F01F03012606FA03F3012D02D19689C4
:101CD000334006E0022D02D1168A334001E0968A95
:101CE00033400C12012606FA04F41688344013B16E
:101CF0000CB1012000E0002070BDF0B503460024C7
:101D000000260025002040F66A17B94200D100BF26
:101D10001846C1F3421401F01F06012707FA06F521
:101D2000012C01D10C3004E0022C01D1103000E074
:101D300014301AB107682F43076002E00768AF4309
:101D40000760F0BD2DE9F04786B005460E46002439
:101D5000A24600BFA1460027B08900B100BF2F46B0
:101D60002C8A4CF6FF700440F08804432C82AC8926
:101D70004EF6F3100440B088318908437189084356
:101D80000443AC81AC8A4FF6FF400440B089044361
:101D9000AC8201A8FFF738FB1F48874202D1DDF86B
:101DA00010A001E0DDF80CA0A88900F4004040B1CB
:101DB0000AEBCA0000EB0A1031684900B0FBF1F8E9
:101DC00007E00AEBCA0000EB0A1031688900B0FB9B
:101DD000F1F86420B8FBF0F004012009642101FB54
:101DE0001089A88900F4004040B1322000EBC900FE
:101DF000B0FBF1F000F00700044308E0322000EBF4
:101E000009106421B0FBF1F000F00F0004432C81B5
:101E100006B0BDE8F0870000003801400146888820
:101E2000C0F308007047C1F30802828070470000C9
:101E30000FB4084B10B504A902AA039800F0D2F819
:101E4000044602A9002000F064FC204610BC5DF8A6
:101E500014FB00001327000800487047AC2D002039
:101E600002E008C8121F08C1002AFAD17047704763
:101E7000002001E001C1121F002AFBD170470000C1
:101E80002DE9FF5FDDE90220010DDDF838B00243E6
:101E900018D044F61050A1F2FF3141430D140F98B1
:101EA000012820D0A5EB0B00401C5FEA000A4FF090
:101EB0000004474EDFF81C91A046504616D5CAF1E3
:101EC000000728E00F98012443A2012808D0002130
:101ED00000980F9BC0E90021C0E90243BDE8FF9FC5
:101EE0006FEA0B01F4E7CBF10000DEE7074612E0F2
:101EF000F80707D02246334640464946FEF7E9FA3E
:101F0000804689462246334610461946FEF7E1FAD6
:101F100004460E467F10002FEAD1DDE90201BAF136
:101F2000000F42464B4602DAFEF7D3FA01E0FEF715
:101F300042FB04460E460022284BFEF78BFD03D8D9
:101F40004FF0FF30014607E00022254B2046314686
:101F5000FEF718FAFEF765FD102409E0002C0ADBF5
:101F60000A220023FEF72FFC019B30321A55641E13
:101F700050EA0102F2D1641C019AC4F11103144425
:101F80000F9A012A03D0012208430DD10AE0084329
:101F900004D000204FF0110B0F9080E7A3EB0B054E
:101FA0006D1E0DE05B4504DD4FF0000205F10105FB
:101FB00004E003DA4FF00002A5F10105002AECD09D
:101FC00000980F99C0E90231C0E9004586E700009A
:101FD000000024400000F03F300000000000F0430B
:101FE0000000E03F2DE9FF4F95B09B46894606462D
:101FF00000250FE2252877D100242746F84A012141
:10200000059400E0044316F8013F203B01FA03F079
:102010001042F7D130782A2811D06FF02F03307892
:10202000A0F13002092A16D8059A44F0020402EB06
:10203000820203EB42021044761C0590EFE759F848
:10204000042B0592002A03DA504244F40054059010
:1020500044F00204761C30782E2816D116F8010FB1
:1020600044F004042A280DD06FF02F023078A0F13C
:102070003003092B09D807EB870302EB4303C7188A
:10208000761CF3E759F8047B761C30786C280FD067
:1020900006DC4C2817D068280DD06A2814D104E03B
:1020A000742810D07A280FD10DE044F400140AE00F
:1020B00044F4801401E044F440147278824202D166
:1020C00004F58014761C761C307866280BD013DC5F
:1020D000582877D009DC002875D04528F6D0462846
:1020E000F4D047281AD19DE118E0632835D0642840
:1020F00079D0652812D195E1702873D008DC672863
:10210000F1D069286FD06E280DD06F2806D1B5E0C8
:1021100073282CD0752875D0782874D05A46179912
:1021200090476D1C75E1C4F30250022809D00328C2
:102130000DD0D9F8001004280DD00D6009F1040964
:1021400067E1D9F80010EA17C1E90052F6E7D9F8BB
:1021500000100D80F2E70D70F0E719F8041B8DF800
:10216000001000208DF80100EA46012003E059F834
:1021700004AB4FF0FF3061074FF0000102D40DE0D7
:1021800008F101018846B9420FDA8045F8DB1AF8F8
:1021900008100029F4D108E008F1010188468142C5
:1021A000FADB1AF808100029F6D105985B46A0EB77
:1021B000080721463846179A00F094FA284400EBA5
:1021C000080507E04DE029E10DE01AF8010B5A4639
:1021D00017999047B8F10108F7D25B462146384677
:1021E000179A13E142E00A220092C4F302524FF020
:1021F000000A022A08D059F804CB032A4FEAEC71EE
:102200000AD00DE029E02AE009F1070121F00702D8
:10221000F2E802C1914609E00FFA8CFC4FEAEC713A
:10222000042A03D14FFA8CFC4FEAEC71002907DA3B
:102230000A460021DCF1000C61EB02012D2202E0D4
:10224000220504D52B228DF80420012203E0E207A9
:1022500001D02022F7E7904659E00A2102E010223F
:102260000DE010214FF0000A00910BE010224FF01A
:10227000000A44F004040827009203E008224FF00B
:10228000000A0092C4F30252022A05D059F804CB86
:102290000021032A08D009E009F1070121F0070213
:1022A000F2E802C1914605E01FFA8CFC042A01D134
:1022B0000CF0FF0C4FF00008220728D5702806D03C
:1022C000009B83F0100353EA0A0305D00EE040227E
:1022D0008DF80420012208E05CEA010206D03022D9
:1022E0008DF804208DF8050002229046009B83F0B3
:1022F000080353EA0A030AD15CEA010201D162072A
:1023000005D530228DF804204FF001087F1E582893
:1023100004D034A003900EA802900DE036A0F9E797
:1023200053466046009AFEF74EFA84460398825C54
:102330000298401E029002705CEA0100F0D10298FF
:1023400006A9081A00F1200A600702D524F4803497
:1023500000E00127574502DDA7EB0A0000E000205E
:1023600000EB0A01009005984144401A0590E003F3
:1023700006D45B462146179A059800F0B3F9054448
:10238000002706E001A85A46C05D179990476D1CCA
:102390007F1C4745F6DBE0030CD55B462146179AC8
:1023A000059800F09FF9054404E030205A4617993B
:1023B00090476D1C0099481E00900029F5DC08E04C
:1023C000029802995A460078491C02911799904741
:1023D0006D1CBAF10001AAF1010AF1DC65E100000F
:1023E00009280100303132333435363738396162EB
:1023F00063646566000000003031323334353637AF
:1024000038394142434445460000000000F058F985
:102410000544761C307800287FF4ECAD19B02846CE
:10242000BDE8F08F620700D4062709F1070222F009
:10243000070CFCE80223E14603F000485FEA080CC1
:1024400002D00FF2702C0DE05FEA045C02D50FF2AF
:10245000682C07E05FEAC47C02D00FF2602C01E038
:10246000AFF2700C4FF0FF3823F00043CDF850C0AE
:1024700065280CD006DC452809D046281DD0472801
:102480003DD13DE0662818D067287ED138E0002194
:10249000112F01DB112000E0781CCDE9000106A915
:1024A0000EA8FFF7EDFCDDE90F010E9A0391002164
:1024B000009207F1010A04914DE04FF000400097AF
:1024C000CDE9011006A90EA8FFF7DAFCDDE90F023D
:1024D00003920E9B11990022DDF80CA00093049248
:1024E00011B9791C00EB010AB7EB0A0004D4C0F162
:1024F000FF3007F1010A0490AAEB0700019044E0C5
:10250000012F00DA01270021112F01DD112000E049
:102510003846CDE9000106A90EA8FFF7B1FCDDE9B8
:102520000F010E9A0391002104910092BA462107EF
:102530000CD40399514500DA8A46BAF1010F05DD42
:10254000009AAAF10101515C302908D0B84202DAA0
:1025500010F1040F06DA0121CDE9011015E0AAF10E
:102560000101E9E7002805DC049901440491AAEB84
:10257000000102E0411C514500DD8A460499401AE1
:10258000401C01904FF000400290200704D40198B5
:10259000504501DBCDF8048000208DF84F000298F3
:1025A0000DF14F07B0F1004F25D02B200E9002986F
:1025B0004FF0020800280CDA404202902D200E90C5
:1025C00007E00A210298FEF7E8F83031029007F898
:1025D000011DB8F10001A8F10108F2DC0298002801
:1025E000EFD1791E0E980870307800F0200040F08E
:1025F000450007F8020D12A8C01B00F10708149847
:10260000007800B1012000EB0A01019801EBE071B4
:1026100005984144401A401E0590E00306D45B46ED
:102620002146179A059800F05DF805441498007843
:1026300018B15A46179990476D1CE00324D55B46A4
:102640002146179A059800F04DF805441CE00498BF
:10265000002807DBDDE90301884203DD0098405CC8
:10266000179901E0179930205A469047049805F1D0
:102670000105401C04900198401E019004D12E20B9
:102680005A46179990476D1CBAF10001AAF1010A48
:10269000DDDC05E017F8010B5A46179990476D1CD1
:1026A000B8F10001A8F10108F4DC5B462146179A55
:1026B0000598ABE62D0000002B0000002000000074
:1026C0002DE9F041044600251E461746880404D42F
:1026D00005E039462020B0476D1C641EF9D5284618
:1026E000BDE8F0812DE9F041044600251E469046E4
:1026F000C80301D5302700E02027880404D505E071
:1027000041463846B0476D1C641EF9D52846BDE8E1
:10271000F0810A68531C0B60107070472DE9F0417E
:1027200004460D46A5B10A2094FBF0F100FB1140D0
:10273000124931F810600A2094FBF0F100FB1140BF
:102740000F4951F8207031463846FEF78AFD13E0F4
:102750000A2094FBF0F100FB1140084931F81060A9
:102760000A2094FBF0F100FB1140054951F820705C
:1027700031463846FEF773FDBDE8F0817C0100204C
:102780005401002010B50A484078C0F3800000B919
:1027900010BD0748407820F004000549487000F05B
:1027A00011F800F0B5FB00F029FE00BFF0E70000D3
:1027B0009201002010B500F05DF800F0DFFB00F0A2
:1027C00027FE10BD10B500242348007838BB00F068
:1027D000D3FE00B300BF04E0002020490855601C70
:1027E000C4B2052CF8DB01201B4908701C490020ED
:1027F00005F096FF1B49012005F092FF1A490220BF
:1028000005F08EFF1949032005F08AFF18490420BE
:1028100005F086FF1FE000200F4908701BE0002430
:1028200017E00E48005D012806D1204603F026F986
:1028300010B90320094908550848005D022806D14F
:10284000204603F01BF910B9002004490855601C0C
:10285000C4B2052CE5DB10BDD72C0020D22C002003
:10286000E16A0008EB6A0008F56A0008FF6A0008E0
:10287000096B000810B5002400BF04E004201F49C4
:102880000855601CC4B2052CF8DB00240BE0204680
:1028900003F0E0F828B14FF4FA720121204606F067
:1028A000B3FC601CC4B2052CF1DB00F065FE00B384
:1028B000002404E0002011490855601CC4B2052C16
:1028C000F8DB01200E4908700E49002005F028FFB2
:1028D0000D49012005F024FF0C49022005F020FFDE
:1028E0000B49032005F01CFF0A49042005F018FFDE
:1028F00002E000200249087010BD0000D22C002028
:10290000D72C0020E16A0008EB6A0008F56A00088D
:10291000FF6A0008096B000870B58EB005460E46C8
:102920000024022E11D128780D280ED168780A28AB
:102930000BD120A001F0F2FF0020234908702349A9
:102940000870234908700EB070BD00240BE0285DAC
:102950000D2802D0285D202800D106E0285D01A9BD
:102960000855601CC4B2B442F1DB00BF002001A9CD
:102970000855002416E004EB840000EBC400154A5F
:1029800002EBC000011D01A8FDF719FC40B904EBE2
:10299000840101EBC4010F4A52F831008047D2E7AD
:1029A000601CC4B2692CE6D30BA001F0B7FF00BFD6
:1029B000C9E70000636F6D6567656E6520636F6DC5
:1029C0006D616E643A0D0A00F4010020F7010020E9
:1029D000F8010020FC010020696E7661696C6420BA
:1029E000636F6D6D616E640D0A00000000B5ADF59A
:1029F000097DFE48407800F0010010B90DF5097D11
:102A000000BDFA48407820F00100F849487001F014
:102A100041FF30B1F6480188F648FFF77DFF00F02E
:102A2000BDFDF5480078002874D0F448C0892C908A
:102A3000FDF739FE2D90FDF781FECDE93C01EF4811
:102A400080892C90FDF72FFE2D90FDF777FECDE9C4
:102A50003A01EA4840892C90FDF725FE2D90FDF7BC
:102A60006DFECDE93801E54800892C90FDF71BFE8D
:102A70002D90FDF763FECDE93601E048C0882C902B
:102A8000FDF711FE2D90FDF759FECDE93401DB482D
:102A900080882C90FDF707FE2D90FDF74FFECDE9C5
:102AA0003201D64840882C90FDF7FDFD2D90FDF7B2
:102AB00045FECDE93001D14800882C90FDF7F3FDAB
:102AC0002D90FDF73BFECDE92E01DDE93C01CDE97E
:102AD0000C01DDE93A01CDE90A01DDE93801CDE972
:102AE0000801DDE93601CDE90601DDE93401CDE972
:102AF0000401DDE93201CDE90201DDE93001CDE972
:102B00000001BF493EA8DDE92E23FFF791F93EA859
:102B100001F004FFBB48007800287DD003F004FAE0
:102B200000287AD1B8A001F0F9FE052002F03AFBA6
:102B3000012002F0E3FD3D90002002F0DFFD3C901B
:102B4000092003F063F83B90082003F05FF83A9007
:102B5000042003F0EFF93990042003F0FDF93890D8
:102B6000042003F021F93790042003F0FBF836909D
:102B7000072003F04BF83590062003F047F8349017
:102B8000032003F0D7F93390032003F0E5F93290E6
:102B9000032003F009F93190032003F0E3F83090AB
:102BA000052003F033F82F90042003F02FF82E9027
:102BB000022003F0BFF92D90022003F0CDF92C90F4
:102BC000022003F0F1F82B90022003F0CBF82A90BA
:102BD000032003F01BF82990022003F017F8289037
:102BE000012003F0A7F92790012003F0B5F9269002
:102BF000012003F0D9F82590012003F0B3F82490C8
:102C0000012003F003F82390002002F0FFFF229040
:102C1000002003F08FF901E03FE151E02190002016
:102C200003F09AF92090002003F0BEF81F900020D6
:102C300003F098F81E90DDE93A23DDE93C10CDE978
:102C40001A23CDE91C10DDE93623DDE93810CDE982
:102C50001623CDE91810DDE93223DDE93410CDE982
:102C60001223CDE91410DDE92E23DDE93010CDE982
:102C70000E23CDE91010DDE92A23DDE92C10CDE982
:102C80000A23CDE90C10DDE92623DDE92810CDE982
:102C90000623CDE9081022A80BC8259ACDE90432F5
:102CA000CDE90201DDE92001CDE900015A493EA844
:102CB000DDE91E23FFF7BCF83EA801F02FFEECE093
:102CC00056A001F02BFE052002F06CFA012002F064
:102CD000CFFC3D90002002F0CBFC3C90092002F09C
:102CE00095FF3B90082002F091FF3A90042003F0FA
:102CF00021F93990042003F02FF93890042003F0D3
:102D000053F83790042003F02DF83690072002F096
:102D10007DFF3590062002F079FF3490032003F008
:102D200009F93390032003F017F93290032003F0E0
:102D30003BF83190032003F015F83090052002F0A5
:102D400065FF2F90042002F061FF2E90022003F017
:102D5000F1F82D90022003F0FFF82C90022003F0F0
:102D600023F82B90022002F0FDFF2A90032002F0AE
:102D70004DFF2990022002F049FF2890012003F026
:102D8000D9F82790012003F0E7F82690012003F0FE
:102D90000BF82590012002F0E5FF2490012002F0BD
:102DA00035FF2390002002F031FF2290002003F035
:102DB000C1F82190002003F0CFF82090002002F00D
:102DC000F3FF1F90002002F0CDFF1E90DDE93A23B3
:102DD000DDE93C10CDE91A23CDE91C10DDE93623ED
:102DE000DDE93810CDE9162320E000009201002033
:102DF0009C010020C42D0020F4010020583A00203E
:102E0000B0AE0008F80100204D4F4445203A204460
:102E1000202D2D2D20000000C0AA00084D4F444554
:102E2000203A2043202D2D2D20000000CDE9181040
:102E3000DDE93223DDE93410CDE91223CDE91410A8
:102E4000DDE92E23DDE93010CDE90E23CDE91010A8
:102E5000DDE92A23DDE92C10CDE90A23CDE90C10A8
:102E6000DDE92623DDE92810CDE90623CDE90810A8
:102E7000DDE92403DDE92212CDE90403CDE90212E4
:102E8000DDE92001CDE9000105493EA8DDE91E2369
:102E9000FEF7CEFF3EA801F041FD00BFAEE5000009
:102EA000C0AA000800B5B5B000200D4908700D4952
:102EB00008700D4908700D4908700D4908700DA083
:102EC0000FA101220323CDE9002102901A460F49E8
:102ED00003A8FEF7ADFF03A801F020FD35B000BD4B
:102EE000F4010020F5010020F6010020F701002088
:102EF000F801002031343A31343A32310000000018
:102F00004A616E202036203230323000B0AB0008EB
:102F100010B5002400BF28E01548005D70B91548C1
:102F2000005D03281FD1611DC8B202F093FDD0B12E
:102F30000120114908550E49085514E00D48005D5F
:102F4000032810D1611DC8B202F084FD58B10A48AF
:102F5000005D012807D1204603F08EFD00200649C0
:102F6000085503490855601CC4B2052CD4DB10BDBC
:102F7000DD2C0020D22C0020D82C0020002000BF07
:102F800006E00021044A1154044A1154411CC8B2FD
:102F90000528F6DB70470000D82C0020DD2C00202F
:102FA00010B50F480078C0F3801000B910BD0C4870
:102FB000007820F040000A49087007F079F800F026
:102FC000A9FC02F0DBFF00B9F0E702F0ADFF012839
:102FD00002D100F0FDFC01E001F0ACFC00BFE5E730
:102FE0009201002010B5002400BF0FE04FF0FF3029
:102FF000144921F814000020134921F81400134942
:1030000021F8140012490855601CC4B20A2CEDDBEB
:10301000002406E000200F4908550F490855601CA0
:10302000C4B2022CF6DB002006F072FA00200B4935
:1030300008700B49087007F097F800F0B1FC04F035
:103040008DF910BD763A00209E3A0020B23A002059
:103050006C3A0020CB2C0020AD2C0020AF2C00209F
:10306000B02C00202DE9F047B6B000240025002642
:10307000A14695484078C0F3801010B936B0BDE83D
:10308000F0879148407820F040008F494870FEF763
:1030900049FA8E48007820B1012803D0022800D1D7
:1030A0004BE00DE18A480078052190FBF1F201FB2D
:1030B0001200C7B20021384607F036F9844800787C
:1030C00040000A2190FBF1F201FB1200814931F826
:1030D00010407F480078012101EB40000A2190FB5D
:1030E000F1F201FB12007B4931F81050AC4202DDD5
:1030F000601B06B201E0281B06B2B4F5AF7F1BDAF5
:10310000B5F5AF7F18DA0A2E16DA734804804580C9
:103110006F480078052190FBF1F201FB1200C7B265
:103120000121384607F000F90220684908706BA0B9
:1031300001F0F4FB05F0FAFAC2E0714800780028CB
:103140002AD17048007840BB6148007840000A21CD
:1031500090FBF1F201FB1200C7B24FF47A713846CE
:1031600006F0B6F95A480078012101EB40000A2127
:1031700090FBF1F201FB1200C7B24FF47A713846AE
:1031800006F0A6F906F0EAFA01205E4908705EA092
:1031900001F0C4FB05F0CAFA91E002F0ADF9142881
:1031A000FAD94B48007840000A2190FBF1F201FB6C
:1031B0001200C7B20021384606F08AF94448007868
:1031C000012101EB40000A2190FBF1F201FB12000A
:1031D000C7B20021384606F07BF906F061FD3C4895
:1031E000007840000A2190FBF1F201FB12003949FE
:1031F00031F8104036480078012101EB40000A21E7
:1032000090FBF1F201FB1200324931F81050601BC3
:1032100006B22F48027846A104A8FEF709FE04A8CA
:1032200001F07CFB05F082FA2B4840888DE83100E4
:1032300029480388142244A104A8FEF7F9FD04A834
:1032400001F06CFB05F072FA2846FDF72CFA804677
:103250002046FDF728FA82464146FDF71DF807464D
:103260004949FDF751F881464846FDF767FA32466D
:10327000CDE9000145A104A8FEF7DAFD04A801F09C
:103280004DFB05F053FA00201049087046480078BD
:1032900060B10F480078052808DA0D480078401C16
:1032A0000B490870012006F03FFA08E000200849A9
:1032B00008703EA001F032FB00201249087000BFE8
:1032C00000BF00BFDAE6000092010020502D002070
:1032D0004A2D0020583A00204C2D00207265706F56
:1032E0007274203A2074656D70207072657061721E
:1032F000652073756363657373202E2E2E0D0A008F
:10330000512D00204B2D00207265706F7274203A91
:103310002074656D702075702073746172742073F1
:10332000756363657373202E2E2E0D0A0000000056
:10333000484452205245504F525420524F4144204D
:1033400025640D0A000000007573696E67207469BA
:103350006D20256420532066756C6C20706F776536
:1033600072206F7065726174696F6E2074656D7024
:103370002066726F6D2025642D256420746F2025D2
:10338000642D25640D0A00000000A041484452202D
:103390003D202564204844525F52415445203D2041
:1033A000252E3266200D0A00492D00202D2D2D2DB1
:1033B0002D2D484452205245504F525420454E44E2
:1033C0002D2D2D2D2D0D0A000020064908600649DF
:1033D00008700649087006490870064908700649D1
:1033E00008707047442D0020482D0020492D0020F2
:1033F0004A2D0020502D00204B2D002010B504F048
:10340000BDFF04F0B9FE04F06FFF06F065F910BDD2
:1034100010B50020044908800449088003F0EEFA42
:1034200004F05CFF10BD0000E22C0020E42C002022
:1034300000B599B064221D496846FCF795FE1C480A
:103440004078C0F3001008B919B000BD18484078A2
:1034500020F010001649487003F05CFB18B302F02E
:1034600075FDE0B1134800885A2818DA0DF10902F9
:1034700010480188104803F0ABF910A001F04EFA93
:10348000012001F08FFE684601F048FA0A2001F0A1
:1034900089FE0AA001F042FA012001F083FE03F048
:1034A000DDFB00F089F800BFCEE700000CA90008A2
:1034B00092010020A0010020542F00200D0A0000DE
:1034C0007047000010B5024801F028FA10BD000056
:1034D0006CAD000870B5054600240DB9002070BD24
:1034E0001748007848B116480078032805D01448DA
:1034F0000078052801D004F097FB002411E001209A
:10350000A040284058B101200E49085500200E491E
:1035100008800E4908800021204606F0EBFF601C61
:10352000C4B2052CEBDB0021062006F0E3FF0021EE
:10353000084603F045FA01200149087000BFCEE7B4
:103540009C2D00209D2D0020A22D0020A42D0020C8
:1035500010B5FF20FFF7BEFF01A001F0DFF910BD9D
:103560006368616E67652077617465722073756347
:10357000636573730D0A000010B5002400BF08E0F6
:10358000204602F07BFA042801D1002010BD601C07
:10359000C4B2052CF4DB0120F8E7000010B50448A4
:1035A00001880448FCF7F9FD00200149088010BD9E
:1035B0009C010020C42D002010B505480188054855
:1035C000FCF7EBFD0020024908800349088010BD8C
:1035D000A0010020542F0020B0010020052190FB05
:1035E000F1F201FB1201104A00235354052190FB14
:1035F000F1F201FB12010D4A5354052190FBF1F247
:1036000001FB12010A4A5354052190FBF1F201FB20
:103610001201084A5354052190FBF1F201FB1201FB
:10362000054A012353547047522D00205C2D002081
:10363000662D0020612D0020702D002010B505485A
:1036400001880548FCF7A9FD0020024908800349CC
:10365000088010BD9E010020F02E0020A80100204F
:1036600070B50446052094FBF0F100FB1140C5B293
:10367000284606F0A5FC052094FBF0F100FB114064
:10368000094900220A54052094FBF0F100FB114087
:10369000064921F81020052094FBF0F100FB1140B1
:1036A000034921F8102070BDCD2C0020D03A002015
:1036B000DA3A002010B5002400BF09E000212046BE
:1036C00005F0FAFE00212046FFF728F8601CC4B27E
:1036D0000A2CF3DB10BD70B505460E46002400BF72
:1036E0000DE0AC4209D0B44207D00021204605F0DD
:1036F000E3FE00212046FFF711F8601CC4B20A2C3B
:10370000EFDB70BD10B500200249087002A001F087
:1037100005F910BDF6010020626F782073706565B1
:103720006420646562756720636C6F7365207375D0
:1037300063636573730D0A0070B50446052094FB3E
:10374000F0F100FB1140C5B20021284605F07CFED7
:10375000052094FBF0F100FB1140024900220A54BD
:1037600070BD00006B2D00202DE9F041AEB0044685
:103770000026B0461D25002765894FF6FF7000EA38
:103780000525A0890543E6894FF6FF7000EA062665
:10379000208A064300BF08E00120B840284010B14D
:1037A0004FF0000803E0781CC7B2052FF4DB00BF20
:1037B0001D2D16D102F0CAFB28B13CA001F0AEF8D5
:1037C0000A2001F0EFFC0120ADF854000220ADF812
:1037D0005600022215A9002004F0F6FD2EB0BDE827
:1037E000F08101208DF8100008F0FF008DF8110025
:1037F0000EB1012000E000208DF8140002F0A6FBBD
:1038000050B142462DA108A8FEF712FB08A801F00E
:1038100085F80A2001F0C6FC9DF8110003F0ACFD0C
:103820009DF8110006F0CCFB9DF81100002105F079
:1038300075FE684602F03AF9DDE90001CDE90201C2
:103840009DF809009DF81110884209D101208DF8DA
:103850001D00DDE9060105F039FD04F08FFD0BE0E8
:10386000684602F023F9DDE90001CDE902019DF887
:103870000900012105F042FE9DF8110002F072FAE4
:10388000B0F52F7F06DD9DF8110000224FF4C871BE
:1038900006F0D8F90020ADF85400ADF85600022229
:1038A00015A9012004F090FD00BF97E7696420701E
:1038B0007261206572726F720D0A0000636C6F7323
:1038C000652074656D7020636F6E74726F6C20205C
:1038D00025642073756363657373210010B5002040
:1038E0000249087002A001F019F810BDF50100208E
:1038F00074667420636F6D207472616E736D697489
:1039000020636C6F736520737563636573730D0A51
:103910000000000070B5002400BF37E0204601F031
:10392000A1FE88B31B4830F81400401C194921F847
:103930001400194931F81400164931F8141000EB3D
:10394000D072B1EB620F09DD052094FBF0F100FBB2
:103950001140C5B20121284606F0E6FC0D4830F8BA
:1039600014000D4931F8141088420DDD002009497A
:1039700021F81400094908550021204605F034FAC1
:103980000021204605F098FC601CC4B2052CC5DB64
:1039900070BD0000D03A0020DA3A0020C12C00208F
:1039A000002000BF0BE00021064A22F81010064A52
:1039B00011546421054A22F81010411CC8B2052890
:1039C000F1DB7047D03A0020CD2C0020DA3A0020FD
:1039D0002DE9F04FCFB000204D904C904B90824697
:1039E0004A9083460026814600240025CA48007874
:1039F0000A2190FBF1F201FB120084B2C648407824
:103A000090FBF1F201FB120085B2E9B2E0B2FFF7E0
:103A100062FEC24830F8140000B2C14921F8140017
:103A2000BE4830F8150000B221F81500BD4830F846
:103A3000140031F81410401A00B2BB4921F81400E8
:103A4000B84830F81500B64931F81510401A00B2E0
:103A5000B54921F81500B548007858B9B04830F993
:103A60001400B3490988884204DD0120B149087077
:103A7000AE490870B048007858B9A94830F9150027
:103A8000AB490988884204DD0120AC490870AA4985
:103A90000870A8480078B0B1A848007898B1A84844
:103AA0000088401CA6490880A648008800EB8000DA
:103AB0000988B1EB400F06DD0020A14908809D492F
:103AC00008709E490870944800780A2190FBF1F232
:103AD00001FB1200944931F91000002850DD8E4896
:103AE00000780A2190FBF1F201FB1200C7B23846C0
:103AF00003F09CFF8C4931F91400FCF7CBFD07461D
:103B0000914801683846FCF7CDFB4B90864931F966
:103B10001400FCF7BFFD80468C4931F91400FCF716
:103B2000B9FD41461790FCF7B7FB07468848016886
:103B30003846FCF7B7FB824651464B98FCF75AFBD8
:103B40004D90794830F81400804921F814004D98C0
:103B5000FCF7AEFD06B2B6F57A7F01DD4FF47A765A
:103B6000002E00DA00267348007820B1E0B2002170
:103B700005F0AEFC09E0B1B2E0B205F0A9FC04E04A
:103B800000263146E0B205F0A3FC634840780A21E4
:103B900090FBF1F201FB1200634931F9100000289B
:103BA00054DD5D4840780A2190FBF1F201FB1200E0
:103BB000C7B2384603F03AFF5B4931F91500FCF70C
:103BC00069FD0746604801683846FCF76BFB4A9080
:103BD000554931F91500FCF75DFD80465B4931F927
:103BE0001500FCF757FD41461790FCF755FB0746BB
:103BF000554801683846FCF755FB834659464A98B4
:103C0000FCF7F8FA4C90484830F815004F4921F875
:103C100015004C98FCF74CFD0FFA80F9B9F57A7F46
:103C200001DD4FF47A79B9F1000F01DA4FF00009A4
:103C30004248007820B1E8B2002105F049FC0BE0D1
:103C40001FFA89F1E8B205F043FC05E04FF00009E6
:103C50004946E8B205F03CFC334830F914203D49B0
:103C60000A2006F0DDF958B12F4830F915206FF021
:103C700009010A2006F0D4F910B101203649087074
:103C800001F02AFFF0B35846FCF758FD0746884676
:103C90004A98FCF753FDCDE916015046FCF74EFD5E
:103CA000CDE914014B98FCF749FDCDE912012348F9
:103CB0000278204803781B4830F91500184931F97B
:103CC0001510CDE90B890A97CDE90F32CDE90D101A
:103CD000DDE91601CDE90801124830F91400104958
:103CE00031F91410CDE90461CDE90605DDE91401CF
:103CF000CDE90201DDE912012246CDE900011749B3
:103D000018A800E004E0FEF793F818A800F006FEFB
:103D10004FB0BDE8F08F0000AD2C0020583A0020D5
:103D20008A3A0020763A00209E3A0020B62C0020E5
:103D3000B22C0020BA2C0020B72C0020BB2C002075
:103D4000B82C0020B42C0020A42C0020B23A002073
:103D5000A82C002019FCFFFFAF2C0020FCAE0008AF
:103D600010B500F009F801210807FDF71DFB01213E
:103D70000020FDF7DDFA10BD1FB501214120FDF740
:103D800023FB4FF48070ADF80C0048208DF80F0035
:103D900003A91348FDF786F908210420FDF762F90D
:103DA0004FF48070009000208DF804000C208DF8F6
:103DB000050001208DF806006846FDF709F9172077
:103DC0008DF8080002208DF8090000208DF80A0007
:103DD00001208DF80B0002A8FDF768FA1FBD000056
:103DE0000018014010B502A000F098FD10BD0000C1
:103DF000436F7079726967687420286329203230B4
:103E000030312D3230313920436F6D6567656E6515
:103E1000204C4C432E0D0A416C6C2052696768742B
:103E2000732052657365727665642E0D0A0000007A
:103E3000084800880A2800DA7047002005490880F1
:103E40000548407820F0400040300349487000BFEA
:103E5000F2E700009A010020920100201648008835
:103E60000A2800DA704700201349088013480078B8
:103E700020F020002030114908700846007820F01A
:103E80004000403008700846407820F00100401C97
:103E900048700846407820F00400001D487008462D
:103EA000407820F008000830487005480088401C21
:103EB0000349088000BFD5E7980100209201002047
:103EC0009A0100201248007800F0010000B9704704
:103ED0000F48007820F001000D490870084600786E
:103EE00020F00400001D08700A480088401C0949A1
:103EF0000880084600880A2808DD00200880044859
:103F0000007820F00200801C0149087000BFDEE745
:103F10009201002094010020164800880A2800DA47
:103F200070470020134908801348007820F00800EB
:103F30000830114908700846007820F01000103051
:103F400008700846407820F00200801C487008463F
:103F5000407820F01000103048700846407820F07B
:103F600020002030487005480088401C0349088024
:103F700000BFD5E7960100209201002098010020A3
:103F80000C480078C0F3400000B970470948007839
:103F900020F00200074908700846007820F08000F1
:103FA0008030087004480088401C0349088000BF26
:103FB000EBE7000092010020960100202DE9F04778
:103FC000002419480078C0F3401008B9BDE8F08714
:103FD0001548007820F020001349087000241FE0E5
:103FE00040F6C411204601F08DFA104921F8140062
:103FF00031F81400FCF757FB82460D49FCF74CF9E9
:104000008146FCF79BFB07460A4A0B4BFCF7D3FAA9
:104010000546FCF77AFB094921F81400601CC4B27C
:104020000A2CDDDB00BFD1E792010020443A0020DA
:104030000000F043B81E85EB51B8FE3F583A00200F
:1040400010B592B0002401214802FDF7BDF94FF4EC
:104050000040FDF78DF900BF0FE0524830F8140022
:10406000ADF8300000208DF833004F4951F824009E
:104070000CA9FDF717F8601CC4B20A2CEDDB4B4805
:10408000FCF7B4FD00200D9001208DF838008DF86C
:1040900039004FF460200F90002010900A208DF816
:1040A00044000DA94148FCF7E3FD07230122042148
:1040B0003E48FCF705FE0723022205213B48FCF79A
:1040C000FFFD0723032206213848FCF7F9FD0723EB
:1040D000042219463548FCF7F3FD07230522082181
:1040E0003248FCF7EDFD0723062209212F48FCF793
:1040F000E7FD07231A460A212C48FCF7E1FD0723B8
:1041000008220B212948FCF7DBFD072309220C219B
:104110002648FCF7D5FD07230A220D212348FCF78A
:10412000CFFD01212148FCF756FD01211F48FCF776
:1041300047FD1E48FCF720FE00BF1C48FCF78EFD23
:104140000028FAD11948FCF727FE00BF1748FCF7F2
:104150007BFD0028FAD101210846FDF715F9144826
:10416000FCF72CFE11484C300190124802900020C0
:1041700003904FF47A700490002005908020069000
:1041800040000790800008902020099000020A90CB
:1041900000200B9001A90648FCF7B6FE05F0EAFAEC
:1041A00012B010BDE0010020B80100200024014041
:1041B000080002407432002038B5002401214FF479
:1041C000FE70FDF701F900BF1AE03D4830F8140019
:1041D000ADF8000010208DF8030003208DF80200D8
:1041E000384951F824006946FCF75CFF344A32F83C
:1041F0001410344A52F82400FDF731F8601CC4B2A0
:104200001B2CE2DB4FF40040ADF8000010208DF8CD
:10421000030003208DF802002A4951F82400694662
:10422000FCF740FF4FF400412748FDF71AF800243F
:1042300020E0264830F81400ADF800000E2C05DD13
:10424000142C03DA28208DF8030008E0052C03DA8B
:1042500004208DF8030002E048208DF803000320BD
:104260008DF802001A4951F824006946FCF71AFF3C
:10427000601CC4B2152CDCDB002409E001212046BF
:1042800006F052F80121204601F018F9601CC4B272
:10429000052CF3DB002405E00121204606F02AF975
:1042A000601CC4B2072CF7DB0121002002F088FB60
:1042B0000121084602F084FB012003F003F838BD19
:1042C0009C0000202C000020001C01402801002040
:1042D000D400002070B5002400251F480078C0F3EA
:1042E000800000B970BD1C48007820F004001A4915
:1042F000087000241FE0194830F81400A8B1681CA9
:10430000C5B2022D00DD18E0204601F07FFC144903
:104310000988884204DD01212046FEF7FFF908E004
:1043200000212046FEF7FAF903E000212046FEF7BF
:10433000F5F9601CC4B20A2CDDDB00BF0848008818
:10434000401C0749088008460088B0F57A7F01DDE7
:104350000020088000BFC5E792010020B02D00209A
:104360009001002010B588B0002401210220FDF743
:104370001BF801210920FDF727F801218E48FCF7E1
:104380001DFF0220ADF81C0018208DF81F0003202F
:104390008DF81E0007A98948FCF784FE41F26110E0
:1043A000ADF814000020ADF81000ADF81600ADF81F
:1043B000120004A98248FDF7DDFA6020ADF8000084
:1043C0000120ADF802000020ADF8080069467C48E5
:1043D000FDF71EFA08217A48FDF76CFA01217848AA
:1043E000FDF78BF901210846FCF7DEFF01210420CF
:1043F000FCF7EAFF2020ADF81C0018208DF81F0004
:1044000003208DF81E0007A96E48FCF74BFE41F211
:104410006110ADF814000020ADF81000ADF81600E2
:10442000ADF8120004A94FF08040FDF7A3FA602018
:10443000ADF800000120ADF802000020ADF8080042
:1044400069464FF08040FDF7E3F90821C806FDF703
:1044500031FA01218807FDF750F901210420FCF70A
:10446000A3FF01210820FCF7AFFF4020ADF81C009E
:1044700018208DF81F0003208DF81E0007A9514851
:10448000FCF710FE8020ADF81C0018208DF81F00EE
:1044900003208DF81E0007A94A48FCF703FE4FF4DD
:1044A0000070ADF81C0018208DF81F0003208DF857
:1044B0001E0007A94348FCF7F5FD41F26110ADF875
:1044C00014000020ADF81000ADF81600ADF8120091
:1044D00004A93D48FDF74EFA6020ADF80000012028
:1044E000ADF802000020ADF80600ADF808006946FE
:1044F0003548FDF737F96020ADF800000120ADF830
:1045000002000020ADF80600ADF8080069462E480C
:10451000FDF77EF96020ADF800000120ADF8020043
:104520000020ADF80600ADF8080069462648FDF702
:10453000CFF901212448FDF7ECF808212248FDF7C6
:104540005DF908212048FDF7B5F908211E48FDF75F
:10455000FDF901211C48FDF7C1F801211A48FDF7BA
:10456000CCF800BF05E00021084604F06DFF601C98
:10457000C4B2052CF7DB00241AE0144830F814000C
:10458000ADF81C0010208DF81F0003208DF81E00D0
:104590000F4951F8240007A9FCF784FD0B4A32F8B3
:1045A00014100B4A52F82400FCF759FE601CC4B2E8
:1045B0000A2CE2DB08B010BD00081A000008014018
:1045C00000040040000C0140000800407C01002075
:1045D0005401002010B5FFF775FCFFF7D1FCFFF781
:1045E0009BFCFFF73BFCFFF723FC10BD1FB501212F
:1045F0000820FCF7D9FE40F2CF20ADF808000920D2
:10460000ADF804000020ADF80A00ADF8060001A9DD
:104610000D48FDF7AFF9012211460B48FDF799F857
:1046200032208DF8000000208DF8010003208DF865
:10463000020001208DF803006846FCF737FE0121D7
:104640000148FDF75AF81FBD000C004010B503F0FB
:1046500083FD10BD00B587B001218803FCF7B4FECF
:104660004FF40070ADF8180003208DF81A001820E0
:104670008DF81B0006A97348FCF714FD4FF4806009
:10468000ADF8180004208DF81B0006A96D48FCF752
:1046900009FD25208DF8040003208DF80500022077
:1046A0008DF8060001208DF8070001A8FCF7FEFD3B
:1046B0004FF4E13002900020ADF80C00ADF80E0090
:1046C000ADF81000ADF814000C20ADF8120002A9EE
:1046D0005D48FDF737FB012240F225515A48FDF7AE
:1046E0000CFB002240F227715748FDF706FB012121
:1046F0005548FDF7CCFA01210420FCF765FE0121A5
:104700004804FCF751FE0820ADF8180004208DF88D
:104710001B0006A94B48FCF7C5FC0420ADF81800A7
:1047200003208DF81A0018208DF81B0006A94548B3
:10473000FCF7B8FC26208DF8040003208DF8050056
:1047400002208DF8060001208DF8070001A8FCF773
:10475000ADFD4FF4E13002900020ADF80C00ADF853
:104760000E00ADF81000ADF814000C20ADF81200EA
:1047700002A93648FDF7E6FA012240F225513348F6
:10478000FDF7BBFA002240F227713048FDF7B5FA79
:1047900001212E48FDF77BFA01210820FCF714FEC9
:1047A00001218804FCF700FE4FF40060ADF818000A
:1047B00004208DF81B0006A92548FCF773FC4FF474
:1047C0008060ADF8180003208DF81A0018208DF8CD
:1047D0001B0006A91E48FCF765FC4FF4E13002906F
:1047E0000020ADF80C00ADF80E00ADF81000ADF8EB
:1047F00014000C20ADF8120002A91648FDF7A2FA29
:10480000012240F225511348FDF777FA01211148A2
:10481000FDF73DFA4FF4A060FCF780FD27208DF8EE
:10482000040003208DF8050002208DF80600012009
:104830008DF8070001A8FCF739FD002003F07EFF8A
:1048400007B000BD000801400038014000440040AE
:10485000000C01400048004010B5FCF70DFD10BDF4
:1048600010B50120FCF758FE00BF6120FCF736FEB2
:104870000028FAD045F25550FCF712FD4020FCF715
:1048800003FD40F2E240FCF705FDFCF7F5FCFCF708
:10489000EBFC10BD0A48008808B9002070470848A2
:1048A0000088801E0749085C0D2807D1044800884D
:1048B000401E085C0A2801D10120EFE70020EDE747
:1048C0009C010020C42D002010B5FFF7C5FF0A2071
:1048D00000F068FC10BD000070B505460C46B4F54C
:1048E000967F00DD70BD224629460848FBF73CFC58
:1048F00007480480002007490880012240F2277100
:104900000548FDF7FAF900BFECE700001C30002075
:10491000A2010020A40100200038014070B5044627
:104920002046FBF745FC85B229462046FFF7D4FF19
:1049300070BD00002DE9F04FE1B000240026FEA07C
:1049400000686090A046A246A34600205F905E905B
:10495000002500275D905C905B905A9081464FF057
:104960007E502790FEF7A6FE00BF17E0F34830F810
:10497000140000B2F24921F81400204601F0A6F814
:1049800050B1F04830F81400ED4931F81410401AD5
:1049900000B2ED4921F81400601CC4B20A2CE5DB1A
:1049A000002422E0204601F091F8D8B104EBD47144
:1049B000C1F34700269401F06DF800B113E0E2481E
:1049C00030F91400002800DA0DE0701CC6B2404631
:1049D00008EBD0714910A8EB410160AA5454401C67
:1049E00000F0FF0800BF601CC4B20A2CDADB022E04
:1049F0007DDD00241DE00A2094FBF0F100FB114056
:104A0000C2B2104601F062F888B1601C0A2190FB26
:104A1000F1F301FB1300C2B2104601F057F830B1B8
:104A20008DF88041601CC0B28DF8810103E0601CEC
:104A3000C4B20A2CDFDB00BF4FF0000A00241FE0E5
:104A40006106080E01F042F8C0B16000BE4931F9BC
:104A50001000002804DA00206100BB4A22F811008F
:104A60006000B94931F91000504507DB600031F8AA
:104A700010001FFA80FA60064FEA106B601CC4B287
:104A8000052CDDDB8DF880B14FF0000A00242BE00F
:104A9000012101EB4401C8B201F018F810B3012064
:104AA00000EB4400A84931F91000002806DA002084
:104AB000012101EB4401A44A22F81100012000EB7E
:104AC0004400A14931F9100050450BDB012000EBF7
:104AD000440031F810001FFA80FA012000EB440076
:104AE00000F0FF0B601CC4B2052CD1DB00E001E03C
:104AF0008DF881B126B9FF209449087048700FE005
:104B0000012E06D19DF8800190490870FF20487061
:104B100006E09DF880018D4908709DF8810148707C
:104B2000002420E0204600F0D1FFD0B109F10100BF
:104B300000F0FF09B9F1060F13DBB9F1060F06D03B
:104B4000B9F1080F06D0B9F10A0F09D105E0804884
:104B5000279005E07F48279002E07F48279000BF1C
:104B600000BF601CC4B20A2CDCDB012E7ED19DF894
:104B700080010A2190FBF1F301FB1300C2B2104641
:104B800000F0A4FF002872D09DF880010A2190FB5C
:104B9000F1F201FB12006C4931F91000002871DDBF
:104BA0009DF880010A2190FBF1F201FB1200C0B2D6
:104BB000269002F03BFF9DF880010A2190FBF1F264
:104BC00001FB1201604830F911002490FBF762FDEF
:104BD0002590624801682598FBF764FB2690279989
:104BE000FBF760FB5D909DF88011574A32F9110088
:104BF000FBF750FD25909DF880010A2190FBF1F212
:104C000001FB1200564931F910002390FBF742FDD9
:104C100024902599FBF740FB26905248016826987E
:104C2000FBF740FB5C905C995D98FBF7E3FA5F90C3
:104C30009DF880010A2190FBF1F201FB120042492C
:104C400031F810009DF880110A2291FBF2F302FB6B
:104C50001311434A22F811005F98FBF729FD05B2B2
:104C6000B5F57A7F01DD4FF47A7502E011E03FE19E
:104C700008E0002D00DA0025A9B29DF8800104F0BB
:104C800027FC3CE1002529469DF8800104F020FC2A
:104C900035E19DF880010A2190FBF1F301FB13003F
:104CA000C2B2104600F012FF00287CD09DF88001AF
:104CB0000A2190FBF1F201FB1200234931F91000A7
:104CC000002871DD9DF880010A2190FBF1F201FBC3
:104CD0001200C0B2269002F0A9FE9DF880010A21C0
:104CE00090FBF1F201FB1200174931F910002490FA
:104CF000FBF7D0FC2590194801682598FBF7D2FAFC
:104D000026902799FBF7CEFA5D909DF880110E4A08
:104D100032F91100FBF7BEFC25909DF880010A21B5
:104D200090FBF1F201FB12000D4931F910002390C4
:104D3000FBF7B0FC249017E0FFFF0000583A00207A
:104D40008A3A0020763A00209E3A0020CB2C0020A0
:104D50009A99993F3333B33FCDCCCC3FA42C00205C
:104D6000B23A0020A82C00202599FBF795FA26904E
:104D7000B04801682698FBF795FA5C905C995D98BD
:104D8000FBF738FA5F909DF880010A2190FBF1F261
:104D900001FB1200A84931F810009DF880110A2289
:104DA00091FBF2F301E01DE016E002FB1311A34AB0
:104DB00022F811005F98FBF77BFC05B2B5F57A7F0E
:104DC00001DD4FF47A75002D00DA0025A9B29DF8B7
:104DD000800104F07DFB05E0002529469DF8800157
:104DE00004F076FB9DF881010A2190FBF1F301FBB1
:104DF0001300C2B2104600F069FE00287FD09DF873
:104E000081010A2190FBF1F201FB12008A4931F97C
:104E1000100000286DDD9DF881010A2190FBF1F260
:104E200001FB1200C0B2269002F000FE9DF8810145
:104E30000A2190FBF1F201FB12007F4931F91000C9
:104E40002490FBF727FC25907D4801682598FBF707
:104E500029FA26902799FBF725FA5B909DF8811196
:104E6000754A32F91100FBF715FC25909DF8810178
:104E70000A2190FBF1F201FB1200704931F9100098
:104E80002390FBF707FC24902599FBF705FA269061
:104E9000684801682698FBF705FA5A905A995B987A
:104EA000FBF7A8F95E909DF881010A2190FBF1F2D1
:104EB00001FB1200604931F810009DF881110A22AF
:104EC00091FBF2F302FB13115C4A22F811005E9889
:104ED000FBF7EEFB07B2B7F57A7F01DD4FF47A7787
:104EE000002F00DA0027B9B29DF8810104F0F0FA32
:104EF00005E0002739469DF8810104F0E9FA002415
:104F00000EE0204600F0E2FD40B14B4830F91400BD
:104F10000A2803DB01204B49087007E0601CC4B27B
:104F20000A2CEEDB00204749087000BF00F0D4FDDA
:104F300000287CD01EB944A0FFF7F0FC77E00420E5
:104F400000F0A8FD2690032000F0A4FD259002208B
:104F500000F0A0FD2490012000F09CFD2390002093
:104F600000F098FD22905A98FBF7E8FBCDE920016C
:104F70005B98FBF7E3FBCDE91E015C98FBF7DEFBDA
:104F8000CDE91C015D98FBF7D9FBCDE91A013A4840
:104F900000793949C978384A9278374B5B78CDE93E
:104FA0001532CDE9171034480078DDE9242326991D
:104FB000CDE91123CDE913109DF881212F4B33F951
:104FC00012209DF88131DFF8B8C03CF91330DDE9DB
:104FD0002210CDE90C73CDE90E211090DDE92001FE
:104FE000CDE90A01DDE91E01CDE908019DF8810145
:104FF0009DF88011214A32F911109DF880216346F5
:1050000033F91220CDE90452CDE90610DDE91C0187
:10501000CDE90201DDE91A01CDE900019DF8802109
:10502000184928A8FCF704FF28A8FFF777FC61B00F
:10503000BDE8F08FA82C00209E3A0020B23A002054
:10504000A42C0020B02C00207C20646563656E7465
:1050500072616C697A6564204D6F6465207C206E96
:105060006F20726F6164206E65656420636F6E747B
:10507000726F6C200D0A0000C12C0020763A0020CF
:105080008A3A002070AF000810B502A0FFF746FC76
:1050900010BD00006B65792030206576656E742048
:1050A00068617070656E64210D0A000010B502A081
:1050B000FFF734FC10BD00006B6579203120657668
:1050C000656E742068617070656E64210D0A000061
:1050D00010B502A0FFF722FC10BD00006B6579201F
:1050E00032206576656E742068617070656E64212B
:1050F0000D0A000010B502A0FFF710FC10BD000063
:105100006B65792033206576656E742068617070F8
:10511000656E64210D0A000010B502A0FFF7FEFBCA
:1051200010BD00006B65792034206576656E7420B3
:1051300068617070656E64210D0A000010B502A0F0
:10514000FFF7ECFB10BD00006B657920352065761C
:10515000656E742068617070656E64210D0A0000D0
:1051600010B56FF00400FCF75FFA0A4800680A49BE
:10517000B0FBF1F0094908700846007800EB4001E7
:10518000C1EBC0104FF6FF7101EAC000044908806E
:1051900010BD00000000002000127A001400002062
:1051A000160000200146114A12884A434FF0E023BE
:1051B0005A6100229A611A46126942F001021A618C
:1051C00000BF4FF0E022106900F001021AB100F4B4
:1051D0008032002AF5D04FF0E022126922F001025D
:1051E0004FF0E0231A6100229A61704716000020F8
:1051F00010B5044601F01EFC08B1002010BD164891
:10520000008800EB4000154911F81000207012488A
:10521000008800EB400001EB4000407860700E48D1
:10522000008800EB400001EB4000408860800A48A5
:10523000008800EB400001EB400000792071064837
:105240000088401C332190FBF1F201FB120002495F
:1052500008800120D2E70000E22C0020E43A002080
:1052600013B501F0F5FB08B100201CBD01F0E2FB15
:1052700018B39DF800002949098801EB4101284A2B
:1052800002F811009DF801002449098801EB410151
:1052900002EB41014870BDF802002049098801EB8A
:1052A000410102EB410148809DF804001B49098837
:1052B00001EB410102EB410108719DF80000194921
:1052C000098801EB4101164A02F811009DF801001E
:1052D0001449098801EB410102EB41014870BDF816
:1052E00002001049098801EB410102EB41014880AD
:1052F0009DF804000B49098801EB410102EB4101D3
:10530000087108480088401C332190FBF1F201FB32
:105310001200044908800120A7E70000E22C0020C9
:10532000E43A0020E42C00202DE9F041A6B000244E
:1053300000270025A046002600BF09E04148005D87
:10534000202803D123A8C455781CC7B2601CC4B25E
:105350003D4800888442F1DB022F05D03BA0FFF7D7
:10536000DDFA26B0BDE8F0819DF88C00401CC4B287
:1053700013E03448005D1EA948551EA8405D302842
:1053800003DB1EA8405D392803DD30A0FFF7C6FA15
:10539000E7E7681CC5B2601CC4B29DF88D00A0424E
:1053A000E7DC00201EA9485500259DF88D00401C13
:1053B000C4B213E02348005D19A9485519A8405DFF
:1053C000302803DB19A8405D392803DD1FA0FFF753
:1053D000A5FAC6E7681CC5B2601CC4B21A480088AA
:1053E000801EA042E6DC002019A948551EA8FAF745
:1053F000F4FE1FFA80F819A8FAF7EFFE86B2B8F1AA
:10540000040F03DD15A0FFF789FAAAE7012E04D0E7
:105410001EB11AA0FFF782FAA3E70EB1012200E045
:105420000022114608F0FF0003F0E4FC3346424638
:105430001AA16846FCF7FCFC6846FFF76FFA00BF4C
:105440008FE70000C42D00209C010020636F6D6D6C
:10545000616E64206572726F720D0A00696420705B
:105460007261206572726F72202C706C6561736559
:1054700020696E70757420302D34000073772070B1
:105480007261206572726F72202C706C6561736539
:1054900020696E70757420302F31000073657420A0
:1054A00066616E20636F6E20256420617320256421
:1054B00020737563636573730D0A000070B504464D
:1054C0000D4655B104F10E02094B33F81210094B89
:1054D00053F82200FBF7C5FE09E004F10E02044B6D
:1054E00033F81210034B53F82200FBF7B8FE70BDDF
:1054F0009C0000202C00002001480068704700003C
:10550000442D00202DE9F04F87B082468B460024C1
:10551000A1460020069000BF09E004EB8400184972
:1055200001EB800030F81A008144601C84B2642CC6
:10553000F3DB6420B9FBF0F95846FBF7B4F80746F3
:10554000FBF7FCF805460E464846FBF7ACF8019021
:10555000FBF7F4F8074600220A4BFBF72CF82A4623
:105560003346CDE90201FAF7B4FFCDE90401FBF7B8
:10557000CCF880B20690069807B0BDE8F08F000026
:10558000743200200000B0400148007870470000ED
:10559000F60100200146052091FBF0F200FB1210FD
:1055A000014A105C70470000D22C002010B500208A
:1055B000FFF7F0FF044634B1012C08D0022C0AD0CA
:1055C000032C10D10BE009A0FFF7A8F90BE00DA008
:1055D000FFF7A4F907E014A0FFF7A0F903E01BA070
:1055E000FFF79CF900BF00BF10BD00006E6F775F32
:1055F000737461747573203A626F785F6F66660DBD
:105600000A0000006E6F775F737461747573203ADF
:10561000626F785F72756E6E696E675F666F7277C4
:105620006172640D0A0000006E6F775F73746174BD
:105630007573203A626F785F72756E6E696E675F20
:105640006261636B776172640D0A00006E6F775F51
:10565000737461747573203A626F785F6F6E0D0AB0
:105660000000000001460148405C7047CD2C00203E
:1056700001460A4601EBD2704010A1EB4000014BFD
:10568000185C7047AD2C002001480078704700007E
:10569000AF2C002030B599B00024002500BF13E0E6
:1056A00040F6C4112046FFF72DFF05462B46224643
:1056B00007A16846FCF7BCFB6846FFF72FF90A20F4
:1056C000FFF770FD601CC4B20A2CE9DB19B030BDD5
:1056D0003E3E3E2061646320256420766F6C7461D9
:1056E0006765206973202564206D56200D0A00002F
:1056F0000148007870470000B02C002001460A469F
:1057000001EBD2704010A1EB4000014B185C7047D8
:10571000CB2C00200146052091FBF0F200FB12107B
:10572000014A105C70470000A72D002010B500F062
:105730001FFC06281CD2DFE800F003070B0F13172D
:105740000DA0FFF7EBF814E014A0FFF7E7F810E066
:105750001CA0FFF7E3F80CE024A0FFF7DFF808E057
:105760002BA0FFF7DBF804E031A0FFF7D7F800E04B
:1057700000BF00BF10BD00004E6F772073746174CE
:105780007573203A206E6F5F696E6A656374696F26
:105790006E5F7461736B0D0A000000004E6F77201E
:1057A000737461747573203A206368616E67655F16
:1057B00077617465725F6F75745F7374617475730C
:1057C0000D0A00004E6F7720737461747573203A70
:1057D000206368616E67655F77617465725F696E8B
:1057E0005F7374617475730D0A0000004E6F77204B
:1057F000737461747573203A206368616E67655FC6
:1058000077617465725F646F6E650D0A0000000059
:105810004E6F7720737461747573203A206F7574BE
:105820005F77617465725F7374617475730D0A00DC
:105830004E6F7720737461747573203A206F75749E
:105840005F77617465725F646F6E650D0A000000BA
:1058500030B599B00024002500BF17E0204600F0C5
:1058600039F805462DB122460AA16846FCF7E0FA50
:1058700004E022460FA16846FCF7DAFA6846FFF713
:105880004DF80A20FFF78EFC601CC4B2062CE5DB45
:1058900019B030BD3E3E3E206B65792025642076F0
:1058A0006F6C746167652069732074727565200D73
:1058B0000A0000003E3E3E206B657920256420767C
:1058C0006F6C746167652069732066616C73652015
:1058D000200D0A0010B5044604F10F02064B33F800
:1058E0001210064B53F82200FBF7B0FC08B1012060
:1058F00010BD0020FCE7000028010020D40000209B
:105900000148007870470000A62D002030B599B0FE
:105910000024002500BF17E0204600F03DF80546B2
:105920002DB122460AA16846FCF782FA04E022461D
:1059300010A16846FCF77CFA6846FEF7EFFF0A20E4
:10594000FFF730FC601CC4B20A2CE5DB19B030BD97
:105950003E3E3E206C697175696420256420766F37
:105960006C746167652069732074727565200D0A17
:10597000000000003E3E3E206C6971756964202580
:105980006420766F6C746167652069732066616C52
:105990007365200D0A00000010B50446064A32F86F
:1059A0001410064A52F82400FBF750FC08B10120FD
:1059B00010BD0020FCE7000028010020D4000020DA
:1059C00030B599B00024002500BF17E0204600F054
:1059D00041F805462DB122460AA16846FCF728FA8F
:1059E00004E0224611A16846FCF722FA6846FEF759
:1059F00095FF0A20FFF7D6FB601CC4B20A2CE5DB3A
:105A000019B030BD3E3E3E206D6F746F72206C69E0
:105A10006D697420256420766F6C746167652069F8
:105A2000732074727565200D0A0000003E3E3E2012
:105A30006D6F746F72206C696D69742025642076B7
:105A40006F6C746167652069732066616C73652093
:105A50000D0A000010B50446621D064B33F8121003
:105A6000054B53F82200FBF7F1FB08B1012010BDF4
:105A70000020FCE728010020D4000020014605207A
:105A800091FBF0F200FB1210014A105C704700001D
:105A90006B2D00200146052091FBF0F200FB121057
:105AA000014A105C70470000BC2C00200CB5064970
:105AB0000A6800928988ADF8041000990160BDF869
:105AC000041081800CBD0000EC2C00200146014830
:105AD000405C70476C3A0020014800787047000035
