:020000040800F2
:10000000401C00203D02000845020008470200088D
:10001000490200084B0200084D02000800000000E1
:100020000000000000000000000000004F02000877
:1000300051020008000000005302000855020008A9
:10004000570200085702000857020008570200082C
:10005000570200085702000857020008570200081C
:10006000570200085702000857020008570200080C
:1000700057020008570200085702000857020008FC
:1000800057020008570200085702000857020008EC
:1000900057020008570200085702000857020008DC
:1000A00057020008570200085702000857020008CC
:1000B00057020008570200085702000857020008BC
:1000C00057020008570200085702000857020008AC
:1000D00057020008C1220008C12300086924000853
:1000E000570200085702000857020008570200088C
:1000F000570200085702000857020008570200087C
:100100005702000857020008591F0008570200084C
:10011000570200085702000857020008570200085B
:10012000570200085702000857020008570200084B
:1001300000F002F800F073F80AA090E8000C824486
:100140008344AAF10107DA4501D100F068F8AFF263
:10015000090EBAE80F0013F0010F18BFFB1A43F0A5
:1001600001031847B06B0000D06B00000A444FF049
:10017000000C10F8013B13F0070408BF10F8014B06
:100180001D1108BF10F8015B641E05D010F8016B4B
:10019000641E01F8016BF9D113F0080F1EBF10F8AF
:1001A000014BAD1C0C1B09D16D1E58BF01F801CBD2
:1001B000FAD505E014F8016B01F8016B6D1EF9D555
:1001C0009142D6D37047000000230024002500266A
:1001D000103A28BF78C1FBD8520728BF30C148BFAA
:1001E0000B607047662906F0E484642900F0B8804B
:1001F000732900F06484002070471FB500F000FDF3
:1002000004000020002105F0EDFF401C606000208C
:10021000002105F0D1FFE0601FBD10B510BD00F05A
:100220003BFE1146FFF7E9FF04F098FC00F067FE83
:1002300003B4FFF7F2FF03BC00F06AFE09488047F1
:1002400009480047FEE7FEE7FEE7FEE7FEE7FEE7B8
:10025000FEE7FEE7FEE7FEE704480549054A064BD0
:1002600070470000F91E0008310100084016002008
:10027000401C002040180020401800200FB41CB57E
:10028000074B06AA7B4469460090059800F0EDFBF9
:100290000020694600F0FCFB1CBC5DF814FB00006C
:1002A000090800002DE9F0410E46044600202062B6
:1002B0002046E168884730B3252805D0D4E90121DC
:1002C0009047206A401CF2E7E168204600278847F3
:1002D000050018D0A5F14100192802D820354FF4A7
:1002E00000673246294620462760FFF77BFF40B172
:1002F000012804D0F61D26F007060836D8E7361D7B
:10030000D6E72846DAE7206ABDE8F08170B50C46EA
:100310000546012A05D02878800600D5EA69002321
:1003200002E0012305E05B1C934202D2E05C00285E
:10033000F9D1A869E618C01AA861286A1844286289
:100340002846AFF3008004E0D5E9012114F8010B41
:100350009047B442F8D32846AFF3008070BD000048
:100360002DE9F0410646002410687529314616A58E
:1003700010D0AFF30080002802DA404213A507E056
:1003800031688A0701D512A502E0490704D511A5F5
:10039000012401E0AFF3008000210A2206F12407C6
:1003A00009E0B0FBF2FCB0FBF2F302FB1C003030C2
:1003B00078541846491C0028F3D123462A46304673
:1003C000BDE8F04100F0E4B8000000002D0000009E
:1003D0002B0000002000000070B5064600F0D4F8A5
:1003E0000468054630460A22002100F06CFB2C60B0
:1003F00070BD10B5431C02E010F8011B71B18107FC
:10040000FAD14FF0013202C88C1A8C4314EAC2119F
:10041000F9D0C01A0A0603D0C01E10BDC01A10BD04
:100420000A0401D0801E10BD0902FCD0401E10BD80
:10043000032A40F2308010F0030C00F0158011F810
:10044000013BBCF1020F624498BF11F801CB00F8E8
:10045000013B38BF11F8013BA2F1040298BF00F83C
:1004600001CB38BF00F8013B11F0030300F06383B8
:10047000083AC0F0088051F8043B083A51F804CB20
:10048000A0E80810F5E7121D5CBF51F8043B40F8E6
:10049000043BAFF30080D20724BF11F8013B11F8F1
:1004A00001CB48BF11F8012B24BF00F8013B00F835
:1004B00001CB48BF00F8012B70474FF00002042920
:1004C000C0F0128010F0030C00F06983CCF1040C32
:1004D000BCF1020F18BF00F8012BA8BF20F8022BB7
:1004E000A1EB0C0100F05BBB5FEAC17C24BF00F80C
:1004F000012B00F8012B48BF00F8012B70470000CA
:100500004FF0013C50F8042B51F8043B9A4221D1A2
:10051000A2EB0C03934313EACC1317D150F8042B2E
:1005200051F8043B9A4215D1A2EB0C03934313EA12
:10053000CC130BD150F8042B51F8043B9A4209D14B
:10054000A2EB0C03934313EACC13DBD04FF0000073
:10055000704700BFD01A01BAB1FA81F101F0180159
:1005600022FA01F0CB40C1F12001DBB2C0B2C01AC7
:100570002CFA01F3D11A914311EAC311E6D1704765
:10058000704770477047000000487047E015002032
:100590002DE9F0470D4699469246044600F124089D
:1005A0000168880604D5E06921F01001216000E0AF
:1005B0000120A84201DD471B00E00027A1697A194C
:1005C00002EB0900081AA0612078C00602D4204678
:1005D000AFF30080002608E0D4E901211AF80600F4
:1005E0009047206A401C761C20624E45F4DB207840
:1005F000C0060AD52046AFF3008006E0D4E9012109
:1006000030209047206A401C2062381EA7F1010765
:10061000F4DC07E0D4E9012118F805009047206ACE
:10062000401C2062281EA5F10105F3DC2046AFF333
:1006300000802078000602D50220BDE8F087012066
:10064000FBE770472DE9FF4F0C461E464FF0FF3782
:100650008BB0D2E90001DDF860800A908A46C1F3D0
:100660000A5505B93D46002108464FF00000BAF191
:10067000000F00F4400005DA00EB80004FF4400169
:1006800001EA50004FEA9059B9F1010F00DDB94677
:100690000A9850EA4A000ED044F61050A5F2FF35F1
:1006A00045432F14B8F1000F1ED07542291E1EDDE0
:1006B000C9F100021CE0B8F1010F4FF0000001D0B9
:1006C000302103E0F24305E02154401CB042FBDB43
:1006D00030460022002121540B99C1F80880C1E95D
:1006E00000200FB0BDE8F08FBD1B6D1CDEE74A4651
:1006F00000DA694206A800F05DFB06AB93E807004C
:1007000003AB83E8070050460A9900F008FC8DE827
:100710000700A0F500501F3800900398002D0ADD57
:1007200042F21F014A460844002303A90390684689
:1007300000F071FE09E0A0F500504A461F38002382
:1007400003A90390684600F07BFE8DE807000004D3
:10075000000C03D04FF0FF30410800E01046B8F124
:10076000000F03D00022009215461EE0751E05D42E
:1007700000F04AFA303262556D1EF9D5B3460122B7
:10078000084302D000227F1C04E02078302801D1E9
:1007900000227F1E002A099784D01DE0112D07DA60
:1007A00000F032FA303262556D1C50EA0102F5D188
:1007B000084302D00098C8B10EE00021681E05E091
:1007C000235C625C63542254401E491C8142F7DB67
:1007D000AB46A81B401E0990002004F80B000B98A4
:1007E000099AC0F80880C0E9002B7AE711264FF07B
:1007F000000857E72DE9F04F88460446D21D22F045
:10080000070191B0D1E90001CDE90A0101F05DFFD6
:1008100002460B98C00F01D02D2007E02068810709
:1008200001D52B2002E0202101EAC000032A099013
:1008300001D0072A05DB03464146204600F02AFA8C
:100840000BE12078800601D5E06900E00620B8F1D0
:10085000650F814606D0B8F1660F18D0B8F1670F62
:1008600070D131E00020B9F1110F009001DB1123AC
:1008700001E009F101030AAA01A90CA8FFF7E2FEB1
:10088000DDE90C70002609F10105834647E00120EF
:100890004B4600904FF000470AAA01A90CA8FFF7A9
:1008A000D1FEDDE90DB00C995D46002610B909F1C5
:1008B00001000D18B9EB050003D4C0F1FF3609F1B2
:1008C0000105A5EB09002BE0B9F1010F01DA4FF0AA
:1008D00001090020B9F1110F0090484601DD1123F4
:1008E00000E003460AAA01A90CA8FFF7ABFEDDE968
:1008F0000C704D4600268346207800070AD4AB458D
:1009000000DA5D4601A8012D04DD411911F8011C32
:10091000302907D04F4502DA17F1040F04DA01201D
:1009200082460FE06D1EEEE7002F02DCED1B3E4419
:1009300003E0781CA84200DD7D1CB81B00F1010A11
:100940004FF000472078000703D4AA4501DB4FF0A1
:10095000FF3A0021B7F1004F0DF143088DF8431025
:1009600024D002202B23002F01DA7F422D230A21DD
:10097000021EA0F1010000DC5FB197FBF1FC97FBC8
:10098000F1F201FB1C7C17460CF1300C08F801CD8C
:10099000EEE7A8F1010003702188090501D5452182
:1009A00000E06521A0F1010800F8011C09980FA9D9
:1009B000A1EB0807FF1D00B10120411901EBEA700E
:1009C000A1693844081A401EA0612078C00602D4EC
:1009D0002046AFF30080099828B1D4E9012190475F
:1009E000206A401C20622078C00622D52046AFF342
:1009F00000801EE0002E04DBB34502DD01A8805D0F
:100A000000E03020D4E901219047206A401C206298
:100A1000761CAAF101005FEA000A0AD100F0F0F8A2
:100A2000C0680168405CD4E901219047206A401CFD
:100A30002062281EA5F10105DCDC07E0D4E90121D4
:100A400018F8010B9047206A401C2062381EA7F15D
:100A50000107F3DC2046AFF30080032011B041E62C
:100A600001694A1C02610878704700B58FB0CDE972
:100A700001310021059105497944CDE90310114662
:100A80006846FFF70FFC0FB000BD0000E5FFFFFF59
:100A90000A6802F8010B0A60704710B5436913B188
:100AA000AFF3008001E0FFF731FC012010BD1278A8
:100AB00000F124010A7000224A700122EDE711685A
:100AC0004FF0FF32E9E72DE9F04791460F468046A7
:100AD0000446002614F8015B2DB100F089F8006887
:100AE000405DC007F6D12B2D02D02D2D18D0641EED
:100AF0004A463946204600F00DF927B13968A1422F
:100B000001D1C7F800804FF0020471050BD54042B7
:100B1000002803DDFFF738FD0460A007BDE8F0877B
:100B200046F48066E4E70028F8DAFFF72DFD04605C
:100B30006FF00040F2E710B5203AC0F00B80B1E84A
:100B40001850203AA0E81850B1E81850A0E8185002
:100B5000BFF4F5AF5FEA027C24BFB1E81850A0E80B
:100B6000185044BF18C918C0BDE810405FEA827C25
:100B700024BF51F8043B40F8043B08BF7047D2073C
:100B800028BF31F8023B48BF11F8012B28BF20F8DD
:100B9000023B48BF00F8012B70474FF0000200B540
:100BA000134694469646203922BFA0E80C50A0E890
:100BB0000C50B1F12001BFF4F7AF090728BFA0E83E
:100BC0000C5048BF0CC05DF804EB890028BF40F80A
:100BD000042B08BF704748BF20F8022B11F0804F4C
:100BE00018BF00F8012B704700487047E01500203F
:100BF00010B500F005F8001D10BD00BFE95500005C
:100C0000004870470016002030B5B0F10A024FEAE4
:100C1000900E71F100034EEA817EB0EB0E0061EBA5
:100C200091014FEA101E4EEA017E10EB0E0041EBDF
:100C300011114FEA102E4EEA016E10EB0E0041EB3F
:100C400011214FEA104E4EEA014E10EB0E0041EB1F
:100C50001141401841F100014FEAD00040EA4170D3
:100C60004FEAD10110EB80054FEA810444EA907409
:100C700044EB01046D1944EB0404521BA3414FF0F3
:100C8000000348BF0A3200D530BD401C41F10001CD
:100C900030BD00002DE9F0411F46044603260168DF
:100CA000072A01F4006004DB08B116A505E016A5CB
:100CB00003E008B115A500E015A521F010002060A3
:100CC000A069C01EA0610FB1401EA0612046AFF315
:100CD00000804FB1D4E9012138469047206A401C7A
:100CE0002062C01C206206E0206AFAE7D4E90121F4
:100CF00015F8010B9047761EF8D22046AFF300801E
:100D0000BDE8F0814E414E006E616E00494E4600D6
:100D1000696E66002DE9F05F824615468B46002716
:100D20000AF10104B9460078302801D09DB113E0E2
:100D300014F8010B0127782803D0582801D045B1B9
:100D40000AE00DB1102D07D1002714F8010B102572
:100D500002E0082500E00A250026B0460EE005FB6B
:100D6000080005FB06F101271FFA80F801EB104689
:100D7000B6F5803F00D3B94614F8010B294600F0C0
:100D8000B0F80028EBDABBF1000F05D00FB1641EFC
:100D900000E05446CBF80040B9F1000F06D0FFF751
:100DA000F3FB02210160C81EBDE8F09F48EA06403F
:100DB000FAE700002DE9F047814616468AB035482B
:100DC00078440DC88DE80D0032487844801C03AC8F
:100DD0000DC884E80D0041F69B300844372190FB94
:100DE000F1F290FBF1F5A5F1800501FB12041B3C2B
:100DF00002D56442012000E00020DFF898A0804680
:100E00000027FA44AAF1BE0A0EE0E0070AD03246F3
:100E1000684607EB470101230AEB810100F010FB54
:100E20008DE8070064107F1C002CEED1194F7F4421
:100E3000AE3F19E0E80715D007EB04100DF1180AD2
:100E400090E80E008AE80E00C068F04201D19819BF
:100E500008903246012306A903A800F0F1FA03AB7B
:100E600083E807006D10641C002DE3D14FF00103EF
:100E700032466946B8F1000F03A802D000F0CBFA61
:100E800001E000F0DDFAC9E90001C9F808200AB064
:100E9000BDE8F087385F00007546FFF7A5FEAE4657
:100EA00005006946534620F00700854618B020B576
:100EB000FFF7D2F9BDE820404FF000064FF00007E1
:100EC0004FF000084FF0000B21F00701AC46ACE8F2
:100ED000C009ACE8C009ACE8C009ACE8C0098D465F
:100EE00070473A2800D2303820F02002412A01D33E
:100EF000A2F13700884201D34FF0FF30704710B5A0
:100F00000446AFF300802046BDE81040FFF790B9DB
:100F100001491820ABBEFEE72600020070475FEAD9
:100F2000400C08BF91F0000F4FEA8C234FEAC1221A
:100F300043EA51514FEA1C5018BF00F5F0404FEA08
:100F4000300018BF41F000415FEA6C5C00F029807E
:100F5000BCF1FF3F08BF40F080407047130C06BF54
:100F600012044FF0100C4FF0000C130E04BF1202CD
:100F70000CF1080C130F04BF12010CF1040C930FB9
:100F800004BF92000CF1020CD30F04BF52000CF10D
:100F9000010C11464FF00002A0F11F00A0EB0C0065
:100FA000704711F0004F08BF704731F000413FF427
:100FB000D5AF0B0C06BF09044FF0100C4FF0000C1E
:100FC0000B0E04BF09020CF1080C0B0F04BF090142
:100FD0000CF1040C8B0F04BF89000CF1020CCB0F39
:100FE00004BF49000CF1010CCCF12003A0EB0C0074
:100FF00022FA03F302FA0CF241EA030100F10100C4
:10100000704720F07F4C80EA030023F07F47ACEB71
:10101000070303F57C5300F0004003F1FF032DE9C3
:1010200080494FEA154B09B44FEA144325EA0B4EA9
:1010300024EA03480FF2042606EB132749083E78FA
:101040005FEA320203FB0667C7F5000707FB06F6F7
:101050004FEA54374FEAD64606F1020607FB066C04
:10106000CCF1005C4FEA1C472CEA074C07FB06F466
:101070000CFB06F504EB15464FEA961634BF00202C
:101080004FF000404FEAD13706FB07FC4FEA1C4CFB
:101090000CFB0BF7D21B03FB0CF761EB07010CFBFE
:1010A0000EF7B0EB074072EB17420CFB08F734BFAA
:1010B000A2EB0742B2EB074261EB17414FEA0C4447
:1010C0004FEA910706FB07FC4FEA1C4C0CFB0BF7A1
:1010D000B0EBC74072EB573203FB0CF734BFA2EB07
:1010E000C742B2EBC74261EB57310CFB0EF7B0EBD6
:1010F000C70072EB57720CFB08F734BFA2EBC702B4
:10110000B2EBC70261EB5771039F4FEA816141EA7D
:10111000921104EBCC044FEAD1374FEA826206FB0E
:1011200007FC42EA90124FEA80604FEA1C4C0CFB2D
:101130000BF7D21B03FB0CF761EB07010CFB0EF75F
:10114000B0EB074072EB17420CFB08F734BFA2EB81
:101150000742B2EB074261EB17414FEA8C554FEA69
:10116000910704EB9C2406FB07FC4FEA1C4C0CFB8C
:101170000BF7B0EBC74072EB573203FB0CF734BFF1
:10118000A2EBC742B2EBC74261EB57310CFB0EF743
:10119000B0EBC70072EB57720CFB08F734BFA2EB41
:1011A000C702B2EBC70261EB577115EB4C254FEA52
:1011B000816141EA92114FEA82624FEAD13742EAF5
:1011C000901206FB07FC44F100044FEA80604FEAEE
:1011D0001C4C0CFB0BF7D21B03FB0CF761EB07015C
:1011E0000CFB0EF7B0EB074072EB17420CFB08F755
:1011F00034BFA2EB0742B2EB074261EB174115EB9C
:101200001C154FEA813141EA92414FEA823242EAAB
:1012100090424FEA80304FEA0C7644F1000448EAED
:1012200003434EEA0B484FF0000EB2EB080C71EB93
:10123000030724BF624639464EEB0E0E4FF0000BFB
:101240000018524149414BEB0B0BB2EB080C71EB10
:1012500003077BF1000B24BF624639464EEB0E0EAE
:101260004FF0000B0018524149414BEB0B0BB2EB16
:10127000080C71EB03077BF1000B24BF6246394673
:101280004EEB0E0E51EA020718BF46F0010616EBB0
:101290000E7655F1000254F1000103D5BDE8890135
:1012A000BDE80088BDE88901BDE80048B619524193
:1012B00041EB0101A3F10103704780807F7E7D7CBB
:1012C0007B7A7978777676757473727171706F6ED8
:1012D0006E6D6C6C6B6A6A69686867666665646483
:1012E000636362616160605F5F5E5E5D5D5C5C5B0D
:1012F0005B5A5A595958585757565655555554547C
:10130000535352525251515050504F4F4F4E4E4DD9
:101310004D4D4C4C4C4B4B4B4A4A4A494949484825
:101320004847474747464646454545444444444365
:1013300043434342424242414141002B9C4630D408
:1013400077002BD01CB54FEA370703B44FF01000DD
:101350004FF01001BAF1000F06D0BCF1000FDCBF56
:1013600040F0080040F008014FF000000FBCBDE85D
:1013700010400BF1010BBBF1010F08BF5FEA17072B
:1013800022BF12F1010211F101014FF0004143F1BE
:10139000000300F0004043EA00007047F9D357080B
:1013A000D0E746EA064613F1400F4FEA16461FDD26
:1013B00013F1200FDFBF16430A46002120335B42A2
:1013C000BED0C3F1200746EA064602FA07F74FEA05
:1013D000164646EA0706C3F1200722FA03F201FA8D
:1013E00007F721FA03F14FF0000342EA0702A7E7EB
:1013F00046EA020646EA06464FEA164646EA01066D
:10140000BCBF46EA0646360C4FF000034FF0000220
:101410004FF0000194E72DE9804C9A46934670B452
:1014200091E8380007C831EA400C48BF34EA430C61
:1014300003D5FFF7E6FDFFF780FFF0BCBDE8008CA9
:101440002DE9804C9A46934670B491E8380007C85D
:1014500010F0804F08BF13F0804F03D100F005F863
:10146000FFF76BFFF0BCBDE8008C20F07F4780EAFF
:10147000030023F07F4C07EB0C03A3F57C5300F033
:101480000040A3F1FE0392F0000F00F0B38095F04E
:10149000000F00F077802DE901494FEA11404FEA33
:1014A000144621EA004800FB06FC24EA064708FB34
:1014B00006F607FB08F800FB07F718EB06484CEBAD
:1014C000164C4FEA124B18EB07484FEA15464CEB07
:1014D000174022EA0B4E0BFB06FC25EA06470EFBE3
:1014E00006F607FB0EFE0BFB07F71EEB064E4CEB5A
:1014F000164C4FF000061EEB074E4CEB174B18EB4B
:101500000B0840F1000018EB0E0B58EB000840F1FF
:1015100000008F1A4FF000013CBFC943661B14BF87
:10152000B5EB040C00213CBFC943F61B4FEA17443E
:101530004EEA8E0E27EA04454FEA1C4704FB076279
:101540002CEA074C05FB07F70CFB05F604FB0CFC2B
:1015500016EB074642EB174216EB0C4642EB1C42D9
:101560001BEB060658EB0202414146EA9E0601D5F6
:10157000BDE80189B619524141EB0101A3F1010314
:10158000BDE801894FEA14454FEA114724EA0546B0
:1015900021EA074C05FB07F406FB07F70CFB06F1F5
:1015A00005FB0CFC11EB074144EB17444FEA1247D3
:1015B00011EB0C4144EB1C4422EA074C05FB07F2FB
:1015C00006FB07F70CFB06F605FB0CFC16EB0746C3
:1015D00042EB174216EB0C4642EB1C456A1854F1DD
:1015E000000148BF7047B619524141EB0101A3F118
:1015F0000103704795F0000F37D04FEA11424FEAD0
:10160000144721EA024624EA074C02FB07F106FBD5
:1016100007F70CFB06F402FB0CFC14EB074441EB50
:1016200017414FEA154714EB0C4441EB1C4125EAE6
:10163000074C02FB07F506FB07F70CFB06F602FB5F
:101640000CFC16EB074645EB174516EB0C4645EB35
:101650001C42121951F1000148BF7047B61952419E
:1016600041EB0101A3F1010370474FEA14454FEA32
:10167000114724EA054621EA074C05FB07F106FB62
:1016800007F70CFB06F24FF0000605FB0CFC12EB13
:10169000074241EB174112EB0C4251EB1C4148BF92
:1016A0007047921841EB0101A3F10103704721B18A
:1016B000826842F00102826003E0826822F0010247
:1016C0008260704721B1826842F48072826003E0D8
:1016D000826822F4807282607047000010B5044670
:1016E0001248844208D10121401500F003FB00217B
:1016F000601500F0FFFA17E00D48844208D101217F
:10170000001500F0F7FA0021201500F0F3FA0BE0C5
:101710000848844208D10121C80300F0EBFA0021F7
:101720004FF4004000F0E6FA10BD00000024014034
:1017300000280140003C0140014600208A6802F078
:1017400004020AB1012000E0002070470146002099
:101750008A6802F008020AB1012000E00020704708
:1017600030B502460020002350680F4C20400D7910
:101770000C6844EA05242043506090680B4C2040DC
:10178000D1E902542C434D7944EA4504204390604A
:10179000D06A20F470000C7C641EE4B2234340EA5B
:1017A0000350D06230BD0000FFFEF0FFFDF7F1FFF7
:1017B000F0B504460D4600200021092D11DDE0683A
:1017C000A5F10A0606EB4607072606FA07F1884345
:1017D000A5F10A0606EB460603FA06F10843E060A7
:1017E0000CE0206905EB4507072606FA07F1884358
:1017F00005EB450603FA06F108432061072A0FDAD4
:10180000606B561E06EB86071F2606FA07F1884313
:10181000561E06EB860605FA06F10843606322E0D1
:101820000D2A0FDA206BD61F06EB86071F2606FA55
:1018300007F18843D61F06EB860605FA06F1084332
:10184000206310E0E06AA2F10D0606EB86071F2672
:1018500006FA07F18843A2F10D0606EB860605FAA3
:1018600006F10843E062F0BD816841F00801816043
:10187000704721B1826842F4A002826003E082686E
:1018800022F4A00282607047816841F00401816007
:10189000704721B1026842F00102026004E0026870
:1018A0004FF6FE731A4002607047000001684FF661
:1018B000FE72114001600021016041608160C160E1
:1018C0004B49884208D14A490839496841F00F011B
:1018D000474A083A51608AE045491431884208D1A4
:1018E00043490839496841F0F001414A083A5160DA
:1018F0007DE03F492831884208D13D49083949688F
:1019000041F470613A4A083A516070E038493C311C
:10191000884208D136490839496841F47041344A4F
:10192000083A516063E032495031884208D1304969
:101930000839496841F470212D4A083A516056E04F
:101940002B496431884208D129490839496841F452
:101950007001274A083A516049E0254978318842A8
:1019600008D123490839496841F07061204A083A92
:1019700051603CE01F49884206D1011F096841F0CF
:101980000F01021F116032E01A491431884208D158
:101990001849091F096841F0F001164A121F116029
:1019A00025E014492831884208D11249091F0968E5
:1019B00041F470610F4A121F116018E00D493C316B
:1019C000884208D10B49091F096841F47041094A4E
:1019D000121F11600BE007495031884207D10549B9
:1019E000091F096841F47021024A121F11607047F3
:1019F000080002400804024010B50022026847F6C1
:101A0000F0739A430C6A8B6823430C6923434C6937
:101A100023438C692343CC6923434C6A23438C6A58
:101A200023431A430260CB6843600B6883604B68B2
:101A3000C36010BD2DE9F0410246002500260020BC
:101A400000230024002791F803C00CF00F0591F843
:101A500003C00CF0100CBCF1000F03D091F802C0D1
:101A60004CEA050591F800C0BCF1000F31D01468B4
:101A700000202BE04FF0010C0CFA00F3B1F800C08D
:101A80000CEA03069E4220D183004FF00F0C0CFAA3
:101A900003F7BC4305FA03FC4CEA040491F803C0C5
:101AA000BCF1280F06D14FF0010C0CFA00FCC2F873
:101AB00014C00AE091F803C0BCF1480F05D14FF003
:101AC000010C0CFA00FCC2F810C0401C0828D1D34D
:101AD0001460B1F800C0BCF1FF0F34DD5468002081
:101AE0002EE000F1080C4FF0010808FA0CF3B1F8F1
:101AF00000C00CEA03069E4221D183004FF00F0C78
:101B00000CFA03F7BC4305FA03FC4CEA040491F811
:101B100003C0BCF1280F05D100F1080C08FA0CF83D
:101B2000C2F8148091F803C0BCF1480F07D100F14E
:101B3000080C4FF0010808FA0CF8C2F81080401C9D
:101B40000828CED35460BDE8F0810000F0B50A4605
:101B5000002300240021002500F00046B6F1004FCC
:101B600002D11D4EF16901E01B4E7168C0F30345BF
:101B700083B200F44016B6F5401F08D121F0706121
:101B8000154E766826F07066134F7E6012E000F402
:101B90008016B6F5801F06D1032606FA05F4A14388
:101BA00041F0706106E0460D360103FA06F6B143D6
:101BB00041F0706122B1460D360103FA06F6314359
:101BC00000F00046B6F1004F02D1034EF16101E092
:101BD000014E7160F0BD000000000140024600208F
:101BE00093680B400BB1012000E000207047416179
:101BF000704701617047000070B5002100230F227B
:101C0000C47804B3154C246804F4E064C4F5E064BB
:101C1000210AC1F10403CA40447804FA03F184782C
:101C20001440214309010E4C0678A155047804F0B4
:101C30001F050124AC4005786D11AD0005F1E025CC
:101C4000C5F8004109E0047804F01F050124AC4008
:101C5000044D0678761145F8264070BD0CED00E085
:101C600000E400E080E100E002490143024A116023
:101C7000704700000000FA050CED00E0014600206E
:101C8000034A506820F44040084350607047000009
:101C90000010024029B1064A52690243044B5A61BE
:101CA00004E0034A52698243014B5A6170470000C5
:101CB0000010024029B1064AD2690243044BDA619E
:101CC00004E0034AD2698243014BDA6170470000A5
:101CD0000010024029B1064A92690243044B9A61FE
:101CE00004E0034A92698243014B9A617047000005
:101CF0000010024029B1064AD2680243044BDA6060
:101D000004E0034AD2688243014BDA607047000066
:101D10000010024030B500210022002400232D4D88
:101D20006D6805F00C0121B1042905D0082923D1E3
:101D300005E0294D056022E0274D05601FE0254D97
:101D40006D6805F47012234D6D6805F4803402252A
:101D500005EB92421CB9214D554305600BE01D4D2A
:101D60006D6805F400351DB11C4D5543056002E05A
:101D7000194D5543056002E0174D056000BF00BFD7
:101D8000144D6D6805F0F0010909154D6B5C05688F
:101D9000DD4045600F4D6D6805F4E061090A104DA6
:101DA0006B5C4568DD4085600A4D6D6805F46051E7
:101DB000C90A0B4D6B5C4568DD40C560054D6D681B
:101DC00005F44041890B074D6B5CC568B5FBF3F525
:101DD000056130BD0010024000127A0000093D008C
:101DE000180000202800002010B500F001F810BDF8
:101DF0000CB50020019000903348006840F480301A
:101E00003149086000BF3048006800F4003000909D
:101E10000198401C0190009818B90198B0F5A06F86
:101E2000F1D12948006800F4003010B10120009081
:101E300001E0002000900098012843D12348006869
:101E400040F01000214908600846006820F00300B7
:101E500008600846006840F0020008601A484068C0
:101E6000194948600846406848600846406840F4A0
:101E7000806048600846406820F47C10486008464E
:101E8000406840F4E81048600846006840F0807000
:101E9000086000BF0C48006800F000700028F9D00E
:101EA0000948406820F00300074948600846406838
:101EB00040F00200486000BF0348406800F00C009A
:101EC0000828F9D10CBD000000100240002002409B
:101ED000042808D14FF0E021096941F004014FF0D6
:101EE000E022116107E04FF0E021096921F00401CF
:101EF0004FF0E0221161704710B51348006840F0C0
:101F000001001149086008464068104908400E4920
:101F10004860084600680E4908400B4908600846BA
:101F2000006820F4802008600846406820F4FE0025
:101F300048604FF41F008860FFF756FF4FF00060C5
:101F40000449086010BD0000001002400000FFF8C6
:101F5000FFFFF6FE08ED00E010B50121074800F094
:101F60003BF850B10648007820F00100401C0449BD
:101F700008700121014800F011F810BD000C00406C
:101F80008601002021B1028842F08002028004E034
:101F900002884FF67F731A4002807047CA4302825C
:101FA000704721B1028842F00102028004E00288F9
:101FB0004FF6FE731A400280704731B1B0F84420EA
:101FC00042F40042A0F8442005E0B0F84420C2F3F7
:101FD0000E02A0F84420704730B5024600200023CE
:101FE0000024158A05EA0103958905EA010413B165
:101FF0000CB1012000E0002030BD1AB183890B43F1
:10200000838102E083898B438381704770B500240C
:1020100000220023058C4FF6FE7635400584028CA5
:102020008388048B4FF68F752C40B51E2C400D888D
:102030002C43751E2A400D892A434D882A43144D8E
:10204000A8420BD0134DA84208D0134DA84205D08A
:10205000124DA84202D0124DA84213D14FF6F77587
:102060002A404D892A434FF6FB752A408D882A4322
:102070004FF6FF652B404FF6FF552B408D892B43C4
:10208000CD892B4383800483CD888586028470BDEF
:10209000002C014000340140004001400044014058
:1020A000004801400A460021018B4FF6F7731940A2
:1020B000114301837047000070B500240022002303
:1020C000058C4FF6EF7635400584028C8388048BAF
:1020D00048F6FF752C404FF6FF452C400D884FF613
:1020E000FF7606EA05252C434FF6DF752A400D8959
:1020F00006EA05152A434D8806EA05152A43154DBB
:10210000A84202D0144DA8421DD14FF67F752A4037
:102110004D894FF6FF7606EA05152A434FF6BF753F
:102120002A408D8806EA05152A434FF6FF352B40D5
:102130004FF2FF752B408D8906EA85052B43CD892B
:1021400006EA85052B4383800483CD8805870284B6
:1021500070BD0000002C0140003401400A460021FF
:10216000018B4FF2FF7319404FF6FF7303EA02230E
:10217000194301837047000070B50022002300243A
:10218000058C4EF6FF7635400584038C8488828B5F
:1021900048F6FF752A404FF6FF452A400D884FF656
:1021A000FF7606EA05252A434DF6FF752B400D897B
:1021B00006EA05352B434D8806EA05352B430B4DC2
:1021C000A84202D00A4DA84208D14BF6FF752C4018
:1021D0008D894FF6FF7606EA85152C43848082832D
:1021E000CD88A0F84050038470BD0000002C014051
:1021F000003401400A460021818B4FF2FF731940E1
:102200004FF6FF7303EA02231943818370478186E7
:10221000704701877047A0F840107047002202887D
:102220001D4B98420ED01D4B98420BD0B0F1804F01
:1022300008D01B4B984205D01A4B984202D01A4B3B
:10224000984204D14FF68F731A404B881A43174BAC
:10225000984207D0164B984204D04FF6FF431A40DD
:10226000CB881A4302808B8883850B8803850A4BB1
:1022700098420BD0094B984208D00E4B984205D09B
:102280000D4B984202D00D4B984201D10B7A038638
:102290000123838270470000002C0140003401407C
:1022A0000004004000080040000C00400010004006
:1022B000001400400040014000440140004801403B
:1022C00010B540F22551384800F03BF9002843D0C2
:1022D000354800F0F1F935490988C82291FBF2F33D
:1022E00002FB1311324A505430480088C82190FB39
:1022F000F1F201FB12002E49085C082822D12B487C
:10230000008802281ADB29480088C82190FBF1F2D6
:1023100001FB1200264900220A5424480088C821E3
:1023200090FBF1F201FB1200401E214900220A54E9
:102330001E480088401E1D49088008E000201B49F7
:10234000088004E019480088401C1849088040F2C1
:102350002551154800F0DAF840F22771124800F0D4
:10236000F0F800B313480088C82190FBF1F201FB9C
:10237000120011490C5C21460B4800F0A2F90D48EF
:102380000088401C0B4908800C480088401E0988C2
:10239000884208DA002240F22771034800F0FBF877
:1023A00000200449088010BD003801408E01002043
:1023B0006C0A002096010020FC0B002094010020F4
:1023C00010B540F22551224800F0BBF8A8B12048D2
:1023D00000F072F91F490988642291FBF2F302FBB5
:1023E00013111D4A50541B480088401C194908808D
:1023F00040F22551164800F089F840F22771144840
:1024000000F09FF810B315480088642190FBF1F2AA
:1024100001FB120012490C5C21460D4800F051F9F5
:102420000E480088401C0D4908800E480088401E58
:10243000098888420ADA002240F22771044800F035
:10244000AAF800200549088002F0A6FE10BD000091
:102450000044004090010020340B00209E01002029
:10246000C40C00209C01002010B540F225512148E9
:1024700000F067F8A8B11F4800F01EF91E4909884E
:10248000642291FBF2F302FB13111C4A50541A48C8
:102490000088401C1849088040F22551154800F07A
:1024A00035F840F22771134800F04BF800B3144898
:1024B0000088642190FBF1F201FB120011490C5CD1
:1024C00021460C4800F0FDF80D480088401C0C49DE
:1024D00008800D480088401E0988884208DA0022DA
:1024E00040F22771034800F056F8002004490880A4
:1024F00010BD00000048004092010020980B002011
:10250000A6010020280D0020A401002010B5002203
:10251000002340F66A14A14200D100BF0A12012430
:102520009440A3B2DC43048010BD21B1828942F4FF
:102530000052828104E082894DF6FF731A40828145
:10254000704770B50246002400230025002040F6A5
:102550006A16B14200D100BFC1F3421501F01F035A
:10256000012606FA03F3012D02D19689334006E0D5
:10257000022D02D1168A334001E0968A33400C12B4
:10258000012606FA04F41688344013B10CB1012078
:1025900000E0002070BDF0B50346002400260025B1
:1025A000002040F66A17B94200D100BF1846C1F3B7
:1025B000421401F01F06012707FA06F5012C01D18C
:1025C0000C3004E0022C01D1103000E014301AB1BC
:1025D00007682F43076002E00768AF430760F0BD5C
:1025E0002DE9F04786B005460E460024A24600BFFE
:1025F000A1460027B08900B100BF2F462C8A4CF6B7
:10260000FF700440F08804432C82AC894EF6F3102E
:102610000440B08831890843718908430443AC8180
:10262000AC8A4FF6FF400440B0890443AC8201A855
:10263000FFF770FB1F48874202D1DDF810A001E0D0
:10264000DDF80CA0A88900F4004040B10AEBCA00F4
:1026500000EB0A1031684900B0FBF1F807E00AEB23
:10266000CA0000EB0A1031688900B0FBF1F8642061
:10267000B8FBF0F004012009642101FB1089A8894E
:1026800000F4004040B1322000EBC900B0FBF1F093
:1026900000F00700044308E0322000EB0910642139
:1026A000B0FBF1F000F00F0004432C8106B0BDE850
:1026B000F08700000038014001468888C0F3080018
:1026C0007047C1F3080282807047490050EAC12078
:1026D00018BF04204A0D18BF40F0010040F2FF72FD
:1026E000B2EB515F08BF40F00200012808BF05208F
:1026F000704700002DE9F04104460D46A5B10A20BF
:1027000094FBF0F100FB1140124931F810600A20EF
:1027100094FBF0F100FB11400F4951F82070314655
:102720003846FFF766FA13E00A2094FBF0F100FB4D
:102730001140084931F810600A2094FBF0F100FBC9
:102740001140054951F8207031463846FFF74FFADD
:10275000BDE8F081700100204801002010B5084854
:102760004078C0F3400000B910BD0548407820F023
:1027700002000349487000F009F800BFF4E70000C8
:102780008601002010B500F059F810BD10B50024E6
:102790002348007838BB00F0E7FB00B300BF04E03B
:1027A000002020490855601CC4B2052CF8DB01202C
:1027B0001B4908701C49002002F0E8FC1B4901205D
:1027C00002F0E4FC1A49022002F0E0FC194903205F
:1027D00002F0DCFC1849042002F0D8FC1FE00020C5
:1027E0000F4908701BE0002417E00E48005D012827
:1027F00006D1204601F066FC10B9032009490855AE
:102800000848005D022806D1204601F05BFC10B9A3
:10281000002004490855601CC4B2052CE5DB10BD3E
:102820000D0A0020080A0020C9480008D348000803
:10283000DD480008E7480008F148000810B500240A
:1028400000BF0CE0611DC8B201F028FC28B14FF4B4
:10285000FA720121204602F0CDFF601CC4B2052CA3
:10286000F0DB00F081FB00B3002404E000201149FC
:102870000855601CC4B2052CF8DB01200E49087015
:102880000E49002002F082FC0D49012002F07EFC7E
:102890000C49022002F07AFC0B49032002F076FC7E
:1028A0000A49042002F072FC02E00020024908708C
:1028B00010BD0000080A00200D0A0020C9480008C9
:1028C000D3480008DD480008E7480008F148000840
:1028D00070B58EB005460E460024022E0DD1287824
:1028E0000D280AD168780A2807D11EA001F0C0F887
:1028F0000020214908700EB070BD00240BE0285D57
:102900000D2802D0285D202800D106E0285D01A90D
:102910000855601CC4B2B442F1DB00BF002001A91D
:102920000855002416E004EB840000EBC400134AB1
:1029300002EBC000011D01A8FDF7E2FD40B904EB68
:10294000840101EBC4010D4A52F831008047D2E7FF
:10295000601CC4B2142CE6D309A001F089F800BFB2
:10296000C9E70000636F6D6567656E6520636F6D15
:102970006D616E643A000000E4010020E80100206F
:10298000696E7661696C6420636F6D6D616E640D54
:102990000A0000002DE9F041B4B01C480078C009DD
:1029A00010B934B0BDE8F0811848007820F08000FC
:1029B0001649087001F022F830B115480188154811
:1029C000FFF786FF00F0E2FA13480078D8B1134908
:1029D000488803F099FF804603F0D0FE04460D4678
:1029E0000E49088803F090FF804603F0C7FE0646B4
:1029F00032460B460AA102A8CDE90045FDF73EFC90
:102A000002A801F035F800BFCBE7000086010020E6
:102A10008E0100206C0A0020E401002070150020C7
:102A200074656D70312C25663B74656D70322C2594
:102A3000663B0A000020014908707047E40100204D
:102A40002DE9F04F8BB000240026FEA000680A900C
:102A50000025A046A1460020099008900790069006
:102A600000278246F8480078C0F3401010B90BB038
:102A7000BDE8F08FF448007820F02000F24908709B
:102A8000002417E0F14830F8140000B2F04921F8B2
:102A90001400204601F022FB50B1EE4830F814003B
:102AA000EB4931F81410401A00B2EB4921F8140038
:102AB000601CC4B20A2CE5DB002411E0204601F0C2
:102AC0000DFB58B1701CC6B2284605EBD0714910F9
:102AD000A5EB41010AAA5454681CC5B2601CC4B2DB
:102AE0000A2CEBDB022E2FDD4FF0000800240CE057
:102AF000D94830F91400404505DDD74830F81400B6
:102B00001FFA80F8A146601CC4B20A2CF0DB8DF8D5
:102B100028904FF00008002412E09DF82800A04201
:102B200000D10BE0CC4830F91400404505DDCA481F
:102B300030F814001FFA80F8A14600BF601CC4B230
:102B40000A2CEADB8DF82990012E7AD1002405E0C9
:102B50000021204602F0F0FE601CC4B20A2CF7DB14
:102B60009DF828000A2190FBF1F301FB1300C2B28B
:102B7000104601F0B3FA002862D09DF828000A211F
:102B800090FBF1F201FB1200B34931F9100000286B
:102B900058DD9DF828000A2190FBF1F201FB12009C
:102BA000AD4931F91000059003F096FE8346AB491C
:102BB00003F0BEFE07909DF82810A74A32F91100D5
:102BC00003F08AFE05909DF828000A2190FBF1F29F
:102BD00001FB1200A24931F91000039003F07CFEC2
:102BE0000490059903F070FF83469E4903F0A0FE10
:102BF0000690DDE9061003F0EDFD09909DF8280030
:102C00000A2190FBF1F201FB1200934931F8100008
:102C10009DF828100A2291FBF2F302FB1311904A4F
:102C200022F81100099803F037FE87B2B7F57A7FD2
:102C300001DD4FF47A779DF82800394602F07CFEDA
:102C40006CE124E000279DF82800394602F074FE6C
:102C50009DF828000A2190FBF1F201FB12007E4949
:102C600031F9100010F10A0F08DA9DF828B00BEBCB
:102C7000DB714810002103F09DF94FE19DF828B069
:102C80000BEBDB714810012103F094F946E19DF84C
:102C900028000A2190FBF1F301FB1300C2B2104699
:102CA00001F01CFA00286BD0002405E0002120462A
:102CB00002F042FE601CC4B20A2CF7DB9DF828002B
:102CC0000A2190FBF1F201FB1200634931F9100077
:102CD000002856DD9DF828105F4A32F9110003F0F4
:102CE000FBFD02909DF828000A2190FBF1F201FB08
:102CF00012005B4931F910B0584603F0EDFD019028
:102D0000029903F0E1FE5749039003F011FE05908C
:102D10009DF828000A2190FBF1F201FB12004E49B8
:102D200031F91000039003F0D7FD83464B4903F0BF
:102D3000FFFD0490059903F04DFD09909DF82800D2
:102D40000A2190FBF1F201FB1200434931F8100017
:102D50009DF828100A2291FBF2F302FB1311404A5E
:102D600022F81100099803F097FD87B2B7F57A7F32
:102D700001DD4FF47A779DF82800394602F0DCFD3A
:102D800023E000279DF82800394602F0D5FD9DF884
:102D900028000A2190FBF1F201FB12002E4931F9C3
:102DA000100010F10A0F08DA9DF828B00BEBDB7168
:102DB0004810002103F0FEF807E09DF828B00BEB67
:102DC000DB714810012103F0F5F89DF829000A2174
:102DD00090FBF1F301FB1300C2B2104601F07EF943
:102DE000002875D09DF829000A2190FBF1F201FB23
:102DF0001200194931F9100000286ADD9DF82910E8
:102E0000154A32F9110003F067FD03909DF829007F
:102E10000A2190FBF1F201FB1200114931F9100077
:102E2000019003F059FD0290039903F04DFE834693
:102E30000C4903F07DFD05909DF829000A2190FBC7
:102E4000F1F211E0FFFF0000860100207015002064
:102E5000A21500208E150020B615002000000C429F
:102E6000CA1500200000A0C001FB12002C4931F956
:102E70001000039003F030FD83462A4903F058FD0B
:102E80000490059903F0A6FC08909DF829000A21FA
:102E900090FBF1F201FB1200214931F810009DF87E
:102EA00029100A2291FBF2F302FB13111E4A22F8A9
:102EB0001100089803F0F0FC1FFA80FABAF57A7F47
:102EC00001DD4FF47A7A9DF82900514602F034FD75
:102ED00024E04FF0000A9DF82900514602F02CFD35
:102EE0009DF829000A2190FBF1F201FB12000C4928
:102EF00031F9100010F10A0F08DA9DF829B00BEB38
:102F0000DB714810002103F055F807E09DF829B067
:102F10000BEBDB714810012103F04CF800BFA6E574
:102F2000B615002000000C42CA150020002000BF8A
:102F30000FE04FF0FF31084A22F810100021074A35
:102F400022F81010064A22F81010064A1154411CAB
:102F5000C8B20A28EDDB70478E150020B615002098
:102F6000CA1500208415002010B5002400BF08E019
:102F7000204601F0A7F8042801D1002010BD601CF4
:102F8000C4B2052CF4DB0120F8E7000010B50448BA
:102F900001880448FDF791FA00200149088010BD1E
:102FA0008E0100206C0A002010B5054801880548F4
:102FB000FDF783FA0020024908800349088010BD0C
:102FC00092010020980B0020A2010020052190FB17
:102FD000F1F201FB12010C4A00235354052190FB2E
:102FE000F1F201FB1201094A5354052190FBF1F261
:102FF00001FB1201064A5354052190FBF1F201FB3B
:103000001201044A535470470E0A0020180A002087
:10301000220A00201D0A002010B505480188054835
:10302000FDF74BFA0020024908800349088010BDD3
:1030300090010020340B00209A01002070B5044656
:10304000052094FBF0F100FB1140C5B20021284699
:1030500002F02EFC052094FBF0F100FB1140024928
:1030600000220A5470BD0000270A0020044800888E
:103070000A2800DA704700200149088000BFF9E7FC
:103080008C010020164800880A2800DA70470020CA
:10309000134908801348007820F0100010301149BF
:1030A00008700846007820F020002030087008469C
:1030B000007820F08000803008700846407820F0CA
:1030C0000200801C48700846407820F00400001D73
:1030D000487005480088401C0349088000BFD5E7B8
:1030E0008A010020860100208C01002013480088FE
:1030F0000A2800DA7047002010490880104800783C
:1031000020F00400001D0E4908700846007820F0E9
:103110000800083008700846007820F04000403071
:1031200008700846407820F00100401C48700548AF
:103130000088401C0349088000BFDBE788010020AD
:10314000860100208A0100200C48007800F0010070
:1031500000B970470948007820F00100074908705D
:103160000846007820F00200801C0870044800889F
:10317000401C0349088000BFEBE7000086010020E7
:10318000880100202DE9F047002419480078C0F399
:10319000001008B9BDE8F0871548007820F010004D
:1031A0001349087000241FE040F6E441204600F077
:1031B00009FE104921F8140031F8140003F0A4FBB3
:1031C00082460D4903F080FC814603F0D7FA07469A
:1031D0000A4A0B4B03F04EF8054603F0A3F90949E0
:1031E00021F81400601CC4B20A2CDDDB00BFD1E75B
:1031F000860100205C1500200000F043B81E85EB1E
:1032000051B8FE3F7015002010B592B00024012186
:103210004802FEF75FFD4FF40040FEF72FFD00BFB0
:103220000FE0524830F81400ADF8300000208DF85F
:1032300033004F4951F824000CA9FEF7FBFB601C3A
:10324000C4B20A2CEDDB4B48FEF748FA00200D9083
:1032500001208DF838008DF839004FF460200F9070
:10326000002010900A208DF844000DA94148FEF777
:1032700077FA0723012204213E48FEF799FA072333
:10328000022205213B48FEF793FA07230322062179
:103290003848FEF78DFA0723042219463548FEF711
:1032A00087FA0723052208213248FEF781FA07230F
:1032B000062209212F48FEF77BFA07231A460A2126
:1032C0002C48FEF775FA072308220B212948FEF740
:1032D0006FFA072309220C212648FEF769FA072313
:1032E0000A220D212348FEF763FA01212148FEF747
:1032F000E9F901211F48FEF7DAF91E48FEF7B4FA92
:1033000000BF1C48FEF722FA0028FAD11948FEF740
:10331000BBFA00BF1748FEF70FFA0028FAD10121C7
:103320000846FEF7B7FC1448FEF7C0FA11484C30C7
:10333000019012480290002003904FF47A7004909C
:1033400000200590802006904000079080000890A3
:103350002020099000020A9000200B9001A9064845
:10336000FEF74AFB02F0C6FB12B010BDD0010020F0
:10337000A801002000240140080002408C0D00201C
:1033800038B500240121FC20FEF7A4FC00BF1AE0A0
:10339000234830F81400ADF8000010208DF8030029
:1033A00003208DF802001F4951F824006946FEF7FA
:1033B00041FB1B4A32F814101A4A52F82400FEF757
:1033C00016FC601CC4B21A2CE2DB00241AE016487A
:1033D00030F81400ADF800000E2C05DD142C03DAD3
:1033E00028208DF8030002E048208DF80300032018
:1033F0008DF802000D4951F824006946FEF71AFBCA
:10340000601CC4B2152CE2DB002405E0012120463B
:1034100002F0D0FD601CC4B2052CF7DB38BD000003
:10342000940000202C0000201C010020C800002077
:1034300010B500241C480078C0F3400000B910BD4E
:103440001948007820F002001749087000241AE09B
:10345000164830F8140080B1204600F085FE14496B
:103460000988884204DD01212046FFF743F908E07E
:1034700000212046FFF73EF903E000212046FFF738
:1034800039F9601CC4B20A2CE2DB09480088401CF0
:103490000749088008460088B0F57A7F01DD0020E2
:1034A000088000BFCBE7000086010020580A0020FA
:1034B0008401002010B588B0002401210220FEF70D
:1034C000F9FB01210920FEF705FC01218E48FEF7DA
:1034D0003DFB2020ADF81C0018208DF81F000320B4
:1034E0008DF81E0007A98948FEF7A4FA42F227309A
:1034F000ADF814000020ADF81000ADF81600ADF8DE
:10350000120004A98248FEF789FE7020ADF8000081
:103510000120ADF802000220ADF8080069467C48A1
:10352000FEF7CAFD08217A48FEF718FE0121784807
:10353000FEF737FD01210846FEF7BCFB0121042000
:10354000FEF7C8FB0220ADF81C0018208DF81F0004
:1035500003208DF81E0007A96E48FEF76BFA42F2B1
:103560002730ADF814000020ADF81000ADF81600BB
:10357000ADF8120004A94FF08040FEF74FFE702016
:10358000ADF800000120ADF802000220ADF80800FF
:1035900069464007FEF790FD0821C806FEF7DEFDEC
:1035A00001218807FEF7FDFC01210420FEF782FBC4
:1035B00001210820FEF78EFB4020ADF81C001820EA
:1035C0008DF81F0003208DF81E0007A94F48FEF755
:1035D00031FA8020ADF81C0018208DF81F00032060
:1035E0008DF81E0007A94948FEF724FA4FF4007031
:1035F000ADF81C0018208DF81F0003208DF81E0068
:1036000007A94248FEF716FA42F22730ADF8140037
:103610000020ADF81000ADF81600ADF8120004A9B6
:103620003D48FEF7FBFD6020ADF800000120ADF83D
:1036300002000020ADF80600ADF8080069463648E3
:10364000FEF7E4FC6020ADF800000120ADF80200B8
:103650000020ADF80600ADF8080069462E48FEF7D8
:103660002BFD6020ADF800000120ADF80200002025
:10367000ADF806000220ADF8080069462648FEF7BE
:103680007BFD01212448FEF798FC08212248FEF723
:1036900009FD08212048FEF761FD08211E48FEF7BC
:1036A000A9FD01211C48FEF76DFC01211A48FEF717
:1036B00078FC00BF05E00021084602F0F9F8601C24
:1036C000C4B2052CF7DB00241AE0144830F81400CB
:1036D000ADF81C0010208DF81F0003208DF81E008F
:1036E0000F4951F8240007A9FEF7A4F90B4A32F854
:1036F00014100B4A52F82400FEF779FA601CC4B289
:103700000A2CE2DB08B010BD00081A00000C0140D2
:103710000004004000080140000800407001002043
:103720004801002010B5FFF70FFDFFF7DFFCFFF7A2
:10373000A9FCFFF79BFC10BD1FB501210820FEF777
:10374000B9FA41F61F40ADF808000920ADF80400B1
:103750000020ADF80A00ADF8060001A90D48FEF7FB
:103760005DFD012211460B48FEF747FC32208DF823
:10377000000000208DF8010003208DF802000120D8
:103780008DF803006846FEF737FA01210148FEF77D
:1037900008FC1FBD000C004010B501F0E7FC01F073
:1037A00005F910BD00B587B001218803FEF792FA34
:1037B0004FF40070ADF8180003208DF81A0018209F
:1037C0008DF81B0006A97648FEF734F94FF48060A7
:1037D000ADF8180004208DF81B0006A97048FEF70C
:1037E00029F925208DF8040003208DF8050002201A
:1037F0008DF8060001208DF8070001A8FEF7FCF9FE
:103800004FF4E13002900020ADF80C00ADF80E004E
:10381000ADF81000ADF814000C20ADF8120002A9AC
:103820006048FEF7DDFE012240F225515D48FEF7BB
:10383000B2FE002240F227715A48FEF7ACFE012189
:103840005848FEF772FE01210420FEF743FA0121D9
:103850004804FEF72FFA0820ADF8180004208DF870
:103860001B0006A94E48FEF7E5F80420ADF8180045
:1038700003208DF81A0018208DF81B0006A948486F
:10388000FEF7D8F826208DF8040003208DF80500F7
:1038900002208DF8060001208DF8070001A8FEF730
:1038A000ABF94FF4E13002900020ADF80C00ADF818
:1038B0000E00ADF81000ADF814000C20ADF81200A9
:1038C00002A93948FEF78CFE012240F22551364804
:1038D000FEF761FE002240F227713348FEF75BFEDF
:1038E00001213148FEF721FE01210820FEF7F2F9FF
:1038F00001218804FEF7DEF94FF40060ADF81800EE
:1039000004208DF81B0006A92848FEF793F84FF411
:103910008060ADF8180003208DF81A0018208DF88B
:103920001B0006A92148FEF785F84FF4E13002900C
:103930000020ADF80C00ADF80E00ADF81000ADF8A9
:1039400014000C20ADF8120002A91948FEF748FE39
:10395000012240F225511648FEF71DFE01211448B0
:10396000FEF7E3FD4FF4A060FEF77EF927208DF807
:10397000040003208DF8050002208DF806000120C8
:103980008DF8070001A8FEF737F9002001F004FCCC
:1039900008A000F06DF812A000F06AF807B000BDB2
:1039A000000801400038014000440040000C014084
:1039B0000048004077656C636F6D6520746F20630D
:1039C0006F6D6567656E6520696E7374727563747B
:1039D000696F6E2073797374656D0D0A00000000C5
:1039E000696E70757420273F2720746F2067657497
:1039F0002068656C70200D0A000000000A480088ED
:103A000008B90020704708480088801E0749085CF4
:103A10000D2807D104480088401E085C0A2801D1FF
:103A20000120EFE70020EDE78E0100206C0A002066
:103A300070B505460C46C82C00DD70BD22462946EF
:103A40000748FCF7F5FC0748048000200649088079
:103A5000012240F227710548FEF79DFD00BFECE70B
:103A6000FC0B00209401002096010020003801404A
:103A700070B504462046FCF7BCFC85B229462046BA
:103A8000FFF7D6FF70BD000010B502A0FFF7F0FFF2
:103A900010BD00006B65792030206576656E74205E
:103AA00068617070656E64210D0A000010B502A097
:103AB000FFF7DEFF10BD00006B65792031206576D1
:103AC000656E742068617070656E64210D0A000077
:103AD00010B502A0FFF7CCFF10BD00006B65792088
:103AE00032206576656E742068617070656E642141
:103AF0000D0A000010B502A0FFF7BAFF10BD0000CC
:103B00006B65792033206576656E7420686170700E
:103B1000656E64210D0A000010B502A0FFF7A8FF32
:103B200010BD00006B65792034206576656E7420C9
:103B300068617070656E64210D0A000010B502A006
:103B4000FFF796FF10BD00006B6579203520657684
:103B5000656E742068617070656E64210D0A0000E6
:103B600010B56FF00400FEF7B3F90A4800680A497F
:103B7000B0FBF1F0094908700846007800EB4001FD
:103B8000C1EBC0104FF6FF7101EAC0000449088084
:103B900010BD00000000002000127A001400002078
:103BA000160000200146114A12884A434FF0E023D4
:103BB0005A6100229A611A46126942F001021A61A2
:103BC00000BF4FF0E022106900F001021AB100F4CA
:103BD0008032002AF5D04FF0E022126922F0010273
:103BE0004FF0E0231A6100229A617047160000200E
:103BF0002DE9F041A6B0002400270025A0460026AC
:103C000000BF09E04148005D202803D123A8C45526
:103C1000781CC7B2601CC4B23D4800888442F1DB06
:103C2000022F05D03BA0FFF723FF26B0BDE8F081AF
:103C30009DF88C00401CC4B213E03448005D1EA9FE
:103C400048551EA8405D302803DB1EA8405D39287A
:103C500003DD30A0FFF70CFFE7E7681CC5B2601C6E
:103C6000C4B29DF88D00A042E7DC00201EA9485593
:103C700000259DF88D00401CC4B213E02348005D70
:103C800019A9485519A8405D302803DB19A8405DE3
:103C9000392803DD1FA0FFF7EBFEC6E7681CC5B29D
:103CA000601CC4B21A480088801EA042E6DC0020D6
:103CB00019A948551EA8FCF78FFB1FFA80F819A810
:103CC000FCF78AFB86B2B8F1040F03DD15A0FFF7FD
:103CD000CFFEAAE7012E04D01EB11AA0FFF7C8FE3E
:103CE000A3E70EB1012200E00022114608F0FF0018
:103CF00000F048F8334642461AA16846FCF7BEFA7F
:103D00006846FFF7B5FE00BF8FE700006C0A002091
:103D10008E010020636F6D6D616E64206572726F3D
:103D2000720D0A00696420707261206572726F7290
:103D3000202C706C6561736520696E70757420301D
:103D40002D340000737720707261206572726F727B
:103D5000202C706C6561736520696E7075742030FD
:103D60002F3100007365742066616E20636F6E20D2
:103D70002564206173202564207375636365737304
:103D80000D0A000070B504460D465DB104F10C0249
:103D90000A4B33F81210921C094B53F82200FDF71E
:103DA00028FF0AE004F10C02044B33F81210921CB5
:103DB000034B53F82200FDF71AFF70BD940000205A
:103DC0002C0000202DE9F04F87B082468B4600245E
:103DD000A1460020069000BF09E004EB84001849CA
:103DE00001EB800030F81A008144601C84B2642C1E
:103DF000F3DB6420B9FBF0F9584602F085FD074675
:103E000002F0BCFC05460E46484602F07DFD0190DE
:103E100002F0B4FC074600220A4B02F02BFA2A46B5
:103E20003346CDE9020102F0ABFBCDE9040102F01B
:103E300079FB80B20690069807B0BDE8F08F0000CD
:103E40008C0D00200000B04030B599B00024002552
:103E500000BF13E040F6E4412046FFF7B3FF0546FC
:103E60002B46224607A16846FCF708FA6846FFF78A
:103E7000FFFD0A20FFF796FE601CC4B20A2CE9DBA6
:103E800019B030BD3E3E3E2061646320256420763B
:103E90006F6C74616765206973202564206D5620FE
:103EA0000D0A000030B599B00024002500BF17E0CE
:103EB000204600F039F805462DB122460AA1684691
:103EC000FCF7DCF904E022460FA16846FCF7D6F9BE
:103ED0006846FFF7CDFD0A20FFF764FE601CC4B200
:103EE000062CE5DB19B030BD3E3E3E206B657920E7
:103EF000256420766F6C7461676520697320747225
:103F00007565200D0A0000003E3E3E206B6579205D
:103F1000256420766F6C7461676520697320666123
:103F20006C736520200D0A0010B5044604F10F02E1
:103F3000064B33F81210064B53F82200FDF74EFEE5
:103F400008B1012010BD0020FCE700001C0100208A
:103F5000C800002030B599B00024002500BF17E04C
:103F6000204600F03DF805462DB122460AA16846DC
:103F7000FCF784F904E0224610A16846FCF77EF9BC
:103F80006846FFF775FD0A20FFF70CFE601CC4B2FF
:103F90000A2CE5DB19B030BD3E3E3E206C697175E0
:103FA000696420256420766F6C746167652069738D
:103FB0002074727565200D0A000000003E3E3E2010
:103FC0006C697175696420256420766F6C74616713
:103FD000652069732066616C7365200D0A0000001E
:103FE00010B50446064A32F81410064A52F8240066
:103FF000FDF7F4FD08B1012010BD0020FCE7000032
:104000001C010020C800002030B599B00024002514
:1040100000BF17E0204600F041F805462DB12246CA
:104020000AA16846FCF72AF904E0224611A1684675
:10403000FCF724F96846FFF71BFD0A20FFF7B2FDE5
:10404000601CC4B20A2CE5DB19B030BD3E3E3E20F8
:104050006D6F746F72206C696D69742025642076B1
:104060006F6C746167652069732074727565200DCB
:104070000A0000003E3E3E206D6F746F72206C6936
:104080006D697420256420766F6C746167652069A2
:10409000732066616C7365200D0A000010B504463C
:1040A000621D064B33F81210054B53F82200FDF742
:1040B00095FD08B1012010BD0020FCE71C01002087
:1040C000C80000200146052091FBF0F200FB121011
:1040D000014A105C70470000270A00200146014891
:1040E000405C70478415002010B59AB0002400BFD2
:1040F00016E02046FFF7F2FF28B122460AA101A8E8
:10410000FCF7BCF804E022460FA101A8FCF7B6F8C2
:1041100001A8FFF7ADFC0A20FFF744FD601CC4B204
:104120000A2CE6DB1AB010BD3E3E3E2070696420CA
:10413000636F6E74726F6C6C657220256420697396
:10414000206F6E200D0A00003E3E3E207069642004
:10415000636F6E74726F6C6C657220256420697376
:10416000206F6666200D0A0001460A2091FBF0F2DE
:1041700000FB1210014A32F810007047580A002064
:1041800030B599B00024002500BF10E00A4830F88F
:1041900014502B46224609A16846FCF76FF8684682
:1041A000FFF766FC0A20FFF7FDFC601CC4B20A2C76
:1041B000ECDB19B030BD0000701500203E3E3E2003
:1041C00074656D702020256420697320256420208B
:1041D0002F20302E31206465677265652063656E1F
:1041E00074696772616465200D0A000010B545A00E
:1041F000FFF73EFC0A20FFF7D5FC4BA0FFF738FC89
:104200000A20FFF7CFFC4DA0FFF732FC0A20FFF792
:10421000C9FC59A0FFF72CFC0A20FFF7C3FC65A0DE
:10422000FFF726FC0A20FFF7BDFC6CA0FFF720FC7F
:104230000A20FFF7B7FC76A0FFF71AFC0A20FFF769
:10424000B1FC80A0FFF714FC0A20FFF7ABFC84A0B0
:10425000FFF70EFC0A20FFF7A5FC8CA0FFF708FC77
:104260000A20FFF79FFC8FA0FFF702FC0A20FFF750
:1042700099FC90A0FFF7FCFB0A20FFF793FC97A0A6
:10428000FFF7F6FB0A20FFF78DFC4AA0FFF7F0FBD3
:104290000A20FFF787FC9AA0FFF7EAFB0A20FFF746
:1042A00081FCA7A0FFF7E4FB0A20FFF77BFCB4A08A
:1042B000FFF7DEFB0A20FFF775FCBEA0FFF7D8FB77
:1042C0000A20FFF76FFCC4A0FFF7D2FB0A20FFF71C
:1042D00069FCC5A0FFF7CCFB0A20FFF763FCC6A072
:1042E000FFF7C6FB0A20FFF75DFCD3A0FFF7C0FB7A
:1042F0000A20FFF757FCDFA0FFF7BAFB0A20FFF701
:1043000051FC10BD0D0A0D0A0D0A20637370207454
:1043100065737420636D64206C697374203E3E3E47
:104320003E3E3E3E0D0A00002031206765745F630B
:1043300073705F6164630D0A000000002032207317
:1043400065745F7761726D5F70776D20696420704E
:10435000657263656E74204E6F7465206964203ADF
:1043600020302D392070657263656E7420302D31D8
:104370003030300D0A0000002033207365745F6D0B
:104380006F746F725F70776D2069642070657263FF
:10439000656E74204E6F7465206964203A20302D5C
:1043A000342070657263656E7420302D313030308A
:1043B0000D0A00000D0A0D0A0D0A20706572697061
:1043C00068207465737420636D64206C6973742055
:1043D0003E3E3E3E3E3E3E0D0A000000203120772C
:1043E000617465725F636F6F6C5F70756D705F6332
:1043F0006F6E206964207377204E6F746520696446
:104400003A20302D3420737720302F310D0A0000F0
:1044100020322077617465725F636F6F6C5F7661C5
:10442000766C655F636F6E206964207377204E6FD2
:10443000746520696420302D3620737720302F3149
:104440000D0A00002033206765745F6C697175691F
:10445000645F666565646261636B0D0A000000005D
:1044600020342068756D69646974795F636F6E20AC
:104470006964207377204E6F74652069643A302D2B
:104480003120737720302F310D0A0000203520674E
:1044900065745F6D6F746F725F6C696D69740D0A1E
:1044A000000000002036206765745F6B65795F69E6
:1044B0006E0D0A0020372066616E5F636F6E2069A3
:1044C00064207377204E6F746520696420302D342A
:1044D00020737720302F310D0A0000002038206C27
:1044E00065645F636F6E206964207377204E6F741C
:1044F00065206964203020737720302F310D0A0049
:104500002031207365745F6D6F746F722069642051
:10451000646972207370656564204E6F74652069EC
:104520006420302D342064697220302F3120737064
:1045300065656420302D313030300D0A00000000F8
:104540002032207365745F6163635F6D6F746F7297
:10455000206964206469722074204E6F746520693C
:104560006420302D342064697220302F3120742073
:10457000323030302D36353533350D0A000000002D
:104580002033207365745F68756D69646974792080
:104590004E6F7465204368616E676520776174654E
:1045A0007220666F7220616C6C20726F6164730D93
:1045B0000A0000000D0A0D0A0D0A206170702074B7
:1045C00065737420636D64206C697374203E3E3E95
:1045D0003E3E3E3E0D0A00002031206765745F7448
:1045E000656D700D0A0000002032206765745F70F1
:1045F00069645F73770D0A002033207374617274ED
:104600005F7069642069642074616765745F7465B4
:104610006D70204E6F746520696420302D392074D0
:1046200061726765745F74656D70203235202D206E
:104630003130300D0A0000002034206F70656E5F4D
:1046400074656D705F677569206F70656E5F746506
:104650006D705F677569204E6F7465207072656557
:1046600020456E74657220746F2053746F700D0A4C
:104670000000000020352076657273696F6E0D0AA8
:10468000000000002DE9F041A6B00024002700251D
:10469000A046002600BF09E04148005D202803D164
:1046A00023A8C455781CC7B2601CC4B23D4800881A
:1046B0008442F1DB022F05D03BA0FFF7D9F926B0E9
:1046C000BDE8F0819DF88C00401CC4B213E0344872
:1046D000005D1EA948551EA8405D302803DB1EA8BA
:1046E000405D392803DD30A0FFF7C2F9E7E7681C19
:1046F000C5B2601CC4B29DF88D00A042E7DC00206A
:104700001EA9485500259DF88D00401CC4B213E039
:104710002348005D19A9485519A8405D302803DBDE
:1047200019A8405D392803DD1FA0FFF7A1F9C6E7EE
:10473000681CC5B2601CC4B21A480088801EA04222
:10474000E6DC002019A948551EA8FBF745FE1FFA14
:1047500080F819A8FBF740FE86B2B8F1010F03DD1F
:1047600015A0FFF785F9AAE7012E04D01EB11AA003
:10477000FFF77EF9A3E70EB1012200E00022114607
:1047800008F0FF0000F04AF8334642461AA1684696
:10479000FBF774FD6846FFF76BF900BF8FE7000079
:1047A0006C0A00208E010020636F6D6D616E6420C5
:1047B0006572726F720D0A00696420707261206503
:1047C00072726F72202C706C6561736520696E70F7
:1047D000757420302D310000737720707261206570
:1047E00072726F72202C706C6561736520696E70D7
:1047F000757420302F3100007365742068756D6901
:104800006469747920636F6E2025642061732025AC
:104810006420737563636573730D0A0070B5044695
:104820000D4655B104F10C02094B33F81210094B37
:1048300053F82200FDF7DDF909E004F10C02044B06
:1048400033F81210034B53F82200FDF7D0F970BD76
:10485000940000202C00002010B504461948005D8B
:1048600068B92046FFF72EFC48B941F2707200216A
:10487000204601F04DF901201249085520E0114869
:10488000005D03280DD12046FFF71CFC48B941F21A
:1048900070720121204601F03BF9022009490855B8
:1048A0000EE00848005D012809D14FF4FA72012199
:1048B000204600F09FFF02200249085500E000BF9B
:1048C00010BD0000080A002010B50020FFF7C4FF4B
:1048D00010BD10B50120FFF7BFFF10BD10B50220BD
:1048E000FFF7BAFF10BD10B50320FFF7B5FF10BDED
:1048F00010B50420FFF7B0FF10BD00001748008876
:1049000008B90020704716480078C0F3C00008B905
:104910000020F7E71248007820F0080010490870DE
:104920000E4800880F490988884208D000200E49A7
:1049300008800A4800880B4908800020E2E70A48FE
:104940000088401C0849088008460088142803DDB8
:10495000002008800120D5E70020D3E79201002045
:1049600086010020A0010020A201002070B50546AC
:104970000C46642C00DD70BD224629460748FBF733
:1049800057FD07480480002006490880012240F2B4
:1049900027710548FDF7FFFD00BFECE7280D00205B
:1049A000A4010020A60100200048004010B5FFF738
:1049B000A5FF30B1034801880348FFF7D7FFFEF792
:1049C000F3FA10BD92010020980B00202DE9F04170
:1049D000A6B0002400270025A046002600BF09E05D
:1049E0004148005D202803D123A8C455781CC7B2D4
:1049F000601CC4B23D4800888442F1DB022F05D020
:104A00003BA0FFF735F826B0BDE8F0819DF88C009B
:104A1000401CC4B213E03448005D1EA948551EA8CE
:104A2000405D302803DB1EA8405D392803DD30A03F
:104A3000FFF71EF8E7E7681CC5B2601CC4B29DF81A
:104A40008D00A042E7DC00201EA9485500259DF8F6
:104A50008D00401CC4B213E02348005D19A94855DD
:104A600019A8405D302803DB19A8405D392803DD13
:104A70001FA0FEF7FDFFC6E7681CC5B2601CC4B2EC
:104A80001A480088801EA042E6DC002019A948557B
:104A90001EA8FBF7A1FC1FFA80F819A8FBF79CFCE5
:104AA00086B2B8F1000F03DD15A0FEF7E1FFAAE71B
:104AB000012E04D01EB11AA0FEF7DAFFA3E7012EE3
:104AC00003D1012000F0E6FA02E0002000F0E2FA53
:104AD000334642461AA16846FBF7D0FB6846FEF70C
:104AE000C7FF00BF8FE700006C0A00208E01002086
:104AF000636F6D6D616E64206572726F720D0A0076
:104B0000696420707261206572726F72202C706C03
:104B10006561736520696E70757420300000000057
:104B2000737720707261206572726F72202C706CC6
:104B30006561736520696E70757420302F310000D7
:104B4000736574206C65642025642061732025647E
:104B500020737563636573730D0A0000FFF700F837
:104B6000FEF70EFCFEF7A6FCFEF7E6FDFEF71AFECA
:104B7000FEF74AFB00F030FA00F06AF900F0BEF8E8
:104B8000FDF758FFFEF7D2F9FDF7FCFD13E0FEF745
:104B9000C9FDFEF701FEFEF7F5FAFEF749FC00F04D
:104BA0006DF900F0D9F800F03BF8FDF7F3FEFDF7E2
:104BB00047FFFDF7D3FDEAE770B504460D4655B152
:104BC00004F11502094B33F81210094B53F8220077
:104BD000FDF70FF809E004F11502044B33F8121049
:104BE000034B53F82200FDF702F870BD940000203B
:104BF0002C00002010B501200249087002A0FEF729
:104C000037FF10BDE401002074656D702067756981
:104C10002069732073746172742E2E2E0D0A0000A9
:104C200010B5002432484078C0F3800000B910BDB0
:104C30002F48407820F004002D4948702D48007816
:104C400000B9F4E72B480078012804D0022825D0C9
:104C5000032849D147E000240AE02748005D0128E5
:104C600004D12046FFF7BCF900B1E0E7601CC4B2F4
:104C7000052CF2DB01210020FFF7D0FD01210620E9
:104C800001F07EFA0021052001F07AFA00210120CE
:104C9000FFF7C4FD02201749087026E000240AE04F
:104CA0001548005D012804D12046FFF799F900B9A5
:104CB000BDE7601CC4B2052CF2DB0121052001F028
:104CC0005FFA01210846FFF7A9FD002405E0012154
:104CD000204601F055FA601CC4B2052CF7DB032016
:104CE0000449087001E000E000BF00BF00BF9EE77C
:104CF00086010020500A0020510A002010B500242F
:104D000000201349087000BF04E000201149085535
:104D1000601CC4B2052CF8DB01210020FFF77EFDEA
:104D20000121062001F02CFA0121052001F028FACA
:104D300001210846FFF772FD002405E0012120460D
:104D400001F01EFA601CC4B2052CF7DB10BD000098
:104D5000500A0020510A002070B5002438484078DD
:104D600000F0010000B970BD3548407820F0010026
:104D70003349487000245EE03248005D90B9324803
:104D8000005D00284AD1062094FBF0F100FB1140A1
:104D9000C5B22846FFF7C8F8F0B32C4951F82400F3
:104DA00080473BE02748005D012812D12648005D7E
:104DB000012833D1062094FBF0F100FB1140C5B26D
:104DC0002846FFF7B1F838BB204951F82400804746
:104DD00024E01D48005D01280DD1062094FBF0F170
:104DE00000FB1140C5B22846FFF79EF818B91749D5
:104DF00051F8240080471448005D68B9062094FBF0
:104E0000F0F100FB1140C5B22846FFF78DF818B14C
:104E10000E4951F8240000E000E08047062094FB92
:104E2000F0F100FB1140C5B22846FFF77DF80649B6
:104E30000855601CC4B2062C9EDB00BF93E700003F
:104E400086010020440A00204A0A00202C0A002083
:104E500070B5002400BF0CE0062094FBF0F100FBCD
:104E60001140C5B22846FFF75FF803490855601C9A
:104E7000C4B2062CF0DB70BD4A0A00202DE9F041D7
:104E800000244D480078C0F3801008B9BDE8F081D7
:104E90004948007820F0400047490870002464E049
:104EA0004648005D01285ED1052094FBF0F100FB2F
:104EB00011404349085C401C052194FBF1F201FBC1
:104EC00012413F4A5054052094FBF0F100FB114081
:104ED0001146085C052194FBF1F201FB1241394AAD
:104EE000515C88423FDD052094FBF0F100FB11404E
:104EF000334900220A54052094FBF0F100FB1140D5
:104F00003149085C401C052194FBF1F201FB124180
:104F10002D4A5054052094FBF0F100FB114011463E
:104F2000085C632803DD2046FEF750F81BE00520EF
:104F300094FBF0F100FB11402349085C234931F850
:104F40001050052094FBF0F100FB114020490E5C4D
:104F5000052094FBF0F100FB1140C7B22A46314610
:104F6000384600F047FC601CC4B2052C98DB0024D6
:104F70001EE01848005D042818D11548005D50B99E
:104F80002046FFF78BF888B92046FEF757F82046F1
:104F9000FEF71CF80AE0611DC8B2FFF77FF828B9D8
:104FA0002046FEF74BF82046FEF710F8601CC4B20E
:104FB000052CDEDB00BF69E7860100200E0A002019
:104FC000180A00201D0A0020220A0020B66B0008E3
:104FD000130A0020270A002010B5002400BF07E0B4
:104FE0000020054908552046FDF7F0FF601CC4B2BB
:104FF000052CF5DB10BD0000270A00202DE9F0414B
:1050000004460D4616461F46DDF818803CB935B9F2
:105010002EB927B9B8F1000F01D1BDE8F08134B144
:105020000021084601F0ACF801201849087035B19C
:105030000021012001F0A4F801201449487036B184
:105040000021022001F09CF801201049887037B13E
:105050000021032001F094F801200C49C870B8F138
:10506000000F06D00021042001F08AF80120074932
:1050700008710021062001F083F800210846FFF79F
:10508000CDFB01200249087000BFC6E7510A00208D
:10509000500A002010B5044624B120210448FCF732
:1050A000A8FD03E020210248FCF7A1FD10BD00008F
:1050B000001001401748008808B9002070471648C2
:1050C0000078C0F3800008B90020F7E712480078A4
:1050D00020F00400104908700E4800880F49098824
:1050E000884208D000200E4908800A4800880B49F1
:1050F00008800020E2E70A480088401C0849088030
:1051000008460088142803DD002008800120D5E728
:105110000020D3E7900100208601002098010020A4
:105120009A01002070B505460C46642C00DD70BD68
:10513000224629460948FBF77BF9094804800020EC
:1051400008490880012000F027F8012240F2277169
:105150000548FDF720FA00BFE9E70000C40C002075
:105160009C0100209E0100200044004010B5FFF784
:10517000A1FF30B1034801880348FFF7D3FFFDF7D3
:105180004BFF10BD90010020340B0020014A42F873
:10519000201070472C0A002010B5044624B140218D
:1051A0000448FCF726FD03E040210248FCF71FFD00
:1051B00010BD0000001001402DE9F043ADB0002506
:1051C00000270024A0460026A14600BF09E057485A
:1051D000405D202803D12AA8C555781CC7B2681C99
:1051E000C5B2534800888542F1DB032F05D051A09A
:1051F000FEF73EFC2DB0BDE8F0839DF8A800401CF2
:10520000C5B213E04948405D25A9085525A8005DB1
:10521000302803DB25A8005D392803DD45A0FEF713
:1052200027FCE7E7601CC4B2681CC5B29DF8A90062
:10523000A842E7DC002025A9085500249DF8A90014
:10524000401CC5B213E03948405D20A9085520A88C
:10525000005D302803DB20A8005D392803DD35A080
:10526000FEF706FCC6E7601CC4B2681CC5B29DF818
:10527000AA00A842E7DC002020A9085500249DF8D8
:10528000AA00401CC5B213E02848405D1BA9085580
:105290001BA8005D302803DB1BA8005D392803DD57
:1052A00024A0FEF7E5FBA5E7601CC4B2681CC5B2EC
:1052B0001F480088801EA842E6DC00201BA9085574
:1052C00025A8FBF789F81FFA80F820A8FBF784F8D7
:1052D00086B21BA8FBF780F81FFA80F9B8F1040F1B
:1052E00003DD18A0FEF7C4FB84E7012E04D01EB135
:1052F0001CA0FEF7BDFB7DE7B9F5FA6F03DA20A02D
:10530000FEF7B6FB76E7F1B208F0FF004A4600F080
:10531000FFFB3346424625A102A8CDF80090FAF7DC
:10532000ADFF02A8FEF7A4FB00BF63E76C0A0020F4
:105330008E010020636F6D6D616E64206572726F07
:10534000720D0A00696420707261206572726F725A
:10535000202C706C6561736520696E7075742030E7
:105360002D340000646972206572726F72202C7097
:105370006C6561736520696E70757420302F310023
:1053800074696D20707261206572726F72202C706A
:105390006C6561736520696E7075742032303030D1
:1053A000202D20363535333500000000736574201C
:1053B0006D6F746F7220616363202564206469726D
:1053C0002025642074696D202564206D7320737519
:1053D00063636573730D0A0008B501200346024636
:1053E00001460090FFF70AFE01A0FEF741FB08BD51
:1053F0007374617274203520726F61647320636806
:10540000616E67652077617465720D0A00000000A7
:105410002DE9F043ADB0002500270024A04600266A
:10542000A14600BF09E05748405D202803D12AA8C3
:10543000C555781CC7B2681CC5B253480088854260
:10544000F1DB032F05D051A0FEF712FB2DB0BDE814
:10545000F0839DF8A800401CC5B213E04948405DA8
:1054600025A9085525A8005D302803DB25A8005D87
:10547000392803DD45A0FEF7FBFAE7E7601CC4B25C
:10548000681CC5B29DF8A900A842E7DC002025A948
:10549000085500249DF8A900401CC5B213E0394806
:1054A000405D20A9085520A8005D302803DB20A816
:1054B000005D392803DD35A0FEF7DAFAC6E7601C87
:1054C000C4B2681CC5B29DF8AA00A842E7DC00205F
:1054D00020A9085500249DF8AA00401CC5B213E07D
:1054E0002848405D1BA908551BA8005D302803DB38
:1054F0001BA8005D392803DD24A0FEF7B9FAA5E753
:10550000601CC4B2681CC5B21F480088801EA84237
:10551000E6DC00201BA9085525A8FAF75DFF1FFA55
:1055200080F820A8FAF758FF86B21BA8FAF754FFB4
:105530001FFA80F9B8F1040F03DD18A0FEF798FAFE
:1055400084E7012E04D01EB11CA0FEF791FA7DE77E
:10555000B9F57A7F03DD20A0FEF78AFA76E7F1B28B
:1055600008F0FF004A4600F045F93346424624A1C0
:1055700002A8CDF80090FAF781FE02A8FEF778FAAB
:1055800000BF63E76C0A00208E010020636F6D6D21
:10559000616E64206572726F720D0A00696420701A
:1055A0007261206572726F72202C706C6561736518
:1055B00020696E70757420302D340000646972208B
:1055C0006572726F72202C706C6561736520696EF4
:1055D00070757420302F310070657263656E7420B1
:1055E000707261206572726F72202C706C656173CD
:1055F0006520696E70757420302D313030300000B8
:10560000736574206D6F746F7220256420646972F5
:105610002025642070657263656E742025642F20D8
:10562000313030302050574D20737563636573738C
:105630000D0A00002DE9F04FABB000240026002534
:10564000A146A24600BF09E04748005D202803D1DB
:1056500027A88455701CC6B2601CC4B24348008899
:105660008442F1DB022E05D041A0FEF701FA2BB0F7
:10567000BDE8F08F9DF89C00401CC4B213E03A488E
:10568000005D22A9485522A8405D302803DB22A8EE
:10569000405D392803DD36A0FEF7EAF9E7E7681C2C
:1056A000C5B2601CC4B29DF89D00A042E7DC00209A
:1056B00022A9485500259DF89D00401CC4B213E066
:1056C0002948005D1DA948551DA8405D302803DB11
:1056D0001DA8405D392803DD25A0FEF7C9F9C6E7FE
:1056E000681CC5B2601CC4B220480088801EA0425D
:1056F000E6DC00201DA9485522A8FAF76DFE1FFA26
:1057000080F91DA8FAF768FE1FFA80FAB9F1040FB4
:1057100003DD1BA0FEF7ACF9A9E7BAF57A7F03DD3C
:105720001FA0FEF7A5F9A2E7504601F0EDF80190A1
:1057300001F024F80022244BCDE9020100F09AFD8B
:10574000074600F065FD834609F0FF00594600F06A
:10575000AFF853464A461DA104A8FAF78FFD04A8E6
:10576000FEF786F900BF82E76C0A00208E01002058
:10577000636F6D6D616E64206572726F720D0A00E9
:10578000696420707261206572726F72202C706C77
:105790006561736520696E70757420302D3400006A
:1057A00070657263656E7420707261206572726FCD
:1057B00072202C706C6561736520696E7075742041
:1057C000302D31303030000000408F407365742040
:1057D0006D6F746F72202564206173202564202F03
:1057E00020313030302050574D207375636365731E
:1057F000730D0A002DE9F84F04468A4691464FF092
:10580000000BB9F57A7F01DDBDE8F88F484601F05D
:105810007BF8009000F0B2FF074600221E4B00F01C
:1058200029FD054600F0F4FC8346BAF1000F0AD1C9
:10583000052094FBF0F100FB1140C5B20121284680
:10584000FFF7BAF909E0052094FBF0F100FB1140E5
:10585000C5B200212846FFF7AFF9052094FBF0F10F
:1058600000FB1140C5B25946284600F021F8B9F1B5
:10587000000F07D0052094FBF0F100FB1140074911
:1058800004220A54052094FBF0F100FB1140044966
:1058900001F800A000BFB7E700408F40270A0020B2
:1058A000130A0020014A115470470000841500209B
:1058B0002DE9F04104460D4600262946154801F021
:1058C00037F8074600F0E8FF86B2052C1ED2DFE865
:1058D00004F003080E13180031460F48FCF799FC3A
:1058E00015E031464FF08040FCF793FC0FE0314665
:1058F0000A48FCF78CFC0AE031460848FCF789FCB2
:1059000005E031460548FCF786FC00E000BF00BF1B
:10591000BDE8F081009C0C460004004000080040F7
:105920000A2290FBF2F302FB1302024B23F812103F
:1059300070470000580A002070B505460C4640F23A
:10594000E93094FBF0F100FB114086B23146284665
:10595000FFF7E6FF012070BD2DE9F041A6B000245D
:10596000002600250027A04600BF09E03E48005D54
:10597000202803D123A88455701CC6B2601CC4B271
:105980003A4800888442F1DB022E05D038A0FEF7A9
:105990006FF826B0BDE8F0819DF88C00401CC4B2C1
:1059A00013E03148005D1EA948551EA8405D30280F
:1059B00003DB1EA8405D392803DD2DA0FEF758F853
:1059C000E7E7681CC5B2601CC4B29DF88D00A04218
:1059D000E7DC00201EA9485500259DF88D00401CDD
:1059E000C4B213E02048005D19A9485519A8405DCC
:1059F000302803DB19A8405D392803DD1CA0FEF721
:105A000037F8C6E7681CC5B2601CC4B217480088E6
:105A1000801EA042E6DC00201EA948551EA8FAF709
:105A2000DBFC87B219A8FAF7D7FC1FFA80F8092F18
:105A300003DD13A0FEF71CF8ABE7B8F57A7F03DDB2
:105A400017A0FEF715F8A4E7F8B24146FFF774FF78
:105A500043463A461CA16846FAF710FC6846FEF732
:105A600007F800BF95E700006C0A00208E010020B7
:105A7000636F6D6D616E64206572726F720D0A00E6
:105A8000696420707261206572726F72202C706C74
:105A90006561736520696E70757420302D39000062
:105AA00070657263656E7420707261206572726FCA
:105AB00072202C706C6561736520696E707574203E
:105AC000302D313030300000736574207761726D95
:105AD0006572202564206173202564202F203130D9
