:020000040800F2
:10000000F02F0020450100084D0100084F010008B5
:1000100051010008530100085501000800000000CC
:100020000000000000000000000000005701000870
:1000300059010008000000005B0100085D01000894
:100040005F0100085F0100085F0100085F01000810
:100050005F0100085F0100085F0100085F01000800
:100060005F0100085F0100085F0100085F010008F0
:100070005F0100085F0100085F0100085F010008E0
:100080005F0100085F0100085F0100085F010008D0
:100090005F0100085F0100085F0100085F010008C0
:1000A0005F0100085F0100085F0100085F010008B0
:1000B0005F0100085F0100085F0100085F010008A0
:1000C0005F0100085F0100085F0100085F01000890
:1000D0005F010008B1170008B1180008591900089D
:1000E0005F0100085F0100085F0100085F01000870
:1000F0005F0100085F0100085F0100085F01000860
:100100005F0100085F010008491400085F01000852
:100110005F0100085F0100085F0100085F0100083F
:100120005F0100085F0100085F0100085F0100082F
:10013000DFF80CD000F02EFC00480047AD5400085A
:10014000F02F00200648804706480047FEE7FEE7FC
:10015000FEE7FEE7FEE7FEE7FEE7FEE7FEE7FEE777
:10016000E91300083101000840EA01039B0703D0AE
:1001700009E008C9121F08C0042AFAD203E011F8E6
:10018000013B00F8013B521EF9D27047D2B201E0A8
:1001900000F8012B491EFBD270470022F6E710B58C
:1001A00013460A4604461946FFF7F0FF204610BDE5
:1001B000421C10F8011B0029FBD1801A704710B5B2
:1001C000002200E0521C835C8C5CA34201D1002B16
:1001D000F8D1D8B2E1B2401A10BD70B5064601F0B0
:1001E00001FD046805460A220021304600F02EFA7F
:1001F0002C6070BDF0B480EA0102D40F4200B2EB73
:10020000410F02D20246084611464A0042D0C30DB1
:10021000DDB2C1F3C752AD1A202D35DAC1F3160194
:1002200041F4000204B15242C5F1200602FA06F17F
:100230002A411044B3EBD05F23D0C4B1012DA0EB11
:10024000C35009DCF0BC4FF0004202EAC352DBB2FB
:1002500000F5000000F03BBA400000F1807000EBB8
:10026000C350A0F1807040EAD170490009E049080C
:1002700041EAC071A0EBC35000F50000400800EB5C
:10028000C350F0BC00F01ABA6142012202EB4101F6
:10029000001BF6E7F0BC704781F00041AAE780F050
:1002A0000040A7E780EA010210B502F000434000D9
:1002B00022D04A001FD0010E01EB1261C0F356009C
:1002C000C2F3560240F4000042F40002A0FB0220F8
:1002D00000047F39140400D0401C50EA124001D4BD
:1002E0004000491EC2B20C0604EBD010401C40086E
:1002F000802A02D003E0002010BD20F00100002978
:1003000000DA0020184310BD2DE9FE4F81EA0304F6
:1003100004F0004421F0004100944FF0000B23F062
:10032000004350EA01045ED052EA03045BD0C3F3F9
:100330000A54C1F30A552C44A4F2F3340194A0FBEF
:100340000254C1F3130141F48011C3F3130343F4C6
:10035000801301FB024400FB034E840A970A44EA1F
:10036000815447EA8357A4FB076802958D0A05FB71
:1003700007854FEA932C04FB0C542705029D4FEA96
:10038000065847EA1637B5EB08056EEB070C870EE3
:10039000920E47EA811742EA8312A7FB0201B6EBED
:1003A0000B0164EB00042B0D43EA0C335E1844EBA5
:1003B0001C50DA465146E7FB0201C5F313044FEA2D
:1003C0000B3343EA14534FEA0432019C43EA060319
:1003D000A4F10C040294009CCDE900B400F0B4F93F
:1003E00003B0BDE8F08F00200146F9E72DE9F04D9C
:1003F00081EA030404F0004B21F0004514464FF05D
:10040000000A23F0004150EA050220D054EA01021C
:100410001DD0C5F30A570246C5F31303C1F31300F9
:10042000C1F30A5640F4801543F48013A7EB060885
:10043000101BD64608F2FD3873EB050002D308F115
:10044000010801E092185B41B8F1000F03DA0020C7
:100450000146BDE8F08D00204FF480110646844629
:100460000EE0171B73EB050705D3121B63EB0503A7
:1004700006434CEA010C49084FEA300092185B41F0
:1004800050EA0107EDD152EA030012D082EA0400DB
:1004900083EA0501084305D0101BAB4106D20122B7
:1004A000002306E000224FF0004302E06FF001025B
:1004B00053101AEB06004CEB085110EB0A0041EB0D
:1004C0000B01BDE8F04D00F030B9C10F80EAE070DB
:1004D0000844CA079623002100F0F9B896230022A9
:1004E000114600F0F4B820F00040C10DC0F3160032
:1004F00040F400007F2901DA00207047962903DCD0
:10050000C1F19601C8407047963988407047C1F3E1
:100510000A5210B5C1F3130140F2FF3341F48011C8
:100520009A4201DA002010BD40F233439A42A2F20F
:10053000334203DC524200F079F810BD904010BD08
:1005400000F0004230F000400AD0C10D01F56071AA
:10055000C0F3160042EA0151C20840071143704738
:1005600000200146704701F0004330B421F0004103
:1005700050EA010206D00A0DA2F56072C1F3130120
:10058000002A02DC30BC00207047440F44EAC1045A
:10059000C100E01830BC00EBC25000F08FB830B59D
:1005A0000B46014600202022012409E021FA02F531
:1005B0009D4205D303FA02F5491B04FA02F52844CB
:1005C000151EA2F10102F1DC30BD2DE9F05F0546F8
:1005D000002092469B4688460646814640241BE002
:1005E000284641464746224600F020F853465A46E0
:1005F000C01A914110D311461846224600F0DCF98A
:100600002D1A67EB01084F4622460120002100F019
:10061000D3F917EB00094E41201EA4F10104DFDCE1
:10062000484631462A464346BDE8F09F202A04DB6F
:10063000203A21FA02F00021704721FA02F3D0405B
:10064000C2F1200291400843194670472DE9F04756
:1006500091460F4680460446002614F8015B2DB1F2
:1006600000F0CCF90068405DC007F6D12B2D02D018
:100670002D2D18D0641E4A463946204600F0C2F996
:1006800027B13968A14201D1C7F8008071054FF048
:1006900002040BD54042002803DD01F0A3FA0460F8
:1006A000A007BDE8F08746F48066E4E70028F8DAA2
:1006B00001F098FA04606FF00040F2E70029A8BF4B
:1006C0007047401C490008BF20F00100704710B47B
:1006D000B0FA80FC00FA0CF050EA010404BF10BC30
:1006E000704749B1CCF1200421FA04F411FA0CF15D
:1006F00018BF012121430843A3EB0C01CB1D4FEA96
:1007000000614FEA102042BF002010BC704700EB90
:10071000C35010440029A4BF10BC7047401C4900BE
:1007200008BF20F0010010BC704710B5141E73F113
:10073000000408DA401C41F1000192185B411A43A1
:1007400001D120F0010010BD2DE9F04D92469B46ED
:1007500011B1B1FA81F202E0B0FA80F22032904693
:1007600000F02AF904460F4640EA0A0041EA0B016C
:1007700053465A46084313D0114653EA010019D094
:10078000C8F140025046FFF751FF05460E4650465D
:100790005946424600F010F9084305D0012004E014
:1007A00020463946BDE8F08D0020054346EAE07654
:1007B0002C4337430A986305E40AA0EB08000022A3
:1007C000FD0A44EA47540A3002D500200146E9E711
:1007D000010510196941DDE9084500196941BDE8C5
:1007E000F04DA2E72DE9FE4F804681EA0300C00FDD
:1007F0000C46009021F0004123F00045B8EB0200C8
:10080000A94105D24046214690461C460B46024669
:1008100023F00040104347D0270DC7F30A00C3F36D
:100820000A510290401A019040286BDAC3F313007A
:1008300040F4801B0098924620B10023D2EB030ABB
:1008400063EB0B0B01985946C0F14002504600F093
:10085000B3F806460D4650465946019A00F0BBF8DB
:1008600010EB08006141002487EA115284EAE77323
:100870001A4340D0009A62B3019A012A4FEA075204
:1008800015DC001B61EB02014FF0004202EA075247
:10089000CDE90042001C41F5801132462B46FFF79E
:1008A00053FF03B0BDE8F08F40462146F9E7001B37
:1008B00061EB0201001C41F5801300185B41201818
:1008C000A2F5001747EB030140EAD570B6196D4158
:1008D00011E06D084FEA360645EAC0754FEA075247
:1008E000001B61EB0201001C41F5801149084FEA31
:1008F00030000019514132462B4603B0BDE8F04F9D
:10090000FFF713BF0098012240000023D0EB020242
:1009100063EBE073009821464FEAE074B8EB000007
:1009200061EB0401E9E783F000435BE781F00041FC
:1009300058E7C1F30A52C1F3130140F2FF3341F407
:1009400080119A4202DA00200146704740F2334398
:100950009A42A2F2334202DC5242FFF767BE00F035
:100960002BB8000030B5041E71F1000404DB4FF019
:100970000044404264EB0101141E73F1000405DBE6
:100980001C464FF00043524263EB0403994208BFF8
:10099000904230BD064C074D06E0E06840F0010390
:1009A00094E8070098471034AC42F6D3FFF7C4FB35
:1009B0002C7C00084C7C0008202A04DB203A00FA3A
:1009C00002F1002070479140C2F1200320FA03F3A6
:1009D000194390407047202A06DBCB17203A41FA92
:1009E00002F043EAE07306E041FA02F3D040C2F1BC
:1009F00020029140084319467047000000487047A4
:100A0000107B00082DE9F05F82460078002715462C
:100A10008B460AF10104B946302801D09DB113E09C
:100A200014F8010B0127782803D0582801D045B1CC
:100A30000AE00DB1102D07D10027102514F8010B85
:100A400002E0082500E00A250026B0460EE005FB7E
:100A5000080005FB06F1012701EB10461FFA80F89C
:100A6000B6F5803F00D3B94614F8010B294600F0D3
:100A700018F80028EBDABBF1000F05D00FB1641EA7
:100A800000E05446CBF80040B9F1000F06D001F069
:100A9000A9F802210160C81EBDE8F09F48EA06409F
:100AA000FAE73A2800D2303820F02002412A01D358
:100AB000A2F13700884201D34FF0FF30704770B584
:100AC0008C1810F8015B15F0070301D110F8013BF9
:100AD0002A1106D110F8012B03E010F8016B01F880
:100AE000016B5B1EF9D12B0705D40023521E0DD4D8
:100AF00001F8013BFAE710F8013BCB1A921C03E026
:100B000013F8015B01F8015B521EF9D5A142D8D35D
:100B1000002070BD21B1826842F00102826003E0D2
:100B2000826822F001028260704721B1826842F43B
:100B30008072826003E0826822F480728260704773
:100B400010B504461248844208D10121401500F036
:100B500025FB0021601500F021FB17E00D488442C1
:100B600008D10121001500F019FB0021201500F02B
:100B700015FB0BE00848844208D10121C80300F0AE
:100B80000DFB00214FF4004000F008FB10BD0000F9
:100B90000024014000280140003C014001460020A3
:100BA0008A6802F004020AB1012000E000207047C8
:100BB000014600208A6802F008020AB1012000E024
:100BC0000020704730B502460020002350680F4CCB
:100BD00020400D790C6844EA052420435060906859
:100BE0000B4C2040D1E902542C434D7944EA450492
:100BF00020439060D06A20F470000C7C641EE4B244
:100C0000234340EA0350D06230BD0000FFFEF0FFF6
:100C1000FDF7F1FFF0B504460D4600200021092D37
:100C200011DDE068A5F10A0606EB4607072606FA7D
:100C300007F18843A5F10A0606EB460603FA06F11A
:100C40000843E0600CE0206905EB4507072606FA3B
:100C500007F1884305EB450603FA06F108432061D6
:100C6000072A0FDA606B561E06EB86071F2606FA68
:100C700007F18843561E06EB860605FA06F108437F
:100C8000606322E00D2A0FDA206BD61F06EB860781
:100C90001F2606FA07F18843D61F06EB860605FADB
:100CA00006F10843206310E0E06AA2F10D0606EBAE
:100CB00086071F2606FA07F18843A2F10D0606EB08
:100CC000860605FA06F10843E062F0BD816841F04E
:100CD00008018160704721B1826842F4A0028260FD
:100CE00003E0826822F4A00282607047816841F0CC
:100CF00004018160704721B1026842F00102026084
:100D000004E002684FF6FE731A400260704700006C
:100D100001684FF6FE7211400160002101604160E0
:100D20008160C1604B49884208D14A490839496805
:100D300041F00F01474A083A51608AE045491431B1
:100D4000884208D143490839496841F0F001414AD5
:100D5000083A51607DE03F492831884208D13D4939
:100D60000839496841F470613A4A083A516070E0C4
:100D700038493C31884208D136490839496841F43C
:100D80007041344A083A516063E032495031884238
:100D900008D130490839496841F470212D4A083A90
:100DA000516056E02B496431884208D129490839FD
:100DB000496841F47001274A083A516049E02549E1
:100DC0007831884208D123490839496841F0706177
:100DD000204A083A51603CE01F49884206D1011F71
:100DE000096841F00F01021F116032E01A49143105
:100DF000884208D11849091F096841F0F001164AD4
:100E0000121F116025E014492831884208D1124987
:100E1000091F096841F470610F4A121F116018E040
:100E20000D493C31884208D10B49091F096841F43A
:100E30007041094A121F11600BE007495031884286
:100E400007D10549091F096841F47021024A121FA0
:100E500011607047080002400804024010B50022EB
:100E6000026847F6F0739A430C6A8B6823430C6957
:100E700023434C6923438C692343CC6923434C6A45
:100E800023438C6A23431A430260CB6843600B6898
:100E900083604B68C36010BD2DE9F0410246002518
:100EA0000026002000230024002791F803C00CF046
:100EB0000F0591F803C00CF0100CBCF1000F03D02B
:100EC00091F802C04CEA050591F800C0BCF1000F92
:100ED00031D0146800202BE04FF0010C0CFA00F325
:100EE000B1F800C00CEA03069E4220D183004FF007
:100EF0000F0C0CFA03F7BC4305FA03FC4CEA04049C
:100F000091F803C0BCF1280F06D14FF0010C0CFA88
:100F100000FCC2F814C00AE091F803C0BCF1480F0D
:100F200005D14FF0010C0CFA00FCC2F810C0401CB7
:100F30000828D1D31460B1F800C0BCF1FF0F34DD34
:100F4000546800202EE000F1080C4FF0010808FA68
:100F50000CF3B1F800C00CEA03069E4221D18300D5
:100F60004FF00F0C0CFA03F7BC4305FA03FC4CEAF4
:100F7000040491F803C0BCF1280F05D100F1080C5E
:100F800008FA0CF8C2F8148091F803C0BCF1480FBD
:100F900007D100F1080C4FF0010808FA0CF8C2F86C
:100FA0001080401C0828CED35460BDE8F0810000BA
:100FB000F0B50A46002300240021002500F0004679
:100FC000B6F1004F02D11D4EF16901E01B4E716870
:100FD000C0F3034583B200F44016B6F5401F08D1B4
:100FE00021F07061154E766826F07066134F7E60B2
:100FF00012E000F48016B6F5801F06D1032606FA2B
:1010000005F4A14341F0706106E0460D360103FA94
:1010100006F6B14341F0706122B1460D360103FA84
:1010200006F6314300F00046B6F1004F02D1034E00
:10103000F16101E0014E7160F0BD0000000001406F
:101040000246002093680B400BB1012000E0002015
:101050007047416170470161704700004CF6CC4019
:101060000149086070470000003000404AF6AA209D
:1010700001490860704700000030004001494860A5
:101080007047000000300040014988607047000050
:101090000030004001490860704700000030004007
:1010A00070B5002100230F22C47804B3154C2468C6
:1010B00004F4E064C4F5E064210AC1F10403CA4009
:1010C000447804FA03F184781440214309010E4C5A
:1010D0000678A155047804F01F050124AC4005787A
:1010E0006D11AD0005F1E025C5F8004109E0047877
:1010F00004F01F050124AC40044D0678761145F834
:10110000264070BD0CED00E000E400E080E100E06E
:1011100002490143024A1160704700000000FA05CD
:101120000CED00E001460020034A506820F44040E6
:1011300008435060704700000010024029B1064A81
:1011400052690243044B5A6104E0034A52698243E4
:10115000014B5A61704700000010024029B1064A55
:10116000D2690243044BDA6104E0034AD269824344
:10117000014BDA61704700000010024029B1064AB5
:1011800092690243044B9A6104E0034A92698243E4
:10119000014B9A61704700000010024029B1064AD5
:1011A000D2680243044BDA6004E0034AD268824307
:1011B000014BDA60704700000010024030B500219A
:1011C0000022002400232D4D6D6805F00C0121B193
:1011D000042905D0082923D105E0294D056022E026
:1011E000274D05601FE0254D6D6805F47012234DF5
:1011F0006D6805F48034022505EB92421CB9214D3F
:10120000554305600BE01D4D6D6805F400351DB1BB
:101210001C4D5543056002E0194D5543056002E041
:10122000174D056000BF00BF144D6D6805F0F0015B
:101230000909154D6B5C0568DD4045600F4D6D6813
:1012400005F4E061090A104D6B5C4568DD4085607E
:101250000A4D6D6805F46051C90A0B4D6B5C456819
:10126000DD40C560054D6D6805F44041890B074DB3
:101270006B5CC568B5FBF3F5056130BD001002403D
:1012800000127A0000093D0018000020280000200C
:1012900010B501460022002300204A11012A02D184
:1012A000094C236806E0022A02D1074C236A01E0B8
:1012B000054C636A01F01F02012494401C400CB1EC
:1012C000012000E0002010BD00100240014908602C
:1012D000704700008004424210B500F001F810BDD4
:1012E0000CB50020019000903348006840F4803035
:1012F0003149086000BF3048006800F400300090B9
:101300000198401C0190009818B90198B0F5A06FA1
:10131000F1D12948006800F4003010B1012000909C
:1013200001E0002000900098012843D12348006884
:1013300040F01000214908600846006820F00300D2
:1013400008600846006840F0020008601A484068DB
:10135000194948600846406848600846406840F4BB
:10136000806048600846406820F47C104860084669
:10137000406840F4E81048600846006840F080701B
:10138000086000BF0C48006800F000700028F9D029
:101390000948406820F00300074948600846406853
:1013A00040F00200486000BF0348406800F00C00B5
:1013B0000828F9D10CBD00000010024000200240B6
:1013C000042808D14FF0E021096941F004014FF0F1
:1013D000E022116107E04FF0E021096921F00401EA
:1013E0004FF0E0221161704710B51348006840F0DB
:1013F00001001149086008464068104908400E493C
:101400004860084600680E4908400B4908600846D5
:10141000006820F4802008600846406820F4FE0040
:1014200048604FF41F008860FFF756FF4FF00060E0
:101430000449086010BD0000001002400000FFF8E1
:10144000FFFFF6FE08ED00E010B50121074800F0AF
:101450003BF850B10648007820F00100401C0449D8
:1014600008700121014800F011F810BD000C004087
:101470008E01002021B1028842F08002028004E047
:1014800002884FF67F731A4002807047CA43028277
:10149000704721B1028842F00102028004E0028814
:1014A0004FF6FE731A400280704731B1B0F8442005
:1014B00042F40042A0F8442005E0B0F84420C2F312
:1014C0000E02A0F84420704730B5024600200023E9
:1014D0000024158A05EA0103958905EA010413B180
:1014E0000CB1012000E0002030BD1AB183890B430C
:1014F000838102E083898B438381704770B5002428
:1015000000220023058C4FF6FE7635400584028CC0
:101510008388048B4FF68F752C40B51E2C400D88A8
:101520002C43751E2A400D892A434D882A43144DA9
:10153000A8420BD0134DA84208D0134DA84205D0A5
:10154000124DA84202D0124DA84213D14FF6F775A2
:101550002A404D892A434FF6FB752A408D882A433D
:101560004FF6FF652B404FF6FF552B408D892B43DF
:10157000CD892B4383800483CD888586028470BD0A
:10158000002C014000340140004001400044014073
:10159000004801400A460021018B4FF6F7731940BD
:1015A000114301837047000070B50024002200231E
:1015B000058C4FF6EF7635400584028C8388048BCA
:1015C00048F6FF752C404FF6FF452C400D884FF62E
:1015D000FF7606EA05252C434FF6DF752A400D8974
:1015E00006EA05152A434D8806EA05152A43154DD6
:1015F000A84202D0144DA8421DD14FF67F752A4053
:101600004D894FF6FF7606EA05152A434FF6BF755A
:101610002A408D8806EA05152A434FF6FF352B40F0
:101620004FF2FF752B408D8906EA85052B43CD8946
:1016300006EA85052B4383800483CD8805870284D1
:1016400070BD0000002C0140003401400A4600211A
:10165000018B4FF2FF7319404FF6FF7303EA022329
:10166000194301837047000070B500220023002455
:10167000058C4EF6FF7635400584038C8488828B7A
:1016800048F6FF752A404FF6FF452A400D884FF671
:10169000FF7606EA05252A434DF6FF752B400D8996
:1016A00006EA05352B434D8806EA05352B430B4DDD
:1016B000A84202D00A4DA84208D14BF6FF752C4033
:1016C0008D894FF6FF7606EA85152C438480828348
:1016D000CD88A0F84050038470BD0000002C01406C
:1016E000003401400A460021818B4FF2FF731940FC
:1016F0004FF6FF7303EA0223194381837047818603
:10170000704701877047A0F8401070470022028898
:101710001D4B98420ED01D4B98420BD0B0F1804F1C
:1017200008D01B4B984205D01A4B984202D01A4B56
:10173000984204D14FF68F731A404B881A43174BC7
:10174000984207D0164B984204D04FF6FF431A40F8
:10175000CB881A4302808B8883850B8803850A4BCC
:1017600098420BD0094B984208D00E4B984205D0B6
:101770000D4B984202D00D4B984201D10B7A038653
:101780000123838270470000002C01400034014097
:101790000004004000080040000C00400010004021
:1017A0000014004000400140004401400048014056
:1017B00010B540F22551384800F03BF9002843D0DD
:1017C000354800F0F1F935490988C82291FBF2F358
:1017D00002FB1311324A505430480088C82190FB54
:1017E000F1F201FB12002E49085C082822D12B4897
:1017F000008802281ADB29480088C82190FBF1F2F2
:1018000001FB1200264900220A5424480088C821FE
:1018100090FBF1F201FB1200401E214900220A5404
:101820001E480088401E1D49088008E000201B4912
:10183000088004E019480088401C1849088040F2DC
:101840002551154800F0DAF840F22771124800F0EF
:10185000F0F800B313480088C82190FBF1F201FBB7
:10186000120011490C5C21460B4800F0A2F90D480A
:101870000088401C0B4908800C480088401E0988DD
:10188000884208DA002240F22771034800F0FBF892
:1018900000200449088010BD003801409601002056
:1018A000901F00209E010020842100209C01002028
:1018B00010B540F22551224800F0BBF8A8B12048ED
:1018C00000F072F91F490988642291FBF2F302FBD0
:1018D00013111D4A50541B480088401C19490880A8
:1018E00040F22551164800F089F840F2277114485B
:1018F00000F09FF810B315480088642190FBF1F2C6
:1019000001FB120012490C5C21460D4800F051F910
:101910000E480088401C0D4908800E480088401E73
:10192000098888420ADA002240F22771044800F050
:10193000AAF800200549088004F0A2FD10BD0000AF
:10194000004400409801002058200020A6010020FB
:101950004C220020A401002010B540F2255121485E
:1019600000F067F8A8B11F4800F01EF91E49098869
:10197000C82291FBF2F302FB13111C4A50541A487F
:101980000088401C1849088040F22551154800F095
:1019900035F840F22771134800F04BF800B31448B3
:1019A0000088C82190FBF1F201FB120011490C5C88
:1019B00021460C4800F0FDF80D480088401C0C49F9
:1019C00008800D480088401E0988884208DA0022F5
:1019D00040F22771034800F056F8002004490880BF
:1019E00010BD0000004800409A010020BC200020EB
:1019F000AE010020B0220020AC01002010B5002272
:101A0000002340F66A14A14200D100BF0A1201244B
:101A10009440A3B2DC43048010BD21B1828942F41A
:101A20000052828104E082894DF6FF731A40828160
:101A3000704770B50246002400230025002040F6C0
:101A40006A16B14200D100BFC1F3421501F01F0375
:101A5000012606FA03F3012D02D19689334006E0F0
:101A6000022D02D1168A334001E0968A33400C12CF
:101A7000012606FA04F41688344013B10CB1012093
:101A800000E0002070BDF0B50346002400260025CC
:101A9000002040F66A17B94200D100BF1846C1F3D2
:101AA000421401F01F06012707FA06F5012C01D1A7
:101AB0000C3004E0022C01D1103000E014301AB1D7
:101AC00007682F43076002E00768AF430760F0BD77
:101AD0002DE9F04786B005460E460024A24600BF19
:101AE000A1460027B08900B100BF2F462C8A4CF6D2
:101AF000FF700440F08804432C82AC894EF6F3104A
:101B00000440B08831890843718908430443AC819B
:101B1000AC8A4FF6FF400440B0890443AC8201A870
:101B2000FFF74CFB1F48874202D1DDF810A001E00F
:101B3000DDF80CA0A88900F4004040B10AEBCA000F
:101B400000EB0A1031684900B0FBF1F807E00AEB3E
:101B5000CA0000EB0A1031688900B0FBF1F864207C
:101B6000B8FBF0F004012009642101FB1089A88969
:101B700000F4004040B1322000EBC900B0FBF1F0AE
:101B800000F00700044308E0322000EB0910642154
:101B9000B0FBF1F000F00F0004432C8106B0BDE86B
:101BA000F08700000038014001468888C0F3080033
:101BB0007047C1F308028280704700000FB4084BE1
:101BC00010B504A902AA039800F0D2F8044602A9AD
:101BD000002000F064FC204610BC5DF814FB0000FF
:101BE0009F24000800487047781F002002E008C8C2
:101BF000121F08C1002AFAD170477047002001E087
:101C000001C1121F002AFBD1704700002DE9FF5FC0
:101C1000DDE90220010DDDF838B0024318D044F6AA
:101C20001050A1F2FF3141430D140F98012820D02C
:101C3000A5EB0B00401C5FEA000A4FF00004474E82
:101C4000DFF81C91A046504616D5CAF1000728E0DF
:101C50000F98012443A2012808D0002100980F9B6F
:101C6000C0E90021C0E90243BDE8FF9F6FEA0B0114
:101C7000F4E7CBF10000DEE7074612E0F80707D0F3
:101C80002246334640464946FEF73EFB804689469B
:101C90002246334610461946FEF736FB04460E46EA
:101CA0007F10002FEAD1DDE90201BAF1000F4246B0
:101CB0004B4602DAFEF728FB01E0FEF797FB0446ED
:101CC0000E460022284BFEF74DFE03D84FF0FF30A2
:101CD000014607E00022254B20463146FEF782FDF3
:101CE000FEF727FE102409E0002C0ADB0A2200235D
:101CF000FEF76BFC019B30321A55641E50EA01025C
:101D0000F2D1641C019AC4F1110314440F9A012A00
:101D100003D0012208430DD10AE0084304D000207B
:101D20004FF0110B0F9080E7A3EB0B056D1E0DE03C
:101D30005B4504DD4FF0000205F1010504E003DA24
:101D40004FF00002A5F10105002AECD000980F9990
:101D5000C0E90231C0E9004586E7000000002440E8
:101D60000000F03F300000000000F0430000E03FC2
:101D70002DE9FF4F95B09B468946064600250FE2A8
:101D8000252877D100242746F84A0121059400E050
:101D9000044316F8013F203B01FA03F01042F7D14B
:101DA00030782A2811D06FF02F033078A0F130025C
:101DB000092A16D8059A44F0020402EB820203EBCA
:101DC00042021044761C0590EFE759F8042B059267
:101DD000002A03DA504244F40054059044F002040F
:101DE000761C30782E2816D116F8010F44F0040422
:101DF0002A280DD06FF02F023078A0F13003092B84
:101E000009D807EB870302EB4303C718761CF3E7F7
:101E100059F8047B761C30786C280FD006DC4C28EF
:101E200017D068280DD06A2814D104E0742810D087
:101E30007A280FD10DE044F400140AE044F4801431
:101E400001E044F440147278824202D104F5801417
:101E5000761C761C307866280BD013DC582877D097
:101E600009DC002875D04528F6D04628F4D047284C
:101E70001AD19DE118E0632835D0642879D065280F
:101E800012D195E1702873D008DC6728F1D0692859
:101E90006FD06E280DD06F2806D1B5E073282CD0F6
:101EA000752875D0782874D05A46179990476D1CBC
:101EB00075E1C4F30250022809D003280DD0D9F8E7
:101EC000001004280DD00D6009F1040967E1D9F86C
:101ED0000010EA17C1E90052F6E7D9F800100D80AA
:101EE000F2E70D70F0E719F8041B8DF800100020E0
:101EF0008DF80100EA46012003E059F804AB4FF0E9
:101F0000FF3061074FF0000102D40DE008F101013C
:101F10008846B9420FDA8045F8DB1AF80810002924
:101F2000F4D108E008F1010188468142FADB1AF891
:101F300008100029F6D105985B46A0EB080721465A
:101F40003846179A00F094FA284400EB080507E099
:101F50004DE029E10DE01AF8010B5A461799904718
:101F6000B8F10108F7D25B4621463846179A13E1CB
:101F700042E00A220092C4F302524FF0000A022A01
:101F800008D059F804CB032A4FEAEC710AD00DE0CF
:101F900029E02AE009F1070121F00702F2E802C175
:101FA000914609E00FFA8CFC4FEAEC71042A03D148
:101FB0004FFA8CFC4FEAEC71002907DA0A4600213F
:101FC000DCF1000C61EB02012D2202E0220504D5B8
:101FD0002B228DF80420012203E0E20701D0202209
:101FE000F7E7904659E00A2102E010220DE01021A7
:101FF0004FF0000A00910BE010224FF0000A44F06D
:1020000004040827009203E008224FF0000A00921F
:10201000C4F30252022A05D059F804CB0021032A46
:1020200008D009E009F1070121F00702F2E802C136
:10203000914605E01FFA8CFC042A01D10CF0FF0C3C
:102040004FF00008220728D5702806D0009B83F0A7
:10205000100353EA0A0305D00EE040228DF8042055
:10206000012208E05CEA010206D030228DF804204B
:102070008DF8050002229046009B83F0080353EA86
:102080000A030AD15CEA010201D1620705D53022B8
:102090008DF804204FF001087F1E582804D034A08A
:1020A00003900EA802900DE036A0F9E75346604673
:1020B000009AFEF78AFA84460398825C0298401ED2
:1020C000029002705CEA0100F0D1029806A9081A99
:1020D00000F1200A600702D524F4803400E00127D3
:1020E000574502DDA7EB0A0000E0002000EB0A01E3
:1020F000009005984144401A0590E00306D45B46E1
:102100002146179A059800F0B3F90544002706E028
:1021100001A85A46C05D179990476D1C7F1C474522
:10212000F6DBE0030CD55B462146179A059800F0D4
:102130009FF9054404E030205A46179990476D1CDA
:102140000099481E00900029F5DC08E002980299E9
:102150005A460078491C0291179990476D1CBAF1B4
:102160000001AAF1010AF1DC65E100000928010083
:1021700030313233343536373839616263646566FD
:1021800000000000303132333435363738394142BF
:10219000434445460000000000F058F90544761C11
:1021A000307800287FF4ECAD19B02846BDE8F08FF8
:1021B000620700D4062709F1070222F0070CFCE8A9
:1021C0000223E14603F000485FEA080C02D00FF258
:1021D000702C0DE05FEA045C02D50FF2682C07E07A
:1021E0005FEAC47C02D00FF2602C01E0AFF2700C09
:1021F0004FF0FF3823F00043CDF850C065280CD0D5
:1022000006DC452809D046281DD047283DD13DE0B1
:10221000662818D067287ED138E00021112F01DB15
:10222000112000E0781CCDE9000106A90EA8FFF7F7
:10223000EDFCDDE90F010E9A03910021009207F1F8
:10224000010A04914DE04FF000400097CDE90110E4
:1022500006A90EA8FFF7DAFCDDE90F0203920E9B38
:1022600011990022DDF80CA00093049211B9791C99
:1022700000EB010AB7EB0A0004D4C0F1FF3007F10C
:10228000010A0490AAEB0700019044E0012F00DA54
:1022900001270021112F01DD112000E03846CDE992
:1022A000000106A90EA8FFF7B1FCDDE90F010E9AA7
:1022B0000391002104910092BA4621070CD403999E
:1022C000514500DA8A46BAF1010F05DD009AAAF1FC
:1022D0000101515C302908D0B84202DA10F1040F34
:1022E00006DA0121CDE9011015E0AAF10101E9E7C3
:1022F000002805DC049901440491AAEB000102E0E6
:10230000411C514500DD8A460499401A401C019049
:102310004FF000400290200704D40198504501DBA3
:10232000CDF8048000208DF84F0002980DF14F0782
:10233000B0F1004F25D02B200E9002984FF00208EC
:1023400000280CDA404202902D200E9007E00A216E
:102350000298FEF724F93031029007F8011DB8F118
:102360000001A8F10108F2DC02980028EFD1791EE3
:102370000E980870307800F0200040F0450007F813
:10238000020D12A8C01B00F107081498007800B1D4
:10239000012000EB0A01019801EBE071059841442E
:1023A000401A401E0590E00306D45B462146179A6A
:1023B000059800F05DF805441498007818B15A4665
:1023C000179990476D1CE00324D55B462146179A68
:1023D000059800F04DF805441CE00498002807DB40
:1023E000DDE90301884203DD0098405C179901E0B4
:1023F000179930205A469047049805F10105401C72
:1024000004900198401E019004D12E205A4617993D
:1024100090476D1CBAF10001AAF1010ADDDC05E06C
:1024200017F8010B5A46179990476D1CB8F1000137
:10243000A8F10108F4DC5B462146179A0598ABE643
:102440002D0000002B000000200000002DE9F041CD
:10245000044600251E461746880404D405E0394684
:102460002020B0476D1C641EF9D52846BDE8F081D8
:102470002DE9F041044600251E469046C80301D5CB
:10248000302700E02027880404D505E0414638467F
:10249000B0476D1C641EF9D52846BDE8F0810A6876
:1024A000531C0B60107070472DE9F04104460D4637
:1024B000A5B10A2094FBF0F100FB1140124931F85C
:1024C00010600A2094FBF0F100FB11400F4951F815
:1024D000207031463846FEF7BEFD13E00A2094FB1B
:1024E000F0F100FB1140084931F810600A2094FB1C
:1024F000F0F100FB1140054951F820703146384693
:10250000FEF7A7FDBDE8F081780100205001002012
:1025100010B50A484078C0F3400000B910BD074824
:10252000407820F002000549487000F011F800F0F2
:10253000C3F900F0A7FC00BFF0E700008E01002007
:1025400010B500F08FF800F0F7F900F0EBFC10BDCB
:1025500010B500243B480078002829D100F090FDF8
:1025600010B300BF06E00020374908553749085529
:10257000601CC4B2052CF6DB0120324908703449D6
:10258000002003F077FF3349012003F073FF324945
:10259000022003F06FFF3149032003F06BFF304945
:1025A000042003F067FF4CE000202649087048E053
:1025B000002444E02448005D01280BD1204602F0AD
:1025C00003F838B92148005D20B903201E49085599
:1025D0001E4908551C48005D02280CD1204601F018
:1025E000F3FF40B91948005D032804D100201649C3
:1025F0000855164908551448005D02280CD120469C
:1026000001F0E2FF40B91148005D012804D100202B
:102610000D4908550D4908550B48005D01280CD19E
:10262000204601F0D1FF40B90848005D022804D1DE
:1026300003200549085505490855601CC4B2052CFE
:10264000B8DB10BDD21E0020C81E0020CD1E002009
:10265000914F00089B4F0008A54F0008AF4F00089E
:10266000B94F000810B5002400BF0CE0611DC8B2CE
:1026700001F096FF28B14FF42F720121204604F09B
:1026800029FA601CC4B2052CF0DB00F0F9FC00B3A1
:10269000002404E0002011490855601CC4B2052C38
:1026A000F8DB01200E4908700E49002003F0E2FE1D
:1026B0000D49012003F0DEFE0C49022003F0DAFE92
:1026C0000B49032003F0D6FE0A49042003F0D2FE92
:1026D00002E000200249087010BD0000C81E002062
:1026E000D21E0020914F00089B4F0008A54F000804
:1026F000AF4F0008B94F000870B58EB005460E46C2
:102700000024022E0DD128780D280AD168780A28D5
:1027100007D11EA001F078FB0020214908700EB0FF
:1027200070BD00240BE0285D0D2802D0285D202814
:1027300000D106E0285D01A90855601CC4B2B4426E
:10274000F1DB00BF002001A90855002416E004EBCE
:10275000840000EBC400134A02EBC000011D01A875
:10276000FDF72DFD40B904EB840101EBC4010D4AD6
:1027700052F831008047D2E7601CC4B2472CE6D340
:1027800009A001F041FB00BFC9E70000636F6D6560
:1027900067656E6520636F6D6D616E643A00000061
:1027A000EC010020F0010020696E7661696C642004
:1027B000636F6D6D616E640D0A0000002DE9F041DC
:1027C000B4B01C480078C00910B934B0BDE8F0813D
:1027D0001848007820F080001649087001F0D2FAFD
:1027E00030B1154801881548FFF786FF00F05AFC04
:1027F00013480078D8B113494888FDF76FFE80462A
:10280000FDF79EFE04460D460E490888FDF766FE5C
:102810008046FDF795FE064632460B460AA102A801
:10282000CDE90045FFF7CAF902A801F0EDFA00BFB3
:10283000CBE700008E01002096010020901F0020B1
:10284000EC0100205C2B002074656D70312C256636
:102850003B74656D70322C25663B0A0000B5B5B03F
:1028600000200B4908700B4908700B4908700BA039
:102870000DA100220323CDE9002102900D4903A8F8
:10288000FFF79CF903A801F0BFFA35B000BD0000C6
:10289000EC010020ED010020EE01002031363A333A
:1028A000353A3138000000004E6F76202037203254
:1028B00030313900147B000810B5002400BF30E02F
:1028C0001948005D90B91948005D032827D11848C0
:1028D000005D032823D1611DC8B201F061FEF0B98B
:1028E0000120144908551049085518E00F48005DAB
:1028F000032814D10E48005D032810D1611DC8B211
:1029000001F04EFE58B10B48005D012807D120466A
:1029100002F008FB00200749085503490855601CD0
:10292000C4B2052CCCDB10BDD81E0020C81E002070
:10293000CD1E0020D31E0020002000BF06E0002195
:10294000044A1154044A1154411CC8B20528F6DB4C
:1029500070470000D31E0020D81E00202DE9F04F44
:102960008BB000240026FEA000680A900025A04637
:10297000A146002009900890079006900027824603
:10298000F8480078C0F3401010B90BB0BDE8F08FE4
:10299000F448007820F02000F2490870002417E085
:1029A000F14830F8140000B2F04921F81400204634
:1029B00001F016FE50B1EE4830F81400EB4931F842
:1029C0001410401A00B2EB4921F81400601CC4B284
:1029D0000A2CE5DB002411E0204601F001FE58B18D
:1029E000701CC6B2284605EBD0714910A5EB410119
:1029F0000AAA5454681CC5B2601CC4B20A2CEBDB92
:102A0000022E2FDD4FF0000800240CE0D94830F9E9
:102A10001400404505DDD74830F814001FFA80F84F
:102A2000A146601CC4B20A2CF0DB8DF828904FF050
:102A30000008002412E09DF82800A04200D10BE01D
:102A4000CC4830F91400404505DDCA4830F8140080
:102A50001FFA80F8A14600BF601CC4B20A2CEADB52
:102A60008DF82990012E7AD1002405E0002120461E
:102A700004F0D2F8601CC4B20A2CF7DB9DF82800E1
:102A80000A2190FBF1F301FB1300C2B2104601F0E2
:102A9000A7FD002862D09DF828000A2190FBF1F2E2
:102AA00001FB1200B34931F91000002858DD9DF8F0
:102AB00028000A2190FBF1F201FB1200AD4931F927
:102AC00010000590FDF701FD8346AB49FDF7EAFBD9
:102AD00007909DF82810A74A32F91100FDF7F5FC80
:102AE00005909DF828000A2190FBF1F201FB1200ED
:102AF000A24931F910000390FDF7E7FC0490059915
:102B0000FDF7CAFB83469E49FDF7CCFB0690DDE945
:102B10000610FDF76FFB09909DF828000A2190FB35
:102B2000F1F201FB1200934931F810009DF82810D2
:102B30000A2291FBF2F302FB1311904A22F81100D2
:102B40000998FDF7D0FC87B2B7F57A7F01DD4FF425
:102B50007A779DF82800394604F05EF86CE124E0AD
:102B600000279DF82800394604F056F89DF8280003
:102B70000A2190FBF1F201FB12007E4931F91000AD
:102B800010F10A0F08DA9DF828B00BEBDB71481042
:102B9000002104F0F3FB4FE19DF828B00BEBDB7153
:102BA0004810012104F0EAFB46E19DF828000A21C3
:102BB00090FBF1F301FB1300C2B2104601F010FDCF
:102BC00000286BD0002405E00021204604F024F802
:102BD000601CC4B20A2CF7DB9DF828000A2190FB88
:102BE000F1F201FB1200634931F91000002856DDB3
:102BF0009DF828105F4A32F91100FDF766FC02903B
:102C00009DF828000A2190FBF1F201FB12005B49BC
:102C100031F910B05846FDF758FC01900299FDF7C4
:102C20003BFB57490390FDF73DFB05909DF82800BD
:102C30000A2190FBF1F201FB12004E4931F910001C
:102C40000390FDF742FC83464B49FDF72BFB0490B4
:102C50000599FDF7CFFA09909DF828000A2190FB0D
:102C6000F1F201FB1200434931F810009DF82810E1
:102C70000A2291FBF2F302FB1311404A22F81100E1
:102C80000998FDF730FC87B2B7F57A7F01DD4FF484
:102C90007A779DF82800394603F0BEFF23E000272D
:102CA0009DF82800394603F0B7FF9DF828000A2157
:102CB00090FBF1F201FB12002E4931F9100010F1E6
:102CC0000A0F08DA9DF828B00BEBDB7148100021E1
:102CD00004F054FB07E09DF828B00BEBDB714810C3
:102CE000012104F04BFB9DF829000A2190FBF1F330
:102CF00001FB1300C2B2104601F072FC002875D02F
:102D00009DF829000A2190FBF1F201FB12001949FC
:102D100031F9100000286ADD9DF82910154A32F9B2
:102D20001100FDF7D2FB03909DF829000A2190FBCA
:102D3000F1F201FB1200114931F910000190FDF789
:102D4000C4FB02900399FDF7A7FA83460C49FDF7EF
:102D5000A9FA05909DF829000A2190FBF1F211E0F3
:102D6000FFFF00008E0100205C2B00208E2B002036
:102D70007A2B0020A22B002000000C42B62B002052
:102D80000000A0C001FB12002C4931F91000039093
:102D9000FDF79BFB83462A49FDF784FA04900599C9
:102DA000FDF728FA08909DF829000A2190FBF1F21E
:102DB00001FB1200214931F810009DF829100A2268
:102DC00091FBF2F302FB13111E4A22F8110008983E
:102DD000FDF789FB1FFA80FABAF57A7F01DD4FF41F
:102DE0007A7A9DF82900514603F016FF24E04FF04F
:102DF000000A9DF82900514603F00EFF9DF82900B6
:102E00000A2190FBF1F201FB12000C4931F910008C
:102E100010F10A0F08DA9DF829B00BEBDB714810AE
:102E2000002104F0ABFA07E09DF829B00BEBDB7151
:102E30004810012104F0A2FA00BFA6E5A22B002051
:102E400000000C42B62B0020002000BF0FE04FF026
:102E5000FF31084A22F810100021074A22F810100A
:102E6000064A22F81010064A1154411CC8B20A281A
:102E7000EDDB70477A2B0020A22B0020B62B002020
:102E8000702B002010B5002424480078012800D1C0
:102E900010BD002406E02248005D012800D104E0B6
:102EA000601CC4B20A2CF6DBF2E71D48401E90F805
:102EB000200001281BD101F03DFC03282BD100206C
:102EC00003F088FF00240CE01548005D012806D1BE
:102ED00013480B3030F81410204604F033F9601C0E
:102EE000C4B20A2CF0DB01200C49087013E0002466
:102EF0000CE00B48005D012806D109480B3030F882
:102F00001410204604F01EF9601CC4B20A2CF0DB39
:102F100001200249087000BFBAE70000DD1E002052
:102F2000CB2B002010B500F01FF9012001490870DB
:102F300010BD0000DD1E002000B599B064221D49BF
:102F40006846FDF711F91C484078C0F3C00008B985
:102F500019B000BD1848407820F0080016494870A4
:102F600002F030F818B301F0DFFBE0B1134800883D
:102F70005A2818DA0DF1090210480188104801F0AA
:102F8000BBFE10A000F040FF012000F0D7FF684614
:102F900000F03AFF0A2000F0D1FF0AA000F034FF51
:102FA000012000F0CBFF02F0AFF800F089F800BF7D
:102FB000CEE70000607900088E0100209A01002011
:102FC000BC2000200D0A00007047000010B5024828
:102FD00000F01AFF10BD0000A47B000870B5054684
:102FE00000240DB9002070BD1748007848B116487C
:102FF0000078032805D014480078052801D002F095
:10300000D1FE002411E00120A040284058B1012049
:103010000E49085500200E4908800E4908800021FD
:10302000204604F091FA601CC4B2052CEBDB0021B1
:10303000062004F089FA0021084601F055FF01201E
:103040000149087000BFCEE7681F0020691F0020FB
:103050006E1F0020701F002010B5FF20FFF7BEFF7D
:1030600001A000F0D1FE10BD6368616E6765207736
:103070006174657220737563636573730D0A000074
:1030800010B5002400BF08E0204601F09DFA042896
:1030900001D1002010BD601CC4B2052CF4DB01205E
:1030A000F8E7000010B5044801880448FDF775F8FA
:1030B00000200149088010BD96010020901F0020CB
:1030C00010B5054801880548FDF767F8002002495A
:1030D00008800349088010BD9A010020BC20002010
:1030E000AA010020052190FBF1F201FB1201104A18
:1030F00000235354052190FBF1F201FB12010D4A0C
:103100005354052190FBF1F201FB12010A4A53547A
:10311000052190FBF1F201FB1201084A53540521ED
:1031200090FBF1F201FB1201054A53547047000075
:10313000201F00202A1F0020341F00202F1F0020E6
:103140003E1F002010B5054801880548FDF725F809
:103150000020024908800349088010BD9801002022
:1031600058200020A201002000B589B000208DF871
:103170000000CDF80100CDF80500ADF809004FF6CC
:10318000FF720A2103A8FDF701F809B000BD000095
:1031900010B500200249087002A000F035FE10BDF5
:1031A000EE010020626F78207370656564206465AD
:1031B00062756720636C6F736520737563636573F5
:1031C000730D0A0070B50446052094FBF0F100FB76
:1031D0001140C5B20021284603F0DAFC052094FB1B
:1031E000F0F100FB1140024900220A5470BD0000BA
:1031F000391F002070B59AB0064600240025F488D7
:103200004FF6FF7000EA04243089044300BF05E054
:103210000021284603F0B6FC681CC5B2052DF7DB7B
:1032200001F082FA28B114A000F0EEFD0A2000F0AF
:1032300085FE012C0BD1FF2002F09CFC01F074FAFA
:1032400028B115A000F0E0FD0A2000F077FE01F0A3
:103250006BFA28B117A000F0D7FD0A2000F06EFE2F
:103260000020ADF80400ADF80600022201A90120FB
:1032700002F03EFF1AB070BD636C6F736520746519
:103280006D7020636F6E74726F6C2073756363650D
:103290007373210D0A0000007374617274206F75DE
:1032A000742077617465722073756363657373212D
:1032B0000D0A00006F706572617465207375636339
:1032C000657373210D0A000010B5002002490870D3
:1032D00002A000F099FD10BDED010020746674207D
:1032E000636F6D207472616E736D697420636C6FAF
:1032F000736520737563636573730D0A00000000C6
:1033000070B504460025207808B9022070BD94F8F5
:103310002000012802D1FF20FFF760FE2078154928
:10332000087094F8200081F82000481CD4F801109F
:103330000160D4F805104160B4F809100181401E05
:10334000E168C16021690161A18A8182002509E0EB
:103350000848401C405D18B90021284603F012FCC3
:10336000681CC5B20A2DF3DB00200349087000BFBA
:10337000CCE70000CA2B0020DD1E002010B502A003
:1033800000F042FD10BD0000436F707972696768FC
:10339000742028632920323030312D3230313920E9
:1033A000436F6D6567656E65204C4C432E0D0A4179
:1033B0006C6C20526967687473205265736572760D
:1033C00065642E0D0A000000044800880A2800DA0F
:1033D000704700200149088000BFF9E794010020F0
:1033E000164800880A2800DA704700201349088030
:1033F0001348007820F0100010301149087008467A
:10340000007820F02000203008700846007820F076
:103410008000803008700846407820F00200801C50
:1034200048700846407820F00400001D48700548A8
:103430000088401C0349088000BFD5E792010020A6
:103440008E01002094010020164800880A2800DA26
:1034500070470020134908801348007820F00400CA
:10346000001D114908700846007820F00800083057
:1034700008700846407820F00100401C487008465B
:10348000407820F00800083048700846407820F066
:1034900010001030487005480088401C034908801F
:1034A00000BFD5E7900100208E010020920100208E
:1034B0000F48007800F0010000B970470C48007810
:1034C00020F001000A4908700846007820F0020048
:1034D000801C08700846007820F0400040300870DA
:1034E00004480088401C0349088000BFE5E700004D
:1034F0008E010020900100202DE9F047002419489A
:103500000078C0F3001008B9BDE8F08715480078CE
:1035100020F010001349087000241FE040F6E44139
:10352000204600F01BFE104921F8140031F8140069
:10353000FCF7D4FF82460D49FCF7AEFE8146FCF74E
:10354000FFFF07460A4A0B4BFCF750FF0546FCF706
:10355000DEFF094921F81400601CC4B20A2CDDDB2F
:1035600000BFD1E78E010020482B00200000F0436F
:10357000B81E85EB51B8FE3F5C2B002010B592B011
:10358000002401214802FDF7F9FD4FF40040FDF74A
:10359000C9FD00BF0FE0524830F81400ADF830000C
:1035A00000208DF833004F4951F824000CA9FDF795
:1035B00073FC601CC4B20A2CEDDB4B48FDF7C0FA6B
:1035C00000200D9001208DF838008DF839004FF45F
:1035D00060200F90002010900A208DF844000DA963
:1035E0004148FDF7EFFA0723012204213E48FDF789
:1035F00011FB0723022205213B48FDF70BFB0723A4
:10360000032206213848FDF705FB0723042219464B
:103610003548FDF7FFFA0723052208213248FDF758
:10362000F9FA0723062209212F48FDF7F3FA0723A9
:103630001A460A212C48FDF7EDFA072308220B2130
:103640002948FDF7E7FA072309220C212648FDF750
:10365000E1FA07230A220D212348FDF7DBFA0121B5
:103660002148FDF762FA01211F48FDF753FA1E4871
:10367000FDF72CFB00BF1C48FDF79AFA0028FAD191
:103680001948FDF733FB00BF1748FDF787FA0028FC
:10369000FAD101210846FDF751FD1448FDF738FB2A
:1036A00011484C30019012480290002003904FF4D2
:1036B0007A700490002005908020069040000790CA
:1036C000800008902020099000020A9000200B90B2
:1036D00001A90648FDF7C2FB03F082FB12B010BD42
:1036E000D8010020B0010020002401400800024061
:1036F0007823002038B500240121FC20FDF73EFD91
:1037000000BF1AE02F4830F81400ADF80000102078
:103710008DF8030003208DF802002B4951F8240096
:103720006946FDF7B9FB274A32F81410264A52F8C9
:103730002400FDF78EFC601CC4B21B2CE2DB0024CD
:1037400020E0224830F81400ADF800000E2C05DD12
:10375000142C03DA28208DF8030008E0052C03DA86
:1037600004208DF8030002E048208DF803000320B8
:103770008DF80200164951F824006946FDF78CFBCC
:10378000601CC4B2152CDCDB002405E001212046BE
:1037900003F0F4FD601CC4B2052CF7DB002405E047
:1037A0000121204603F0D0FE601CC4B2072CF7DBD9
:1037B0000121002001F098FB0121084601F094FB53
:1037C00038BD0000980000202C00002024010020BB
:1037D000D000002010B500241C480078C0F3400041
:1037E00000B910BD1948007820F002001749087090
:1037F00000241AE0164830F8140080B1204600F08A
:1038000051FF14490988884204DD01212046FEF752
:103810004BFE08E000212046FEF746FE03E00021B3
:103820002046FEF741FE601CC4B20A2CE2DB0948C8
:103830000088401C0749088008460088B0F57A7F58
:1038400001DD0020088000BFCBE700008E010020D2
:103850007C1F00208C01002010B588B000240121BD
:103860000220FDF77BFC01210920FDF787FC0121E7
:103870008E48FDF79DFB2020ADF81C0018208DF828
:103880001F0003208DF81E0007A98948FDF704FBDF
:1038900042F22730ADF814000020ADF81000ADF86A
:1038A0001600ADF8120004A98248FDF72FFF702022
:1038B000ADF800000120ADF802000220ADF80800CC
:1038C00069467C48FDF770FE08217A48FDF7BEFE88
:1038D00001217848FDF7DDFD01210846FDF73EFC9A
:1038E00001210420FDF74AFC0220ADF81C0018203D
:1038F0008DF81F0003208DF81E0007A96E48FDF704
:10390000CBFA42F22730ADF814000020ADF81000D9
:10391000ADF81600ADF8120004A94FF08040FDF795
:10392000F5FE7020ADF800000120ADF80200022085
:10393000ADF8080069464007FDF736FE0821C806C5
:10394000FDF784FE01218807FDF7A3FD0121042076
:10395000FDF704FC01210820FDF710FC4020ADF824
:103960001C0018208DF81F0003208DF81E0007A9E9
:103970004F48FDF791FA8020ADF81C0018208DF813
:103980001F0003208DF81E0007A94948FDF784FA9F
:103990004FF40070ADF81C0018208DF81F000320B4
:1039A0008DF81E0007A94248FDF776FA42F227304B
:1039B000ADF814000020ADF81000ADF81600ADF819
:1039C000120004A93D48FDF7A1FE6020ADF80000FB
:1039D0000120ADF802000020ADF80600ADF80800A7
:1039E00069463648FDF78AFD6020ADF800000120E9
:1039F000ADF802000020ADF80600ADF808006946F9
:103A00002E48FDF7D1FD6020ADF800000120ADF893
:103A100002000020ADF806000220ADF8080069465B
:103A20002648FDF721FE01212448FDF73EFD08212F
:103A30002248FDF7AFFD08212048FDF707FE0821C9
:103A40001E48FDF74FFE01211C48FDF713FD012123
:103A50001A48FDF71EFD00BF05E00021084603F0EF
:103A600097F8601CC4B2052CF7DB00241AE0144858
:103A700030F81400ADF81C0010208DF81F00032052
:103A80008DF81E000F4951F8240007A9FDF704FA2C
:103A90000B4A32F814100B4A52F82400FDF7D9FAF9
:103AA000601CC4B20A2CE2DB08B010BD00081A008A
:103AB000000C0140000400400008014000080040E4
:103AC000780100205001002010B5FFF7F1FCFFF74E
:103AD000BBFCFFF785FCFFF777FC10BD1FB501218C
:103AE0000820FDF73BFB41F61F40ADF80800092018
:103AF000ADF804000020ADF80A00ADF8060001A9F9
:103B00000D48FDF703FE012211460B48FDF7EDFCC1
:103B100032208DF8000000208DF8010003208DF880
:103B2000020001208DF803006846FDF7B9FA012173
:103B30000148FDF7AEFC1FBD000C004010B502F0BF
:103B4000C7FA10BD00B587B001218803FDF716FB49
:103B50004FF40070ADF8180003208DF81A001820FB
:103B60008DF81B0006A97348FDF796F94FF48060A5
:103B7000ADF8180004208DF81B0006A96D48FDF76C
:103B80008BF925208DF8040003208DF80500022014
:103B90008DF8060001208DF8070001A8FDF780FAD6
:103BA0004FF4E13002900020ADF80C00ADF80E00AB
:103BB000ADF81000ADF814000C20ADF8120002A909
:103BC0005D48FDF785FF012240F225515A48FDF777
:103BD0005AFF002240F227715748FDF754FF012198
:103BE0005548FDF71AFF01210420FDF7C7FA01210E
:103BF0004804FDF7B3FA0820ADF8180004208DF84A
:103C00001B0006A94B48FDF747F90420ADF8180042
:103C100003208DF81A0018208DF81B0006A94548CE
:103C2000FDF73AF926208DF8040003208DF80500F1
:103C300002208DF8060001208DF8070001A8FDF78D
:103C40002FFA4FF4E13002900020ADF80C00ADF8EF
:103C50000E00ADF81000ADF814000C20ADF8120005
:103C600002A93648FDF734FF012240F225513348BE
:103C7000FDF709FF002240F227713048FDF703FFEE
:103C800001212E48FDF7C9FE01210820FDF776FA33
:103C900001218804FDF762FA4FF40060ADF81800C6
:103CA00004208DF81B0006A92548FDF7F5F84FF410
:103CB0008060ADF8180003208DF81A0018208DF8E8
:103CC0001B0006A91E48FDF7E7F84FF4E13002900B
:103CD0000020ADF80C00ADF80E00ADF81000ADF806
:103CE00014000C20ADF8120002A91648FDF7F0FEF2
:103CF000012240F225511348FDF7C5FE012111486C
:103D0000FDF78BFE4FF4A060FDF702FA27208DF837
:103D1000040003208DF8050002208DF80600012024
:103D20008DF8070001A8FDF7BBF9002002F0A8FB01
:103D300007B000BD000801400038014000440040C9
:103D4000000C01400048004010B5FDF78FF910BD90
:103D500010B50120FDF7BAFA00BF6120FDF798FA0F
:103D60000028FAD045F25550FDF794F94020FDF7B0
:103D700085F940F2E240FDF787F9FDF777F9FDF7A5
:103D80006DF910BD0A48008808B90020704708483E
:103D90000088801E0749085C0D2807D10448008868
:103DA000401E085C0A2801D10120EFE70020EDE762
:103DB00096010020901F002010B5FFF7C5FF0A20D4
:103DC00000F0BCF810BD000070B505460C46C82CCC
:103DD00000DD70BD224629460748FCF7C5F90748B3
:103DE0000480002006490880012240F2277105481E
:103DF000FDF749FE00BFECE7842100209C01002074
:103E00009E0100200038014070B504462046FCF7B2
:103E1000CFF985B229462046FFF7D6FF70BD0000D6
:103E200010B502A0FFF7F0FF10BD00006B65792010
:103E300030206576656E742068617070656E6421EF
:103E40000D0A000010B502A0FFF7DEFF10BD000054
:103E50006B65792031206576656E742068617070BD
:103E6000656E64210D0A000010B502A0FFF7CCFFBB
:103E700010BD00006B65792032206576656E742078
:103E800068617070656E64210D0A000010B502A0B3
:103E9000FFF7BAFF10BD00006B657920332065760F
:103EA000656E742068617070656E64210D0A000093
:103EB00010B502A0FFF7A8FF10BD00006B657920C8
:103EC00034206576656E742068617070656E64215B
:103ED0000D0A000010B502A0FFF796FF10BD00000C
:103EE0006B65792035206576656E74206861707029
:103EF000656E64210D0A000010B56FF00400FDF737
:103F00005FFA0A4800680A49B0FBF1F009490870F5
:103F10000846007800EB4001C1EBC0104FF6FF717E
:103F200001EAC0000449088010BD00000000002024
:103F300000127A0014000020160000200146114AE9
:103F400012884A434FF0E0235A6100229A611A46D0
:103F5000126942F001021A6100BF4FF0E0221069BD
:103F600000F001021AB100F48032002AF5D04FF0BF
:103F7000E022126922F001024FF0E0231A610022D0
:103F80009A617047160000202DE9F041A6B0002488
:103F900000270025A046002600BF09E04148005D3B
:103FA000202803D123A8C455781CC7B2601CC4B212
:103FB0003D4800888442F1DB022F05D03BA0FFF78B
:103FC00023FF26B0BDE8F0819DF88C00401CC4B2F0
:103FD00013E03448005D1EA948551EA8405D3028F6
:103FE00003DB1EA8405D392803DD30A0FFF70CFF7E
:103FF000E7E7681CC5B2601CC4B29DF88D00A04202
:10400000E7DC00201EA9485500259DF88D00401CC6
:10401000C4B213E02348005D19A9485519A8405DB2
:10402000302803DB19A8405D392803DD1FA0FFF706
:10403000EBFEC6E7681CC5B2601CC4B21A48008813
:10404000801EA042E6DC002019A948551EA8FCF7F6
:10405000C4F81FFA80F819A8FCF7BFF886B2B8F1C7
:10406000040F03DD15A0FFF7CFFEAAE7012E04D051
:104070001EB11AA0FFF7C8FEA3E70EB1012200E0AF
:104080000022114608F0FF0002F01AFB33464246B8
:104090001AA16846FDF792FD6846FFF7B5FE00BF1E
:1040A0008FE70000901F002096010020636F6D6D68
:1040B000616E64206572726F720D0A00696420700F
:1040C0007261206572726F72202C706C656173650D
:1040D00020696E70757420302D3400007377207065
:1040E0007261206572726F72202C706C65617365ED
:1040F00020696E70757420302F3100007365742054
:1041000066616E20636F6E202564206173202564D4
:1041100020737563636573730D0A000070B5044600
:104120000D465DB104F10C020A4B33F81210921CDB
:10413000094B53F82200FCF78EFF0AE004F10C0251
:10414000044B33F81210921C034B53F82200FCF777
:1041500080FF70BD980000202C0000202DE9F04F5A
:1041600087B082468B460024A1460020069000BFFF
:1041700009E004EB8400184901EB800030F81A00D4
:104180008144601C84B2642CF3DB6420B9FBF0F939
:104190005846FCF7A3F90746FCF7D2F905460E4648
:1041A0004846FCF79BF90190FCF7CAF90746002244
:1041B0000A4BFCF71BF92A463346CDE90201FCF70E
:1041C000A3F8CDE90401FCF7A2F980B206900698A5
:1041D00007B0BDE8F08F0000782300200000B04059
:1041E0000148007870470000EE01002001460520DC
:1041F00091FBF0F200FB1210014A105C70470000C6
:10420000C81E002030B599B00024002500BF13E07F
:1042100040F6E4412046FFF7A1FF05462B46224623
:1042200007A16846FDF7CAFC6846FFF7EDFD0A20C6
:10423000FFF784FE601CC4B20A2CE9DB19B030BD64
:104240003E3E3E2061646320256420766F6C74617D
:104250006765206973202564206D56200D0A0000D3
:104260000146052091FBF0F200FB1210014A105CA0
:1042700070470000731F002010B500F05BFA06289D
:104280001CD2DFE800F003070B0F13170DA0FFF798
:10429000BBFD14E014A0FFF7B7FD10E01CA0FFF772
:1042A000B3FD0CE024A0FFF7AFFD08E02BA0FFF763
:1042B000ABFD04E031A0FFF7A7FD00E000BF00BFA9
:1042C00010BD00004E6F7720737461747573203ACF
:1042D000206E6F5F696E6A656374696F6E5F74618B
:1042E000736B0D0A000000004E6F772073746174C9
:1042F0007573203A206368616E67655F77617465E6
:10430000725F6F75745F7374617475730D0A00006A
:104310004E6F7720737461747573203A20636861FF
:104320006E67655F77617465725F696E5F737461F4
:104330007475730D0A0000004E6F772073746174FA
:104340007573203A206368616E67655F7761746595
:10435000725F646F6E650D0A000000004E6F77207B
:10436000737461747573203A206F75745F7761742C
:1043700065725F7374617475730D0A004E6F7720F8
:10438000737461747573203A206F75745F7761740C
:1043900065725F646F6E650D0A00000030B599B0FC
:1043A0000024002500BF17E0204600F039F805463C
:1043B0002DB122460AA16846FDF700FC04E0224622
:1043C0000FA16846FDF7FAFB6846FFF71DFD0A20BE
:1043D000FFF7B4FD601CC4B2062CE5DB19B030BD9C
:1043E0003E3E3E206B657920256420766F6C7461BB
:1043F00067652069732074727565200D0A000000DE
:104400003E3E3E206B657920256420766F6C74619A
:1044100067652069732066616C736520200D0A0052
:1044200010B5044604F10F02064B33F81210064B88
:1044300053F82200FCF704FE08B1012010BD002053
:10444000FCE7000024010020D00000200148007893
:1044500070470000721F002030B599B0002400257D
:1044600000BF17E0204600F03DF805462DB122467A
:104470000AA16846FDF7A2FB04E0224610A16846A7
:10448000FDF79CFB6846FFF7BFFC0A20FFF756FDCF
:10449000601CC4B20A2CE5DB19B030BD3E3E3E20A4
:1044A0006C697175696420256420766F6C7461672E
:1044B000652069732074727565200D0A0000000084
:1044C0003E3E3E206C697175696420256420766FDC
:1044D0006C746167652069732066616C7365200D7B
:1044E0000A00000010B50446064A32F81410064AC5
:1044F00052F82400FCF7A4FD08B1012010BD0020F3
:10450000FCE7000024010020D000002030B599B065
:104510000024002500BF17E0204600F041F80546C2
:104520002DB122460AA16846FDF748FB04E0224669
:1045300011A16846FDF742FB6846FFF765FC0A20BB
:10454000FFF7FCFC601CC4B20A2CE5DB19B030BDDF
:104550003E3E3E206D6F746F72206C696D697420F1
:10456000256420766F6C74616765206973207472AE
:104570007565200D0A0000003E3E3E206D6F746F91
:1045800072206C696D697420256420766F6C74618B
:1045900067652069732066616C7365200D0A0000F1
:1045A00010B50446621D064B33F81210054B53F844
:1045B0002200FCF745FD08B1012010BD0020FCE7FA
:1045C00024010020D00000200146052091FBF0F2DC
:1045D00000FB1210014A105C70470000391F0020D8
:1045E00001460148405C7047702B002010B59AB01E
:1045F000002400BF16E02046FFF7F2FF28B1224654
:104600000AA101A8FDF7DAFA04E022460FA101A8E9
:10461000FDF7D4FA01A8FFF7F7FB0A20FFF78EFC9D
:10462000601CC4B20A2CE6DB1AB010BD3E3E3E2030
:1046300070696420636F6E74726F6C6C6572202594
:1046400064206973206F6E200D0A00003E3E3E20FC
:1046500070696420636F6E74726F6C6C6572202574
:1046600064206973206F6666200D0A0010B5FFF79D
:10467000EDFE18B903A0FFF7C7FB02E005A0FFF7A6
:10468000C3FB10BD6C63645F706F7765725F6F66AC
:10469000660D0A006C63645F706F7765725F6F6EA2
:1046A0000D0A000001460A2091FBF0F200FB1210F7
:1046B000014A32F8100070477C1F002030B599B0D5
:1046C0000024002500BF10E00A4830F814502B46A3
:1046D000224609A16846FDF771FA6846FFF794FB88
:1046E0000A20FFF72BFC601CC4B20A2CECDB19B0CB
:1046F00030BD00005C2B00203E3E3E2074656D7096
:104700002020256420697320256420202F20302E4E
:1047100031206465677265652063656E74696772D0
:10472000616465200D0A00000148007870470000B0
:10473000ED0100200148007870470000681F00204C
:1047400010B54AA0FFF760FBFFF736FB4FA0FFF75D
:104750005BFBFFF731FB52A0FFF756FBFFF72CFB8B
:104760005EA0FFF751FBFFF727FB6BA0FFF74CFBA9
:10477000FFF722FB75A0FFF747FBFFF71DFB80A0AB
:10478000FFF742FBFFF718FB84A0FFF73DFBFFF7A5
:1047900013FB8DA0FFF738FBFFF70EFB90A0FFF790
:1047A00033FBFFF709FB93A0FFF72EFBFFF704FB9A
:1047B0009AA0FFF729FBFFF7FFFAA2A0FFF724FB5F
:1047C000FFF7FAFAA5A0FFF71FFBFFF7F5FAB3A072
:1047D000FFF71AFBFFF7F0FAC0A0FFF715FBFFF792
:1047E000EBFAC4A0FFF710FBFFF7E6FAC7A0FFF74C
:1047F0000BFBFFF7E1FAC9A0FFF706FBFFF7DCFAB6
:10480000CBA0FFF701FBFFF7D7FAD9A0FFF7FCFA1F
:10481000FFF7D2FAE5A0FFF7F7FAFFF7CDFAE7487E
:10482000FFF7F2FAFFF7C8FAE5A0FFF7EDFAFFF796
:10483000C3FAF1A0FFF7E8FAFFF7BEFAF4A0FFF71A
:10484000E3FAFFF7B9FAF8A0FFF7DEFAFFF7B4FAD8
:10485000F9A0FFF7D9FAFFF7AFFAFBA0FFF7D4FAF8
:10486000FFF7AAFAFEA0FFF7CFFA01E20D0A0D0A40
:104870000D0A2068656C7020636D64206C69737428
:10488000203E3E3E3E3E3E3E0D0A000020312020AE
:104890006765745F6373705F616463200D0A000075
:1048A000203220207365745F7761726D5F70776D61
:1048B0002069642070657263656E74204E6F746544
:1048C000206964203A20302D392070657263656E4E
:1048D0007420302D313030300D0A0000203320207C
:1048E0007365745F6D6F746F725F70776D2069644C
:1048F0002070657263656E74204E6F746520696404
:10490000203A20302D342070657263656E7420303B
:104910002D313030300D0A0020342020776174654D
:10492000725F636F6F6C5F70756D705F636F6E2029
:104930006964207377204E6F74652069643A203073
:104940002D3420737720302F310D0A0020352020A0
:1049500077617465725F636F6F6C5F7661766C65AB
:104960005F636F6E206964207377204E6F746520DB
:10497000696420302D3620737720302F310D0A00E6
:10498000203620206765745F6C69717569645F66A5
:104990006565646261636B200D0A0000203720208A
:1049A00068756D69646974795F636F6E20696420EE
:1049B0007377204E6F74652069643A302D3120730F
:1049C0007720302F310D0A00203820206765745F72
:1049D0006D6F746F725F6C696D6974200D0A0000F1
:1049E000203920206765745F6B65795F696E0D0AF9
:1049F000000000002031302066616E5F636F6E2022
:104A00006964207377204E6F746520696420302DAF
:104A10003420737720302F310D0A000020313120EF
:104A20006C65645F636F6E206964207377204E6FDE
:104A30007465206964203020737720302F310D0A8F
:104A400000000000203132206F70656E5F616C6C79
:104A50005F7661766C65200D0A00000020313320FE
:104A60007365745F6D6F746F72206964206469721E
:104A7000207370656564204E6F7465206964203012
:104A80002D342064697220302F3120737065656485
:104A900020302D313030300D0A000000203134201C
:104AA0007365745F6163635F6D6F746F72206964B7
:104AB000206469722074204E6F7465206964203010
:104AC0002D342064697220302F3120742032303030
:104AD000302D36353533350D0A00000020313520B4
:104AE0006368616E67655F77617465725F616C6C46
:104AF000200D0A00203136206F75745F7761746570
:104B0000725F616C6C200D0A0000000020313720BC
:104B10006765745F74656D70200D0A002031382060
:104B20006765745F7069645F7377200D0A00000029
:104B30002031392073746172745F70696420696414
:104B40002074616765745F74656D70204E6F746565
:104B500020696420302D39207461726765745F7438
:104B6000656D70203235202D203130300D0A000067
:104B7000203230206F70656E5F74656D705F677591
:104B80006920206F70656E5F74656D705F67756911
:104B9000204E6F746520707265737320456E746566
:104BA0007220746F2053746F700D0A002032312010
:104BB00076657273696F6E0D0A000000E87B00086D
:104BC00020323320636C6F73655F7466745F636F4C
:104BD0006D5F646562756720204E6F746520636C3D
:104BE0006F73652074667420636F6D207472616EDC
:104BF000736D69740D0A000020323420726561649F
:104C00005F626F785F7374617475730D0A000000E2
:104C100020323520726561645F66616E5F73746116
:104C20007475730D0A00000020323620706F7765AE
:104C3000725F6F6E0D0A000020323720706F77654B
:104C4000725F6F66660D0A00203238206765745FF8
:104C5000706F7765725F7374617475730D0A00000D
:104C6000203239207774645F746573740D0A000014
:104C7000FFF7A2F80AA0FFF7C7F8FFF79DF80CA00E
:104C8000FFF7C2F8FFF798F80DA0FFF7BDF8FFF7A0
:104C900093F812A0FFF7B8F8FFF78EF810BD0000E8
:104CA00020333020636F707972696768740D0A0071
:104CB00020333120617574686F720D0A00000000A6
:104CC000203332206F70656E5F626F785F7370653E
:104CD00065645F64656275670D0A000020333320E8
:104CE000636C6F73655F626F785F73706565645F37
:104CF00064656275670D0A00F0B504460D46002034
:104D00001FE0265C3109265C06F00F03092904DD4B
:104D100001F1370602F8106003E001F1300602F8F5
:104D20001060092B06DD03F13706F7B24600761C4A
:104D3000975505E003F13006F7B24600761C97550B
:104D4000401CA842DDD3002602F81060F0BD000030
:104D50002DE9F041A6B0002400270025A04600263A
:104D600000BF09E04148005D202803D123A8C455B5
:104D7000781CC7B2601CC4B23D4800888442F1DB95
:104D8000022F05D03BA0FFF73FF826B0BDE8F08129
:104D90009DF88C00401CC4B213E03448005D1EA98D
:104DA00048551EA8405D302803DB1EA8405D392809
:104DB00003DD30A0FFF728F8E7E7681CC5B2601CE8
:104DC000C4B29DF88D00A042E7DC00201EA9485522
:104DD00000259DF88D00401CC4B213E02348005DFF
:104DE00019A9485519A8405D302803DB19A8405D72
:104DF000392803DD1FA0FFF707F8C6E7681CC5B216
:104E0000601CC4B21A480088801EA042E6DC002064
:104E100019A948551EA8FBF7E0F91FFA80F819A850
:104E2000FBF7DBF986B2B8F1010F03DD15A0FEF741
:104E3000EBFFAAE7012E04D01EB11AA0FEF7E4FF93
:104E4000A3E70EB1012200E00022114608F0FF00A6
:104E500000F04AF8334642461AA16846FCF7AEFE17
:104E60006846FEF7D1FF00BF8FE70000901F0020CB
:104E700096010020636F6D6D616E64206572726FC4
:104E8000720D0A00696420707261206572726F721F
:104E9000202C706C6561736520696E7075742030AC
:104EA0002D310000737720707261206572726F720D
:104EB000202C706C6561736520696E70757420308C
:104EC0002F3100007365742068756D6964697479A9
:104ED00020636F6E20256420617320256420737524
:104EE00063636573730D0A0070B504460D4655B1D2
:104EF00004F10C02094B33F81210094B53F822004D
:104F0000FCF7A9F809E004F10C02044B33F8121085
:104F1000034B53F82200FCF79CF870BD980000206A
:104F20002C00002010B504461748005D052827D244
:104F3000DFE800F003171E0D25004FF47A62002110
:104F4000204601F05BFF01201049085519E04FF49D
:104F50007A620121204601F051FF01200B490855DA
:104F60000FE0204601F0B4FF02200849085508E090
:104F7000204601F0ADFF01200449085501E000E0A2
:104F800000BF00BF10BD0000CD1E0020C81E0020C5
:104F900010B50020FFF7C6FF10BD10B50120FFF7C8
:104FA000C1FF10BD10B50220FFF7BCFF10BD10B54A
:104FB0000320FFF7B7FF10BD10B50420FFF7B2FFC5
:104FC00010BD00001748008808B900207047164837
:104FD0000078C0F3C00008B90020F7E71248007855
:104FE00020F00800104908700E4800880F49098811
:104FF000884208D000200E4908800A4800880B49E2
:1050000008800020E2E70A480088401C0849088020
:1050100008460088142803DD002008800120D5E719
:105020000020D3E79A0100208E010020A801002073
:10503000AA01002010B5044624B110210448FCF751
:105040000AF803E010210248FCF703F810BD000045
:105050000010014010B5044614B100F011F801E051
:1050600000F002F810BD000010B50020FFF7E2FFCD
:1050700000200249087000F09BFF10BD721F002045
:1050800010B50120FFF7D6FF01200249087000F09B
:105090008FFF10BD721F002030B599B005460C4639
:1050A000642214496846FBF75FF8C82C01DD19B08B
:1050B00030BD224629461048FBF756F80F480480B9
:1050C00000200F490880012240F227710D48FCF7AB
:1050D000DAFCFFF729FB50B15A2C08DA0DF109026E
:1050E00021462846FFF708FE6846FEF78DFE00BF02
:1050F000DDE70000FC760008B0220020AC010020B3
:10510000AE010020004800402DE9F0418EB000249F
:10511000002500260027704800880A2802DA0EB011
:10512000BDE8F0810024CEE06C48005DEE287DD122
:105130008DF804006949601C085CADF80600BDF8F4
:1051400006004FF6FF7101EA0020ADF80600BDF839
:105150000600624AA11C515C0843ADF80600BDF888
:1051600006002044401DC82190FBF1F201FB120013
:105170005A49085CFF28DAD1BDF806002044801D9A
:10518000C82190FBF1F201FB12005449085CFE2893
:10519000CDD1BDF806002044C01DC82190FBF1F21E
:1051A00001FB12004D49085CFD283FD1BDF8060007
:1051B00020440830C82190FBF1F201FB120047495E
:1051C000085CFF287DD1BDF806002044C01CC82122
:1051D00090FBF1F201FB120040490F5C4FF6FF70AB
:1051E00000EA0727BDF806002044001DC82190FBF7
:1051F000F1F201FB12003949085C0743E01CC821A9
:1052000090FBF1F201FB1200344900EB0108BDF8FC
:105210000600C1B2404600F02DF9ADF83200BDF8ED
:105220003200B8424DD1E01CC82100E049E090FBBB
:10523000F1F201FB12002949085CADF80800BDF845
:1052400008004FF6FF7101EA0020ADF80800201DAC
:10525000C82190FBF1F201FB12002049085CBDF867
:1052600008100843ADF8080000250EE0601D284432
:10527000C82190FBF1F201FB12001849095C0DF105
:105280000A0020F81510681CC5B2BDF80600A84237
:10529000ECDC00260EE0124800EBC6008088BDF86A
:1052A0000810884204D10E4850F8361001A88847EB
:1052B000701CC6B2082EEED3BDF806000B30204499
:1052C000C4B2601CC4B204480088401EA0423FF72C
:1052D0002BAF00BF23E700009A010020BC20002074
:1052E000E01E00202DE9F041A6B000240027002593
:1052F000A046002600BF09E04148005D202803D1F8
:1053000023A8C455781CC7B2601CC4B23D480088AD
:105310008442F1DB022F05D03BA0FEF775FD26B0DD
:10532000BDE8F0819DF88C00401CC4B213E0344805
:10533000005D1EA948551EA8405D302803DB1EA84D
:10534000405D392803DD30A0FEF75EFDE7E7681C0D
:10535000C5B2601CC4B29DF88D00A042E7DC0020FD
:105360001EA9485500259DF88D00401CC4B213E0CD
:105370002348005D19A9485519A8405D302803DB72
:1053800019A8405D392803DD1FA0FEF73DFDC6E7E3
:10539000681CC5B2601CC4B21A480088801EA042B6
:1053A000E6DC002019A948551EA8FAF716FF1FFAD7
:1053B00080F819A8FAF711FF86B2B8F1000F03DDE3
:1053C00015A0FEF721FDAAE7012E04D01EB11AA0F8
:1053D000FEF71AFDA3E7012E03D1012000F0E8FD3E
:1053E00002E0002000F0E4FD334642461AA1684680
:1053F000FCF7E4FB6846FEF707FD00BF8FE70000FF
:10540000901F002096010020636F6D6D616E642017
:105410006572726F720D0A00696420707261206596
:1054200072726F72202C706C6561736520696E708A
:105430007574203000000000737720707261206561
:1054400072726F72202C706C6561736520696E706A
:10545000757420302F310000736574206C656420F2
:1054600025642061732025642073756363657373FD
:105470000D0A000070B502460C46FF25FF2309E027
:1054800012F8010B80EA05010648405C80EA03053A
:105490000548435C2000A4F10106F4B2F0D145EACE
:1054A000032070BD6077000860780008FEF724FDD7
:1054B000FEF720F9FEF7D0F9FEF710FBFEF742FBEE
:1054C000FEF75CF8FEF744FC00F026FD00F008FD56
:1054D00000F068FC00F09EFB00F030FDFDF7BEF927
:1054E000FDF772FDFDF7B0FCFDF72AF817E0FEF7B7
:1054F000EBFAFEF723FBFDF7FFFFFEF76BF9FEF774
:1055000023FC00F003FD00F06FFC00F095FBFDF7BD
:1055100055F9FDF711FDFDF721FAFCF7F9FFE6E774
:10552000F0B599B0002475480078C0F3801008B930
:1055300019B0F0BD7148007820F040006F49087044
:105540000024D5E06E48005D012868D1052094FB59
:10555000F0F100FB11406B49085C401C052194FBF5
:10556000F1F201FB1241674A5054052094FBF0F11F
:1055700000FB11401146085C052194FBF1F201FB90
:105580001241614A515C88422ADD052094FBF0F10A
:1055900000FB11405B4900220A54052094FBF0F106
:1055A00000FB11405949085CC0BB052094FBF0F199
:1055B00000FB11405649085C401C052194FBF1F2A8
:1055C00001FB1241524A5054052094FBF0F100FBBC
:1055D00011401146085C632803DD2046FDF782FD7B
:1055E00066E0052094FBF0F100FB11404849085C9F
:1055F000484931F81050052094FBF0F100FB1140B0
:1056000045490E5C052094FBF0F100FB1140C7B248
:105610002A463146384601F05DFA49E000E065E08F
:10562000052094FBF0F100FB11403949085C78B18A
:10563000052094FBF0F100FB11403549085C401E49
:10564000052194FBF1F201FB1241314A505407E06D
:10565000052094FBF0F100FB11402D4900220A5473
:10566000052094FBF0F100FB11402949085C18B9B2
:105670002046FDF737FD1BE0052094FBF0F100FB11
:1056800011402349085C234931F81050052094FB50
:10569000F0F100FB114020490E5C052094FBF0F175
:1056A00000FB1140C7B22A463146384601F012FAD3
:1056B000FEF796FDD0B1CCB9052094FBF0F100FBCC
:1056C00011401349085C134931F81050052094FB30
:1056D000F0F100FB114010490E5C2B4632460FA141
:1056E0006846FCF76BFA6846FEF78EFB601CC4B296
:1056F000052CFFF627AF00BF1AE700008E0100203F
:10570000201F00202A1F00202F1F00203E1F0020E6
:10571000341F0020C4790008251F0020646972200E
:105720003A202564207370656564203A2025640062
:1057300070B504460D4655B104F11502094B33F816
:105740001210094B53F82200FBF785FC09E004F125
:105750001502044B33F81210034B53F82200FBF7E9
:1057600078FC70BD980000202C00002010B50024AB
:1057700018484078C0F3001000B910BD15484078B3
:1057800020F010001349487000241FE01248005D0B
:10579000042819D11148005D01280AD12046FEF7DE
:1057A000FFFE88B92046FDF70DFD2046FDF79AFC67
:1057B0000AE0611DC8B2FEF7F3FE28B92046FDF7E6
:1057C00001FD2046FDF78EFC601CC4B2052CDDDB1C
:1057D00000BFD2E78E010020391F0020251F0020C6
:1057E00010B5002400BF05E00021204601F0ACFE0A
:1057F000601CC4B2072CF7DB10BD000010B50120FF
:105800000249087002A0FEF7FFFA10BDEE01002069
:10581000626F7820737065656420646562756720C7
:105820006F70656E20737563636573730D0A000096
:105830002DE9F047BEB005460026B0460024A2463A
:10584000A146EE884FF6FF7000EA06262889064337
:10585000B5F80A804FF6FF7000EA0828A88940EAE8
:105860000808052E02DD3EB0BDE8F087042000EBFD
:105870004601A81D30F811704FF6FF7000EA0727A7
:10588000052000EB4601A81D30F811000743FF2258
:1058900005213BA8FAF77AFC002476E00120A0401D
:1058A00000EA080000286AD00AF1010000F0FF0AAF
:1058B000B24500DD6BE009F10400142190FBF1F228
:1058C00001FB1201A81D30F811003BA921F81400BA
:1058D0003BA830F814004FF6FF7101EA00203BA905
:1058E00021F8140009F10500142190FBF1F201FBED
:1058F0001201A81D30F811003BA931F8141008431B
:105900003BA921F8140009F1020000F0FF093BA8AF
:1059100030F81400B0F57A7F14DDFEF705FF28B1EA
:1059200055A0FEF771FA0A20FEF708FB0120ADF83A
:1059300024000220ADF82600022209A9002000F070
:10594000D7FB90E72046FEF751FCE0B1FEF7ECFEF6
:1059500050B1224650A122A8FCF730F922A8FEF748
:1059600053FA0A20FEF7EAFA0120ADF82400ADF858
:105970002600022209A9002000F0BAFB73E7FF20ED
:105980003BA921F81400601CC4B2052C86DB00BFC3
:10599000F8B28DF8000000243BE03BA830F814007A
:1059A000FF280BD100210DF1010000F81410012097
:1059B00000EB44020DF10100815428E001210DF1BA
:1059C000010000F8141001EB440281543BA830F8A8
:1059D0001410620003A820F812103BA830F814102D
:1059E000012000EB440203A820F81210FEF79CFEF1
:1059F00068B13BA830F8143022462EA122A8FCF74B
:105A0000DDF822A8FEF700FA0A20FEF797FA601CDC
:105A1000C4B2052CC1DB0FB1012000E000208DF8DD
:105A20002000FEF781FE80B19DF82000012806D1FC
:105A300028A0FEF7E9F90A20FEF780FA05E02AA07F
:105A4000FEF7E2F90A20FEF779FA6846FDF758FCFE
:105A5000FEF76AFE28B12AA0FEF7D6F90A20FEF763
:105A60006DFA0020ADF82400ADF82600022209A945
:105A700000F03EFB00BFF6E674656D702065727243
:105A80006F72207072616D6574657220746F6F2023
:105A90006C617267650D0A00626F78202564206E64
:105AA0006F7420636C6F736564206572726F72210E
:105AB000200D0A0073657420256420726F61647381
:105AC000206173202564202F3130206475200D0A59
:105AD000000000006E656564206368616E67652084
